:020000040800F2
:1000000000200020D5390008813900088739000810
:1000100000000000000000000000000000000000E0
:100020000000000000000000000000008D39000802
:10003000000000000000000097390008A139000806
:10004000253A000800000000253A0008253A00087B
:10005000253A0008253A0008253A0008253A000804
:1000600000000000253A0008253A0008253A00085B
:10007000B1390008253A0008253A000800000000C0
:10008000253A00080000000000000000253A0008A2
:1000900000000000253A0008253A0008253A00082B
:1000A000253A0008253A0008253A0008253A0008B4
:0800B000253A000800000000E1
:1000B80010B5064C2378002B07D1054B002B02D036
:1000C800044800E000BF0123237010BD1000002089
:1000D8000000000070580008044B10B5002B03D036
:1000E8000349044800E000BF10BDC04600000000FE
:1000F8001400002070580008002243088B4274D373
:1001080003098B425FD3030A8B4244D3030B8B4210
:1001180028D3030C8B420DD3FF22090212BA030C19
:100128008B4202D31212090265D0030B8B4219D3FA
:1001380000E0090AC30B8B4201D3CB03C01A52411A
:10014800830B8B4201D38B03C01A5241430B8B4262
:1001580001D34B03C01A5241030B8B4201D30B034B
:10016800C01A5241C30A8B4201D3CB02C01A524172
:10017800830A8B4201D38B02C01A5241430A8B4235
:1001880001D34B02C01A5241030A8B4201D30B021E
:10019800C01A5241CDD2C3098B4201D3CB01C01A38
:1001A800524183098B4201D38B01C01A5241430942
:1001B8008B4201D34B01C01A524103098B4201D330
:1001C8000B01C01A5241C3088B4201D3CB00C01A9D
:1001D800524183088B4201D38B00C01A5241430815
:1001E8008B4201D34B00C01A5241411A00D201463A
:1001F800524110467047FFE701B5002000F006F8AD
:1002080002BDC0460029F7D076E770477047C04660
:100218009E2110B5C905041C01F0C2FD002803D1B8
:10022800201C00F0D3FD10BD9E21201CC90500F044
:100238002DFC00F0CBFD80231B069C466044F2E7B2
:1002480070B500220C4B04000D0001F06FFD002872
:1002580004D12000290001F0B7FC70BD064B002234
:100268002000290001F02EF901F0AEFC80231B06C6
:100278009C466044F1E7C0460000E041F8B54746B7
:10028800CE464A0243024500C40F500A8046480041
:100298005B0A000E9209944680B51E008146020052
:1002A8002D0EDF00C90F8C4224D0281A00280EDD3D
:1002B800002A3ED16246002A00D1FDE0421E0128F4
:1002C80000D137E1FF2800D1A9E0100039E000286B
:1002D80063D04B46521B002D00D0E0E0002F00D128
:1002E800CEE0531E012A00D155E1FF2A00D194E047
:1002F8001A00D9E02A1A002A00DC99E0002862D006
:10030800FF2D00D18BE080236146DB0419438C4626
:100318001B2A00DCD2E00123DB195A016AD501351A
:10032800FF2D5BD00122A3491A405B080B40134301
:100338001CE0FF2D00D172E080236246DB041A43E3
:1003480094461B2800DC90E00123FB1A5A0151D582
:100358009B019E09300001F02DFD330005388340D4
:10036800854200DC75E0944A2D1A13405A0704D0E0
:100378000F221A40042A00D004335A013CD5681CC5
:10038800FE2D2BD09B015E0AC0B2C0053043E407A6
:100398002043C0BCB946B046F8BDFE206A1C1042D6
:1003A80072D1002D00D0AEE0002F00D1ECE0634602
:1003B8000020002BE9D0FB1A5A0100D4F3E0634671
:1003C8000C00DB1BD2E7614600295BD0511E012AD5
:1003D80000D1A7E0FF2A22D00A0099E7FF200026D3
:1003E800D3E7FE216A1C114273D0FF2AF6D015000C
:1003F80067447B085A07BBD1DB08FF2D0FD05B028F
:100408005E0AE8B2C1E76246002A08D08022D20319
:10041800134204D04046104201D10C004346002B41
:10042800DCD08026F6031E437602FF20760AACE76E
:10043800002AD6D0421B002D5CD0FF28EED08023A6
:10044800DB041F431B2A00DC82E001234D46634482
:1004580063E72022401B0130121A19009340C14063
:100468005A1E934100250B4380E7202361461B1A3F
:10047800994062460B00C240591E8B41134364E702
:100488000C0043461500B8E76346FE1A730145D4CD
:10049800002E00D05EE700240020002675E7FF2B21
:1004A800BBD08023DB041F431B2A47DD01236246A0
:1004B8000C004D46D31A49E705009EE76146202304
:1004C800D1409B1A62469A4013005A1E93410B432F
:1004D80022E7002D46D1002F62D063460020002B72
:1004E80000D152E73B0063445A0183D5324A0135B3
:1004F80013407FE7002FC4D0531E012A12D0FF2AD1
:100508008CD01A009EE7002F00D07CE76346002BB2
:1005180083D180260024FF20F60336E763460C00CB
:10052800DE1B17E73B00634401255A0100D461E74D
:100538000225F7E663460125FB1A07E720239B1AE5
:1005480038009F403B00D0405A1E93410343AEE71A
:1005580020239B1A39009F403B00D1405A1E9341EB
:100568000B4373E7002F00D158E76246002A00D1F9
:1005780055E78022D203134200D150E74146114289
:1005880000D04CE743464AE76346002B83D00C0073
:1005980046460020F9E663460C00DB1B0135D5E62C
:1005A80046460020F1E6002B00D023E70024002671
:1005B800EBE6C046FFFFFF7DFFFFFFFBF0B54F46B0
:1005C8004646D6464502C0B547000C1C6D0A3F0E8C
:1005D800C60F002F00D16FE0FF2F00D174E0002379
:1005E800802299469A46ED00D20415437F3F630264
:1005F8005B0A984663001B0EE40F002B4DD0FF2BBF
:1006080045D042468021D200C904114388460022C1
:100618007F3B3100FF1A4B466140C9B20F2B00D90E
:10062800B8E070489B00C3589F46002398462600B0
:10063800454692465346022B00D18DE0032B00D14C
:10064800A1E0012B18D03B007F33002B6DDD6A073A
:1006580004D00F222A40042A00D004352A0103D5E9
:10066800614B1D403B008033FE2B00DD74E0AA0186
:10067800520AD8B202E00E0000200022C005F60798
:1006880010433043E0BCBA46B146A846F0BD4346E5
:10069800002B3FD10222FF3F03E04346002B2DD120
:1006A800012231004B466140C9B213430F2B38D8A1
:1006B8004E489B00C3589F46002D13D104239946EA
:1006C800033B00279A4692E7002D05D10823994657
:1006D800063BFF279A468AE70C239946093BFF27E2
:1006E8009A4684E7280001F065FB7627431F9D4062
:1006F80000237F4299469A463F1A78E7404601F020
:1007080059FB4246431F9A4076235B4290461B1A88
:1007180000227EE703234A461A439146FC3303220C
:1007280077E70E00FF200022A8E70122D31A1B2B2F
:10073800A2DC9E372A00BD40DA406B1E9D4115435E
:100748006A0704D00F222A40042A00D004356A011F
:1007580044D50120002291E7FF2000228EE7802265
:100768000026FF20D20389E7002398468022D2037F
:10077800154208D04346134205D11A4352022600B7
:10078800FF20520A7AE78022D2032A435202FF202E
:10079800520A73E742466B015501AB421AD21B203D
:1007A8000022013F01261C0052005B00002C01DBE7
:1007B8009D4201D85B1B324301380028F3D1581EF3
:1007C800834113431D003B007F330E00002B00DDE7
:1007D8003DE7AAE71A2001225B1BE3E7AA010020F4
:1007E800520A4BE7A0580008FFFFFFF7E05800083F
:1007F80043025B0AF0B54F4646469946D646C30FB4
:1008080045009846C0B54B460F1C2D0E00D1CBE0D5
:10081800FF2D00D1CFE08022DB00D2041A43002351
:10082800914600269A467F3D7C027B00640A1B0E97
:10083800FF0F002B00D1A9E0FF2B11D08022E4008C
:10084800D204144342467F3B5B197A400020D2B25F
:100858005D1C0A2E13DD3A000B2E47D047463FE0B9
:100868002B00FF33002C1ED10222164342460135CD
:100878007A40D2B2FF350A2E00DDE4E00220022ED3
:100888001CDC013E012E42D802283DD0012866D149
:1008980000200021C0050843D2071043E0BCBA4637
:1008A800B146A846F0BD03221643424601357A40B8
:1008B800D2B2FF350A2E00DDE4E003200121B14069
:1008C800A626F60031420AD19026B600314216D14A
:1008D800B93EFF3E0E421AD0A146824600E01700FC
:1008E80053463A00022B0FD04C4650460328CDD130
:1008F8008021C90321434902FF20490ACAE7802110
:100908000022FF20C903C5E7FF200021C2E7200C11
:1009180049462404240C27000E0C0904090C7443CE
:100928004F4346434843390C001909188C4203D9F0
:1009380080204002844666443F0408043F0CC019E6
:100948008401671EBC41090C800E89190443890182
:100958000C43090171D5012361081C400C432B008D
:100968007F33002B51DD610704D00F21214004297A
:1009780000D00434210103D5434B1C402B008033A5
:10098800FE2BC1DCA101490AD8B283E7002C2CD187
:10099800012342461E432B007A400120D2B25D1C3F
:1009A8000A2E00DD57E76AE7002B10D10123042641
:1009B80000259A4638E7002B04D102230826FF2594
:1009C8009A4631E703230C26FF259A462CE748462A
:1009D80001F0F0F94A46431F76259A4000236D42FC
:1009E800914600269A462D1A1EE7200001F0E2F9EA
:1009F8004246431F9C402B1A763B7A400020D2B2D5
:100A08005D1C0A2E00DD26E739E70121CB1A1B2BD6
:100A180000DD3DE79E352100AC40D940631E9C4176
:100A280021434B0704D00F230B40042B00D0043183
:100A38004B0104D5012000212CE71D008FE7890117
:100A48000020490A26E702230F2E0CD180214B46AD
:100A5800C9030B420DD00C420BD1214349023A0085
:100A6800FF20490A16E70B2E00D0F7E6A1469A4662
:100A780036E780214B46C903194349024246FF2005
:100A8800490A07E70323DFE7FFFFFFF7F0B5C6468C
:100A980043025B0A4500DA00C40F48024F0094463F
:100AA800420A1E00904600B52D0E3F0EC90F800960
:100AB800FF2F59D0012251408C4239D0EA1B002A1D
:100AC80058DD002F68D0FF2D00D1D1E08023DB0452
:100AD80018431B2A00DCE3E001236246D31A5A01BB
:100AE80000D4ACE09B019E09300001F063F93300AB
:100AF80005388340854200DCC6E0B24A2D1A13400F
:100B08005A0704D00F221A40042A00D004335A018D
:100B180000D497E06A1CFE2D00D184E09B015E0A98
:100B2800D2B2D0053043E407204380BCB846F0BDBC
:100B3800EA1B002A41DD002F6BD0FF2D00D197E082
:100B48008023DB0418431B2A00DCCCE00123634428
:100B58005A0174D50135FF2D65D001229A491A40F2
:100B68005B080B401343CBE700281FD08C4222D0F0
:100B78002A00FF3A002A35D07A1B002D00D099E0D0
:100B88006346002B00D1DDE0531E012A00D105E1A8
:100B9800FF2A6BD01A0094E0002873D0511E012A56
:100BA80000D1DFE0FF2A63D00A0092E7012251401A
:100BB800A14200D082E72A00FF3A002A36D07A1BE9
:100BC800002D00D1AAE0FF2F00D1DAE08023614692
:100BD800DB0419438C461B2A00DCD4E001233D00CA
:100BE8001B18B5E7FE276A1C174271D1002D00D0EB
:100BF8009EE06346002B00D1D5E00022002800D1FA
:100C08008FE71B1A5E0100D4D6E063460C00C31AB6
:100C180076E7002836D0511E012A00D19AE0FF2A33
:100C280026D00A008FE7FF2200267AE7FE276A1CF3
:100C3800174262D0FF2AF6D01500604443085A07CD
:100C480000D05FE7DB08FF2D12D05B025E0AEAB234
:100C580067E76246002A00D193E0002808D0802286
:100C6800D203134204D04046104201D10C0043463F
:100C7800002BD8D08026F6031E437602FF22760A80
:100C88004FE743461500DEE72022401B0130121AC9
:100C980019009340C1405A1E934100250B432FE78A
:100CA80020239B1A010098400300D1405A1E93410B
:100CB8000B4312E7FF2FD9D080236446DB041C4383
:100CC800A4461B2A52DD01230C003D00C31A06E787
:100CD80063461E1A730139D4002E00D004E700249D
:100CE800002200261DE720239B1A010098400300DC
:100CF800D1405A1E93410B4329E7002DA9D16346E1
:100D0800002B56D00022002800D10AE703006344D4
:100D18005A0194D52B4A0135134090E76346002BBE
:100D2800AFD0531E012A15D0FF2A2AD01A0052E745
:100D38006246002A91D1002898D180260024FF22FB
:100D4800F603EEE60C00434615007CE763460C000C
:100D5800C61AC9E60300634401255A0100D46EE7A8
:100D68000225FAE6634601251B1AB8E664462023E5
:100D7800D4409B1A62469A4013005A1E934123435B
:100D8800A2E7434674E761462023D1409B1A624696
:100D98009A4013005A1E93410B4320E763460C0008
:100DA8000125C31A9BE6002899D00C00464600226C
:100DB800B7E646460022B4E6002B00D03FE7002401
:100DC8000026AEE6FFFFFFFBFFFFFF7D410242006A
:100DD800C30F490A0020120E7E2A03DD9D2A02DD78
:100DE800094A98187047802000040143952A07DCB7
:100DF8009620821AD1404842002BF3D10800F1E72F
:100E0800963A9140F7E7C046FFFFFF7F70B500288C
:100E180013D0C317C5185D40C40F280000F0CAFFDF
:100E28009E2301001B1A962B0FDC082831D00839A5
:100E38008D406D026D0AD8B202E000240020002522
:100E4800C0052843E407204370BD992B0CDD05221B
:100E5800121A2800D040020008001B3085402800E4
:100E6800451EA84102431500052916DC2A000F4833
:100E780002406E0709D00F263540042D05D00432F4
:100E8800550102D59F2302405B1A9201550AD8B238
:100E9800D6E76D0296206D0AD2E74A1F95402A00D0
:100EA800024802406E07F0D0E5E7C046FFFFFFFBAF
:100EB80070B5041E0ED000F07DFF9E2301001B1AA2
:100EC800962B0CDC08282CD008398C406402640A64
:100ED800D8B201E000200024C005204370BD992B42
:100EE8000ADD020020001B3290400200501E8241A1
:100EF8000520401AC4401443052916DC22000F4877
:100F08000240650709D00F252C40042C05D0043277
:100F1800540102D59F2302405B1A9201540AD8B2A9
:100F2800DAE764029620640AD6E74A1F9440220052
:100F3800024802406507F0D0E5E7C046FFFFFFFB27
:100F4800F0B54546DE4657464E46E0B51F000B0352
:100F58001B0B9B464D00CB0F04009146984687B06B
:100F68006D0D00D1CDE1CE4B9D4200D1E9E15A464D
:100F7800430FD2001343802212041A43C3009A4637
:100F8800C84B93469C4600230026654400933C03C7
:100F98007B004846240B5B0DFF0F002B00D189E135
:100FA800BF4A934219D0420FE4002243802424040C
:100FB8001443BC4A00219446424663445B1901939A
:100FC800019B7A400133C000D2B202930A2E1CDD85
:100FD8003A000B2E5ED0474656E04946B04B2143B7
:100FE800EB18019300292AD18020022200012B004E
:100FF80084461643424663447A40D2B202930A2E8C
:1010080000DD31E2002000240221022E26DC013E10
:10101800012E52D802294CD0012900D018E1002312
:10102800002400251B052343D20713432800190079
:1010380007B0F0BCBB46B246A946A046F0BD802129
:10104800032209012B008C461643424663447A402A
:10105800D2B202930A2E00DD28E203210125B54011
:10106800AC46A6266346F600354033420BD190269F
:10107800B600334218D1B93EFF3E1E421DD0A346EA
:101088008246009100E0170000993A00022910D02A
:101098005C4650460329BFD180231B031C4324030D
:1010A80005007F4B240BBDE7802400227C4B2403E2
:1010B800B8E7002400257A4BB4E753461E04360CE3
:1010C8001F0C3300010C0004000C43439846030036
:1010D8007B43994633004B439C4643460D001B0C0B
:1010E8009A467D43CC44D4440095E14504D98023F5
:1010F8005B0299464D44009563461B0C1D006346F0
:101108001B049C4643461B041B0C984663464344F9
:101118000393230C984633002404240C63439C4611
:1011280023007B43994643465E435F434E446346F0
:10113800B2461E0C5644B14503D980235B0299463A
:101148004F44330C99463B004B4405936346AC46E9
:101158001F043F0C3604F619B444634604935B46F7
:101168001B0C9C465B461F043F0C3B0043439946BF
:10117800634643439A464B4660461B0C9B4648438E
:101188007943514459448A4503D980235B029A46DE
:1011980050440B0C9A464B461B041B0C99463B00CB
:1011A8006343090445464944994663465C436B4397
:1011B8009C464B461B0C98466F433F194744504486
:1011C800BC4203D980235B029846C444049B009D1B
:1011D80098464544B542B641734298464B461E046C
:1011E800059B3C049946360CA4194C44A1468346F9
:1011F8006E18C1448E428941CB445D4649426D1800
:101208009C42A441C1459B41834580418D4289410F
:101218005B4264421C434042039B494201437002C3
:101228003F0C1843E419471EB84164186444F60D8E
:1012380061023043EC0D6E020C433043C90100D407
:10124800F1E00121430801400B43E007184364081B
:101258001549029B8C466344002B00DC97E041074C
:1012680009D00F210140042905D0011D8142804188
:10127800404224180800E10106D58021C9008C46A7
:101288000A4B1C40029B634409498B4200DD10E76E
:101298006107C50864025B050D43240B5B0DC1E6BD
:1012A800FF07000001FCFFFFFF030000FFFFFFFE38
:1012B800FE0700004B46234359D0002C00D1A3E081
:1012C800200000F077FD010003000B391D22521A9F
:1012D80049461800D1404A460838824084401000E8
:1012E8000C43744AEB1A9446424663440193019BAB
:1012F8007A4001330021D2B202930A2E00DD67E65C
:1013080083E65B4603439A462AD05B46002B6DD0A2
:10131800584600F04FFD010003000B391D22521AF8
:10132800210018005D46D140083885400A008440F5
:101338002A439346A2465F4D0026ED1A00230093E8
:1013480025E65B4603439A4605D100239B460233B4
:10135800082600931BE6032382460C26009316E614
:1013680000239B4601330426002500930FE64246DE
:10137800013301951E43019B7A400133002400206C
:101388000121D2B202930A2E00DD21E63DE60121B9
:10139800C91A382900DD42E61F2947DD1F26250026
:1013A8007642F31ADD402B00202905D04249029DE0
:1013B8008C466544AC402043411E884118430723AE
:1013C8001D000024054003424AD00F230024034097
:1013D800042B42D0031D8342804140422418180048
:1013E80023023AD50123002400251BE600F0E2FC85
:1013F80001000300153120331C298FDD0838002235
:1014080084409246A34696E700F0D4FC010003000E
:10141800153120331C2900DC58E702004C46083AF5
:10142800002094405DE7019B029311E7234B2600BF
:101438009C460300029DCB406544AE401E4303001A
:10144800AB40581E834130001843CC404307C7D0F7
:101458000F230340042BBDD1C2E765076402240BA8
:10146800C00800230543DDE5002502230F2E0CD11B
:1014780080245B46240323420ED021420CD10C4326
:1014880024033A000E4B240BCCE50B2E00D0A2E52A
:101498008B46AA460093F7E580245B4624031C4349
:1014A800240342465546064B240BBBE54D46210016
:1014B8000323DBE70DFCFFFF3E0400001E040000D1
:1014C800FF070000F0B557464E464546DE46E0B5F4
:1014D8000D000400190010002B035B0A620F1A4369
:1014E800E3000C03640A470F2743D04C6E00914673
:1014F80083B04A00C0009846A246760DED0F520D03
:10150800C90F0190A24200D1B9E0012461408B4685
:101518008D4200D18DE0B41AA446002C00DCB7E05F
:10152800002A00D1CBE0C14A964200D186E1802250
:10153800120417436246382A00DDA4E11F2A00DDA1
:101548001DE2614620223C00521A0100904094405E
:10155800421E90416246A0466446D7404A46E14052
:101568004446D21B91460C4304431C1BA3429241A0
:101578004B4652429B1A9A4653461B0200D42BE113
:1015880053465A02530A9A465346002B00D166E145
:10159800504600F00FFC0300083B20222000D21A1E
:1015A8005146D040994002009C400A439E4200DDCB
:1015B80064E19B1B591C1F2900DDFEE0202310005D
:1015C80026005B1A9C409840CE40CA40631E9C414E
:1015D8003043924600260443630709D00F23234073
:1015E800042B05D0231DA342A4416442A2441C003D
:1015F80053461B0200D4F2E08C4B01369E4200D1C8
:101608000FE153468A49E4080B4019005B0723435E
:1016180072054C02240B520D12052243ED072A4392
:101628001800110003B0F0BCBB46B246A946A0465C
:10163800F0BDB41AA446002C59DD002A00D1B0E050
:10164800564500D1FAE08022120417436246382A30
:1016580000DDD4E01F2A00DCC0E13900203AD14087
:101668006246202A06D064464022121B3C00944061
:1016780004430194019C621E94410C43C3E03C0066
:1016880004432BD08B468D422ED06A4CA446B444DA
:101698006446002C5FD0941BA446002E00D020E1A5
:1016A8004C461C4300D1C7E161464C1E012900D1BC
:1016B80023E25E4DAC4500D1D8E1A4461AE13A00D8
:1016C800024300D1E4E02200013A012C00D1C3E139
:1016D80056498C4200D1B1E094462BE70124614081
:1016E8008B468D4200D016E752498C46B444644676
:1016F800002C00D1D3E0911B8C46002E00D15EE176
:101708004A498A4200D1BEE180214C4609040C4373
:10171800A1466146382900DDBAE11F2900DD27E22C
:101728002024641A4946A1401E0088466146A34009
:10173800CE4041465C1EA341314319430C00634629
:101748004946D9407F18241884429B415B429A46F7
:101758001600BA445DE0384C721C224200D0DFE02B
:101768004A461A43002E00D05CE1002A00D1CFE19E
:101778003A00024300D17FE11C1A4A46A34289413C
:10178800D21B4942521A9246120200D40AE2C41AE3
:10179800A04280414B464042FF1A3B1A9A465D469A
:1017A8001AE73A00024373D02200013A012C00D113
:1017B800CBE0544542D0944648E710001F3BD84040
:1017C800202903D040235B1A9A401443631E9C418E
:1017D800002300269A460443630700D0FEE65246DB
:1017E800E308520713435246B446D2080F498C45C2
:1017F8002AD01203140B62465205520D0CE73C0026
:101808000443621E9441E4189C42924152424A4465
:10181800924653461B02DFD5044B01369E4200D048
:10182800A0E0320000240023F6E6C046FF070000CF
:10183800FFFF7FFF01F8FFFFFE070000DB084A46B5
:10184800520713434A46D2081900114300D1B5E1A3
:101858008024240314432403D54A240BDCE6200007
:1018680000F0A8FA030018331F2B00DC95E62200CD
:101878000838824000249E4200DC9AE6F61ACD4BD6
:101888001A409246A8E63C000443621E94416CE666
:101898004A46DB08520713434A46D208A6E7C64C15
:1018A800721C224200D0ACE04A461A43002E00D0F7
:1018B80005E1002A00D156E13A00024300D1DBE0FD
:1018C8001C189C429B414F44BA465B429A4453467B
:1018D8001B0200D480E75246B64B01261A409246B6
:1018E8007AE7B34CA24200D1C0E080244D462404DC
:1018F8002543A9466446382C53DC61461F2C00DD7D
:10190800CDE020251E002D1B4C46AB40AC40CE4000
:101918005D1EAB41344323434C46CC403F1B45E05E
:101928004A461C1AD11BA3429241524292460A00CF
:101938005146521A9246120200D583E05346234379
:1019480000D021E60022002553E71C189C429B4149
:101958004F44BA465B429A44534601261B0200D4C0
:101968003AE702265246934B01211A4013002140C0
:1019780062080A43DC075B089A4614432CE63900E0
:10198800203AD1406246202A06D064464022121BE3
:101998003C00944004430194019C621E94410C4312
:1019A800E3E5494619430B005C1EA341C41AA04253
:1019B8009B415B42FB1A9A465D461600DCE54946A8
:1019C800194300D1AEE0614664460139012C00D1CB
:1019D800E0E0774CA44556D08C469AE66146202232
:1019E8003C00521A944001009040A0466446421EB2
:1019F80090416246E1404446D7400C430443B94411
:101A080001E76B498A4200D10CE7181898429B41BC
:101A18004F445B42FB18DC0740085B089A461600F7
:101A28000443D9E6002A00D081E03B0003431DD1DE
:101A38008022002512030BE7C0087B075D4603439D
:101A4800FA08D3E6C41AA04280414B464042FF1A26
:101A58003B1A9A465D4697E51C1A4A46A3429B41A3
:101A6800D71B5B42FB1A9A46012685E5C0087B070F
:101A78005D460343FA08E7E64A46DB085207134384
:101A88004A46D208B5E6C0087B070343FA08DBE6F6
:101A9800494619430B00591E8B411C0053E64D461D
:101AA800203CE540202905D04024641A4946A1403D
:101AB8000B43984643465C1EA3412B4376E7002A16
:101AC800E1D03A00DB08024300D1B8E64A465207A3
:101AD800802413434A462403D208224207D0FE0832
:101AE800264204D15D463200C3087F073B43590FA5
:101AF800DB004907DB080B43A6E6C41AA042804175
:101B08004B464042FF1A3B1A9A465D46012633E58A
:101B18003B00034300D115E7C0087B075D4603433C
:101B2800FA0866E6C0087B070343FA085EE63A004F
:101B3800DB08024300D182E64A4652078024134359
:101B48004A462403D208224207D0FE08264204D17E
:101B58005D463200C3087F073B43590FDB00DB08B3
:101B680049070B4370E6C0087B070343FA0840E6C1
:101B78004C462039CC406146202906D06646402193
:101B8800891B4E468E40334398464346591E8B4127
:101B98001C43D8E51C18844280414F44BA46404251
:101BA8008244D9E65346234300D1CBE614E6C04627
:101BB800FF070000FFFF7FFFFE0700000023014A28
:101BC8001C0029E5FF0700000A0030B5134C53003C
:101BD80009030500090B00205B0DD20FA34204DDA9
:101BE8000F48834202DD0F4BD01830BD80204003E0
:101BF80001430D48C01A1F2808DD0C48C31AD940F4
:101C08000B005842002AF0D11800EEE7084CC540F6
:101C1800A446634499400B002B43F2E7FE030000FF
:101C28001D040000FFFFFF7F3304000013040000C1
:101C3800EDFBFFFF70B542024300C40FFE201B0EF0
:101C4800591C550A08420CD0E02189008C466D07C2
:101C5800120B63441B051343E407234328001900B0
:101C680070BD002B14D1002D1BD0280000F0A2F865
:101C78000A281CDC0B232A001B1ADA400300153340
:101C88009D400E4B12031B1A5B05120B5B0DE1E71F
:101C9800002D09D0130B802212031A436D07084B3D
:101CA800D8E700230022D5E70022054BD2E703003E
:101CB8002A000B3B9A400025E3E7C0468903000051
:101CC800FF0700008446100062468C4619006346F0
:101CD80000E0C0461FB500F0E3F9002801D4002158
:101CE800C8421FBD10B500F033F94042013010BDA5
:101CF80010B500F0D5F9002801DB002010BD012047
:101D080010BDC04610B500F0CBF9002801DD002059
:101D180010BD012010BDC04610B500F05BF90028C9
:101D280001DC002010BD012010BDC04610B500F038
:101D380051F9002801DA002010BD012010BDC0466D
:101D4800844608006146FFE71FB500F0BDF800288B
:101D580001D40021C8421FBD10B500F049F8404227
:101D6800013010BD10B500F0AFF8002801DB0020ED
:101D780010BD012010BDC04610B500F0A5F8002820
:101D880001DD002010BD012010BDC04610B500F0D7
:101D980055F8002801DC002010BD012010BDC04608
:101DA80010B500F04BF8002801DA002010BD012022
:101DB80010BDC0461C2101231B04984201D3000C0E
:101DC80010391B0A984201D3000A08391B099842A6
:101DD80001D30009043902A2105C40187047C046BC
:101DE80004030202010101010000000000000000DC
:101DF80070B5420045024E024C00C30F6D0A012027
:101E0800120E760A240EC90FFF2A06D0FF2C03D023
:101E1800A24201D1B54206D070BD002DFCD1FF2CE5
:101E2800FAD1002EF8D18B4206D00120002AF3D136
:101E38002800431E9841EFE70020EDE770B5420007
:101E480045024E024C00C30F6D0A120E760A240E8C
:101E5800C80FFF2A1BD0FF2C0ED0002A1BD1002C44
:101E680001D1002E1CD0002D0CD083421CD00221A1
:101E7800581E0840013870BD002E22D1002AF4D126
:101E8800002DF2D10028F6D101204042F3E7002DC1
:101E980017D1FF2CF0D0002CE7D1002EE5D1E6E7D2
:101EA8000020002DE7D0E2E7A24205DCEADBB542DC
:101EB80002D8E7D30020DEE743425841400001380A
:101EC800D9E702204042D6E770B5420045024E02EB
:101ED8004C00C30F6D0A120E760A240EC80FFF2A93
:101EE8000BD0FF2C0DD0002A1FD1002C16D1002EAC
:101EF80014D10020002D10D009E0002D0CD1FF2CAA
:101F080013D1002E08D1002A08D0834212D0022112
:101F1800581E0840013800E0022070BD002DF4D1A1
:101F28000028FAD101204042F7E7002CEDD1002E1D
:101F3800EBD1ECE7A24205DCF2DBB54202D8EFD3E5
:101F48000020EAE74342584140000138E5E7C0462F
:101F5800F0B54E464546DE4657469046E0B5170072
:101F68001A03120B0500844619480E034C009146CB
:101F78005A00DB0F9B46360B640DC90F520D844285
:101F880019D0824210D0012094420ED14E450CD176
:101F98000120C44509D1594517D0002C05D130007E
:101FA8002843431E984100E00120F0BCBB46B246DE
:101FB800A946A046F0BD330001202B43F5D1A2422B
:101FC800F3D14B463B43F0D1E2E70020EDE7C046B2
:101FD800FF070000F0B54746CE460400180016007B
:101FE8001B031B0B2D4D4A00994680B543000F0378
:101FF800A446B0463F0B520DC90F5B0DC00FAA4255
:1020080021D0AB4213D0002A22D13C43002B02D16D
:102018004D462E4322D0002C10D0814222D00220DF
:10202800013908400138C0BCB946B046F0BD4D463C
:102038002E4329D1002AF0D13C43EED10028F2D119
:1020480001204042EFE73D0025431DD19342EED0E9
:10205800002BE2D14C462643DFD1E0E70020002CDC
:10206800E1D0DCE79A420ADCE8DB4F45D7D80ED04E
:1020780000204F45D7D20029E2D00800D3E74342D9
:10208800584140000138CEE702204042CBE7C44522
:10209800C5D80020C445C6D2EDE7C046FF070000FA
:1020A800F0B54746CE460400180016001B031B0B6C
:1020B8002C4D4A00994680B543000F03A446B0460C
:1020C8003F0B520DC90F5B0DC00FAA420DD0AB429A
:1020D80010D0002A27D13C43002B11D14D462E4366
:1020E8000ED10020002C15D00EE03D00254310D164
:1020F800934218D14D462E430BD1002A02D13C43BE
:10210800002C0BD0814214D002200139084001383C
:1021180000E00220C0BCB946B046F0BD0028F9D1A5
:1021280001204042F6E7002BECD14C462643E9D18A
:10213800EAE79A4204DD4342584140000138E9E7A2
:102148009A42EBDB4F45DFD806D000204F45E1D25D
:102158000029E5D00800DDE7C445D5D80020C445EE
:10216800D8D2F5E7FF07000080B500AF01F058FCB2
:1021780000F07EF800F030F900F0C2F8394B180092
:1021880001F0E2FF384B180001F0D0FC374B1A0081
:102198003C21022000F0B4FAFA23DB0019000220E7
:1021A80001F0EEFAFA23DB001A001E21022001F0EA
:1021B800A3F8FA23DB001900022001F0E1FA2B4B07
:1021C8001A001E21022000F009FFFA23DB00190083
:1021D800022001F0D5FAFA23DB001A00962102202A
:1021E80001F070F9FA23DB001900022001F0C8FAA7
:1021F8006421042000F0A2FEFA23DB00190002206B
:1022080001F0BEFA194B1A001E21022000F0AEFFA1
:10221800FA23DB001900022001F0B2FAFA23DB00EE
:102228001A009621012000F00FFDFA23DB001A00A6
:102238009621012000F09CFBFA23DB001A0096216E
:10224800012000F095FBFA23DB001A0096210120FB
:1022580000F0FAFCFA23DB001900022001F090FAE2
:1022680094E7C0462C000020DC050000C4090000EB
:1022780090B593B000AF14243B19180034231A000A
:10228800002103F0C5FA3B1D180010231A00002195
:1022980003F0BEFA80239B00180002F0DFFD3B1913
:1022A80002221A603B1980225200DA603B19002290
:1022B8001A613B1940225A613B190022DA613B1925
:1022C800180002F00BFE031E01D001F0DFFA3B1DDF
:1022D80007221A603B1D00225A603B1D00229A60AB
:1022E8003B1D0022DA603B1D0021180003F006F9AF
:1022F800031E01D001F0CAFAC046BD4613B090BD16
:1023080080B584B000AF3B1D18000C231A000021D3
:1023180003F07EFA2D4B2E4A1A602C4B8022D205F0
:102328005A602A4B00229A60284B0022DA60274B19
:1023380000221A61254B04225A61244B00221A7686
:10234800224B00225A76214B00229A761F4B0122FB
:10235800DA611E4B2022002199541C4B00225A623C
:102368001A4B00229A62194B2C2200219954174BC0
:1023780000221A63154B07225A63144B07229A63EB
:10238800124B3C2200219954104B0022DA640F4B67
:10239800180001F031FD031E01D001F077FA3B1D52
:1023A8000C4A1A603B1D00225A603B1D00229A60AD
:1023B8003A1D064B1100180002F072F8031E01D0F6
:1023C80001F064FAC046BD4604B080BD2C00002070
:1023D800002401400008002C90B589B000AF0C24FF
:1023E8003B19180014231A00002103F011FA394B85
:1023F8005A6B384B02210A435A63364B5B6B0222F5
:102408001340BB60BB68334B5A6B324B04210A4301
:102418005A63304B5B6B042213407B607B682D4B07
:102428005A6B2C4B01210A435A632A4B5B6B0122DE
:1024380013403B603B682849284B0022180002F0F3
:10244800EFFC2749274B0022180002F0E9FC264937
:10245800A023DB050022180002F0E2FC3B191E4A0B
:102468001A603B1911225A603B1900229A603B19E5
:102478000022DA603B19194A1900100002F06CFBBF
:102488003B19174A1A603B1911225A603B1900225E
:102498009A603B190022DA603B19124A19001000B1
:1024A80002F05AFB21007B180F4A1A607B18112290
:1024B8005A607B1800229A607B180022DA607A182A
:1024C800A023DB051100180002F046FBC046BD46FC
:1024D80009B090BD001002407F03000000040050C6
:1024E80040C0000000080050FF9F000080B582B087
:1024F80000AF78600E4B180001F09EFE03009AB200
:102508000C4B1A800B4B1B881800FEF7D1FC031CE0
:102518000949181CFEF752F8031C1A1C074B1A60CD
:10252800034B180001F010FEC046BD4602B080BD46
:102538002C0000209000002000C07F449400002060
:1025480080B500AF0F4B180001F076FE03009AB279
:102558000D4B1A800C4B1B881800FEF7A9FC031CB6
:102568000A49181CFEF72AF8031C1A1C084B1A60A3
:10257800044B180001F0E8FD054B1B68181CBD460C
:1025880080BDC0462C0000209000002000C07F4481
:102598009400002080B582B000AF0200FB1D1A70C5
:1025A800BB1D0A1C1A70FB1D1B78092B00D99CE067
:1025B8009A00504BD3181B689F46BB1D1A7880237E
:1025C8009B004D48190002F02BFCBB1D1A78A02374
:1025D800DB054021180002F023FC86E0BB1D1A78B9
:1025E8008023DB014548190002F01AFCBB1D1A784C
:1025F800A023DB058021180002F012FC75E0BB1D4A
:102608001A7880231B023D48190002F009FCBB1D03
:102618001B7839481A00012102F002FC65E0BB1D55
:102628001A78A023DB050121180002F0F9FBBB1D75
:102638001B7831481A00022102F0F2FB55E0BB1D5D
:102648001A78A023DB050221180002F0E9FBBB1D64
:102658001B7829481A00042102F0E2FB45E0BB1D63
:102668001A78A023DB050421180002F0D9FBBB1D52
:102678001A7880235900A023DB05180002F0D0FB4C
:1026880033E0BB1D1A78A023DB050821180002F0EF
:10269800C7FBBB1D1A7880239900A023DB0518000F
:1026A80002F0BEFB21E0BB1D1A78A023DB05102138
:1026B800180002F0B5FBBB1D1B7810481A0040211A
:1026C80002F0AEFB11E0BB1D1A78A023DB05202128
:1026D800180002F0A5FBBB1D1A788023D900A0239F
:1026E800DB05180002F09CFBC046C046BD4602B0A0
:1026F80080BDC04620590008000400500008005062
:10270800B0B584B000AF040008001100FB1D221C06
:102718001A703B1D021C1A80BB1C0A1C1A800F234E
:10272800FB1800221A7074E00E23FB1801221A709D
:1027380020E00E257B191B7801211800FFF72AFFDE
:102748003B1D1B881800FEF761FB041CFFF7F8FE11
:10275800031C191C201CFEF74BF8031C181CFDF762
:1027680057FD0300180001F0E1F97B191A787B196D
:1027780001321A702D4B1B780E22BA1812789A4221
:10278800D7D9BB1C1B881800FEF740FB041CFFF7B9
:10279800D7FE031C191C201CFEF72AF8031C181C62
:1027A800FDF736FD0300180001F0C0F90D23FB18F2
:1027B80001221A7020E00D257B191B7800211800D2
:1027C800FFF7E8FE3B1D1B881800FEF71FFB041CE3
:1027D800FFF7B6FE031C191C201CFEF709F8031CA2
:1027E800181CFDF715FD0300180001F09FF97B196F
:1027F8001A787B1901321A700C4B1B780D22BA1803
:1028080012789A42D7D90F217B181A787B1801328F
:102818001A700F23FA18FB1D12781B789A4283D37B
:10282800C046C046BD4604B0B0BDC046000000204A
:1028380080B584B000AF0200FB1D1A700F23FB188F
:1028480001221A701AE00F217A18FB1D12781B78E2
:102858009A4206D87B181B7801211800FFF79AFEC8
:1028680006E00F23FB181B7800211800FFF792FEE3
:102878000F217B181A787B1801321A70054B1B78C8
:102888000F22BA1812789A42DDD9C046C046BD4612
:1028980004B080BD0000002080B584B000AF020005
:1028A800FB1D1A700F23FB1801221A701AE00F2162
:1028B8007A18FB1D12781B789A4206D37B181B786E
:1028C80001211800FFF766FE06E00F23FB181B78AE
:1028D80000211800FFF75EFE0F217B181A787B187D
:1028E80001321A70054B1B780F22BA1812789A42D7
:1028F800DDD9C046C046BD4604B080BD00000020FA
:1029080080B584B000AF0200FB1D1A70BB1D0A1C05
:102918001A700F23FB18154A12781A701AE00F2143
:102928007A18FB1D12781B789A4206D17B181B78FF
:1029380001211800FFF72EFE06E00F23FB181B7875
:1029480000211800FFF726FE0F217B181A787B1844
:10295800013A1A700F23FA18BB1D12781B789A4295
:10296800DDD2C046C046BD4604B080BD0000002090
:10297800B0B584B000AF040008001100FB1D221C94
:102988001A703B1D021C1A80BB1C0A1C1A800F23DC
:10299800FB1800221A7048E10E23FB1801221A7056
:1029A8000D23FB1800221A70A64B1B780122134036
:1029B800DBB2002B00D098E0A24B1A7808217B18D4
:1029C80052081A700C23FB187A1812781A7030E023
:1029D8000C257B191B7801211800FFF7DBFD7A19FC
:1029E8000E243B1912781B78D318DBB2012118008A
:1029F800FFF7D0FD3B193A19127802321A703B1DC5
:102A08001B881800FEF702FA041CFFF799FD031C47
:102A1800191C201CFDF7ECFE031C181CFDF7F8FB25
:102A28000300180001F082F87B191A787B19013A23
:102A38001A700C23FB181B78002BC9D10E23FB1826
:102A480001221A70BB1C1B881800FEF7DFF9041C52
:102A5800FFF776FD031C191C201CFDF7C9FE031C9B
:102A6800181CFDF7D5FB0300180001F05FF80B23D5
:102A7800FB180822BA1812781A7030E00B257B1957
:102A88001B7800211800FFF785FD7A190E243B19E1
:102A980012781B78D318DBB200211800FFF77AFDF3
:102AA8003B193A19127802321A703B1D1B8818001C
:102AB800FEF7ACF9041CFFF743FD031C191C201C8E
:102AC800FDF796FE031C181CFDF7A2FB0300180077
:102AD80001F02CF87B191A787B19013A1A700B232C
:102AE800FB181B78002BC9D199E0564B1B785B0863
:102AF800DAB208217B1801321A700A23FB187A18F7
:102B080012781A7030E00A257B191B780121180009
:102B1800FFF740FD7A190D243B1912781B78D3185A
:102B2800DBB201211800FFF735FD3B193A1912787D
:102B380002321A703B1D1B881800FEF767F9041C47
:102B4800FFF7FEFC031C191C201CFDF751FE031C9B
:102B5800181CFDF75DFB0300180000F0E7FF7B1968
:102B68001A787B19013A1A700A23FB181B78002B74
:102B7800C9D10D23FB1800221A70BB1C1B88180032
:102B8800FEF744F9041CFFF7DBFC031C191C201C8E
:102B9800FDF72EFE031C181CFDF73AFB0300180076
:102BA80000F0C4FF0923FB180822BA1812781A701B
:102BB80030E009257B191B7800211800FFF7EAFC93
:102BC8007A190D243B1912781B78D318DBB200212F
:102BD8001800FFF7DFFC3B193A19127802321A7015
:102BE8003B1D1B881800FEF711F9041CFFF7A8FC11
:102BF800031C191C201CFDF7FBFD031C181CFDF70A
:102C080007FB0300180000F091FF7B191A787B1965
:102C1800013A1A700923FB181B78002BC9D10F2120
:102C28007B181A787B1801321A700F23FA18FB1DCB
:102C380012781B789A4200D2AEE6C046C046BD461E
:102C480004B0B0BD00000020B0B584B000AF0400EF
:102C580008001100FB1D221C1A703B1D021C1A8063
:102C6800BB1C0A1C1A800F23FB1800221A7056E19D
:102C7800B14B1B7801221340DBB2002B00D0A3E03C
:102C8800AD4B1A780923FB1852081A70AA4B1A7808
:102C98000E23FB18013A1A700D23FB1801221A7033
:102CA80030E00D257B191B7801211800FFF772FC15
:102CB8007A190E243B1912781B78D318DBB201213C
:102CC8001800FFF767FC3B193A191278023A1A7094
:102CD8003B1D1B881800FEF799F8041CFFF730FC11
:102CE800031C191C201CFDF783FD031C181CFDF791
:102CF8008FFA0300180000F019FF7B191A787B1966
:102D080001321A700D23FA180923FB1812781B7860
:102D18009A42C6D9884B1A780E23FB18013A1A70C2
:102D2800BB1C1B881800FEF771F8041CFFF708FC91
:102D3800031C191C201CFDF75BFD031C181CFDF768
:102D480067FA0300180000F0F1FE0C23FB180122BB
:102D58001A7030E00C257B191B7800211800FFF74A
:102D680019FC7A190E243B1912781B78D318DBB298
:102D780000211800FFF70EFC3B193A191278023AA5
:102D88001A703B1D1B881800FEF740F8041CFFF75B
:102D9800D7FB031C191C201CFDF72AFD031C181C5B
:102DA800FDF736FA0300180000F0C0FE7B191A7808
:102DB8007B1901321A700C23FA180923FB181278B0
:102DC8001B789A42C6D9A4E05B4B1B785B08DAB241
:102DD8000923FB1801321A70574B1A780E23FB1877
:102DE800013A1A700B23FB1801221A7030E00B25E8
:102DF8007B191B7801211800FFF7CCFB7A190E24E8
:102E08003B1912781B78D318DBB201211800FFF7A1
:102E1800C1FB3B193A191278023A1A703B1D1B88FC
:102E28001800FDF7F3FF041CFFF78AFB031C191CAD
:102E3800201CFDF7DDFC031C181CFDF7E9F9030055
:102E4800180000F073FE7B191A787B1901321A708A
:102E58000B23FA180923FB1812781B789A42C6D953
:102E6800354B1A780E23FB18013A1A70BB1C1B88C5
:102E78001800FDF7CBFF041CFFF762FB031C191CAD
:102E8800201CFDF7B5FC031C181CFDF7C1F9030055
:102E9800180000F04BFE0A23FB1801221A7030E0DC
:102EA8000A257B191B7800211800FFF773FB7A1994
:102EB8000E243B1912781B78D318DBB200211800B6
:102EC800FFF768FB3B193A191278023A1A703B1D52
:102ED8001B881800FDF79AFF041CFFF731FB031C41
:102EE800191C201CFDF784FC031C181CFDF790F925
:102EF8000300180000F01AFE7B191A787B190132BA
:102F08001A700A23FA180923FB1812781B789A42B8
:102F1800C6D90F217B181A787B1801321A700F2333
:102F2800FA18FB1D12781B789A4200D2A0E6C04618
:102F3800C046BD4604B0B0BD0000002090B585B0C5
:102F480000AF0200FB1D1A703B1D0A1C1A800F23DC
:102F5800FB1800221A7035E03B1D1B881800FDF78E
:102F680055FF041CFFF7ECFA031C191C201CFDF785
:102F78003FFC031C181CFDF74BF903009BB2002211
:102F880019000120FFF7F4FC3B1D1B881800FDF712
:102F98003DFF041CFFF7D4FA031C191C201CFDF785
:102FA80027FC031C181CFDF733F903009BB2002211
:102FB80019000120FFF748FE0F217B181A787B18AB
:102FC80001321A700F23FA18FB1D12781B789A42E7
:102FD800C2D3C046C046BD4605B090BDB0B584B0AA
:102FE80000AF040008001100FB1D221C1A703B1DD5
:102FF800021C1A80BB1C0A1C1A800F23FB18002213
:103008001A70A3E00E23FB1801221A707BE00B252F
:103018007B190E22BA1812781A703B1D1B881800EB
:10302800FDF7F4FE041CFFF78BFA031C191C201C87
:10303800FDF7DEFB031C181CFDF7EAF80300180077
:1030480000F074FD0D23FB187A1912781A701FE02E
:103058000D257B191B781800FFF7EAFB3B1D1B8821
:103068001800FDF7D3FE041CFFF76AFA031C191CAD
:10307800201CFDF7BDFB031C181CFDF7C9F8030055
:10308800180000F053FD7B191A787B1901321A7069
:10309800354B1B780D22BA1812789A42D8D90C23CE
:1030A800FB18314A12781A701FE00C257B191B781F
:1030B8001800FFF7BDFB3B1D1B881800FDF7A6FE97
:1030C800041CFFF73DFA031C191C201CFDF790FB9C
:1030D800031C181CFDF79CF80300180000F026FDDF
:1030E8007B191A787B19013A1A700C23FA180B23EA
:1030F800FB1812781B789A42D7D20E217B181A78BF
:103108007B1801321A70184B1B780E22BA181278E5
:103118009A4200D87BE7BB1C1B881800FDF776FE97
:10312800041CFFF70DFA031C191C201CFDF760FB9B
:10313800031C181CFDF76CF80300180000F0F6FCDF
:103148000F217B181A787B1801321A700F23FA188E
:10315800FB1D12781B789A4200D253E7C046C0463E
:10316800BD4604B0B0BDC04600000020B0B584B074
:1031780000AF040008001100FB1D221C1A703B1D43
:10318800021C1A80BB1C0A1C1A800F23FB18002281
:103198001A70A2E00E23FB18564A12781A707BE0C8
:1031A8000B257B190E22BA1812781A703B1D1B8842
:1031B8001800FDF72BFE041CFFF7C2F9031C191CAD
:1031C800201CFDF715FB031C181CFDF721F8030054
:1031D800180000F0ABFC0D23FB187A1912781A704E
:1031E8001FE00D257B191B781800FFF755FB3B1DC9
:1031F8001B881800FDF70AFE041CFFF7A1F9031C41
:10320800191C201CFDF7F4FA031C181CFDF700F824
:103218000300180000F08AFC7B191A787B19013228
:103228001A70344B1B780D22BA1812789A42D8D9E2
:103238000C23FB182F4A12781A701FE00C257B19F3
:103248001B781800FFF728FB3B1D1B881800FDF7AB
:10325800DDFD041CFFF774F9031C191C201CFDF785
:10326800C7FA031C181CFCF7D3FF0300180000F072
:103278005DFC7B191A787B19013A1A700C23FA182D
:103288000B23FB1812781B789A42D7D20E217B1891
:103298001A787B18013A1A700E23FB181B78002B3A
:1032A80000D07DE7BB1C1B881800FDF7AFFD041C90
:1032B800FFF746F9031C191C201CFDF799FA031C9B
:1032C800181CFCF7A5FF0300180000F02FFC0F21C5
:1032D8007B181A787B1801321A700F23FA18FB1D15
:1032E80012781B789A4200D254E7C046C046BD46C1
:1032F80004B0B0BD0000002090B585B000AF040058
:1033080008001100FB1D221C1A703B1D021C1A80AC
:10331800BB1C0A1C1A800F23FB1800221A70C1E07C
:103328000E23FB1801221A700D23FB18644A127829
:103338001A7096E00C23FB18614A12781A706BE039
:103348000E243B191A780C23FB181B78110018005F
:10335800FFF7D6FA5A4B1B785B08DBB23A1912789A
:103368009A4215D23B1D1B881800FDF74FFD041C1F
:10337800FFF7E6F8031C191C201CFDF739FA031C9B
:10338800181CFCF745FF0300180000F0CFFB3DE0D8
:103398000E23FB181A784A4B1B78023B9A421BDB18
:1033A8003B1D1B881800FDF731FD041CFFF7C8F80A
:1033B800031C191C201CFDF71BFA031C8121C905DD
:1033C800181CFDF715FA031C181CFCF721FF030055
:1033D800180000F0ABFB19E03B1D1B881800FDF737
:1033E80015FD041CFFF7ACF8031C191C201CFDF785
:1033F800FFF9031C191C181CFCF740FF031C181CC0
:10340800FCF706FF0300180000F090FB0C217B1866
:103418001A787B18013A1A700C23FA180E217B18B7
:1034280012781B789A428BD2254B1B787A1812781F
:103438009A4203D37B1801221A700CE00E243B1920
:103448001B7801211800FFF7A5F821007B181A78CE
:103458007B1801321A700D217B181A787B18013AF3
:103468001A700D23FB181B78002B00D062E7BB1CD9
:103478001B881800FDF7CAFC041CFFF761F8031C41
:10348800191C201CFDF7B4F9031C181CFCF7C0FE1E
:103498000300180000F04AFB0F217B181A787B18EC
:1034A80001321A700F23FA18FB1D12781B789A4202
:1034B80000D235E7C046C046BD4605B090BDC046FF
:1034C80000000020B0B58AB000AF04000800110069
:1034D800FB1D221C1A703B1D021C1A80BB1C0A1CF7
:1034E8001A801823FB18A14A03CA03C312781A705A
:1034F8000C23FB189E4A03CA03C312781A702723A9
:10350800FB1800221A7023E027257B191B78182244
:10351800BA18D35C01211800FFF73CF83B1D1B8843
:103528001800FDF773FC041CFFF70AF8031C191CAC
:10353800201CFDF75DF9031C181CFCF769FE03004D
:10354800180000F0F3FA7B191A787B1901321A7007
:10355800884B1B782722BA1812789A42D4D3BB1CFE
:103568001B881800FDF752FC041CFEF7E9FF031C3A
:10357800191C201CFDF73CF9031C181CFCF748FE1D
:103588000300180000F0D2FA7A4B1B78013BDAB23C
:103598002623FB181A7027E026257B191B785BB2B7
:1035A8001822BA18D35C00211800FEF7F3FF3B1D60
:1035B8001B881800FDF72AFC041CFEF7C1FF031C3A
:1035C800191C201CFDF714F9031C181CFCF720FE1D
:1035D8000300180000F0AAFA7B191B785BB2DBB273
:1035E800013BDAB27B191A702623FB181B787F2B54
:1035F800D2D9BB1C1B881800FDF708FC041CFEF779
:103608009FFF031C191C201CFDF7F2F8031C181C53
:10361800FEF710FB584A594BFDF792FC02000B00CD
:1036280010001900FCF70CFE0300180000F07EFAE9
:103638002523FB1800221A7023E025257B191B7807
:103648000C22BA18D35C01211800FEF7A3FF3B1D1A
:103658001B881800FDF7DAFB041CFEF771FF031C3A
:10366800191C201CFDF7C4F8031C181CFCF7D0FD1E
:103678000300180000F05AFA7B191A787B190132F6
:103688001A703C4B1B782522BA1812789A42D4D368
:10369800BB1C1B881800FDF7B9FB041CFEF750FF84
:1036A800031C191C201CFDF7A3F8031C181CFCF7AD
:1036B800AFFD0300180000F039FA2E4B1B78013BD0
:1036C800DAB22423FB181A7027E024257B191B780B
:1036D8005BB20C22BA18D35C00211800FEF75AFF1F
:1036E8003B1D1B881800FDF791FB041CFEF728FF03
:1036F800031C191C201CFDF77BF8031C181CFCF785
:1037080087FD0300180000F011FA7B191B785BB2E3
:10371800DBB2013BDAB27B191A702423FB181B7841
:103728007F2BD2D9BB1C1B881800FDF76FFB041C2C
:10373800FEF706FF031C191C201CFDF759F8031C93
:10374800181CFEF777FA0C4A0C4BFDF7F9FB020040
:103758000B0010001900FCF773FD0300180000F0BF
:10376800E5F9C046BD460AB0B0BDC0468858000855
:1037780094580008000000209A9999999999C93F8E
:1037880090B585B000AF0200FB1D1A703B1D0A1CE6
:103798001A800F23FB1800221A7066E00E23FB180C
:1037A80001221A700CE00E243B191B780121180025
:1037B800FEF7F0FE21007B181A787B1801321A7088
:1037C800304B1B780E22BA1812789A42EBD93B1D5F
:1037D8001B881800FDF71AFB041CFEF7B1FE031C3A
:1037E800191C201CFDF704F8031C181CFCF710FD1D
:1037F8000300180000F09AF90D23FB1801221A7033
:103808000CE00D243B191B7800211800FEF7C2FEBE
:1038180021007B181A787B1801321A70194B1B7813
:103828000D22BA1812789A42EBD93B1D1B88180052
:10383800FDF7ECFA041CFEF783FE031C191C201C80
:10384800FCF7D6FF031C1049181CFCF7B7FE031C35
:10385800181CFCF7DDFC0300180000F067F90F21C5
:103868007B181A787B1801321A700F23FA18FB1D7F
:1038780012781B789A4291D3C046C046BD4605B01F
:1038880090BDC046000000200000A04080B500AFF9
:1038980072B6C046FEE7000080B582B000AF0F4B9D
:1038A8001A6C0E4B01210A431A640C4B1B6C012243
:1038B80013407B607B68094BDA6B084B8021490514
:1038C8000A43DA63054BDA6B80235B0513403B60E0
:1038D8003B68C046BD4602B080BDC04600100240ED
:1038E80090B58BB000AF786014243B1918001423EE
:1038F8001A00002101F08CFF7B681B681B4A934269
:1039080030D11B4B1A6C1A4B802149030A431A64A5
:10391800174B1A6C80235B0313403B613B69144BC4
:103928005A6B134B02210A435A63114B5B6B0222F9
:103938001340FB60FB683B1980221A603B19032285
:103948005A603B1900229A603B190A4A1900100074
:1039580001F002F9002200210C2001F0CBF80C2024
:1039680001F0DDF8C046BD460BB090BD0024014013
:10397800001002400004005080B500AFFEE780B59B
:1039880000AFFEE780B500AFC046BD4680BD80B53C
:1039980000AFC046BD4680BD80B500AF00F0AAF8B4
:1039A800C046BD4680BD000080B500AF034B18007F
:1039B80000F04EFCC046BD4680BDC0462C0000202D
:1039C80080B500AFC046BD4680BD00000D488546A5
:1039D800FFF7F6FF0C480D490D4A002302E0D458C2
:1039E800C4500433C4188C42F9D30A4A0A4C002341
:1039F80001E013600432A242FBD301F011FFFEF78D
:103A0800B3FBFEE70020002000000020100000208B
:103A180090590008100000209C000020FEE70000DC
:103A280080B582B000AFFB1D00221A700B4B1A68DC
:103A38000A4B802149000A431A60032000F010F85D
:103A4800031E03D0FB1D01221A7001E0FFF724FFBB
:103A5800FB1D1B781800BD4602B080BD0020024047
:103A680090B585B000AF78600F23FB1800221A705C
:103A78001D4B1B78002B2BD01C4B1C681A4B1B783A
:103A88001900FA239800FCF737FB030019002000FF
:103A9800FCF732FB0300180001F051F8031E12D1A5
:103AA8007B68032B0AD8796801235B42002218003F
:103AB80001F020F80E4B7A681A600DE00F23FB180E
:103AC80001221A7008E00F23FB1801221A7003E084
:103AD8000F23FB1801221A700F23FB181B781800FC
:103AE800BD4605B090BDC0460C0000200400002073
:103AF8000800002080B500AF054B1B781A00054B65
:103B08001B68D218034B1A60C046BD4680BDC0462C
:103B18000C0000209800002080B500AF024B1B6805
:103B28001800BD4680BDC0469800002080B584B00E
:103B380000AF7860FFF7F0FF0300BB607B68FB60B5
:103B4800FB68013305D00A4B1B781A00FB689B18E9
:103B5800FB60C046FFF7E0FF0200BB68D31AFA68B3
:103B68009A42F7D8C046C046BD4604B080BDC0469C
:103B78000C00002080B582B000AF786039607B68A7
:103B88001B68054A1A403B681A437B681A60C0469E
:103B9800BD4602B080BDC046FFFF3FFE80B582B083
:103BA80000AF78607B681A68E0235B041340180054
:103BB800BD4602B080BD80B584B000AFF860B96082
:103BC8007A60FB685B69BA6804210A400721914062
:103BD8000A00D2431A40BB6804210B407968994017
:103BE8000B001A43FB685A61C046BD4604B080BD4D
:103BF80080B582B000AF786039607B685B693A68ED
:103C080004210A40072191400A001A403B68042118
:103C18000B40DA4013001800BD4602B080BD80B5E5
:103C280082B000AF78607B68DA68C0231B0113405C
:103C380001D1012300E000231800BD4602B080BD79
:103C480080B584B000AFF860B9607A60FB689B6AA1
:103C5800BA681F210A400F2191400A00D2431A4036
:103C68007B689B0E0F211940BB681F2003409940B9
:103C78000B001A43FB689A62C046BD4604B080BD7B
:103C880080B582B000AF786039607B689A6A3B681B
:103C98005B035B0B1A437B689A62C046BD4602B061
:103CA80080BD80B582B000AF786039607B689B6A60
:103CB8003A685203520BD2431A407B689A62C04654
:103CC800BD4602B080BD80B582B000AF78607B6829
:103CD800DB68032213401800BD4602B080BD000017
:103CE80080B584B000AFF860B9607A60FB685B6942
:103CF800BA681202D2431A40BB681B0279680B40AB
:103D080004490B401A43FB685A61C046BD4604B0DB
:103D180080BDC04600FFFF0780B582B000AF786065
:103D28007B689B68054A1340802252051A437B68CA
:103D38009A60C046BD4602B080BDC046E8FFFF6F2E
:103D480080B582B000AF78607B689A6880235B0595
:103D58001A4080235B059A4201D1012300E0002329
:103D68001800BD4602B080BD80B582B000AF786053
:103D78007B689B68044A134001221A437B689A6057
:103D8800C046BD4602B080BDE8FFFF7F80B582B067
:103D980000AF78607B689B6801221340012B01D13A
:103DA800012300E000231800BD4602B080BD0000DA
:103DB80080B582B000AF78607B689B68044A134086
:103DC80004221A437B689A60C046BD4602B080BD93
:103DD800E8FFFF7F80B582B000AF78607B689B68A2
:103DE80004221340042B01D1012300E00023180012
:103DF800BD4602B080BD000080B588B000AF7860D5
:103E08001F23FB1800221A700023BB6100237B616B
:103E18000023FB607B68002B01D101237FE17B68D5
:103E28009B6D002B0AD17B681800FFF759FD7B6852
:103E38000022DA657B685422002199547B681B684C
:103E48001800FFF77DFF031E15D17B681B6818005B
:103E5800FFF762FFB44B1B68B4491800FCF74CF934
:103E6800030001335B00FB6002E0FB68013BFB6081
:103E7800FB68002BF9D17B681B681800FFF760FF0F
:103E8800031E0FD17B689B6D10221A437B689A65CD
:103E98007B68DB6D01221A437B68DA651F23FB18F8
:103EA80001221A707B681B681800FFF793FF030054
:103EB8003B617B689B6D1022134000D022E13B6977
:103EC800002B00D01EE17B689B6D994A13400222AB
:103ED8001A437B689A657B681B681800FFF756FFD2
:103EE800031E00D0ADE07B689A687B681B7E9B034D
:103EF8001A437B685B7EDB031A437B689B7E5B030C
:103F08001A437B681B6B002B02D080235B0100E007
:103F180000231A437B68DB681A437B681B69002B04
:103F280004DA7B681B695B005B0801E080239B0364
:103F38001A437B682C215B5C5B001343BA6913430B
:103F4800BB617B6820229B5C012B15D17B689B7E23
:103F5800002B05D1BB69802252021343BB610BE0E1
:103F68007B689B6D20221A437B689A657B68DB6DB2
:103F780001221A437B68DA657B685B6A002B0AD0EA
:103F88007B685A6AE0235B001A407B689B6A13438C
:103F9800BA691343BB617B681B68DB68654A1340D9
:103FA80019007B681B68BA690A43DA607B685B683A
:103FB8009B0F9A077B68DB6C13437A6913437B6119
:103FC8007B683C229B5C012B11D17B685B689B0F53
:103FD8009A077B681B6C1A437B685B6C1A437B6887
:103FE8009B6C1A437B691343012213437B617B68F3
:103FF8001B681B69504A134019007B681B687A6963
:104008000A431A617B685A68C0231B069A4218D073
:104018007B685A688023DB059A4212D07B685A680D
:1040280080231B069A420CD0444B1B68444A134019
:1040380019007B685A68F0239B031A403F4B0A43D8
:104048001A607B6818687B685B6B1A000021FFF7B1
:10405800B2FD7B6818687B689B6B3A491A00FFF7CA
:10406800AAFD7B681B69002B09D17B681B689A6ACB
:104078007B681B68102149420A439A6218E07B68F2
:104088001A6980239B039A4212D17B681B689B6A3A
:104098007B68DB69013B9B001C22134010225242C3
:1040A8009A4011007B681A6E7B681B680A439A6203
:1040B8007B681B6800211800FFF79AFD02007B68E7
:1040C8005B6B9A420BD17B680022DA657B689B6D3B
:1040D8000322934301221A437B689A651CE07B689C
:1040E8009B6D1222934310221A437B689A657B6862
:1040F800DB6D01221A437B68DA651F23FB18012256
:104108001A7009E07B689B6D10221A437B689A65D8
:104118001F23FB1801221A701F23FB181B78180095
:10412800BD4608B080BDC04604000020400D030015
:10413800FDFEFFFF0102DEFF02FCFF1F0827014012
:10414800FFFFC3FF04FFFF07B0B584B000AF78607E
:104158007B681B681800FFF73DFE031E5FD17B6874
:1041680054229B5C012B01D102235FE07B6854221F
:10417800012199540F257C197B68180000F068FB11
:10418800030023707B191B78002B43D17B689B6D40
:10419800284A1340802252001A437B689A657B683C
:1041A8000022DA657B681B681C221A607B6854222F
:1041B800002199547B681B685A687B681B681C211E
:1041C8008A435A607B685B69082B08D17B681B6847
:1041D8005A687B681B6808210A435A6008E07B68B4
:1041E8001B685A687B681B6804210A435A60C046EA
:1041F8007B681B6B002B07D17B681B685A687B6840
:104208001B6810210A435A607B681B681800FFF777
:10421800CFFD08E07B6854220021995403E00F2366
:10422800FB1802221A700F23FB181B781800BD46D2
:1042380004B0B0BDFEF0FFFF80B582B000AF78607B
:104248007B681B681B6C1800BD4602B080BD00006F
:1042580080B586B000AF786000237B617B681B68FF
:104268001B683B617B681B685B68FB603B690222DB
:10427800134017D0FB680222134013D07B689B6D54
:104288001022134006D17B689B6D802212011A43CD
:104298007B689A657B68180000F070FB7B681B6878
:1042A80002221A603B690422134003D0FB680422EF
:1042B800134007D13B69082213404DD0FB68082200
:1042C800134049D07B689B6D1022134006D17B6850
:1042D8009B6D802292001A437B689A657B681B68F5
:1042E8001800FFF79CFC031E2ED07B689B7E002BDA
:1042F8002AD17B681B681B6808221340082B23D12E
:104308007B681B681800FFF765FD031E10D17B68EA
:104318001B685A687B681B680C218A435A607B6853
:104328009B6D564A134001221A437B689A650BE03D
:104338007B689B6D20221A437B689A657B68DB6DDE
:1043480001221A437B68DA657B681800FEF7CEF80D
:104358007B681B680C221A603B698022134012D0CC
:10436800FB68802213400ED07B689B6D802252022E
:104378001A437B689A657B68180000F081F87B68AF
:104388001B6880221A603A6980235B00134014D0AE
:10439800FA6880235B0013400FD07B689B6D8022F6
:1043A80092021A437B689A657B68180000F0D6FA77
:1043B8007B681B68802252001A603A6980239B0040
:1043C800134014D0FA6880239B0013400FD07B68F9
:1043D8009B6D8022D2021A437B689A657B6818001D
:1043E80000F0C4FA7B681B68802292001A603B695F
:1043F800102213402BD0FB681022134027D07B6873
:104408001B6B002B02D101237B6108E07B681B68D2
:104418001800FFF758FC031E01D001237B617B695C
:10442800012B10D17B689B6D8022D2001A437B68D8
:104438009A657B68DB6D02221A437B68DA657B68C4
:10444800180000F025F87B681B6810221A603A698A
:1044580080239B0113400DD0FA6880239B011340F1
:1044680008D07B68180000F091FA7B681B688022EE
:1044780092011A60C046BD4606B080BDFEFEFFFF31
:1044880080B582B000AF7860C046BD4602B080BD3E
:1044980080B582B000AF7860C046BD4602B080BD2E
:1044A80080B586B000AF786039601723FB1800220A
:1044B8001A700023FB607B6854229B5C012B01D19E
:1044C8000223C0E17B685422012199547B681B6850
:1044D8001800FFF77FFC031E00D0A3E13B685B6870
:1044E800022B00D143E17B681A6980231B069A429C
:1044F80004D07B681B69C14A934208D17B681A685B
:104508003B681B6819001000FFF7BAFBC9E07B681D
:104518001A6E3B685B681F210B400F2199400B0006
:10452800DB43134019003B681B685B035B0B05D139
:104538003B681B689B0E1F22134098E03B681B6872
:104548000122134000D091E03B681B68022213400F
:1045580000D089E03B681B680422134000D081E04A
:104568003B681B680822134000D079E03B681B6851
:104578001022134000D071E03B681B6820221340D2
:1045880000D069E03B681B684022134000D061E01E
:104598003B681B688022134000D059E03B681A68CA
:1045A80080235B00134051D13B681A6880239B002D
:1045B800134049D13B681A688023DB00134041D17E
:1045C8003B681A6880231B01134039D13B681A687D
:1045D80080235B01134031D13B681A6880239B011B
:1045E800134029D13B681A688023DB01134021D18D
:1045F8003B681A6880231B02134019D13B681A686C
:1046080080235B02134011D13B681A6880239B0208
:10461800134009D13B681A688023DB02134001D09C
:10462800122324E0002322E0112320E010231EE0BF
:104638000F231CE00E231AE00D2318E00C2316E0CC
:104648000B2314E00A2312E0092310E008230EE0EC
:1046580007230CE006230AE0052308E0042306E00C
:10466800032304E0022302E0012300E000233A6868
:1046780052681F20024093400A001A437B681A665A
:104688003B685B689B085A1C7B68DB699A4208D8C0
:104698007B6818683B6859683B681B681A00FFF715
:1046A800CFFA7B6818683B6819683B689B681A00F2
:1046B800FFF716FB3B681B68002B00DBBCE0504B88
:1046C8001800FFF76BFA03003B613B681B684D4A13
:1046D800934222D13A6980231B0413401DD13B69C0
:1046E800802212041343464A19001000FFF742FAC9
:1046F800454B1B6845491800FBF7FEFC03005A1C94
:1047080013005B009B189B00FB6002E0FB68013B09
:10471800FB60FB68002BF9D18EE03B681B683C4AC4
:1047280093420ED13A6980235B04134009D13B6957
:10473800802252041343324A19001000FFF71AFA74
:104748007AE03B681B68334A934200D074E03A69C8
:104758008023DB03134000D06EE03B698022D20344
:104768001343274A19001000FFF704FA64E07B6836
:104778001A6980231B069A4204D07B681B691F4A6A
:10478800934207D17B681A683B681B6819001000C0
:10479800FFF787FA3B681B68002B4DDA184B1800A7
:1047A800FFF7FCF903003B613B681B68154A93421D
:1047B80008D13B69184A1340114A19001000FFF745
:1047C800D9F939E03B681B68114A934208D13B6923
:1047D800124A13400A4A19001000FFF7CBF92BE0E0
:1047E8003B681B680B4A934226D13B690C4A13402D
:1047F800034A19001000FFF7BDF91DE0040000800E
:1048080008270140001000B004000020400D0300FC
:10481800004000B8002000B4FFFF7FFFFFFFFFFE4D
:10482800FFFFBFFF7B689B6D20221A437B689A6558
:104838001723FB1801221A707B685422002199540F
:104848001723FB181B781800BD4606B080BDC0466C
:1048580080B584B000AF78600023BB607B681B68BC
:104868001800FFF793FA031E00D069E07B681B6805
:104878009B68364A13400DD07B689B6D10221A4303
:104888007B689A657B68DB6D01221A437B68DA6571
:10489800012356E07B681B681800FFF765FA2C4B6C
:1048A8001800FFF77BF9020080231B0413400FD088
:1048B800284B1B6828491800FBF71EFC030001332E
:1048C800BB6002E0BB68013BBB60BB68002BF9D151
:1048D8007B685B7E012B33D0FFF71EF90300FB607A
:1048E80027E07B681B681800FFF750FA031E04D105
:1048F8007B681B681800FFF737FAFFF70DF902000D
:10490800FB68D31A022B14D97B681B681B68012229
:104918001340012B0DD07B689B6D10221A437B68D6
:104928009A657B68DB6D01221A437B68DA6501238F
:1049380007E07B681B681B6801221340012BD0D15C
:1049480000231800BD4604B080BDC0461700008093
:104958000827014004000020400D030080B582B004
:1049680000AF7860C046BD4602B080BD80B582B059
:1049780000AF7860C046BD4602B080BD80B582B049
:1049880000AF7860C046BD4602B080BD80B582B039
:1049980000AF7860C046BD4602B080BD80B582B029
:1049A80000AF0200FB1D1A70FB1D1B787F2B09D876
:1049B800FB1D1B781A001F231A40044B012191404C
:1049C8000A001A60C046BD4602B080BD00E100E0A2
:1049D80090B583B000AF02003960FB1D1A70FB1D53
:1049E8001B787F2B28D82F4AFB1D1B785BB29B08AE
:1049F800C0339B009B58FA1D1278110003220A400D
:104A0800D200FF2191400A00D2431A4011003B68AE
:104A18009B01FF221A40FB1D1B781800032303404B
:104A2800DB009A401F48FB1D1B785BB29B080A43BA
:104A3800C0339B001A5031E01B4AFB1D1B7819003C
:104A48000F230B40083B9B0806339B00D318043305
:104A58001B68FA1D1278110003220A40D200FF21B8
:104A680091400A00D2431A4011003B689B01FF2283
:104A78001A40FB1D1B78180003230340DB009A40F3
:104A88000948FB1D1B781C000F232340083B9B088B
:104A98000A4306339B00C31804331A60C046BD4658
:104AA80003B090BD00E100E000ED00E080B582B009
:104AB80000AF78607B685A1E80235B049A4201D35A
:104AC800012310E00A4B7A68013A5A6001235B42DD
:104AD80003211800FFF77CFF054B00229A60044B66
:104AE80007221A6000231800BD4602B080BDC046E8
:104AF80010E000E080B584B000AFB9607A600F21A3
:104B08007B18021C1A70BA687B181B785BB21100FC
:104B18001800FFF75DFFC046BD4604B080BD80B5F4
:104B280082B000AF0200FB1D1A70FB1D1B785BB240
:104B38001800FFF733FFC046BD4602B080BD80B500
:104B480082B000AF78607B681800FFF7AFFF030002
:104B58001800BD4602B080BD80B586B000AF786051
:104B6800396000237B6147E13B681B6801217A6952
:104B780091400A001340FB60FB68002B00D138E12C
:104B88003B685B6803221340012B05D03B685B68D8
:104B980003221340022B30D17B689B683B617B6901
:104BA8005B0003229A401300DA433B6913403B61E0
:104BB8003B68DA687B695B009A4013003A691343E3
:104BC8003B617B683A699A607B685B683B6101225C
:104BD8007B699A401300DA433B6913403B613B68A9
:104BE8005B681B0901221A407B699A4013003A69E5
:104BF80013433B617B683A695A603B685B680322F0
:104C08001340032B17D07B68DB683B617B695B0033
:104C180003229A401300DA433B6913403B613B6827
:104C28009A687B695B009A4013003A6913433B61B9
:104C38007B683A69DA603B685B6803221340022BA1
:104C480023D17B69DA087B6808329200D3583B612C
:104C58007B69072213409B000F229A401300DA4316
:104C68003B6913403B613B681A697B6907210B402C
:104C78009B009A4013003A6913433B617B69DA0849
:104C88007B68083292003969D1507B681B683B61A8
:104C98007B695B0003229A401300DA433B691340A7
:104CA8003B613B685B6803221A407B695B009A4062
:104CB80013003A6913433B617B683A691A603B68A1
:104CC8005A68C0239B02134000D192E0504A7B6986
:104CD8009B0818339B009B583B617B690322134058
:104CE800DB000F229A401300DA433B6913403B6113
:104CF8007A68A023DB059A4213D07B68454A934221
:104D08000DD07B68444A934207D07B68434A93425C
:104D180001D1032306E0052304E0022302E0012376
:104D280000E000237A6903210A40D20093403A69DF
:104D380013433B6136497B699B0818339B003A69EA
:104D48005A50334B1B683B61FB68DA433B6913409D
:104D58003B613B685A6880235B03134003D03A6980
:104D6800FB6813433B612A4B3A691A60284B5B681E
:104D78003B61FB68DA433B6913403B613B685A6817
:104D880080239B03134003D03A69FB6813433B61BC
:104D98001F4B3A695A601E4A8423D3583B61FB680B
:104DA800DA433B6913403B613B685A6880239B02A6
:104DB800134003D03A69FB6813433B6114498422CA
:104DC8003B698B50124A8023D3583B61FB68DA4316
:104DD8003B6913403B613B685A6880235B02134080
:104DE80003D03A69FB6813433B61094980223B6958
:104DF8008B507B6901337B613B681A687B69DA40B9
:104E0800131E00D0B0E6C046C046BD4606B080BD01
:104E1800001802400004005000080050000C005028
:104E280080B582B000AF786008001100BB1C021C7E
:104E38001A807B1C0A1C1A707B1C1B78002B04D060
:104E4800BB1C1A887B689A6103E0BB1C1A887B68C4
:104E58009A62C046BD4602B080BD000080B584B0ED
:104E680000AF7860194B1B68194A13401900174B9B
:104E78007A680A431A607A6880239B009A421FD195
:104E8800144B1A6813005B009B185B00124918004A
:104E9800FBF732F903000133FB6008E0FB68002BE5
:104EA80003D0FB68013BFB6001E0032309E0074BEB
:104EB8005A698023DB001A408023DB009A42EDD038
:104EC80000231800BD4604B080BDC04600700040F5
:104ED800FFF9FFFF0400002040420F0080B588B0B2
:104EE80000AF78607B68002B01D10123F3E27B6877
:104EF8001B680122134000D17CE0C34B9B68382219
:104F08001340BB61C04BDB68032213407B61BB6964
:104F1800102B02D17B69032B02D0BB69082B0BD164
:104F2800B94B1A6880239B02134062D07B685B6888
:104F3800002B5ED10123CEE27B685A6880235B0296
:104F48009A4207D1B04B1A68AF4B802149020A43F5
:104F58001A6020E07B685A68A023DB029A420ED1CF
:104F6800A94B1A68A84B8021C9020A431A60A64BAC
:104F78001A68A54B802149020A431A600BE0A24B2C
:104F88001A68A14BA1490A401A609F4B1A689E4BA8
:104F98009F490A401A607B685B68002B14D0FEF7B3
:104FA800BBFD03003B6108E0FEF7B6FD02003B696C
:104FB800D31A642B01D903238DE2934B1A688023FB
:104FC8009B021340F0D015E0FEF7A6FD03003B61FD
:104FD80008E0FEF7A1FD02003B69D31A642B01D952
:104FE800032378E2884B1A6880239B021340F0D190
:104FF80000E0C0467B681B680222134000D199E09C
:10500800814B9B6838221340BB617F4BDB680322CE
:1050180013407B61BB69102B02D17B69022B02D044
:10502800BB69002B35D1784B1A688023DB0013400D
:1050380005D07B68DB68002B01D101234BE2724B62
:105048005B68744A134019007B685B691A026E4BEF
:105058000A435A60BB69002B12D16B4B1B686E4A1E
:10506800134019007B681A69674B0A431A60664B3C
:105078001B68DB0A07221340684ADA40684B1A604B
:10508800684B1B681800FEF7EBFC031E51D0012388
:1050980021E27B68DB68002B30D05B4B1B685E4AE3
:1050A800134019007B681A69574B0A431A60564B1C
:1050B8001A68554B802149000A431A60FEF72CFDF7
:1050C80003003B6108E0FEF727FD02003B69D31AA5
:1050D800022B01D90323FEE14B4B1A688023DB0026
:1050E8001340F0D0484B5B684A4A134019007B686C
:1050F8005B691A02444B0A435A601BE0424B1A6828
:10510800414B49490A401A60FEF706FD03003B611E
:1051180008E0FEF701FD02003B69D31A022B01D912
:105128000323D8E1384B1A688023DB001340F0D101
:1051380000E0C0467B681B680822134047D0324B0A
:105148009B6838221340182B0AD12F4B1B6E022262
:1051580013403CD07B689B69002B38D10123BAE10E
:105168007B689B69002B19D0274B1A6E264B0121AF
:105178000A431A66FEF7D0FC03003B6108E0FEF71D
:10518800CBFC02003B69D31A022B01D90323A2E10D
:105198001D4B1B6E02221340F1D018E01A4B1A6EF9
:1051A800194B01218A431A66FEF7B6FC03003B61DE
:1051B80008E0FEF7B1FC02003B69D31A022B01D9C3
:1051C800032388E1104B1B6E02221340F1D17B6848
:1051D8001B680422134000D1C6E01F23FB180022DD
:1051E8001A70094B9B6838221340202B1ED1064B9E
:1051F800DB6D0222134000D1B6E07B689B68002B70
:1052080000D0B1E0012366E100100240FFFFFEFF7D
:10521800FFFFFBFFFF80FFFFFFC7FFFF0024F40035
:105228000400002008000020FFFEFFFFAC4BDA6BF3
:1052380080235B05134001D1012300E00023002BEC
:1052480011D0A74BDA6BA64B802149050A43DA63D4
:10525800A34BDA6B80235B051340FB60FB681F23BD
:10526800FB1801221A709F4B1A6880235B001340B9
:105278001AD19C4B1A689B4B802149000A431A603B
:10528800FEF74AFC03003B6108E0FEF745FC02001C
:105298003B69D31A022B01D903231CE1914B1A68ED
:1052A80080235B001340F0D07B689B68012B06D1FC
:1052B8008B4BDA6D8A4B01210A43DA651CE07B6867
:1052C8009B68052B0CD1864BDA6D854B04210A436C
:1052D800DA65834BDA6D824B01210A43DA650BE00C
:1052E8007F4BDA6D7E4B01218A43DA657C4BDA6DA0
:1052F8007B4B04218A43DA657B689B68002B14D0BA
:10530800FEF70AFC03003B6109E0FEF705FC02001A
:105318003B69D31A744A934201D90323DBE0704BEB
:10532800DB6D02221340F0D013E0FEF7F5FB03001B
:105338003B6109E0FEF7F0FB02003B69D31A6A4AB9
:10534800934201D90323C6E0654BDB6D022213406B
:10535800F0D11F23FB181B78012B05D1604BDA6BAA
:105368005F4B62490A40DA637B68DB69002B00D136
:10537800B0E05B4B9B6838221340102B00D178E0DB
:105388007B68DB69022B53D1554B1A68544B58493B
:105398000A401A60FEF7C0FB03003B6108E0FEF715
:1053A800BBFB02003B69D31A022B01D9032392E00D
:1053B8004B4B1A6880239B041340F0D1484BDB68A1
:1053C8004C4A134019007B681A6A7B685B6A1A4367
:1053D8007B689B6A1B021A437B68DB6A1A437B68FB
:1053E8001B6B1A433E4B0A43DA603D4B1A683C4B31
:1053F800802149040A431A60394BDA68384B802106
:1054080049050A43DA60FEF787FB03003B6108E0C1
:10541800FEF782FB02003B69D31A022B01D9032352
:1054280059E02F4B1A6880239B041340F0D051E0B9
:105438002B4B1A682A4B2E490A401A60FEF76CFB60
:1054480003003B6108E0FEF767FB02003B69D31AE3
:10545800022B01D903233EE0214B1A6880239B04C9
:105468001340F0D11E4BDA681D4B23490A40DA601D
:1054780030E07B68DB69012B01D101232BE0184B5D
:10548800DB687B617B6903221A407B681B6A9A424E
:105498001ED17B6970221A407B685B6A9A4217D1D9
:1054A8007A69FE23DB011A407B689B6A1B029A42D9
:1054B8000ED17A69F8239B031A407B68DB6A9A420B
:1054C80006D17B695B0F5A077B681B6B9A4201D038
:1054D800012300E000231800BD4608B080BDC04687
:1054E800001002400070004088130000FFFFFFEF2B
:1054F800FFFFFFFE8C80C11FFCFFFEEF80B584B06C
:1055080000AF786039607B68002B01D10123E9E0A6
:10551800764B1B68072213403A689A421ED9734B90
:105528001B68072293431900704B3A680A431A60B4
:10553800FEF7F2FA0300FB6009E0FEF7EDFA02005D
:10554800FB68D31A6A4A934201D90323CAE0674B1E
:105558001B68072213403A689A42EED17B681B68A1
:105568000222134015D07B681B680422134006D022
:10557800604B9A685F4BE021C9010A439A605D4B12
:105588009B685D4A134019007B689A68594B0A4327
:105598009A607B681B680122134057D07B685B6860
:1055A800012B07D1534B1A6880239B0213402BD140
:1055B800012397E07B685B68022B07D14D4B1A6883
:1055C80080239B0413401FD101238BE07B685B6819
:1055D800002B07D1474B1A688023DB00134013D1F7
:1055E80001237FE07B685B68032B06D1414B1B6E70
:1055F8000222134008D1012374E03E4BDB6D0222E6
:10560800134001D101236DE03A4B9B680722934375
:1056180019007B685A68374B0A439A60FEF77CFA90
:105628000300FB6009E0FEF777FA0200FB68D31A73
:105638002F4A934201D9032354E02E4B9B6838220A
:105648001A407B685B68DB009A42ECD1274B1B68E9
:10565800072213403A689A421ED2244B1B6807223D
:1056680093431900214B3A680A431A60FEF754FA2B
:105678000300FB6009E0FEF74FFA0200FB68D31A4B
:105688001B4A934201D903232CE0184B1B680722BD
:1056980013403A689A42EED17B681B680422134093
:1056A80009D0144B9B68154A134019007B68DA68C7
:1056B800104B0A439A6000F029F801000D4B9B68D3
:1056C8001B0A0F221A400E4B9200D3581F22134078
:1056D8000A00DA400B4B1A600B4B1B681800FEF7E8
:1056E800BFF903001800BD4604B080BD0020024089
:1056F8008813000000100240FFF0FFFFFF8FFFFF3C
:1057080048590008040000200800002080B586B031
:1057180000AF3C4B9B68382213400FD1394B1B68B4
:10572800DB0A0722134001229A4013003B603968C4
:105738003548FAF7E1FC03003B615DE0314B9B68BB
:1057480038221340082B02D1304B3B6154E02D4BDB
:105758009B6838221340102B38D12A4BDB68032270
:105768001340FB60274BDB681B09072213400133FA
:10577800BB60FB68032B0DD1B9682448FAF7BCFC61
:10578800030019001F4BDB681B0A7F2213404B43A1
:105798007B610DE0B9681C48FAF7AEFC03001900FC
:1057A800184BDB681B0A7F2213404B437B61C046C2
:1057B800144BDB685B0F0722134001337B60796869
:1057C8007869FAF799FC03003B6115E00D4B9B687B
:1057D80038221340202B03D180231B023B610BE0AE
:1057E800084B9B6838221340182B03D1FA23DB019E
:1057F8003B6101E000233B613B691800BD4606B0F0
:1058080080BDC046001002400024F40000127A0057
:1058180003008218934200D1704719700133F9E7E9
:1058280070B500260C4C0D4D641BA410A64209D17E
:10583800002600F019F80A4C0A4D641BA410A64271
:1058480005D170BDB300EB5898470136EEE7B300B9
:10585800EB5898470136F2E788590008885900083C
:105868008C59000888590008F8B5C046F8BC08BC2F
:105878009E467047F8B5C046F8BC08BC9E467047BF
:1058880009060204070103050800000007050108CE
:1058980004020603090000009C0700082A07000804
:1058A8007E060008360600087E060008660700081F
:1058B8007E060008360600082A0700082A0700089E
:1058C80066070008360600083C0600083C06000883
:1058D8003C060008740700082A0700082A07000881
:1058E8007E060008320600087E06000866070008E3
:1058F8007E060008320600082A0700082A07000862
:1059080066070008320600083C0600083C06000846
:105918003C06000870070008F2260008C2250008A7
:10592800E425000806260008262600084626000862
:10593800662600088A260008AE260008CE2600083B
:10594800000000000000000000000000000000004F
:10595800000000000000000000000000000000003F
:105968000100000002000000030000000400000025
:105978000600000007000000080000000900000001
:04598800E100000832
:04598C00B900000856
:10599000090000000024F4000400000001000000E1
:04000005080039D5E1
:00000001FF
