:020000040800F2
:1000000000200020D13D0008793D0008813D000816
:1000100000000000000000000000000000000000E0
:10002000000000000000000000000000893D000802
:100030000000000000000000933D00089D3D000806
:10004000213E000800000000213E0008213E00087B
:10005000213E0008213E0008213E0008213E000804
:1000600000000000213E0008213E0008213E00085B
:10007000AD3D0008213E0008213E000800000000C0
:10008000213E00080000000000000000213E0008A2
:1000900000000000213E0008213E0008213E00082B
:1000A000213E0008213E0008213E0008213E0008B4
:0800B000213E000800000000E1
:1000B80010B5064C2378002B07D1054B002B02D036
:1000C800044800E000BF0123237010BD1000002089
:1000D800000000006C5C0008044B10B5002B03D036
:1000E8000349044800E000BF10BDC04600000000FE
:1000F800140000206C5C0008002243088B4274D373
:1001080003098B425FD3030A8B4244D3030B8B4210
:1001180028D3030C8B420DD3FF22090212BA030C19
:100128008B4202D31212090265D0030B8B4219D3FA
:1001380000E0090AC30B8B4201D3CB03C01A52411A
:10014800830B8B4201D38B03C01A5241430B8B4262
:1001580001D34B03C01A5241030B8B4201D30B034B
:10016800C01A5241C30A8B4201D3CB02C01A524172
:10017800830A8B4201D38B02C01A5241430A8B4235
:1001880001D34B02C01A5241030A8B4201D30B021E
:10019800C01A5241CDD2C3098B4201D3CB01C01A38
:1001A800524183098B4201D38B01C01A5241430942
:1001B8008B4201D34B01C01A524103098B4201D330
:1001C8000B01C01A5241C3088B4201D3CB00C01A9D
:1001D800524183088B4201D38B00C01A5241430815
:1001E8008B4201D34B00C01A5241411A00D201463A
:1001F800524110467047FFE701B5002000F006F8AD
:1002080002BDC0460029F7D076E770477047C04660
:100218009E2110B5C905041C01F08EFF002803D1EA
:10022800201C00F0F1FE10BD9E21201CC90500F025
:1002380087FC00F0E9FE80231B069C466044F2E739
:1002480070B500220C4B04000D0001F03BFF0028A4
:1002580004D12000290001F07DFE70BD064B00226C
:100268002000290001F06CFA01F074FE80231B06BF
:100278009C466044F1E7C0460000E041F8B54B02F7
:100288005A0A94464A00C90FCE4647468946450051
:1002980046022D0E120E80B59909770AC40FB609C9
:1002A800AB1A4C4520D0002B0CDD002A34D1002994
:1002B8002AD05A1E012B00D18FE0FF2B00D1CDE0B0
:1002C80013002FE0002B60D0531B002D00D0EEE070
:1002D800002E00D13EE15C1E012B00D16BE1FF2B0B
:1002E80000D1B9E02300E7E0002B00DCA4E0002AFD
:1002F80069D0FF2D00D1B1E08022D20411431B2B1D
:1003080000DCE9E02B000536F708FF2B00D1A5E05B
:100318007A02520AD8B230E0FF2D00D19EE0802246
:10032800D204114301201B2B08DC08002022D840EE
:10033800D31A99400B005A1E93411843361A730179
:1003480000D471E0B601B709380001F0FFFE3B00A8
:100358000538834085424DDDB44E2D1A1E405A079C
:1003680068D00F221340042B64D00436730161D582
:10037800681CFE2D54D1FF200022C0051043E4075D
:100388002043C0BCB946B046F8BDFE229046681C62
:100398000200404610426BD1002D00D0DDE0002E57
:1003A80000D102E10029B3D08022771AD204174283
:1003B80000D136E14C468E1B61D00120164230D167
:1003C8000023F708A4E700299ED05A1E012B00D16C
:1003D800CAE0FF2B42D0130091E7711A4B0100D4F9
:1003E800D1E08F01BF09380001F0B0FE3B000538AD
:1003F800834001252022401B0130121A1E00934021
:10040800C6405A1E93411E4339D0730700D11BE1E1
:100418000F2300253340042BA7D1012072017CD57E
:10042800C0B2B201520AA8E7730703D00F233340C2
:10043800042B9AD12B0067E7002B23D0531B002DE8
:100448007BD1002E00D186E05D1E012B00D18BE010
:10045800FF2B02D02B0075E04C466746002F00D1D9
:1004680089E78022D2033A435202FF20520A84E7E6
:10047800771A7B016BD4002F00D065E70024002099
:1004880000227AE7FE226B1C1A4249D1002D00D0C7
:100498009FE0002E00D1BAE0002900D1CFE0721809
:1004A800530100D4CDE092010120520A65E7FF2AEA
:1004B800D2D08020C004064301201B2B08DC30006A
:1004C8002024D840E31A9E4033005C1EA341184301
:1004D8004C4615000E1A32E708002022D840D31ADD
:1004E80099400B005A1E93410343F61873019BD59C
:1004F8000135FF2D00D13EE701234D4972083340F5
:100508000A401A431600530704D00F231340042B44
:1005180000D02AE7730100D52AE72B00F708F7E691
:10052800FF2B00D127E7711849084A072FD00F225F
:100538000A40042A2BD00E1DE6E6FF2A8DD0802023
:10054800C00406431B2B24DD13004E1DDCE64C467D
:100558008F1BF9E64C460E00D6E6002E49D100293D
:1005680068D067464C467CE77018430174D530491B
:1005780040080140430709D00F230340042B05D04E
:1005880002230E1DC0E60123CF08C1E60223CF08CF
:10059800BEE620253000D840EB1A9E4033005D1E91
:1005A800AB41034315005E18A0E7002900D165E7B9
:1005B8004C466746ACE68F1B7B012ED5BF01BF09B1
:1005C800380001F0C3FD3B00053883404C46013537
:1005D80010E7002E00D140E7002900D141E7802331
:1005E800DB039F4200D23CE79C4500D339E76746CE
:1005F80037E7002900D134E78023DB039F4200D28C
:100608002FE79C4500D32CE74C46674629E700298D
:1006180000D134E70023CF087AE64C460123FF08CF
:1006280076E6002F00D129E7FF0871E6FFFFFFFB00
:10063800FFFFFF7D80220024FF20D2039DE60023D8
:1006480066E60023D70863E60120720100D5E7E6D5
:1006580031000023CF085BE60123C70858E6C046EF
:10066800F0B546464F46D6464502C0B5C30F4700CB
:1006780098460E1C6D0A3F0E5BD0FF2F21D08023B9
:10068800ED00DB041D43002399469A467F3F740220
:100698007300640A1B0EF60F002B20D0FF2B43D0EB
:1006A80080220020E400D20414437F3B4246FF1A14
:1006B8004B4672400F2B00D99DE071499B00CB58E7
:1006C8009F46002D5AD108239946063B74029A4644
:1006D8007300FF27640A1B0EF60F002BDED1002CD7
:1006E8003BD1012342464946724019430E2918D886
:1006F8006448890041588F465346022B00D1B8E020
:10070800032B6ED042462C00012B40D10020002440
:10071800C0052043D2071043E0BCBA46B146A846FC
:10072800F0BDFF200024F3E7002C20D10223FF3F77
:10073800D8E7002D05D104239946033B00279A46A4
:10074800A5E7280001F002FD7627431F9D400023FE
:100758007F4299469A463F1A99E7200001F0F6FC35
:10076800431F9C4076235B421B1A00209EE703230D
:100778004A461A4391460320FC3397E70C239946CF
:10078800093BFF279A4682E703282CD0320038001D
:100798007F30002847DD630704D00F232340042B54
:1007A80000D00434230103D53800374B80301C4077
:1007B800FE28B6DCA401640AC0B2A9E7802400229E
:1007C800FF20E403A4E78023DB031D4201D01C4281
:1007D8000BD08024E4032C4364024246FF20640AC1
:1007E80096E746462C008023DB031C436402320054
:1007F800FF20640A8CE76D01600185422DD21B231E
:100808000024013F0126290064006D00002901DB56
:10081800854201D32D1A3443013B002BF3D16B1EC3
:100828009D412C43B3E701231B1A1B2B00DD6DE709
:1008380021009E37D940BC400B00611E8C412343E8
:10084800590704D00F211940042900D00433590155
:1008580013D49B0100205C0A5AE71A2301242D1A9D
:10086800D0E7981E43425841404232000024C0B2AB
:100878004EE74246FF2000244AE70120002447E7CC
:100888009C5C0008DC5C0008FFFFFFF7F0B54F46F2
:100898004646D6464400C0B546020F1C760A240ECA
:1008A800C50F002C00D1DAE0FF2C74D08023F600AD
:1008B800DB041E43002399469A467F3C7B025B0A71
:1008C80098467B001B0EFF0F002B74D0FF2B00D126
:1008D8008EE042468021D200C90411437F3B2A00A2
:1008E800E4184B467A408846D2B20A2B75DC4B4650
:1008F8000020022B0FDD494601238B40A621C900A9
:100908000B4269D1902189000B4200D000E1882177
:10091800194200D0F5E041460904090C4346080095
:10092800350C36041B0C360C704369435E435D433B
:100938007618030C9B19994203D9802149028C46E9
:10094800654400041904000C09188E01701E8641C4
:100958001B0C890E5B190E439B011E431B016CD4B3
:1009680023007F33002B00DCB1E0150071070BD0AA
:100978000F2021003040042806D00436320103D568
:100988006E4B1E400B008033FE2B00DDBDE0B20134
:10099800520ADBB248E0002E00D092E008239946C4
:1009A800063B9A467B025B0A98467B00FF241B0E97
:1009B800FF0F002B8AD14246002A64D149460132F2
:1009C800114389460A2908DC7D400120EAB2022940
:1009D80091DC1500002227E015005346022B00D1B8
:1009E80093E0032B1AD0012B2CD1002300221BE00B
:1009F8004346FF34002B55D003214B460B431900C7
:100A08000A2B00DC92E00F2B00D08CE08022D2036E
:100A1800164203D04346134200D17DE08022D20320
:100A280032435202520AFF23D805ED0710432843E8
:100A3800E0BCBA46B146A846F0BD012315007108CE
:100A48001E400E4323008033611C002B41DD7207DA
:100A580094D00F223240042A00D08EE78EE7002E71
:100A680005D104239946033B00249A4626E7300023
:100A780001F06CFB7624431F9E4000236442994694
:100A88009A46241A1AE7404601F060FB4B46241A9E
:100A9800763C0A2BA1DC4346053883407D409846C6
:100AA800EAB224E74A46023313432A007A40D2B214
:100AB8000A2B92DC49461500002926D099460220C7
:100AC80019E70C239946093BFF249A46F6E61500D8
:100AD80021000122D31A1B2B00DD86E79E3132004C
:100AE8008E40DA40731E9E413243530704D00F23D1
:100AF8001340042B00D00432530110D501230022E7
:100B080092E73D004646824667E7FF2300228BE7CF
:100B180080220025D20386E73D001A4383E792012D
:100B28000023520A80E73D00464677E72A00012362
:100B38007A408B400320D2B2E9E6C046FFFFFFF7B8
:100B4800F8B54746CE46430280B55F0A9B09450083
:100B58004A009C464B02C40FCE0F2D0E580A120EA7
:100B68009909FF2A6BD001235E40AB1AB4424BD0DF
:100B7800002B00DCFFE0002A00D188E0FF2D00D127
:100B8800EFE08022D204114301201B2B08DC08006F
:100B98002022D840D31A99400B005A1E934118437B
:100BA80063461B1A9C4663465B0100D4CDE063464E
:100BB8009F01BF09380001F0C9FA3B00053883409E
:100BC800854200DCA2E0B74A2D1A1A4094465A071B
:100BD80000D1C3E00F221340042B00D1BEE0042350
:100BE8009846C44463465B0100D4B7E0681CFE2DF8
:100BF80000D0A5E0FF200022C0051043E4072043F1
:100C0800C0BCB946B046F8BD002B00DCEBE1002AB9
:100C180046D0FF2D00D1A4E08022D20411431B2B23
:100C280000DCFBE0052398462B00C4446246D70845
:100C3800FF2B00D195E07A02520AD8B2DCE72B00EC
:100C4800FF3B9946002918D101235E40B44200D1E8
:100C5800CAE04B46002B2DD0002D00D03CE1FF23ED
:100C68006446002C00D15FE15D1E012B00D174E1C8
:100C78003400FF2B74D02B0003E1B44200D19CE078
:100C8800002B17D0002DEAD0070034006CE00029B3
:100C9800CCD05A1E012B2BD0FF2B62D0130073E748
:100CA8000029C3D05A1E012B00D11EE1FF2B58D0BA
:100CB8001300B4E7FE226B1C1A420DD1002D60D040
:100CC8006346002B00D020E1002900D028E18022D3
:100CD8000024FF20D2038FE763465F1A7B0100D50B
:100CE800FEE0002F00D065E700240020002283E703
:100CF8006346591A4B0100D419E18F01BF09380026
:100D080001F024FA3B000538834001252022401BCE
:100D18000130121A19009340C1405A1E93411943D9
:100D28008C460B1EE1D05B0700D152E10F23002552
:100D38000B40042B00D052E701204A0100D492E076
:100D4800C0B263469A01520A56E763465B0705D06C
:100D58000F2362461340042B00D040E72B0065E7C1
:100D68000700002F00D145E78022D2033A43520200
:100D7800FF20520A40E7002B79D1FE226B1C1A4251
:100D8800AAD16346002B00D1F5E0002900D1D1E0BB
:100D98005F1A8023DB041F4200D10EE16246012462
:100DA8008A1A944600203440002A00D124E7012002
:100DB8001A42C6D10023D7083DE7002B17D0002DD3
:100DC80000D0AFE0FF236546002D00D1ADE05E1EE8
:100DD800012B00D189E0FF2BC2D01B2E00DCABE039
:100DE8004B1D9C46130021E74B46002B70D1FE2279
:100DF8006B1C1A425ED1002D00D0C3E06346002B65
:100E080000D1D0E0002900D194E00A0062445301E7
:100E180000D4D8E092010120520AEDE60800202211
:100E2800D840D31A99400B005A1E934103439C445F
:100E380063465B0189D50135FF2D00D1DAE66246AC
:100E480001231949134052080A401A4313009446D3
:100E58005B0704D00F231340042B00D0BFE6634682
:100E68005B0100D5C2E66346DF082B00E3E6531BAF
:100E7800002D00D1F4E680206446C0040443A44653
:100E8800340001201B2B09DC20256046D840EB1AD2
:100E980065469D402B005D1EAB4118430B1A9C46CE
:100EA800150080E6FFFFFFFBFFFFFF7DFE226B1CA6
:100EB8001342A3D0FF2B00D19CE6614449084A079E
:100EC80049D00F220A40042A45D00A1D9446ADE6AF
:100ED800002D00D176E78DE63400FF2000228BE656
:100EE80063460124CF1A344064E661444B016DD552
:100EF80048084449014043072CD00F230340042BE2
:100F080028D00B1D9C46022390E6002900D12BE730
:100F18008023DB039F4200D226E7984200D323E7D1
:100F28000124344007001FE734008C467EE6012385
:100F3800CF0880E600237EE620206546801B85409A
:100F480063462800F340451EA84103439C4615000C
:100F58008C446DE70223CF086DE60F1B7B0128D573
:100F6800BF01BF09380001F0F1F83B0005388340A4
:100F780034000125CAE6002900D1B5E6012407009E
:100F8800344058E66346002B00D1E9E6002900D139
:100F9800EAE68023DB039F4200D2E5E6984200D3CD
:100FA800E2E60700E0E6002900D19EE60023CF082C
:100FB80041E634000123FF083DE6002F00D193E607
:100FC8000023FF0837E60023D70834E60123CF08BB
:100FD80031E680220B00D20401201340114200D0D8
:100FE800AEE6CF0827E6002B00D15FE7561B002DA1
:100FF80001D13300E7E680236046DB0418438446CA
:10100800EBE6C046FFFFFF7D41024200C30F490ADD
:101018000020120E7E2A03DD9D2A02DD094A981857
:101028007047802000040143952A07DC9620821A25
:10103800D1404842002BF3D10800F1E7963A91409D
:10104800F7E7C046FFFFFF7F70B5002812D0C3172F
:10105800C5185D40C40F280001F078F89E231B1ABC
:10106800962B0FDC082838D0083885406D026D0AA9
:10107800D8B202E0002400200025C0052843E40778
:10108800204370BD992B14DC421F95402A00154956
:10109800114055071CD00F252A40042A18D00431C6
:1010A800CA08490115D59F235202181A550AC0B219
:1010B800E3E705222900121AD14002001B329540AD
:1010C8002A00551EAA410A43064911405507E2D194
:1010D800CA085202550AD8B2CFE76D026D0A8E309F
:1010E800CBE7C046FFFFFFFB10B5041E0DD001F093
:1010F8002DF89E231B1A962B0CDC082834D00838B0
:1011080084406402640AD8B201E000200024C005CB
:10111800204310BD992B13DC421F9440144A2240EF
:1011280061071CD00F212140042918D00432D408AB
:10113800520115D59F236402181A640AC0B2E6E763
:10114800020021001B3291400A00511E8A410521EC
:10115800091ACC401443064A22406107E2D1D40858
:101168006402640AD8B2D2E76402640A8E30CEE719
:10117800FFFFFFFBF0B557464E46DE464546E0B555
:101188001F000B031B0B16009A46CA0F4B000400E6
:10119800914685B05B0D00D1CFE1CD4A934255D041
:1011A8005146420FC9000A43802109041143C20075
:1011B8009046C84A8A4693469B44002300250293DA
:1011C8003C037B00FA0F0196240B5B0D009200D1C3
:1011D80088E1BF4A934200D192E0BE4A94466344F4
:1011E8009B440A2D42DCE400730F234380244946C4
:1011F80024041C43F3000193009B00205940CBB208
:101208000393022D00DC94E00123AB401D00A623CC
:101218002A00DB001A401D4200D029E290239B00DF
:101228001D4200D14DE20023802499462403A84B97
:1012380010004A461B052343D2071343190005B083
:10124800F0BCBB46B246A946A046F0BD5246024392
:10125800904600D0ACE19B460223924608250293B3
:10126800AEE7009BA2469946019B9846029B022B3B
:1012780000D1CAE1032B00D192E1012B10D1002348
:1012880000240022D4E701227B083A401343524647
:10129800D2071343984653465B089A46039B9946E0
:1012A8005B46581C8023DB005B44002B00DCB1E16B
:1012B800424652070BD00F2241460A40042A06D064
:1012C8004246111D41459241884652429244524637
:1012D800D20106D55246804B1A4080239246DB0045
:1012E800C3187E4A934200DD8FE14246D108524638
:1012F80052070A4351465B054C02240B5B0D97E7E6
:10130800734B26439C46E344002E00D16FE1032330
:1013180049461D43009B5940CBB203930A2D00DD7B
:1013280033E10123AB401D000323029388222A42A4
:1013380097D1424643461204120C160001981D0C20
:10134800030C0004000C4643B4461E006E4300968E
:10135800160007005E436146B0466F430E0CB84462
:101368004644B74205D9802149028846009F474430
:10137800009761460904090C370C36048C46310085
:10138800614401911100260C2404240C61438C460D
:101398002100694389466146090C884672434A44DC
:1013A80042447543914503D9802149028846454402
:1013B800110C884661460904090C8C4612046244E3
:1013C800B91802915146090C8C4651460F043F0C3E
:1013D8003900414345448846614641438A4641466F
:1013E8006046090C894658437B4353444B449A450D
:1013F80003D98021490289464844190C8946414647
:101408000904090C8846390061431B044344884693
:1014180061464C4371438C46414677430E0C3F1955
:10142800F6194844B44203D9802149028946CC447C
:101438000299009F894631044F44894641469742A4
:1014480092410C04240C4C44FF1852426419A11810
:101458009F429B41884682465B429946904592410D
:10146800AC42A441C244D144524264421443994517
:101478009B41824592415B42524213434A46360C95
:10148800A419E31863445B02D20D1A4301999246EA
:101498007A020A43501E8241FF0D17434A46520200
:1014A8001743B846DB0100D5EDE60D4B039A5B44C4
:1014B8009146002B00DCACE03A00520700D110E75F
:1014C8000F2258463A40042A00D0F9E609E7C046F8
:1014D800FF07000001FCFFFFFFFFFFFEFE07000003
:1014E800FF030000220032436FD0002C00D1C2E07D
:1014F800200000F02BFE020003000B3A1D20821A88
:1015080030001900D04008398C40020022433400D2
:101518008C405946CB1A86498B469B440A2D00DDE0
:10152800A4E64946009B01945940CBB21400002020
:101538000393022D00DD67E6FBE653460343984616
:101548003CD05346002B00D1A3E0504600F0FEFDEE
:101558000B235B429C460200844411005046083924
:1015680088401D23804660461B1A2000D84003008F
:10157800404603439A4623008B4098466C4B00250F
:101588009B1A9B46002302931AE60F2D00D0C9E050
:10159800802352461B031A4202D01C4200D192E01B
:1015A8008024534624031C4324034246240B3EE66E
:1015B8009B46032380460C25029301E600239A46A6
:1015C8009B46013304250293FAE501210D430A2DB8
:1015D80000DD4BE6494600984140C9B20391022D0F
:1015E80000DC96E000230024012001930CE6494624
:1015F8000223009A2B435140CAB203920A2B00DD02
:1016080034E6002D57D1039B994600240022494B0C
:101618000EE658460121C91A382900DD2FE61F2990
:1016280056DD1F2254465242D31ADC40202907D0E7
:10163800414B42469C465346604483401A43904679
:1016480042460721531E9A410B00224313400024AF
:10165800114209D00F231340042B5DD0111D914274
:101668009B410A005B425B07D2081A430023DFE56F
:10167800039B9946FAE5019800F068FD0200030013
:10168800153220331C2A00DC38E7019A08388240DA
:101698003FE700F05BFD15239C4684440200634647
:1016A80020321C2B00DC58E700239846230008381A
:1016B80083409A4662E71D0000230024022001931C
:1016C800A2E5029032E61C43009B019A9946AEE5DA
:1016D8001A4B5246C31840469A40C84002434046F7
:1016E80098400300581E834154461A43CC40530780
:1016F80009D00F231340042B05D0131D93429241A8
:101708005242A4181A00230208D5012300240022FB
:101718008EE5894600248BE50023A5E7630764026C
:10172800240BA1E7009BA2469946019B984637E700
:101738000DFCFFFFFF0700003E0400001E04000030
:10174800F0B557464E464546DE46E0B583B00090B4
:1017580001910C034D00CE0F610A009C5F00640FDD
:101768000C43009900920193C80019037B0D994618
:10177800019BCC4FDB0F9C464B0A00998046490FD2
:101788001943009B8B46DA0092466D0DB94500D18E
:10179800BFE00123614659404B468C46EB1A8E4206
:1017A80075D0002B00DCA3E24946002900D1CEE029
:1017B800BD4200D100E20127382B19DC80275946A9
:1017C8003F0439438B461F2B00DDFAE12027F91A25
:1017D8008C4659466746B9400F001100D9400F435F
:1017E80061468A40511E8A415946D9401743641AB6
:1017F800C71BB84280414042241A230200D440E16A
:101808006402640A002C00D154E1200000F09EFC20
:101818000300083B20213800CA1AD0409C4002002F
:101828009F4022439D4200DDA6E1581B0130091A62
:101838003C008F40C4407B1E9F4113008B402743D0
:101848001F43C2403B0014000025134300D1F7E1B9
:101858007B0700D177E30F2338003B40042B04D0EB
:10186800381DB842BF417F42E419230200D468E31F
:101878008C4B01359D4200D1F4E08B4B6D051C402B
:101888006D0D6707C00864020743240BECE0002BCA
:1018980000DC29E34946002900D0D6E05946114327
:1018A80000D12EE1591E012B00D1E6E1BB4200D147
:1018B80082E101270B00382914DC1F2B00DD3CE2F4
:1018C8002027F91A8C4659466746B9400F0011007F
:1018D800D9400F4361468A40511E8A415946D94032
:1018E800174364183F188742804140422418230256
:1018F80000D4C6E06B4B01359D4200D1B2E0012116
:10190800694B7A081C4039400A43E70717436408C3
:101918009EE7664B11438A46EB18002928D0664596
:101928002CD0002B5BD0002D00D12CE15B46664605
:101938005F07D2081743DD083B002B4300D1E2E0E4
:10194800802424032C432403564D240B8CE0594651
:10195800114300D1D5E0591E012B00D1B9E1BB429A
:1019680000D1B1E101270B00382900DD40E72AE763
:101978006146012779408C466645D2D1002B00D1BB
:10198800C5E0002D00D055E14B462500054300D1A8
:1019980012E2591E8C46012B00D149E2414DAB425F
:1019A80000D18FE20127382911DC63461F2B00DDA7
:1019B8005BE26146202327005B1A050098409F40A0
:1019C800CD40431E9841CC402F430743A344BF1842
:1019D8009742924152425A4414004D4687E7344F89
:1019E8006B1C3B4200D0B6E05946230011430F0060
:1019F8000343002D00D026E1002B00D1C0E10029CF
:101A080000D1A1E0831A98465B464045AD41E31AF0
:101A18006D425B1B80252D042B4200D14BE15B46B8
:101A2800101A824292411C1B07000126634652424B
:101A3800A41A27431E40002F00D142E12C4200D1B6
:101A48006DE2194B01251C401BE7BD4200D13BE16B
:101A58000127382B00DD45E7802759463F043943E5
:101A68008B462AE7002400272D052543F607354332
:101A78003800290003B0F0BCBB46B246A946A046D0
:101A8800F0BD7B0704D00F233B40042B00D0E7E6D2
:101A98002B00F808034A67070743E508934200D17B
:101AA8004AE7A5E0FF070000FFFF7FFF01F8FFFFFF
:101AB800FE070000380000F049FB030018331F2B15
:101AC80000DCA7E63A00083882409D4200DD8AE043
:101AD8005B1B581C1F2800DCD8E117001F3BDF40A8
:101AE800202805D040231B1A9A40531E9A411743B9
:101AF8000025002F00D1E5E07B0700D0ABE62C00E5
:101B0800C6E7C008C6E700270024D14DACE7D14F8F
:101B18006B1C3B4271D123000343002D00D04EE1E2
:101B28005746002B00D1B5E1002F0DD08318834212
:101B380080415C4440422418220200D5C8E11F00BD
:101B48009846274300D1BCE043466707DB081F439C
:101B5800E50800234CE0831A98465B464045BF41A0
:101B6800E31A7F42DB1B1F027CD447461F4300D188
:101B7800A6E01C00474645E6B74CED1A14407B0723
:101B880000D080E784E74B462500054366D05F1EFA
:101B9800012B00D1FCE0AE4DAB4200D15EE16646C0
:101BA800382F00DCB4E00120171ABA4292415B4694
:101BB80052424D469C1A20E66707C0080743E508CD
:101BC800BAE61F005946203FF9400F00202B05D0E8
:101BD8004021CB1A594699400A43924653465A1E09
:101BE80093411F4304E6EB1A9B4D15406F07ED0820
:101BF8002C035D05240B6D0D36E7954DAB4200D1E6
:101C0800D6E0821821008242804159444042081897
:101C1800C707520817434408520700D485E10F222A
:101C28001D003A40042A00D01AE6FF08640727433B
:101C38000509DDE75B46D2085F071743DD087BE649
:101C48000027002410E7002B00D0D6E0002900D0A0
:101C58002FE1802400267E4D240305E766465C4676
:101C6800D00817E75B46171ABA4292411C1B012697
:101C780063465242A41A1E40C4E583188342804139
:101C88005C44404225182A0200D4DAE0724A5B0814
:101C98001540EA071A4369085B0700D44AE10F2395
:101CA8001340042B00D1FCE0171D9742A441644265
:101CB80002256418ECE647461C001F4300D043E7A2
:101CC800002600250024CFE6C00867070743E5087B
:101CD80032E6871A5B46B8428041E41A4042241A29
:101CE800230228D46307FF081F43E50801237FE781
:101CF800002B00D173E64B465F1B3B00002D00D143
:101D080042E7382F00DDECE080230E001B041C4363
:101D18001F2F25DC20252300ED1B0100A840AB4028
:101D2800F940451EA8410B43FC4018435B461B1B6A
:101D38009B4639E76646012562E51F005946203F64
:101D4800F9408C46202B05D040275946FB1A99406C
:101D58000A43924657467B1E9F4163461F43C1E58F
:101D68003B002500203BDD40202F04D04023DB1B17
:101D78009C40204380464046431E9841284313E731
:101D880000299DD0012663465C4690461E40DBE64E
:101D9800171A5B46BA4292411C1B5242A41A2302EC
:101DA800C8D46307FF081F4366460123E5081FE7F9
:101DB8001D000024002757E65C46D0086AE6002B81
:101DC80000D137E75346C00867070743E508002BEB
:101DD80000D1B1E580231B031D4208D05946C8082D
:101DE800184204D1D20849070A43170005007B0F9F
:101DF800FF00FF085B071F439EE5C0086307184301
:101E0800E508002953D080231B031D420AD05946F8
:101E1800CC081C4206D1012663462500D008490794
:101E280008431E40470FC000C0087F07074383E5EB
:101E38008318934292415C445242A5182A0200D565
:101E480024E76F07DB081F43ED080123D0E6C046EF
:101E5800FF070000FE070000FFFF7FFF5B46D20878
:101E68005F0766461743DD0866E52500203BDD4031
:101E78006346202B05D0402361465B1A9C402043D3
:101E8800804647467B1E9F412F43A0E5202100271F
:101E9800091AD2E4002F00D113E75C461700002589
:101EA800F6E5D708490702230F432D09A0E60700E6
:101EB80042E55B4601265F07DD086346D208174303
:101EC8001E4039E55B46D2085F071743DD0833E556
:101ED8001E4ADB0822405707520201251F43140BF4
:101EE800C2E50E0001205FE6002B0DD04B465B1BC0
:101EF8009C46002D00D148E50127382B00DD66E51A
:101F080080231B041C4350E56B1C114D2B4200D051
:101F180073E65946230011438A46034300E66707E0
:101F2800C00800230743E50862E66407FF08274363
:101F380005095DE6D208490711430F0002232D0960
:101F480056E60700A4E538008FE4C046FFFF7FFF90
:101F5800FE0700000B00020070B5164D0C0382B09E
:101F68004900002000920193240B490DDE0FA9427D
:101F780004DD1148814203DD104BF01802B070BD3A
:101F88008020400320430E4C641A1F2C08DD0D4BA3
:101F98005B1AD84003005842002EEFD11800EDE735
:101FA800094B009A9C46030061448B40E24013436E
:101FB800F1E7C046FE0300001D040000FFFFFF7F9D
:101FC8003304000013040000EDFBFFFF70B542026C
:101FD8004300C40FFE201B0E591C550A08420CD0A2
:101FE800E02189008C466D07120B63441B051343DF
:101FF800E40723432800190070BD002B14D1002DDD
:102008001BD0280000F0A2F80A281CDC0B232A00A9
:102018001B1ADA40030015339D400E4B12031B1A9E
:102028005B05120B5B0DE1E7002D09D0130B802235
:1020380012031A436D07084BD8E700230022D5E79F
:102048000022054BD2E703002A000B3B9A400025EB
:10205800E3E7C04689030000FF070000844610003C
:1020680062468C461900634600E0C0461FB500F082
:10207800F7F9002801D40021C8421FBD10B500F0AF
:102088003BF94042013010BD10B500F0E9F90028D5
:1020980001DB002010BD012010BDC04610B500F0C6
:1020A800DFF9002801DD002010BD012010BDC04669
:1020B80010B500F065F9002801DC002010BD0120F2
:1020C80010BDC04610B500F05BF9002801DA002009
:1020D80010BD012010BDC046844608006146FFE7D8
:1020E8001FB500F0C1F8002801D40021C8421FBD67
:1020F80010B500F049F84042013010BD10B500F0AD
:10210800B3F8002801DB002010BD012010BDC04637
:1021180010B500F0A9F8002801DD002010BD01204D
:1021280010BDC04610B500F057F8002801DC0020AB
:1021380010BD012010BDC04610B500F04DF80028B4
:1021480001DA002010BD012010BDC0461C2101236A
:102158001B04984201D3000C10391B0A984201D382
:10216800000A08391B09984201D30009043902A260
:10217800105C40187047C0460403020201010101C7
:10218800000000000000000070B542004E024C0044
:1021980045026D0A120EC30F760A240EC90FFF2AD4
:1021A80010D0FF2C0CD00120A2420AD1B54208D190
:1021B8008B420FD0002A04D12800431E984100E02A
:1021C800012070BD0120FF2CFBD13543F9D14B40D4
:1021D8001800F6E70020F4E730B5420044024D024B
:1021E800C30F4800640A120E6D0A000EC90FFF2AB9
:1021F80018D0FF280AD0002A1ED100280AD1002DA5
:1022080029D0002C2DD14800013830BD002D25D112
:10221800002A01D1002CF6D08B4219D001205B4254
:102228001843F2E7002C19D1FF28F7D1002D15D15A
:1022380000208B42F2D1E8E70028EFD08B42EDD1A5
:102248008242EBDC04DBAC42E8D80020AC42DCD2B2
:1022580058000138D9E7002CD7D0DFE702204042E8
:10226800D3E78B42DAD1EEE730B5420044024D02A3
:10227800C30F4800640A120E6D0A000EC90FFF2A28
:1022880017D0FF280AD0002A1BD100280AD1002D18
:102298001DD0002C2DD14800013811E0002D0ED1A1
:1022A800002A01D1002CF6D08B420CD158000138FD
:1022B80006E0002C03D1FF2805D1002D15D00220FF
:1022C80030BD002806D101205B421843F8E7002CF6
:1022D800F6D0F8E78B42F6D18242F4DCE6DBAC427A
:1022E800F1D80020AC42EBD2E0E700208B42EAD1E3
:1022F800E6E78B42E7D1F2E7F0B55746DE464E46B1
:102308004546E0B50D000400E80F83460903D80FE1
:10231800090B824619488C461F0369005E00490D67
:102328003F0B760D814218D086420FD00120B14272
:102338000DD1BC450BD1944209D1D3451CD00029FD
:1023480005D160462043431E984100E00120F0BCBF
:10235800BB46B246A946A046F0BD01208E42F6D142
:10236800614639430F0017432743F0D15B46524675
:10237800981A431E9841EAE70020E8E7FF070000A3
:10238800F0B557464E464546DE46E0B50D000E030D
:102398004900490D8A46DF0FE90FBC4683B02F4F2D
:1023A800040080460191580019039146360B090B29
:1023B800400DBA451DD0B8420DD05746002F2AD13E
:1023C8003443002824D10A4336D0002C41D1634637
:1023D8005800013815E0114338D15346002B01D17C
:1023E8002643F4D0019B634507D1019B580001386F
:1023F80007E026432AD1504521D00120019B5F42A6
:10240800384303B0F0BCBB46B246A946A046F0BD6F
:10241800002CDCD0E6E70028EFD0019B6345ECD127
:102428008245EADCE1DB8E42E7D8DED1C845E4D854
:102438000020C845E5D2D8E7002CE2D0DDE71143FB
:1024480004D1019B6345D8D10020DAE7022040423D
:10245800D7E7019B6345E6D0CFE7C046FF070000FA
:10246800F0B557464E464546DE46E0B50D000E032C
:102478004900490D8A46DF0FE90FBC4683B02E4F4D
:10248800040080460191580019039146360B090B48
:10249800400DBA451ED0B8420DD05746002F27D15F
:1024A8003443002833D10A4334D0002C40D163464A
:1024B8005800013815E0114312D15346002B01D1C1
:1024C8002643F4D0019B63451DD00120019B5F4248
:1024D800384306E0264303D15045F6D111431CD0BA
:1024E800022003B0F0BCBB46B246A946A046F0BDE8
:1024F8000028EAD0019B6345E7D18245E5DC02DB91
:102508008E42E2D80ED0019B58000138E9E7002C32
:10251800CDD0D7E7002CE4D0D7E7019B0020634556
:10252800DFD0D2E7C845D0D80020C845D9D2EAE7DD
:10253800019B6345E4D0C8E7FF07000080B500AF02
:1025480001F06CFC00F07EF800F030F900F0C2F801
:10255800394B180001F0F6FF384B180001F0E4FC85
:10256800374B1A003C21022000F0C6FAFA23DB00A0
:102578001900022001F000FBFA23DB001A001E21DB
:10258800022001F0B5F8FA23DB001900022001F05F
:10259800F3FA2B4B1A001E21022000F01BFFFA232E
:1025A800DB001900022001F0E7FAFA23DB001A0029
:1025B8009621022001F082F9FA23DB00190002209B
:1025C80001F0DAFA6421042000F0B4FEFA23DB00FB
:1025D8001900022001F0D0FA194B1A001E2102201E
:1025E80000F0C0FFFA23DB001900022001F0C4FA52
:1025F800FA23DB001A009621012000F021FDFA23BE
:10260800DB001A009621012000F0AEFBFA23DB0064
:102618001A009621012000F0A7FBFA23DB001A001C
:102628009621012000F00CFDFA23DB00190002209E
:1026380001F0A2FAC04693E72C000020DC05000058
:10264800C409000090B593B000AF14243B191800DA
:1026580034231A00002103F0D9FA3B1D1800102377
:102668001A00002103F0D2FA80239B00180002F020
:10267800F3FD3B1902221A603B1980225200DA60EE
:102688003B1900221A613B1940225A613B1900226A
:10269800DA613B19180002F01FFE031E01D001F099
:1026A800F1FA3B1D07221A603B1D00225A603B1DB0
:1026B80000229A603B1D0022DA603B1D00211800B1
:1026C80003F01AF9031E01D001F0DCFAC046BD463A
:1026D80013B090BD80B584B000AF3B1D18000C232B
:1026E8001A00002103F092FA2D4B2E4A1A602C4B47
:1026F8008022D2055A602A4B00229A60284B002279
:10270800DA60274B00221A61254B04225A61244BB8
:1027180000221A76224B00225A76214B00229A7602
:102728001F4B0122DA611E4B2022002199541C4BB9
:1027380000225A621A4B00229A62194B2C2200215D
:102748009954174B00221A63154B07225A63144BEE
:1027580007229A63124B3C2200219954104B002205
:10276800DA640F4B180001F045FD031E01D001F09B
:1027780089FA3B1D0C4A1A603B1D00225A603B1D1A
:1027880000229A603A1D064B1100180002F086F8E4
:10279800031E01D001F076FAC046BD4604B080BDE4
:1027A8002C000020002401400008002C90B589B0BE
:1027B80000AF0C243B19180014231A00002103F061
:1027C80025FA394B5A6B384B02210A435A63364B68
:1027D8005B6B02221340BB60BB68334B5A6B324BB6
:1027E80004210A435A63304B5B6B042213407B601D
:1027F8007B682D4B5A6B2C4B01210A435A632A4B99
:102808005B6B012213403B603B682849284B002240
:10281800180002F003FD2749274B0022180002F098
:10282800FDFC2649A023DB050022180002F0F6FC77
:102838003B191E4A1A603B1911225A603B190022A3
:102848009A603B190022DA603B19194A19001000F6
:1028580002F080FB3B19174A1A603B1911225A6093
:102868003B1900229A603B190022DA603B19124A90
:102878001900100002F06EFB21007B180F4A1A6045
:102888007B1811225A607B1800229A607B1800225C
:10289800DA607A18A023DB051100180002F05AFB51
:1028A800C046BD4609B090BD001002407F0300003D
:1028B8000004005040C0000000080050FF9F0000C6
:1028C80080B582B000AF78600E4B180001F0B2FE00
:1028D80003009AB20C4B1A800B4B1B881800FEF7AA
:1028E80003FC031C0949181CFDF7BAFE031C1A1C3B
:1028F800074B1A60034B180001F024FEC046BD4682
:1029080002B080BD2C0000209000002000C07F4451
:102918009400002080B500AF0F4B180001F08AFE2C
:1029280003009AB20D4B1A800C4B1B881800FEF757
:10293800DBFB031C0A49181CFDF792FE031C1A1C3A
:10294800084B1A60044B180001F0FCFD054B1B688E
:10295800181CBD4680BDC0462C00002090000020F9
:1029680000C07F449400002080B582B000AF020010
:10297800FB1D1A70BB1D0A1C1A70FB1D1B780A2B45
:1029880000D9AFE09A00594BD3181B689F46BB1D6E
:102998001A7880239B005648190002F03FFCBB1DA3
:1029A8001A78A023DB058021180002F037FC99E093
:1029B800BB1D1A788023DB014E48190002F02EFC5B
:1029C800BB1D1B784A481A00012102F027FC89E048
:1029D800BB1D1A7880231B024648190002F01EFC12
:1029E800BB1D1B7842481A00022102F017FC79E04F
:1029F800BB1D1A78A023DB050121180002F00EFC8C
:102A0800BB1D1B783A481A00042102F007FC69E054
:102A1800BB1D1A78A023DB050221180002F0FEFB7B
:102A2800BB1D1A7880235900A023DB05180002F08B
:102A3800F5FB57E0BB1D1A78A023DB05042118001D
:102A480002F0ECFBBB1D1A7880239900A023DB055C
:102A5800180002F0E3FB45E0BB1D1A78A023DB0554
:102A68000821180002F0DAFBBB1D1B7821481A0068
:102A7800402102F0D3FB35E0BB1D1A78A023DB050B
:102A88001021180002F0CAFBBB1D1A788023D90058
:102A9800A023DB05180002F0C1FB23E0BB1D1A7858
:102AA800A023DB052021180002F0B8FBBB1D1A7813
:102AB80080231901A023DB05180002F0AFFB11E009
:102AC800BB1D1A78A023DB054021180002F0A6FBE5
:102AD800BB1D1A7880235901A023DB05180002F0DA
:102AE8009DFBC046C046BD4602B080BD185D0008CB
:102AF8000004005000080050B0B584B000AF0400D6
:102B080008001100FB1D221C1A703B1D021C1A80B4
:102B1800BB1C0A1C1A800F23FB1800221A7074E0D1
:102B28000E23FB1801221A7020E00E257B191B7852
:102B380001211800FFF718FF3B1D1B881800FEF73E
:102B480083FA041CFFF7E6FE031C191C201CFDF782
:102B58009DFE031C181CFDF75BFB0300180001F029
:102B6800E3F97B191A787B1901321A702D4B1B78FF
:102B78000E22BA1812789A42D7D9BB1C1B881800A3
:102B8800FEF762FA041CFFF7C5FE031C191C201C83
:102B9800FDF77CFE031C181CFDF73AFB0300180028
:102BA80001F0C2F90D23FB1801221A7020E00D254F
:102BB8007B191B7800211800FFF7D6FE3B1D1B88E8
:102BC8001800FEF741FA041CFFF7A4FE031C191CA9
:102BD800201CFDF75BFE031C181CFDF719FB030006
:102BE800180001F0A1F97B191A787B1901321A70C3
:102BF8000C4B1B780D22BA1812789A42D7D90F219C
:102C08007B181A787B1801321A700F23FA18FB1DEB
:102C180012781B789A4283D3C046C046BD4604B09A
:102C2800B0BDC0460000002080B584B000AF0200EF
:102C3800FB1D1A700F23FB1801221A701AE00F21CE
:102C48007A18FB1D12781B789A4206D87B181B78D5
:102C580001211800FFF788FE06E00F23FB181B78F8
:102C680000211800FFF780FE0F217B181A787B18C7
:102C780001321A70054B1B780F22BA1812789A4243
:102C8800DDD9C046C046BD4604B080BD0000002066
:102C980080B584B000AF0200FB1D1A700F23FB182B
:102CA80001221A701AE00F217A18FB1D12781B787E
:102CB8009A4206D37B181B7801211800FFF754FEAF
:102CC80006E00F23FB181B7800211800FFF74CFEC5
:102CD8000F217B181A787B1801321A70054B1B7864
:102CE8000F22BA1812789A42DDD9C046C046BD46AE
:102CF80004B080BD0000002080B584B000AF0200A1
:102D0800FB1D1A70BB1D0A1C1A700F23FB18154AED
:102D180012781A701AE00F217A18FB1D12781B78A6
:102D28009A4206D17B181B7801211800FFF71CFE78
:102D380006E00F23FB181B7800211800FFF714FE8C
:102D48000F217B181A787B18013A1A700F23FA188A
:102D5800BB1D12781B789A42DDD2C046C046BD46DC
:102D680004B080BD00000020B0B584B000AF0400FE
:102D780008001100FB1D221C1A703B1D021C1A8042
:102D8800BB1C0A1C1A800F23FB1800221A7048E18A
:102D98000E23FB1801221A700D23FB1800221A704B
:102DA800A64B1B7801221340DBB2002B00D098E021
:102DB800A24B1A7808217B1852081A700C23FB18AA
:102DC8007A1812781A7030E00C257B191B780121CB
:102DD8001800FFF7C9FD7A190E243B1912781B78E1
:102DE800D318DBB201211800FFF7BEFD3B193A19D1
:102DF800127802321A703B1D1B881800FEF724F95E
:102E0800041CFFF787FD031C191C201CFDF73EFD61
:102E1800031C181CFDF7FCF90300180001F084F8E6
:102E28007B191A787B19013A1A700C23FB181B7846
:102E3800002BC9D10E23FB1801221A70BB1C1B885A
:102E48001800FEF701F9041CFFF764FD031C191CA8
:102E5800201CFDF71BFD031C181CFDF7D9F9030006
:102E6800180001F061F80B23FB180822BA18127831
:102E78001A7030E00B257B191B7800211800FFF72A
:102E880073FD7A190E243B1912781B78D318DBB21C
:102E980000211800FFF768FD3B193A191278023231
:102EA8001A703B1D1B881800FEF7CEF8041CFFF7AC
:102EB80031FD031C191C201CFDF7E8FC031C181C21
:102EC800FDF7A6F90300180001F02EF87B191A780F
:102ED8007B19013A1A700B23FB181B78002BC9D1F8
:102EE80099E0564B1B785B08DAB208217B1801324F
:102EF8001A700A23FB187A1812781A7030E00A251B
:102F08007B191B7801211800FFF72EFD7A190D2473
:102F18003B1912781B78D318DBB201211800FFF790
:102F280023FD3B193A19127802321A703B1D1B888F
:102F38001800FEF789F8041CFFF7ECFC031C191CA9
:102F4800201CFDF7A3FC031C181CFDF761F9030006
:102F5800180000F0E9FF7B191A787B19013A1A70FA
:102F68000A23FB181B78002BC9D10D23FB1800225C
:102F78001A70BB1C1B881800FEF766F8041CFFF7C4
:102F8800C9FC031C191C201CFDF780FC031C181C21
:102F9800FDF73EF90300180000F0C6FF0923FB18EF
:102FA8000822BA1812781A7030E009257B191B78A4
:102FB80000211800FFF7D8FC7A190D243B19127864
:102FC8001B78D318DBB200211800FFF7CDFC3B19A2
:102FD8003A19127802321A703B1D1B881800FEF746
:102FE80033F8041CFFF796FC031C191C201CFDF782
:102FF8004DFC031C181CFDF70BF90300180000F02A
:1030080093FF7B191A787B19013A1A700923FB1868
:103018001B78002BC9D10F217B181A787B18013235
:103028001A700F23FA18FB1D12781B789A4200D2E7
:10303800AEE6C046C046BD4604B0B0BD00000020A4
:10304800B0B584B000AF040008001100FB1D221CBD
:103058001A703B1D021C1A80BB1C0A1C1A800F2305
:10306800FB1800221A7056E1B14B1B78012213405D
:10307800DBB2002B00D0A3E0AD4B1A780923FB1874
:1030880052081A70AA4B1A780E23FB18013A1A70C4
:103098000D23FB1801221A7030E00D257B191B78CF
:1030A80001211800FFF760FC7A190E243B191278E9
:1030B8001B78D318DBB201211800FFF755FC3B1928
:1030C8003A191278023A1A703B1D1B881800FDF74E
:1030D800BBFF041CFFF71EFC031C191C201CFDF77A
:1030E800D5FB031C181CFDF793F80300180000F02B
:1030F8001BFF7B191A787B1901321A700D23FA18F5
:103108000923FB1812781B789A42C6D9884B1A787B
:103118000E23FB18013A1A70BB1C1B881800FDF718
:1031280093FF041CFFF7F6FB031C191C201CFDF77A
:10313800ADFB031C181CFDF76BF80300180000F02A
:10314800F3FE0C23FB1801221A7030E00C257B19C2
:103158001B7800211800FFF707FC7A190E243B1989
:1031680012781B78D318DBB200211800FFF7FCFB9C
:103178003B193A191278023A1A703B1D1B8818003D
:10318800FDF762FF041CFFF7C5FB031C191C201C7C
:10319800FDF77CFB031C181CFDF73AF80300180028
:1031A80000F0C2FE7B191A787B1901321A700C23C1
:1031B800FA180923FB1812781B789A42C6D9A4E09A
:1031C8005B4B1B785B08DAB20923FB1801321A70D3
:1031D800574B1A780E23FB18013A1A700B23FB1869
:1031E80001221A7030E00B257B191B780121180089
:1031F800FFF7BAFB7A190E243B1912781B78D318FB
:10320800DBB201211800FFF7AFFB3B193A1912781E
:10321800023A1A703B1D1B881800FDF715FF041CA5
:10322800FFF778FB031C191C201CFDF72FFB031C60
:10323800181CFCF7EDFF0300180000F075FE7B1961
:103248001A787B1901321A700B23FA180923FB1814
:1032580012781B789A42C6D9354B1A780E23FB1878
:10326800013A1A70BB1C1B881800FDF7EDFE041C00
:10327800FFF750FB031C191C201CFDF707FB031C60
:10328800181CFCF7C5FF0300180000F04DFE0A23C8
:10329800FB1801221A7030E00A257B191B780021DF
:1032A8001800FFF761FB7A190E243B1912781B7876
:1032B800D318DBB200211800FFF756FB3B193A1967
:1032C8001278023A1A703B1D1B881800FDF7BCFEE5
:1032D800041CFFF71FFB031C191C201CFDF7D6FA62
:1032E800031C181CFCF794FF0300180000F01CFED8
:1032F8007B191A787B1901321A700A23FA180923E4
:10330800FB1812781B789A42C6D90F217B181A78B5
:103318007B1801321A700F23FA18FB1D12781B78DC
:103328009A4200D2A0E6C046C046BD4604B0B0BD31
:103338000000002090B585B000AF0200FB1D1A7098
:103348003B1D0A1C1A800F23FB1800221A7035E057
:103358003B1D1B881800FDF777FE041CFFF7DAFAFF
:10336800031C191C201CFDF791FA031C181CFCF700
:103378004FFF03009BB2002219000120FFF7F4FC65
:103388003B1D1B881800FDF75FFE041CFFF7C2FAFF
:10339800031C191C201CFDF779FA031C181CFCF7E8
:1033A80037FF03009BB2002219000120FFF748FEF7
:1033B8000F217B181A787B1801321A700F23FA181C
:1033C800FB1D12781B789A42C2D3C046C046BD4640
:1033D80005B090BDB0B584B000AF0400080011007E
:1033E800FB1D221C1A703B1D021C1A80BB1C0A1CE8
:1033F8001A800F23FB1800221A70A3E00E23FB1873
:1034080001221A707BE00B257B190E22BA1812785C
:103418001A703B1D1B881800FDF716FE041CFFF7E9
:1034280079FA031C191C201CFDF730FA031C181C20
:10343800FCF7EEFE0300180000F076FD0D23FB18E4
:103448007A1912781A701FE00D257B191B7818005D
:10345800FFF7EAFB3B1D1B881800FDF7F5FD041C70
:10346800FFF758FA031C191C201CFDF70FFA031C60
:10347800181CFCF7CDFE0300180000F055FD7B1961
:103488001A787B1901321A70354B1B780D22BA183D
:1034980012789A42D8D90C23FB18314A12781A703C
:1034A8001FE00C257B191B781800FFF7BDFB3B1D9F
:1034B8001B881800FDF7C8FD041CFFF72BFA031C36
:1034C800191C201CFDF7E2F9031C181CFCF7A0FED0
:1034D8000300180000F028FD7B191A787B19013ABF
:1034E8001A700C23FA180B23FB1812781B789A42CF
:1034F800D7D20E217B181A787B1801321A70184B14
:103508001B780E22BA1812789A4200D87BE7BB1CA7
:103518001B881800FDF798FD041CFFF7FBF9031C36
:10352800191C201CFDF7B2F9031C181CFCF770FECF
:103538000300180000F0F8FC0F217B181A787B189C
:1035480001321A700F23FA18FB1D12781B789A4261
:1035580000D253E7C046C046BD4604B0B0BDC04621
:1035680000000020B0B584B000AF040008001100CE
:10357800FB1D221C1A703B1D021C1A80BB1C0A1C56
:103588001A800F23FB1800221A70A2E00E23FB18E2
:10359800564A12781A707BE00B257B190E22BA184E
:1035A80012781A703B1D1B881800FDF74DFD041C8E
:1035B800FFF7B0F9031C191C201CFDF767F9031C61
:1035C800181CFCF725FE0300180000F0ADFC0D23C5
:1035D800FB187A1912781A701FE00D257B191B78D1
:1035E8001800FFF755FB3B1D1B881800FDF72CFD45
:1035F800041CFFF78FF9031C191C201CFDF746F962
:10360800031C181CFCF704FE0300180000F08CFCD7
:103618007B191A787B1901321A70344B1B780D22EA
:10362800BA1812789A42D8D90C23FB182F4A127864
:103638001A701FE00C257B191B781800FFF728FB70
:103648003B1D1B881800FDF7FFFC041CFFF762F9FF
:10365800031C191C201CFDF719F9031C181CFCF786
:10366800D7FD0300180000F05FFC7B191A787B195E
:10367800013A1A700C23FA180B23FB1812781B78DE
:103688009A42D7D20E217B181A787B18013A1A7001
:103698000E23FB181B78002B00D07DE7BB1C1B8872
:1036A8001800FDF7D1FC041CFFF734F9031C191CA2
:1036B800201CFDF7EBF8031C181CFCF7A9FD030000
:1036C800180000F031FC0F217B181A787B180132A2
:1036D8001A700F23FA18FB1D12781B789A4200D231
:1036E80054E7C046C046BD4604B0B0BD0000002047
:1036F80090B585B000AF040008001100FB1D221C26
:103708001A703B1D021C1A80BB1C0A1C1A800F234E
:10371800FB1800221A70C1E00E23FB1801221A7050
:103728000D23FB18644A12781A7096E00C23FB18D4
:10373800614A12781A706BE00E243B191A780C2330
:10374800FB181B7811001800FFF7D6FA5A4B1B78A4
:103758005B08DBB23A1912789A4215D23B1D1B88D6
:103768001800FDF771FC041CFFF7D4F8031C191CA2
:10377800201CFDF78BF8031C181CFCF749FD0300FF
:10378800180000F0D1FB3DE00E23FB181A784A4BD5
:103798001B78023B9A421BDB3B1D1B881800FDF778
:1037A80053FC041CFFF7B6F8031C191C201CFDF77A
:1037B8006DF8031C8121C905181CFDF767F8031C67
:1037C800181CFCF725FD0300180000F0ADFB19E0FC
:1037D8003B1D1B881800FDF737FC041CFFF79AF8FF
:1037E800031C191C201CFDF751F8031C191C181C7C
:1037F800FCF744FD031C181CFCF70AFD0300180025
:1038080000F092FB0C217B181A787B18013A1A7089
:103818000C23FA180E217B1812781B789A428BD247
:10382800254B1B787A1812789A4203D37B18012209
:103838001A700CE00E243B191B7801211800FFF7C1
:1038480093F821007B181A787B1801321A700D2121
:103858007B181A787B18013A1A700D23FB181B780D
:10386800002B00D062E7BB1C1B881800FDF7ECFB9F
:10387800041CFFF74FF8031C191C201CFDF706F861
:10388800031C181CFCF7C4FC0300180000F04CFBD8
:103898000F217B181A787B1801321A700F23FA1837
:1038A800FB1D12781B789A4200D235E7C046C04605
:1038B800BD4605B090BDC04600000020B0B58AB036
:1038C80000AF040008001100FB1D221C1A703B1DEC
:1038D800021C1A80BB1C0A1C1A801823FB18A14A58
:1038E80003CA03C312881A800C23FB189E4A03CA12
:1038F80003C312881A802723FB1800221A7023E0BA
:1039080027257B191B781822BA18D35C01211800C7
:10391800FFF72AF83B1D1B881800FDF795FB041CD0
:10392800FEF7F8FF031C191C201CFCF7AFFF031C53
:10393800181CFCF76DFC0300180000F0F5FA7B1961
:103948001A787B1901321A70884B1B782722BA180B
:1039580012789A42D4D3BB1C1B881800FDF774FB5D
:10396800041CFEF7D7FF031C191C201CFCF78EFF54
:10397800031C181CFCF74CFC0300180000F0D4FAD8
:103988007A4B1B78013BDAB22623FB181A7027E022
:1039980026257B191B785BB21822BA18D35C002144
:1039A8001800FEF7E1FF3B1D1B881800FDF74CFBD4
:1039B800041CFEF7AFFF031C191C201CFCF766FF54
:1039C800031C181CFCF724FC0300180000F0ACFAD8
:1039D8007B191B785BB2DBB2013BDAB27B191A7038
:1039E8002623FB181B787F2BD2D9BB1C1B881800F9
:1039F800FDF72AFB041CFEF78DFF031C191C201C75
:103A0800FCF744FF031C181CFEF7E0FA584A594B10
:103A1800FDF7B0FB02000B0010001900FCF710FCCA
:103A28000300180000F080FA2523FB1800221A7002
:103A380023E025257B191B780C22BA18D35C0121B9
:103A48001800FEF791FF3B1D1B881800FDF7FCFAD4
:103A5800041CFEF75FFF031C191C201CFCF716FF53
:103A6800031C181CFCF7D4FB0300180000F05CFAD8
:103A78007B191A787B1901321A703C4B1B78252266
:103A8800BA1812789A42D4D3BB1C1B881800FDF7C9
:103A9800DBFA041CFEF73EFF031C191C201CFCF774
:103AA800F5FE031C181CFCF7B3FB0300180000F01C
:103AB8003BFA2E4B1B78013BDAB22423FB181A7011
:103AC80027E024257B191B785BB20C22BA18D35C3B
:103AD80000211800FEF748FF3B1D1B881800FDF762
:103AE800B3FA041CFEF716FF031C191C201CFCF774
:103AF800CDFE031C181CFCF78BFB0300180000F01C
:103B080013FA7B191B785BB2DBB2013BDAB27B1983
:103B18001A702423FB181B787F2BD2D9BB1C1B8857
:103B28001800FDF791FA041CFEF7F4FE031C191C9B
:103B3800201CFCF7ABFE031C181CFEF747FA0C4AC6
:103B48000C4BFDF717FB02000B0010001900FCF7E7
:103B580077FB0300180000F0E7F9C046BD460AB03D
:103B6800B0BDC046845C0008905C000800000020DE
:103B78009A9999999999C93F90B585B000AF020073
:103B8800FB1D1A703B1D0A1C1A800F23FB1800220C
:103B98001A7066E00E23FB1801221A700CE00E243E
:103BA8003B191B7801211800FEF7DEFE21007B1867
:103BB8001A787B1801321A70304B1B780E22BA180B
:103BC80012789A42EBD93B1D1B881800FDF73CFA86
:103BD800041CFEF79FFE031C191C201CFCF756FE54
:103BE800031C181CFCF714FB0300180000F09CF9D8
:103BF8000D23FB1801221A700CE00D243B191B78C9
:103C080000211800FEF7B0FE21007B181A787B18F7
:103C180001321A70194B1B780D22BA1812789A4281
:103C2800EBD93B1D1B881800FDF70EFA041CFEF7A4
:103C380071FE031C191C201CFCF728FE031C1049EC
:103C4800181CFCF70DFD031C181CFCF7E1FA030017
:103C5800180000F069F90F217B181A787B180132D7
:103C68001A700F23FA18FB1D12781B789A4291D309
:103C7800C046C046BD4605B090BDC0460000002005
:103C88000000A04080B500AF72B6C046C046FDE750
:103C980080B582B000AF0F4B1A6C0E4B01210A435E
:103CA8001A640C4B1B6C012213407B607B68094B28
:103CB800DA6B084B802149050A43DA63054BDA6B56
:103CC80080235B0513403B603B68C046BD4602B09D
:103CD80080BDC0460010024090B58BB000AF786040
:103CE80014243B19180014231A00002101F08EFF38
:103CF8007B681B681B4A934230D11B4B1A6C1A4BCA
:103D0800802149030A431A64174B1A6C80235B030A
:103D180013403B613B69144B5A6B134B02210A4316
:103D28005A63114B5B6B02221340FB60FB683B1923
:103D380080221A603B1903225A603B1900229A60BC
:103D48003B190A4A1900100001F004F90022002169
:103D58000C2001F0CDF80C2001F0DFF8C046BD467C
:103D68000BB090BD00240140001002400004005038
:103D780080B500AFC046FDE780B500AFC046FDE79F
:103D880080B500AFC046BD4680BD80B500AFC04617
:103D9800BD4680BD80B500AF00F0AAF8C046BD465C
:103DA80080BD000080B500AF034B180000F04EFC4A
:103DB800C046BD4680BDC0462C00002080B500AF7F
:103DC800C046BD4680BD00000D488546FFF7F6FF9A
:103DD8000C480D490D4A002302E0D458C45004335E
:103DE800C4188C42F9D30A4A0A4C002301E0136034
:103DF8000432A242FBD301F011FFFEF79FFBFEE75E
:103E08000020002000000020100000208C5D000829
:103E1800100000209C000020FEE7000080B582B062
:103E280000AFFB1D00221A700B4B1A680A4B802149
:103E380049000A431A60032000F010F8031E03D05B
:103E4800FB1D01221A7001E0FFF722FFFB1D1B7802
:103E58001800BD4602B080BD0020024090B585B074
:103E680000AF78600F23FB1800221A701D4B1B78D7
:103E7800002B2BD01C4B1C681A4B1B781900FA23FB
:103E88009800FCF739F9030019002000FCF734F911
:103E98000300180001F051F8031E12D17B68032BB0
:103EA8000AD8796801235B420022180001F020F843
:103EB8000E4B7A681A600DE00F23FB1801221A7066
:103EC80008E00F23FB1801221A7003E00F23FB18E8
:103ED80001221A700F23FB181B781800BD4605B085
:103EE80090BDC0460C0000200400002008000020FF
:103EF80080B500AF054B1B781A00054B1B68D2181C
:103F0800034B1A60C046BD4680BDC0460C00002069
:103F18009800002080B500AF024B1B681800BD4612
:103F280080BDC0469800002080B584B000AF78609E
:103F3800FFF7F0FF0300BB607B68FB60FB680133A1
:103F480005D00A4B1B781A00FB689B18FB60C0461B
:103F5800FFF7E0FF0200BB68D31AFA689A42F7D865
:103F6800C046C046BD4604B080BDC0460C00002017
:103F780080B582B000AF786039607B681B68054AFD
:103F88001A403B681A437B681A60C046BD4602B0B7
:103F980080BDC046FFFF3FFE80B582B000AF7860AD
:103FA8007B681A68E0235B0413401800BD4602B022
:103FB80080BD80B584B000AFF860B9607A60FB68F6
:103FC8005B69BA6804210A40072191400A00D2437C
:103FD8001A40BB6804210B40796899400B001A43CA
:103FE800FB685A61C046BD4604B080BD80B582B04A
:103FF80000AF786039607B685B693A6804210A40E1
:10400800072191400A001A403B6804210B40DA401E
:1040180013001800BD4602B080BD80B582B000AF65
:1040280078607B68DA68C0231B01134001D1012343
:1040380000E000231800BD4602B080BD80B584B002
:1040480000AFF860B9607A60FB689B6ABA681F21A4
:104058000A400F2191400A00D2431A407B689B0E08
:104068000F211940BB681F20034099400B001A43D9
:10407800FB689A62C046BD4604B080BD80B582B078
:1040880000AF786039607B689A6A3B685B035B0BBA
:104098001A437B689A62C046BD4602B080BD80B5AF
:1040A80082B000AF786039607B689B6A3A685203D7
:1040B800520BD2431A407B689A62C046BD4602B092
:1040C80080BD80B582B000AF78607B68DB68032272
:1040D80013401800BD4602B080BD000080B584B012
:1040E80000AFF860B9607A60FB685B69BA68120271
:1040F800D2431A40BB681B0279680B4004490B4045
:104108001A43FB685A61C046BD4604B080BDC0462C
:1041180000FFFF0780B582B000AF78607B689B68BE
:10412800054A1340802252051A437B689A60C046AC
:10413800BD4602B080BDC046E8FFFF6F80B582B0C3
:1041480000AF78607B689A6880235B051A408023FB
:104158005B059A4201D1012300E000231800BD4607
:1041680002B080BD80B582B000AF78607B689B6884
:10417800044A134001221A437B689A60C046BD4630
:1041880002B080BDE8FFFF7F80B582B000AF7860E5
:104198007B689B6801221340012B01D1012300E0B9
:1041A80000231800BD4602B080BD000080B582B073
:1041B80000AF78607B689B68044A134004221A4366
:1041C8007B689A60C046BD4602B080BDE8FFFF7FAD
:1041D80080B582B000AF78607B689B68042213408A
:1041E800042B01D1012300E000231800BD4602B0D2
:1041F80080BD000080B588B000AF78601F23FB1831
:1042080000221A700023BB6100237B610023FB603E
:104218007B68002B01D101237FE17B689B6D002B1C
:104228000AD17B681800FFF757FD7B680022DA6522
:104238007B685422002199547B681B681800FFF79B
:104248007DFF031E15D17B681B681800FFF762FF0E
:10425800B44B1B68B4491800FBF74EFF0300013349
:104268005B00FB6002E0FB68013BFB60FB68002B26
:10427800F9D17B681B681800FFF760FF031E0FD198
:104288007B689B6D10221A437B689A657B68DB6D9F
:1042980001221A437B68DA651F23FB1801221A7072
:1042A8007B681B681800FFF793FF03003B617B687E
:1042B8009B6D1022134000D022E13B69002B00D0F7
:1042C8001EE17B689B6D994A134002221A437B6862
:1042D8009A657B681B681800FFF756FF031E00D01D
:1042E800ADE07B689A687B681B7E9B031A437B68FA
:1042F8005B7EDB031A437B689B7E5B031A437B6808
:104308001B6B002B02D080235B0100E000231A43C3
:104318007B68DB681A437B681B69002B04DA7B68BF
:104328001B695B005B0801E080239B031A437B68E1
:104338002C215B5C5B001343BA691343BB617B6848
:1043480020229B5C012B15D17B689B7E002B05D11D
:10435800BB69802252021343BB610BE07B689B6DF3
:1043680020221A437B689A657B68DB6D01221A4319
:104378007B68DA657B685B6A002B0AD07B685A6ABF
:10438800E0235B001A407B689B6A1343BA691343B6
:10439800BB617B681B68DB68654A134019007B6852
:1043A8001B68BA690A43DA607B685B689B0F9A07E7
:1043B8007B68DB6C13437A6913437B617B683C221F
:1043C8009B5C012B11D17B685B689B0F9A077B680C
:1043D8001B6C1A437B685B6C1A437B689B6C1A43A3
:1043E8007B691343012213437B617B681B681B694C
:1043F800504A134019007B681B687A690A431A619E
:104408007B685A68C0231B069A4218D07B685A6892
:104418008023DB059A4212D07B685A6880231B06EA
:104428009A420CD0444B1B68444A134019007B68DD
:104438005A68F0239B031A403F4B0A431A607B6873
:1044480018687B685B6B1A000021FFF7B2FD7B6878
:1044580018687B689B6B3A491A00FFF7AAFD7B68CE
:104468001B69002B09D17B681B689A6A7B681B68EB
:10447800102149420A439A6218E07B681A6980232E
:104488009B039A4212D17B681B689B6A7B68DB6935
:10449800013B9B001C221340102252429A401100FB
:1044A8007B681A6E7B681B680A439A627B681B6884
:1044B80000211800FFF79AFD02007B685B6B9A42A7
:1044C8000BD17B680022DA657B689B6D03229343DE
:1044D80001221A437B689A651CE07B689B6D122257
:1044E800934310221A437B689A657B68DB6D01222F
:1044F8001A437B68DA651F23FB1801221A7009E04A
:104508007B689B6D10221A437B689A651F23FB18F2
:1045180001221A701F23FB181B781800BD4608B02B
:1045280080BDC04604000020400D0300FDFEFFFFD3
:104538000102DEFF02FCFF1F08270140FFFFC3FF47
:1045480004FFFF07B0B584B000AF78607B681B68D4
:104558001800FFF73DFE031E5FD17B6854229B5C69
:10456800012B01D102235FE07B6854220121995479
:104578000F257C197B68180000F068FB0300237086
:104588007B191B78002B43D17B689B6D284A13400D
:10459800802252001A437B689A657B680022DA659C
:1045A8007B681B681C221A607B685422002199547E
:1045B8007B681B685A687B681B681C218A435A60A1
:1045C8007B685B69082B08D17B681B685A687B6825
:1045D8001B6808210A435A6008E07B681B685A6810
:1045E8007B681B6804210A435A60C0467B681B6BC2
:1045F800002B07D17B681B685A687B681B681021F1
:104608000A435A607B681B681800FFF7CFFD08E073
:104618007B6854220021995403E00F23FB180222DF
:104628001A700F23FB181B781800BD4604B0B0BDE4
:10463800FEF0FFFF80B582B000AF78607B681B6832
:104648001B6C1800BD4602B080BD000080B586B066
:1046580000AF786000237B617B681B681B683B6147
:104668007B681B685B68FB603B690222134017D0BC
:10467800FB680222134013D07B689B6D1022134005
:1046880006D17B689B6D802212011A437B689A656C
:104698007B68180000F070FB7B681B6802221A60B8
:1046A8003B690422134003D0FB680422134007D15E
:1046B8003B69082213404DD0FB680822134049D0BB
:1046C8007B689B6D1022134006D17B689B6D80220E
:1046D80092001A437B689A657B681B681800FFF78D
:1046E8009CFC031E2ED07B689B7E002B2AD17B6806
:1046F8001B681B6808221340082B23D17B681B68A2
:104708001800FFF765FD031E10D17B681B685A6807
:104718007B681B680C218A435A607B689B6D564AEC
:10472800134001221A437B689A650BE07B689B6DF6
:1047380020221A437B689A657B68DB6D01221A4345
:104748007B68DA657B681800FEF7BAF87B681B6837
:104758000C221A603B698022134012D0FB68802229
:1047680013400ED07B689B6D802252021A437B68EF
:104778009A657B68180000F081F87B681B688022C6
:104788001A603A6980235B00134014D0FA688023CA
:104798005B0013400FD07B689B6D802292021A4306
:1047A8007B689A657B68180000F0D6FA7B681B68FE
:1047B800802252001A603A6980239B00134014D06B
:1047C800FA6880239B0013400FD07B689B6D802282
:1047D800D2021A437B689A657B68180000F0C4FA15
:1047E8007B681B68802292001A603B691022134084
:1047F8002BD0FB681022134027D07B681B6B002B43
:1048080002D101237B6108E07B681B681800FFF771
:1048180058FC031E01D001237B617B69012B10D159
:104828007B689B6D8022D2001A437B689A657B68FF
:10483800DB6D02221A437B68DA657B68180000F09A
:1048480025F87B681B6810221A603A6980239B014F
:1048580013400DD0FA6880239B01134008D07B6871
:10486800180000F091FA7B681B68802292011A6098
:10487800C046BD4606B080BDFEFEFFFF80B582B0D3
:1048880000AF7860C046BD4602B080BD80B582B03A
:1048980000AF7860C046BD4602B080BD80B586B026
:1048A80000AF786039601723FB1800221A700023C4
:1048B800FB607B6854229B5C012B01D10223C0E181
:1048C8007B685422012199547B681B681800FFF704
:1048D8007FFC031E00D0A3E13B685B68022B00D17C
:1048E80043E17B681A6980231B069A4204D07B68DF
:1048F8001B69C14A934208D17B681A683B681B68E8
:1049080019001000FFF7BAFBC9E07B681A6E3B6814
:104918005B681F210B400F2199400B00DB431340BC
:1049280019003B681B685B035B0B05D13B681B6880
:104938009B0E1F22134098E03B681B68012213401E
:1049480000D091E03B681B680222134000D089E048
:104958003B681B680422134000D081E03B681B6859
:104968000822134000D079E03B681B6810221340EE
:1049780000D071E03B681B682022134000D069E03A
:104988003B681B684022134000D061E03B681B680D
:104998008022134000D059E03B681A6880235B00EE
:1049A800134051D13B681A6880239B00134049D1BA
:1049B8003B681A688023DB00134041D13B681A68C2
:1049C80080231B01134039D13B681A6880235B019F
:1049D800134031D13B681A6880239B01134029D1C9
:1049E8003B681A688023DB01134021D13B681A68B1
:1049F80080231B02134019D13B681A6880235B028D
:104A0800134011D13B681A6880239B02134009D1D7
:104A18003B681A688023DB02134001D0122324E08C
:104A2800002322E0112320E010231EE00F231CE0C6
:104A38000E231AE00D2318E00C2316E00B2314E0D4
:104A48000A2312E0092310E008230EE007230CE0F4
:104A580006230AE0052308E0042306E0032304E014
:104A6800022302E0012300E000233A6852681F2075
:104A7800024093400A001A437B681A663B685B68E9
:104A88009B085A1C7B68DB699A4208D87B681868BF
:104A98003B6859683B681B681A00FFF7CFFA7B68C8
:104AA80018683B6819683B689B681A00FFF716FB93
:104AB8003B681B68002B00DBBCE0504B1800FFF77D
:104AC8006BFA03003B613B681B684D4A934222D155
:104AD8003A6980231B0413401DD13B6980221204CC
:104AE8001343464A19001000FFF742FA454B1B686A
:104AF80045491800FBF700FB03005A1C13005B0034
:104B08009B189B00FB6002E0FB68013BFB60FB68B5
:104B1800002BF9D18EE03B681B683C4A93420ED1CA
:104B28003A6980235B04134009D13B69802252040F
:104B38001343324A19001000FFF71AFA7AE03B686B
:104B48001B68334A934200D074E03A698023DB0340
:104B5800134000D06EE03B698022D2031343274AFA
:104B680019001000FFF704FA64E07B681A698023D3
:104B78001B069A4204D07B681B691F4A934207D1DF
:104B88007B681A683B681B6819001000FFF787FAF2
:104B98003B681B68002B4DDA184B1800FFF7FCF92F
:104BA80003003B613B681B68154A934208D13B6987
:104BB800184A1340114A19001000FFF7D9F939E0D3
:104BC8003B681B68114A934208D13B69124A13405B
:104BD8000A4A19001000FFF7CBF92BE03B681B6865
:104BE8000B4A934226D13B690C4A1340034A1900E9
:104BF8001000FFF7BDF91DE0040000800827014000
:104C0800001000B004000020400D0300004000B870
:104C1800002000B4FFFF7FFFFFFFFFFEFFFFBFFF85
:104C28007B689B6D20221A437B689A651723FB18C3
:104C380001221A707B685422002199541723FB180B
:104C48001B781800BD4606B080BDC04680B584B04C
:104C580000AF78600023BB607B681B681800FFF713
:104C680093FA031E00D069E07B681B689B68364A8C
:104C780013400DD07B689B6D10221A437B689A65A0
:104C88007B68DB6D01221A437B68DA65012356E0F5
:104C98007B681B681800FFF765FA2C4B1800FFF7B4
:104CA8007BF9020080231B0413400FD0284B1B689C
:104CB80028491800FBF720FA03000133BB6002E023
:104CC800BB68013BBB60BB68002BF9D17B685B7E8E
:104CD800012B33D0FFF71EF90300FB6027E07B6848
:104CE8001B681800FFF750FA031E04D17B681B6885
:104CF8001800FFF737FAFFF70DF90200FB68D31A1F
:104D0800022B14D97B681B681B6801221340012BF6
:104D18000DD07B689B6D10221A437B689A657B686F
:104D2800DB6D01221A437B68DA65012307E07B68A3
:104D38001B681B6801221340012BD0D100231800E7
:104D4800BD4604B080BDC04617000080082701405A
:104D580004000020400D030080B582B000AF7860E9
:104D6800C046BD4602B080BD80B582B000AF786055
:104D7800C046BD4602B080BD80B582B000AF786045
:104D8800C046BD4602B080BD80B582B000AF786035
:104D9800C046BD4602B080BD80B582B000AF0200FB
:104DA800FB1D1A70FB1D1B787F2B09D8FB1D1B7878
:104DB8001A001F231A40044B012191400A001A606F
:104DC800C046BD4602B080BD00E100E090B583B0AA
:104DD80000AF02003960FB1D1A70FB1D1B787F2B8A
:104DE80028D82F4AFB1D1B785BB29B08C0339B0059
:104DF8009B58FA1D1278110003220A40D200FF21A5
:104E080091400A00D2431A4011003B689B01FF22DF
:104E18001A40FB1D1B78180003230340DB009A404F
:104E28001F48FB1D1B785BB29B080A43C0339B00DD
:104E38001A5031E01B4AFB1D1B7819000F230B4049
:104E4800083B9B0806339B00D31804331B68FA1DE4
:104E58001278110003220A40D200FF2191400A0073
:104E6800D2431A4011003B689B01FF221A40FB1DE8
:104E78001B78180003230340DB009A400948FB1DF8
:104E88001B781C000F232340083B9B080A4306336A
:104E98009B00C31804331A60C046BD4603B090BDDA
:104EA80000E100E000ED00E080B582B000AF78607E
:104EB8007B685A1E80235B049A4201D3012310E0C9
:104EC8000A4B7A68013A5A6001235B4203211800B1
:104ED800FFF77CFF054B00229A60044B07221A60FB
:104EE80000231800BD4602B080BDC04610E000E0B7
:104EF80080B584B000AFB9607A600F217B18021CBE
:104F08001A70BA687B181B785BB211001800FFF79B
:104F18005DFFC046BD4604B080BD80B582B000AF1D
:104F28000200FB1D1A70FB1D1B785BB21800FFF70F
:104F380033FFC046BD4602B080BD80B582B000AF29
:104F480078607B681800FFF7AFFF03001800BD46C4
:104F580002B080BD80B586B000AF786039600023AC
:104F68007B6147E13B681B6801217A6991400A002F
:104F78001340FB60FB68002B00D138E13B685B689D
:104F880003221340012B05D03B685B6803221340C2
:104F9800022B30D17B689B683B617B695B000322F5
:104FA8009A401300DA433B6913403B613B68DA6877
:104FB8007B695B009A4013003A6913433B617B6845
:104FC8003A699A607B685B683B6101227B699A4019
:104FD8001300DA433B6913403B613B685B681B097C
:104FE80001221A407B699A4013003A6913433B61D6
:104FF8007B683A695A603B685B6803221340032B5D
:1050080017D07B68DB683B617B695B0003229A40B1
:105018001300DA433B6913403B613B689A687B693C
:105028005B009A4013003A6913433B617B683A6915
:10503800DA603B685B6803221340022B23D17B694B
:10504800DA087B6808329200D3583B617B690722F3
:1050580013409B000F229A401300DA433B69134028
:105068003B613B681A697B6907210B409B009A40AA
:1050780013003A6913433B617B69DA087B6808329D
:1050880092003969D1507B681B683B617B695B0082
:1050980003229A401300DA433B6913403B613B68A3
:1050A8005B6803221A407B695B009A4013003A69E7
:1050B80013433B617B683A691A603B685A68C023AE
:1050C8009B02134000D192E0504A7B699B08183339
:1050D8009B009B583B617B6903221340DB000F2236
:1050E8009A401300DA433B6913403B617A68A02376
:1050F800DB059A4213D07B68454A93420DD07B6802
:10510800444A934207D07B68434A934201D1032320
:1051180006E0052304E0022302E0012300E0002367
:105128007A6903210A40D20093403A6913433B61EC
:1051380036497B699B0818339B003A695A50334BB0
:105148001B683B61FB68DA433B6913403B613B6882
:105158005A6880235B03134003D03A69FB68134302
:105168003B612A4B3A691A60284B5B683B61FB68D4
:10517800DA433B6913403B613B685A6880239B03D1
:10518800134003D03A69FB6813433B611F4B3A69EC
:105198005A601E4A8423D3583B61FB68DA433B6953
:1051A80013403B613B685A6880239B02134003D03D
:1051B8003A69FB6813433B61144984223B698B506D
:1051C800124A8023D3583B61FB68DA433B6913409A
:1051D8003B613B685A6880235B02134003D03A69FD
:1051E800FB6813433B61094980223B698B507B690B
:1051F80001337B613B681A687B69DA40131E00D073
:10520800B0E6C046C046BD4606B080BD00180240A4
:105218000004005000080050000C005080B582B017
:1052280000AF786008001100BB1C021C1A807B1CB0
:105238000A1C1A707B1C1B78002B04D0BB1C1A8814
:105248007B689A6103E0BB1C1A887B689A62C04637
:10525800BD4602B080BD000080B584B000AF786064
:10526800194B1B68194A13401900174B7A680A43EF
:105278001A607A6880239B009A421FD1144B1A68DF
:1052880013005B009B185B0012491800FAF734FF03
:1052980003000133FB6008E0FB68002B03D0FB68C8
:1052A800013BFB6001E0032309E0074B5A698023B7
:1052B800DB001A408023DB009A42EDD0002318005F
:1052C800BD4604B080BDC04600700040FFF9FFFF36
:1052D8000400002040420F0080B588B000AF78601D
:1052E8007B68002B01D10123F3E27B681B68012254
:1052F800134000D17CE0C34B9B6838221340BB614C
:10530800C04BDB68032213407B61BB69102B02D1C1
:105318007B69032B02D0BB69082B0BD1B94B1A68E8
:1053280080239B02134062D07B685B68002B5ED1B0
:105338000123CEE27B685A6880235B029A4207D138
:10534800B04B1A68AF4B802149020A431A6020E02B
:105358007B685A68A023DB029A420ED1A94B1A68CF
:10536800A84B8021C9020A431A60A64B1A68A54BAC
:10537800802149020A431A600BE0A24B1A68A14B2C
:10538800A1490A401A609F4B1A689E4B9F490A40E0
:105398001A607B685B68002B14D0FEF7BBFD030026
:1053A8003B6108E0FEF7B6FD02003B69D31A642BA7
:1053B80001D903238DE2934B1A6880239B02134083
:1053C800F0D015E0FEF7A6FD03003B6108E0FEF70C
:1053D800A1FD02003B69D31A642B01D9032378E2AB
:1053E800884B1A6880239B021340F0D100E0C04626
:1053F8007B681B680222134000D199E0814B9B68AF
:1054080038221340BB617F4BDB68032213407B616A
:10541800BB69102B02D17B69022B02D0BB69002B20
:1054280035D1784B1A688023DB00134005D07B68A0
:10543800DB68002B01D101234BE2724B5B68744A95
:10544800134019007B685B691A026E4B0A435A6065
:10545800BB69002B12D16B4B1B686E4A13401900B5
:105468007B681A69674B0A431A60664B1B68DB0A3C
:1054780007221340684ADA40684B1A60684B1B6879
:105488001800FEF7EBFC031E51D0012321E27B68D4
:10549800DB68002B30D05B4B1B685E4A1340190059
:1054A8007B681A69574B0A431A60564B1A68554B62
:1054B800802149000A431A60FEF72CFD03003B6176
:1054C80008E0FEF727FD02003B69D31A022B01D939
:1054D8000323FEE14B4B1A688023DB001340F0D016
:1054E800484B5B684A4A134019007B685B691A029B
:1054F800444B0A435A601BE0424B1A68414B4949E6
:105508000A401A60FEF706FD03003B6108E0FEF75B
:1055180001FD02003B69D31A022B01D90323D8E10C
:10552800384B1A688023DB001340F0D100E0C046F6
:105538007B681B680822134047D0324B9B6838228F
:105548001340182B0AD12F4B1B6E022213403CD05C
:105558007B689B69002B38D10123BAE17B689B6982
:10556800002B19D0274B1A6E264B01210A431A66C5
:10557800FEF7D0FC03003B6108E0FEF7CBFC02001D
:105588003B69D31A022B01D90323A2E11D4B1B6EE1
:1055980002221340F1D018E01A4B1A6E194B012160
:1055A8008A431A66FEF7B6FC03003B6108E0FEF783
:1055B800B1FC02003B69D31A022B01D9032388E10D
:1055C800104B1B6E02221340F1D17B681B6804222A
:1055D800134000D1C6E01F23FB1800221A70094BA4
:1055E8009B6838221340202B1ED1064BDB6D02220C
:1055F800134000D1B6E07B689B68002B00D0B1E077
:10560800012366E100100240FFFFFEFFFFFFFBFFE2
:10561800FF80FFFFFFC7FFFF0024F4000400002005
:1056280008000020FFFEFFFFAC4BDA6B80235B0510
:10563800134001D1012300E00023002B11D0A74B18
:10564800DA6BA64B802149050A43DA63A34BDA6B70
:1056580080235B051340FB60FB681F23FB180122B6
:105668001A709F4B1A6880235B0013401AD19C4B19
:105678001A689B4B802149000A431A60FEF74AFCCE
:1056880003003B6108E0FEF745FC02003B69D31AC2
:10569800022B01D903231CE1914B1A6880235B007C
:1056A8001340F0D07B689B68012B06D18B4BDA6DD9
:1056B8008A4B01210A43DA651CE07B689B68052B4D
:1056C8000CD1864BDA6D854B04210A43DA65834B8E
:1056D800DA6D824B01210A43DA650BE07F4BDA6D04
:1056E8007E4B01218A43DA657C4BDA6D7B4B0421C2
:1056F8008A43DA657B689B68002B14D0FEF70AFCA6
:1057080003003B6109E0FEF705FC02003B69D31A80
:10571800744A934201D90323DBE0704BDB6D02220C
:105728001340F0D013E0FEF7F5FB03003B6109E0FE
:10573800FEF7F0FB02003B69D31A6A4A934201D98B
:105748000323C6E0654BDB6D02221340F0D11F2313
:10575800FB181B78012B05D1604BDA6B5F4B624954
:105768000A40DA637B68DB69002B00D1B0E05B4B51
:105778009B6838221340102B00D178E07B68DB69E6
:10578800022B53D1554B1A68544B58490A401A609A
:10579800FEF7C0FB03003B6108E0FEF7BBFB02001D
:1057A8003B69D31A022B01D9032392E04B4B1A68A9
:1057B80080239B041340F0D1484BDB684C4A1340CC
:1057C80019007B681A6A7B685B6A1A437B689B6A64
:1057D8001B021A437B68DB6A1A437B681B6B1A43FC
:1057E8003E4B0A43DA603D4B1A683C4B8021490422
:1057F8000A431A60394BDA68384B802149050A4355
:10580800DA60FEF787FB03003B6108E0FEF782FBE6
:1058180002003B69D31A022B01D9032359E02F4B0D
:105828001A6880239B041340F0D051E02B4B1A6870
:105838002A4B2E490A401A60FEF76CFB03003B61B5
:1058480008E0FEF767FB02003B69D31A022B01D977
:1058580003233EE0214B1A6880239B041340F0D1B8
:105868001E4BDA681D4B23490A40DA6030E07B683A
:10587800DB69012B01D101232BE0184BDB687B612D
:105888007B6903221A407B681B6A9A421ED17B6996
:1058980070221A407B685B6A9A4217D17A69FE23A4
:1058A800DB011A407B689B6A1B029A420ED17A6917
:1058B800F8239B031A407B68DB6A9A4206D17B690E
:1058C8005B0F5A077B681B6B9A4201D0012300E0EB
:1058D80000231800BD4608B080BDC0460010024035
:1058E8000070004088130000FFFFFFEFFFFFFFFE7E
:1058F8008C80C11FFCFFFEEF80B584B000AF7860DC
:1059080039607B68002B01D10123E9E0764B1B68E5
:10591800072213403A689A421ED9734B1B68072224
:1059280093431900704B3A680A431A60FEF7F2FA7B
:105938000300FB6009E0FEF7EDFA0200FB68D31AEA
:105948006A4A934201D90323CAE0674B1B680722BE
:1059580013403A689A42EED17B681B6802221340D2
:1059680015D07B681B680422134006D0604B9A68E8
:105978005F4BE021C9010A439A605D4B9B685D4A11
:10598800134019007B689A68594B0A439A607B68F0
:105998001B680122134057D07B685B68012B07D135
:1059A800534B1A6880239B0213402BD1012397E0A5
:1059B8007B685B68022B07D14D4B1A6880239B04D8
:1059C80013401FD101238BE07B685B68002B07D154
:1059D800474B1A688023DB00134013D101237FE073
:1059E8007B685B68032B06D1414B1B6E0222134078
:1059F80008D1012374E03E4BDB6D0222134001D134
:105A080001236DE03A4B9B680722934319007B689A
:105A18005A68374B0A439A60FEF77CFA0300FB602A
:105A280009E0FEF777FA0200FB68D31A2F4A93427F
:105A380001D9032354E02E4B9B6838221A407B6817
:105A48005B68DB009A42ECD1274B1B6807221340A6
:105A58003A689A421ED2244B1B68072293431900C6
:105A6800214B3A680A431A60FEF754FA0300FB60B8
:105A780009E0FEF74FFA0200FB68D31A1B4A93426B
:105A880001D903232CE0184B1B68072213403A68FE
:105A98009A42EED17B681B680422134009D0144B4C
:105AA8009B68154A134019007B68DA68104B0A4353
:105AB8009A6000F029F801000D4B9B681B0A0F2221
:105AC8001A400E4B9200D3581F2213400A00DA40A6
