:020000040800F2
:1000000000200020652C0008112C0008172C000887
:1000100000000000000000000000000000000000E0
:100020000000000000000000000000001D2C00087F
:100030000000000000000000272C0008312C000800
:10004000B52C000800000000B52C0008B52C0008F5
:10005000B52C0008B52C0008B52C0008B52C0008FC
:1000600000000000B52C0008B52C0008B52C0008D5
:10007000412C0008B52C0008B52C00080000000039
:10008000B52C00080000000000000000B52C00089E
:1000900000000000B52C0008B52C0008B52C0008A5
:1000A000B52C0008B52C0008B52C0008B52C0008AC
:0800B000B52C0008000000005F
:1000B80010B5064C2378002B07D1054B002B02D036
:1000C800044800E000BF0123237010BD1000002089
:1000D80000000000004B0008044B10B5002B03D0B3
:1000E8000349044800E000BF10BDC04600000000FE
:1000F80014000020004B0008002243088B4274D3F0
:1001080003098B425FD3030A8B4244D3030B8B4210
:1001180028D3030C8B420DD3FF22090212BA030C19
:100128008B4202D31212090265D0030B8B4219D3FA
:1001380000E0090AC30B8B4201D3CB03C01A52411A
:10014800830B8B4201D38B03C01A5241430B8B4262
:1001580001D34B03C01A5241030B8B4201D30B034B
:10016800C01A5241C30A8B4201D3CB02C01A524172
:10017800830A8B4201D38B02C01A5241430A8B4235
:1001880001D34B02C01A5241030A8B4201D30B021E
:10019800C01A5241CDD2C3098B4201D3CB01C01A38
:1001A800524183098B4201D38B01C01A5241430942
:1001B8008B4201D34B01C01A524103098B4201D330
:1001C8000B01C01A5241C3088B4201D3CB00C01A9D
:1001D800524183088B4201D38B00C01A5241430815
:1001E8008B4201D34B00C01A5241411A00D201463A
:1001F800524110467047FFE701B5002000F006F8AD
:1002080002BDC0460029F7D076E770477047C04660
:100218009E2110B5C905041C00F0A4FE002803D1D6
:10022800201C00F0B5FD10BD9E21201CC90500F062
:100238000FFC00F0ADFD80231B069C466044F2E7EE
:10024800F8B54746CE464A0243024500C40F500A55
:10025800804648005B0A000E9209944680B51E004D
:10026800814602002D0EDF00C90F8C4224D0281AC7
:1002780000280EDD002A3ED16246002A00D1FDE0AA
:10028800421E012800D137E1FF2800D1A9E0100063
:1002980039E0002863D04B46521B002D00D0E0E027
:1002A800002F00D1CEE0531E012A00D155E1FF2ACC
:1002B80000D194E01A00D9E02A1A002A00DC99E05B
:1002C800002862D0FF2D00D18BE080236146DB043B
:1002D80019438C461B2A00DCD2E00123DB195A01A2
:1002E8006AD50135FF2D5BD00122A3491A405B086E
:1002F8000B4013431CE0FF2D00D172E080236246BF
:10030800DB041A4394461B2800DC90E00123FB1A07
:100318005A0151D59B019E09300000F02DFE330093
:1003280005388340854200DC75E0944A2D1A134055
:100338005A0704D00F221A40042A00D004335A0165
:100348003CD5681CFE2D2BD09B015E0AC0B2C005AF
:100358003043E4072043C0BCB946B046F8BDFE2090
:100368006A1C104272D1002D00D0AEE0002F00D1DF
:10037800ECE063460020002BE9D0FB1A5A0100D4B8
:10038800F3E063460C00DB1BD2E7614600295BD033
:10039800511E012A00D1A7E0FF2A22D00A0099E7BE
:1003A800FF200026D3E7FE216A1C114273D0FF2AE2
:1003B800F6D0150067447B085A07BBD1DB08FF2D30
:1003C8000FD05B025E0AE8B2C1E76246002A08D095
:1003D8008022D203134204D04046104201D10C00BF
:1003E8004346002BDCD08026F6031E437602FF200E
:1003F800760AACE7002AD6D0421B002D5CD0FF2835
:10040800EED08023DB041F431B2A00DC82E001239B
:100418004D46634463E72022401B0130121A19003D
:100428009340C1405A1E934100250B4380E7202387
:1004380061461B1A994062460B00C240591E8B4107
:10044800134364E70C0043461500B8E76346FE1AF9
:10045800730145D4002E00D05EE70024002000265A
:1004680075E7FF2BBBD08023DB041F431B2A47DD26
:10047800012362460C004D46D31A49E705009EE762
:1004880061462023D1409B1A62469A4013005A1EA7
:1004980093410B4322E7002D46D1002F62D06346DB
:1004A8000020002B00D152E73B0063445A0183D55A
:1004B800324A013513407FE7002FC4D0531E012A6A
:1004C80012D0FF2A8CD01A009EE7002F00D07CE7BC
:1004D8006346002B83D180260024FF20F60336E7ED
:1004E80063460C00DE1B17E73B00634401255A01F5
:1004F80000D461E70225F7E663460125FB1A07E702
:1005080020239B1A38009F403B00D0405A1E93413D
:100518000343AEE720239B1A39009F403B00D1409C
:100528005A1E93410B4373E7002F00D158E76246E8
:10053800002A00D155E78022D203134200D150E7A8
:100548004146114200D04CE743464AE76346002B38
:1005580083D00C0046460020F9E663460C00DB1BFE
:100568000135D5E646460020F1E6002B00D023E70A
:1005780000240026EBE6C046FFFFFF7DFFFFFFFBE0
:10058800F0B54F464646D6464502C0B547000C1C56
:100598006D0A3F0EC60F002F00D16FE0FF2F00D16C
:1005A80074E00023802299469A46ED00D204154350
:1005B8007F3F63025B0A984663001B0EE40F002B23
:1005C8004DD0FF2B45D042468021D200C9041143AB
:1005D800884600227F3B3100FF1A4B466140C9B272
:1005E8000F2B00D9B8E070489B00C3589F460023E2
:1005F80098462600454692465346022B00D18DE088
:10060800032B00D1A1E0012B18D03B007F33002B36
:100618006DDD6A0704D00F222A40042A00D0043571
:100628002A0103D5614B1D403B008033FE2B00DDC2
:1006380074E0AA01520AD8B202E00E00002000229B
:10064800C005F60710433043E0BCBA46B146A84699
:10065800F0BD4346002B3FD10222FF3F03E0434653
:10066800002B2DD1012231004B466140C9B2134302
:100678000F2B38D84E489B00C3589F46002D13D1E6
:1006880004239946033B00279A4692E7002D05D19B
:1006980008239946063BFF279A468AE70C23994682
:1006A800093BFF279A4684E7280000F065FC762777
:1006B800431F9D4000237F4299469A463F1A78E798
:1006C800404600F059FC4246431F9A4076235B425D
:1006D80090461B1A00227EE703234A461A43914696
:1006E800FC33032277E70E00FF200022A8E701224F
:1006F800D31A1B2BA2DC9E372A00BD40DA406B1EA2
:100708009D4115436A0704D00F222A40042A00D0CD
:1007180004356A0144D50120002291E7FF20002218
:100728008EE780220026FF20D20389E7002398461F
:100738008022D203154208D04346134205D11A43FA
:1007480052022600FF20520A7AE78022D2032A4367
:100758005202FF20520A73E742466B015501AB4231
:100768001AD21B200022013F01261C0052005B0008
:10077800002C01DB9D4201D85B1B32430138002865
:10078800F3D1581E834113431D003B007F330E00F5
:10079800002B00DD3DE7AAE71A2001225B1BE3E7F7
:1007A800AA010020520A4BE7184B0008FFFFFFF789
:1007B800584B000843025B0AF0B54F464646994637
:1007C800D646C30F45009846C0B54B460F1C2D0EA4
:1007D80000D1CBE0FF2D00D1CFE08022DB00D20496
:1007E8001A430023914600269A467F3D7C027B00EF
:1007F800640A1B0EFF0F002B00D1A9E0FF2B11D0BC
:100808008022E400D204144342467F3B5B197A40BD
:100818000020D2B25D1C0A2E13DD3A000B2E47D001
:1008280047463FE02B00FF33002C1ED1022216431F
:10083800424601357A40D2B2FF350A2E00DDE4E0A7
:100848000220022E1CDC013E012E42D802283DD097
:10085800012866D100200021C0050843D2071043B3
:10086800E0BCBA46B146A846F0BD0322164342464C
:1008780001357A40D2B2FF350A2E00DDE4E00320CC
:100888000121B140A626F60031420AD19026B600D1
:10089800314216D1B93EFF3E0E421AD0A1468246D9
:1008A80000E0170053463A00022B0FD04C46504642
:1008B8000328CDD18021C90321434902FF20490AD9
:1008C800CAE780210022FF20C903C5E7FF200021D5
:1008D800C2E7200C49462404240C27000E0C090406
:1008E800090C74434F4346434843390C001909180F
:1008F8008C4203D980204002844666443F040804A1
:100908003F0CC0198401671EBC41090C800E89196F
:10091800044389010C43090171D5012361081C4076
:100928000C432B007F33002B51DD610704D00F21CE
:100938002140042900D00434210103D5434B1C4035
:100948002B008033FE2BC1DCA101490AD8B283E712
:10095800002C2CD1012342461E432B007A40012053
:10096800D2B25D1C0A2E00DD57E76AE7002B10D1D2
:100978000123042600259A4638E7002B04D10223D8
:100988000826FF259A4631E703230C26FF259A46B9
:100998002CE7484600F0F0FA4A46431F76259A406D
:1009A80000236D42914600269A462D1A1EE7200024
:1009B80000F0E2FA4246431F9C402B1A763B7A40ED
:1009C8000020D2B25D1C0A2E00DD26E739E701219E
:1009D800CB1A1B2B00DD3DE79E352100AC40D940EA
:1009E800631E9C4121434B0704D00F230B40042B6B
:1009F80000D004314B0104D5012000212CE71D0053
:100A08008FE789010020490A26E702230F2E0CD11F
:100A180080214B46C9030B420DD00C420BD1214318
:100A280049023A00FF20490A16E70B2E00D0F7E6E4
:100A3800A1469A4636E780214B46C9031943490225
:100A48004246FF20490A07E70323DFE7FFFFFFF7D6
:100A5800F0B5C64643025B0A4500DA00C40F4802F7
:100A68004F009446420A1E00904600B52D0E3F0ED8
:100A7800C90F8009FF2F59D0012251408C4239D02B
:100A8800EA1B002A58DD002F68D0FF2D00D1D1E0E5
:100A98008023DB0418431B2A00DCE3E001236246C1
:100AA800D31A5A0100D4ACE09B019E09300000F033
:100AB80063FA330005388340854200DCC6E0B24A59
:100AC8002D1A13405A0704D00F221A40042A00D0C6
:100AD80004335A0100D497E06A1CFE2D00D184E04B
:100AE8009B015E0AD2B2D0053043E407204380BCA4
:100AF800B846F0BDEA1B002A41DD002F6BD0FF2D60
:100B080000D197E08023DB0418431B2A00DCCCE0EB
:100B1800012363445A0174D50135FF2D65D00122A4
:100B28009A491A405B080B401343CBE700281FD0B3
:100B38008C4222D02A00FF3A002A35D07A1B002D99
:100B480000D099E06346002B00D1DDE0531E012A56
:100B580000D105E1FF2A6BD01A0094E0002873D079
:100B6800511E012A00D1DFE0FF2A63D00A0092E774
:100B780001225140A14200D082E72A00FF3A002A10
:100B880036D07A1B002D00D1AAE0FF2F00D1DAE081
:100B980080236146DB0419438C461B2A00DCD4E021
:100BA80001233D001B18B5E7FE276A1C174271D1C7
:100BB800002D00D09EE06346002B00D1D5E0002236
:100BC800002800D18FE71B1A5E0100D4D6E06346E7
:100BD8000C00C31A76E7002836D0511E012A00D12E
:100BE8009AE0FF2A26D00A008FE7FF2200267AE73C
:100BF800FE276A1C174262D0FF2AF6D0150060440F
:100C080043085A0700D05FE7DB08FF2D12D05B02CC
:100C18005E0AEAB267E76246002A00D193E000283C
:100C280008D08022D203134204D04046104201D19A
:100C38000C004346002BD8D08026F6031E437602CC
:100C4800FF22760A4FE743461500DEE72022401BC5
:100C58000130121A19009340C1405A1E93410025D1
:100C68000B432FE720239B1A010098400300D14033
:100C78005A1E93410B4312E7FF2FD9D080236446B5
:100C8800DB041C43A4461B2A52DD01230C003D0053
:100C9800C31A06E763461E1A730139D4002E00D022
:100CA80004E70024002200261DE720239B1A0100E8
:100CB80098400300D1405A1E93410B4329E7002D69
:100CC800A9D16346002B56D00022002800D10AE79C
:100CD800030063445A0194D52B4A0135134090E729
:100CE8006346002BAFD0531E012A15D0FF2A2AD005
:100CF8001A0052E76246002A91D1002898D180262E
:100D08000024FF22F603EEE60C00434615007CE7BC
:100D180063460C00C61AC9E60300634401255A015C
:100D280000D46EE70225FAE6634601251B1AB8E6E9
:100D380064462023D4409B1A62469A4013005A1EE8
:100D480093412343A2E7434674E761462023D140F9
:100D58009B1A62469A4013005A1E93410B4320E7A0
:100D680063460C000125C31A9BE6002899D00C00A5
:100D780046460022B7E646460022B4E6002B00D0DD
:100D88003FE700240026AEE6FFFFFFFBFFFFFF7DE5
:100D980041024200C30F490A0020120E7E2A03DDD9
:100DA8009D2A02DD094A98187047802000040143F3
:100DB800952A07DC9620821AD1404842002BF3D1AD
:100DC8000800F1E7963A9140F7E7C046FFFFFF7F3A
:100DD80070B5002813D0C317C5185D40C40F28008C
:100DE80000F0CAF89E2301001B1A962B0FDC082876
:100DF80031D008398D406D026D0AD8B202E0002466
:100E080000200025C0052843E407204370BD992B26
:100E18000CDD0522121A2800D040020008001B3001
:100E280085402800451EA84102431500052916DC07
:100E38002A000F4802406E0709D00F263540042DBE
:100E480005D00432550102D59F2302405B1A920156
:100E5800550AD8B2D6E76D0296206D0AD2E74A1F26
:100E680095402A00024802406E07F0D0E5E7C046E8
:100E7800FFFFFFFB70B5041E0ED000F07DF89E2327
:100E880001001B1A962B0CDC08282CD008398C4042
:100E98006402640AD8B201E000200024C00520439F
:100EA80070BD992B0ADD020020001B329040020021
:100EB800501E82410520401AC4401443052916DCFF
:100EC80022000F480240650709D00F252C40042C4A
:100ED80005D00432540102D59F2302405B1A9201C7
:100EE800540AD8B2DAE764029620640AD6E74A1FA1
:100EF80094402200024802406507F0D0E5E7C0466A
:100F0800FFFFFFFB844608006146FFE71FB500F0BE
:100F1800BDF8002801D40021C8421FBD10B500F05B
:100F280049F84042013010BD10B500F0AFF8002874
:100F380001DB002010BD012010BDC04610B500F037
:100F4800A5F8002801DD002010BD012010BDC04615
:100F580010B500F055F8002801DC002010BD012074
:100F680010BDC04610B500F04BF8002801DA00208B
:100F780010BD012010BDC0461C2101231B0498424E
:100F880001D3000C10391B0A984201D3000A083912
:100F98001B09984201D30009043902A2105C4018C9
:100FA8007047C0460403020201010101000000006D
:100FB8000000000070B5420045024E024C00C30F0D
:100FC8006D0A0120120E760A240EC90FFF2A06D0D8
:100FD800FF2C03D0A24201D1B54206D070BD002D2E
:100FE800FCD1FF2CFAD1002EF8D18B4206D001207B
:100FF800002AF3D12800431E9841EFE70020EDE7CF
:1010080070B5420045024E024C00C30F6D0A120E25
:10101800760A240EC80FFF2A1BD0FF2C0ED0002AF8
:101028001BD1002C01D1002E1CD0002D0CD08342E6
:101038001CD00221581E0840013870BD002E22D154
:10104800002AF4D1002DF2D10028F6D10120404227
:10105800F3E7002D17D1FF2CF0D0002CE7D1002E9C
:10106800E5D1E6E70020002DE7D0E2E7A24205DC63
:10107800EADBB54202D8E7D30020DEE74342584115
:1010880040000138D9E702204042D6E770B5420057
:1010980045024E024C00C30F6D0A120E760A240E4A
:1010A800C80FFF2A0BD0FF2C0DD0002A1FD1002C0F
:1010B80016D1002E14D10020002D10D009E0002DEB
:1010C8000CD1FF2C13D1002E08D1002A08D083425E
:1010D80012D00221581E0840013800E0022070BDDD
:1010E800002DF4D10028FAD101204042F7E7002C66
:1010F800EDD1002EEBD1ECE7A24205DCF2DBB542E4
:1011080002D8EFD30020EAE74342584140000138B3
:10111800E5E7C04680B582B000AF01F0C9FD00F038
:10112800EFF800F0A1F900F033F9704B180002F065
:1011380053F96F4B180001F041FE6E4B1A003C2129
:10114800022000F0A1FB6C4B1900032001F052FCB7
:10115800FB1D01221A700CE0FB1D1B780A33DBB261
:101168000121180000F0ECFAFB1D1A78FB1D013272
:101178001A70624B1B78FA1D12789A42ECD9FA233E
:10118800DB001A001E21012001F068FABB1D0122B4
:101198001A700AE0BB1D1B780121180000F058FAEC
:1011A800BB1D1A78BB1D01321A70544B1B78BA1D2F
:1011B80012789A42EED9FA23DB001A001E21012088
:1011C80001F032FB4C4B1900022001F013FC6421A2
:1011D800022001F063F8FA23DB001900042001F073
:1011E80009FC7B1D01221A700CE07B1D1B780A3359
:1011F800DBB20121180000F0A3FA7B1D1A787B1DD1
:1012080001321A703D4B1B787A1D12789A42ECD93C
:10121800384B1A001E21012001F090F83B1D0122D5
:101228001A700AE03B1D1B780121180000F010FA23
:101238003B1D1A783B1D01321A70304B1B783A1D42
:1012480012789A42EED92B4B1A001E21012001F088
:101258003DF9FA23DB001A009621032000F062FE14
:10126800254B1900032001F0C5FBFB1C01221A7055
:101278000CE0FB1C1B780A33DBB20121180000F0DC
:101288005FFAFB1C1A78FB1C01321A701B4B1B7887
:10129800FA1C12789A42ECD9FA23DB001A001E21B4
:1012A800012001F0DBF9BB1C01221A700AE0BB1C0B
:1012B8001B780121180000F0CBF9BB1C1A78BB1C65
:1012C80001321A700D4B1B78BA1C12789A42EED96B
:1012D800FA23DB001A001E21012001F0A5FA064BB3
:1012E8001900022001F086FB27E7C0462C000020E9
:1012F800B80B0000C4090000DC0500000000002055
:1013080090B593B000AF14243B19180034231A0089
:10131800002103F0C5FB3B1D180010231A00002113
:1013280003F0BEFB80239B00180002F0DFFE3B1990
:1013380002221A603B1980225200DA603B1900220F
:101348001A613B1940225A613B190022DA613B19A4
:10135800180002F00BFF031E01D001F0DFFB3B1D5C
:1013680007221A603B1D00225A603B1D00229A602A
:101378003B1D0022DA603B1D0021180003F006FA2D
:10138800031E01D001F0CAFBC046BD4613B090BD94
:1013980080B584B000AF3B1D18000C231A00002153
:1013A80003F07EFB2D4B2E4A1A602C4B8022D2056F
:1013B8005A602A4B00229A60284B0022DA60274B99
:1013C80000221A61254B04225A61244B00221A7606
:1013D800224B00225A76214B00229A761F4B01227B
:1013E800DA611E4B2022002199541C4B00225A62BC
:1013F8001A4B00229A62194B2C2200219954174B40
:1014080000221A63154B07225A63144B07229A636A
:10141800124B3C2200219954104B0022DA640F4BE6
:10142800180001F031FE031E01D001F077FB3B1DCF
:101438000C4A1A603B1D00225A603B1D00229A602C
:101448003A1D064B1100180002F072F9031E01D074
:1014580001F064FBC046BD4604B080BD2C000020EE
:10146800002401400008002C90B589B000AF0C247E
:101478003B19180014231A00002103F011FB434BF9
:101488005A6B424B02210A435A63404B5B6B022260
:101498001340BB60BB683D4B5A6B3C4B04210A436D
:1014A8005A633A4B5B6B042213407B607B68374B73
:1014B8005A6B364B01210A435A63344B5B6B01224A
:1014C80013403B603B683249324B0022180002F05F
:1014D800EFFD3149314B0022180002F0E9FD304997
:1014E800A023DB050022180002F0E2FD3B192D4A7B
:1014F8001A603B1911225A603B1900229A603B1965
:101508000022DA603B19234A1900100002F06CFC33
:101518003B19214A1A603B1911225A603B190022D3
:101528009A603B190022DA603B191C4A1900100026
:1015380002F05AFC3B191A4A1A603B1911225A60E8
:101548003B1900229A603B190022DA603A19A0235D
:10155800DB051100180002F047FC21007B188022EF
:1015680052001A607B1801225A607B1800229A6088
:101578007B180022DA607B18064A1900100002F076
:1015880033FCC046BD4609B090BDC04600100240BD
:101598007F0300000004005040C000000008005015
:1015A800FF9F00007F02000080B582B000AF786026
:1015B8000E4B180001F088FF03009AB20C4B1A80FA
:1015C8000B4B1B881800FFF755FC031C0949181C16
:1015D800FEF7D6FF031C1A1C074B1A60034B1800B2
:1015E80001F0FAFEC046BD4602B080BD2C000020C6
:1015F8009000002000C07F449400002080B500AF18
:101608000F4B180001F060FF03009AB20D4B1A80CF
:101618000C4B1B881800FFF72DFC031C0A49181CEB
:10162800FEF7AEFF031C1A1C084B1A60044B180087
:1016380001F0D2FE054B1B68181CBD4680BDC04694
:101648002C0000209000002000C07F44940000205F
:1016580080B582B000AF0200FB1D1A70BB1D0A1CCA
:101668001A70FB1D1B780A2B5ED89A00314BD318D1
:101678001B689F46BB1D1A7880239B002E481900C3
:1016880002F016FD51E0BB1D1A788023DB012B48C0
:10169800190002F00DFD48E0BB1D1A7880231B02DB
:1016A8002648190002F004FD3FE0BB1D1A78A0236C
:1016B800DB050121180002F0FBFC36E0BB1D1A789F
:1016C800A023DB050221180002F0F2FC2DE0BB1D6F
:1016D8001A78A023DB050421180002F0E9FC24E0B5
:1016E800BB1D1A78A023DB050821180002F0E0FCD6
:1016F8001BE0BB1D1A78A023DB051021180002F09F
:10170800D7FC12E0BB1D1A78A023DB0520211800A6
:1017180002F0CEFC09E0BB1D1A78A023DB054021AE
:10172800180002F0C5FC00E0C046C046BD4602B045
:1017380080BDC046984B00080004005000080050C7
:1017480080B582B000AF0200FB1D1A70BB1D0A1CD9
:101758001A70FB1D1B780B3B0E2B00D989E09A00F1
:10176800464BD3181B689F46BB1D1A78A023DB0580
:101778008021180002F09CFC7BE0BB1D1B784048D0
:101788001A00012102F094FC73E0BB1D1B783C4851
:101798001A00022102F08CFC6BE0BB1D1B78384854
:1017A8001A00042102F084FC63E0BB1D1A78802330
:1017B8005900A023DB05180002F07AFC59E0BB1D94
:1017C8001A7880239900A023DB05180002F070FC2A
:1017D8004FE0BB1D1B782B481A00402102F068FC23
:1017E80047E0BB1D1A788023D900A023DB05180029
:1017F80002F05EFC3DE0BB1D1A7880231901A0238E
:10180800DB05180002F054FC33E0BB1D1A78802376
:101818005901A023DB05180002F04AFC29E0BB1D92
:101828001A7880231902A023DB05180002F040FC77
:101838001FE0BB1D1B7812481A00082102F038FC73
:1018480017E0BB1D1B780E481A00102102F030FC6F
:101858000FE0BB1D1B780A481A00202102F028FC63
:1018680007E0BB1D1B7806481A00402102F020FC47
:10187800C046C046BD4602B080BDC046C44B000845
:101888000004005000080050B0B584B000AF040058
:1018980008001100FB1D221C1A703B1D021C1A8037
:1018A800BB1C0A1C1A800F23FB1800221A7084E044
:1018B8000E23FB1801221A7028E00E257B191B78CD
:1018C80001211800FFF7C4FE7B191B780A33DBB22D
:1018D80001211800FFF734FF3B1D1B881800FFF794
:1018E80077FA041CFFF78AFE031C191C201CFEF75C
:1018F80061FF031C181CFEF78BFC0300180001F0A5
:101908005DFA7B191A787B1901321A70314B1B78F2
:101918000E22BA1812789A42CFD9BB1C1B8818001D
:10192800FFF756FA041CFFF769FE031C191C201C5C
:10193800FEF740FF031C181CFEF76AFC03001800A2
:1019480001F03CFA0D23FB1801221A7028E00D253E
:101958007B191B7800211800FFF77AFE7B191B788A
:101968000A33DBB200211800FFF7EAFE3B1D1B8893
:101978001800FFF72DFA041CFFF740FE031C191C82
:10198800201CFEF717FF031C181CFEF741FC030080
:10199800180001F013FA7B191A787B1901321A70B2
:1019A8000C4B1B780D22BA1812789A42CFD90F2106
:1019B8007B181A787B1801321A700F23FA18FB1D4E
:1019C80012781B789A4200D272E7C046C046BD46DC
:1019D80004B0B0BD0000002080B584B000AF0200A4
:1019E800FB1D1A700F23FB1801221A701AE00F2131
:1019F8007A18FB1D12781B789A4206D87B181B7838
:101A080001211800FFF724FE06E00F23FB181B78BE
:101A180000211800FFF71CFE0F217B181A787B188D
:101A280001321A70054B1B780F22BA1812789A42A5
:101A3800DDD9C046C046BD4604B080BD00000020C8
:101A480080B584B000AF0200FB1D1A700F23FB188D
:101A580001221A701EE00F217A18FB1D12781B78DC
:101A68009A4208D87B181B780A33DBB20121180088
:101A7800FFF766FE08E00F23FB181B780A33DBB27A
:101A880000211800FFF75CFE0F217B181A787B18DD
:101A980001321A70054B1B780F22BA1812789A4235
:101AA800D9D9C046C046BD4604B080BD000000205C
:101AB80080B584B000AF0200FB1D1A70BB1D0A1C64
:101AC8001A700F23FB18154A12781A701AE00F21A2
:101AD8007A18FB1D12781B789A4206D17B181B785E
:101AE80001211800FFF7B4FD06E00F23FB181B784F
:101AF80000211800FFF7ACFD0F217B181A787B181E
:101B0800013A1A700F23FA18BB1D12781B789A42F3
:101B1800DDD2C046C046BD4604B080BD00000020EE
:101B280080B584B000AF0200FB1D1A70BB1D0A1CF3
:101B38001A700F23FB18174A12781A701EE00F212B
:101B48007A18FB1D12781B789A4208D17B181B78EB
:101B58000A33DBB201211800FFF7F2FD08E00F237A
:101B6800FB181B780A33DBB200211800FFF7E8FDE9
:101B78000F217B181A787B18013A1A700F23FA186C
:101B8800BB1D12781B789A42D9D2C046C046BD46C2
:101B980004B080BD00000020F0B587B000AF04009D
:101BA80008001100FB1D221C1A703B1D021C1A8024
:101BB800BB1C0A1C1A801723FB1800221A70A0E10C
:101BC8001623FB1801221A701523FB1800221A701D
:101BD800D24B1B7801221340DBB2002B00D098E0D7
:101BE800CE4B1A7810217B1852081A701423FB1850
:101BF8007A1812781A7030E014257B191B780121A5
:101C08001800FFF725FD7A1916243B1912781B785E
:101C1800D318DBB201211800FFF71AFD3B193A1956
:101C2800127802321A703B1D1B881800FFF7D0F893
:101C3800041CFFF7E3FC031C191C201CFEF7BAFD6B
:101C4800031C181CFEF7E4FA0300180001F0B6F8AC
:101C58007B191A787B19013A1A701423FB181B7820
:101C6800002BC9D11623FB1801221A70BB1C1B8834
:101C78001800FFF7ADF8041CFFF7C0FC031C191C83
:101C8800201CFEF797FD031C181CFEF7C1FA030081
:101C9800180001F093F81323FB181022BA181278D1
:101CA8001A7030E013257B191B7800211800FFF704
:101CB800CFFC7A1916243B1912781B78D318DBB29B
:101CC80000211800FFF7C4FC3B193A1912780232B8
:101CD8001A703B1D1B881800FFF77AF8041CFFF7E1
:101CE8008DFC031C191C201CFEF764FD031C181C2A
:101CF800FEF78EFA0300180001F060F87B191A78D5
:101D08007B19013A1A701323FB181B78002BC9D1D1
:101D1800F1E0824B1B785B08DAB210217B180132A4
:101D28001A707F4B1A780F23FB1852081A70122367
:101D3800FB187A1812781A7059E00F26BA1910236E
:101D4800FB1812781B78D31ADAB212257B191B7884
:101D5800D318DBB201211800FFF77AFC7B191B7836
:101D68000A33DBB201211800FFF7EAFC7A191524BF
:101D78003B1912781B78D318DAB2B9191023FB185B
:101D880009781B78CB1ADBB2D318DBB20133DBB28C
:101D980001211800FFF75CFC7A193B1912781B78AF
:101DA800D318DBB20A33DBB201211800FFF7C8FCF5
:101DB8003B193A19127802321A703B1D1B88180019
:101DC800FFF706F8041CFFF719FC031C191C201C5C
:101DD800FEF7F0FC031C181CFEF71AFA03001800A3
:101DE80000F0ECFF7B191A787B19013A1A7012235C
:101DF800FB181B78002BA0D11523FB1800221A70A2
:101E0800BB1C1B881800FEF7E3FF041CFFF7F6FB5A
:101E1800031C191C201CFEF7CDFC031C181CFEF724
:101E2800F7F90300180000F0C9FF1123FB1810226E
:101E3800BA1812781A7059E00F26BA191023FB182D
:101E480012781B78D31ADAB211257B191B78D318AC
:101E5800DBB200211800FFF7FBFB7B191B780A3364
:101E6800DBB200211800FFF76BFC7A1915243B1927
:101E780012781B78D318DAB2B9191023FB1809782D
:101E88001B78CB1ADBB2D318DBB20133DBB20021EB
:101E98001800FFF7DDFB7A193B1912781B78D31865
:101EA800DBB20A33DBB200211800FFF749FC3B190B
:101EB8003A19127802321A703B1D1B881800FEF777
:101EC80087FF041CFFF79AFB031C191C201CFEF754
:101ED80071FC031C181CFEF79BF90300180000F0A6
:101EE8006DFF7B191A787B19013A1A701123FB18B8
:101EF8001B78002BA0D117217B181A787B18013288
:101F08001A701723FA18FB1D12781B789A4200D210
:101F180056E6C046C046BD4607B0F0BD00000020EA
:101F280001000020F0B585B000AF040008001100E2
:101F3800FB1D221C1A703B1D021C1A80BB1C0A1CAC
:101F48001A800F23FB1800221A7096E1D14B1B78D8
:101F580001221340DBB2002B00D0A3E0CD4B1A784E
:101F68000823FB1852081A70CA4B1A780E23FB185C
:101F7800013A1A700C23FB1801221A7030E00C2564
:101F88007B191B7801211800FFF762FB7A190E24D0
:101F98003B1912781B78D318DBB201211800FFF720
:101FA80057FB3B193A191278023A1A703B1D1B88E5
:101FB8001800FEF70DFF041CFFF720FB031C191C7B
:101FC800201CFEF7F7FB031C181CFEF721F9030081
:101FD800180000F0F3FE7B191A787B1901321A7089
:101FE8000C23FA180823FB1812781B789A42C6D9D2
:101FF800A84B1A780E23FB18013A1A70BB1C1B88D1
:102008001800FEF7E5FE041CFFF7F8FA031C191C7C
:10201800201CFEF7CFFB031C181CFEF7F9F8030081
:10202800180000F0CBFE0B23FB1801221A7030E0D9
:102038000B257B191B7800211800FFF709FB7A197B
:102048000E243B1912781B78D318DBB20021180034
:10205800FFF7FEFA3B193A191278023A1A703B1D3B
:102068001B881800FEF7B4FE041CFFF7C7FA031C10
:10207800191C201CFEF79EFB031C181CFEF7C8F851
:102088000300180000F09AFE7B191A787B190132B8
:102098001A700B23FA180823FB1812781B789A4237
:1020A800C6D9E4E07B4B1B785B08DAB20823FB183F
:1020B80001321A70774B1A780E23FB18013A1A70FE
:1020C800754B1A780D23FB18013A1A700A23FB186E
:1020D80001221A704AE00A257B191B780121180091
:1020E800FFF7B6FA7B191B780A33DBB20121180017
:1020F800FFF726FB7A190D243B1912781B78D318A1
:10210800DBB201211800FFF7A3FA7A190E26BB19D2
:1021180012781B78D318DBB20A33DBB2012118001E
:10212800FFF70EFBBB19BA191278023A1A703B195D
:102138003A191278023A1A703B1D1B881800FEF7EC
:1021480047FE041CFFF75AFA031C191C201CFEF753
:1021580031FB031C181CFEF75BF80300180000F0A5
:102168002DFE7B191A787B1901321A700A23FA1886
:102178000823FB1812781B789A42ACD9454B1A7879
:102188000E23FB18013A1A70434B1A780D23FB18DB
:10219800013A1A70BB1C1B881800FEF719FE041CB4
:1021A800FFF72CFA031C191C201CFEF703FB031C69
:1021B800181CFEF72DF80300180000F0FFFD092396
:1021C800FB1801221A704AE009257B191B780021A7
:1021D8001800FFF73DFA7B191B780A33DBB20021A0
:1021E8001800FFF7ADFA7A190D243B1912781B78FD
:1021F800D318DBB200211800FFF72AFA7A190E2645
:10220800BB1912781B78D318DBB20A33DBB2002172
:102218001800FFF795FABB19BA191278023A1A7022
:102228003B193A191278023A1A703B1D1B8818009C
:10223800FEF7CEFD041CFFF7E1F9031C191C201C56
:10224800FEF7B8FA031C181CFDF7E2FF030018009C
:1022580000F0B4FD7B191A787B1901321A70092332
:10226800FA180823FB1812781B789A42ACD90F2168
:102278007B181A787B1801321A700F23FA18FB1D85
:1022880012781B789A4200D260E6C046C046BD4626
:1022980005B0F0BD000000200100002090B585B019
:1022A80000AF0200FB1D1A703B1D0A1C1A800F2389
:1022B800FB1800221A7035E03B1D1B881800FEF73A
:1022C80087FD041CFFF79AF9031C191C201CFEF754
:1022D80071FA031C181CFDF79BFF03009BB2002238
:1022E80019000120FFF758FC3B1D1B881800FEF75A
:1022F8006FFD041CFFF782F9031C191C201CFEF754
:1023080059FA031C181CFDF783FF03009BB2002237
:1023180019000120FFF706FE0F217B181A787B1899
:1023280001321A700F23FA18FB1D12781B789A4293
:10233800C2D3C046C046BD4605B090BDB0B584B056
:1023480000AF040008001100FB1D221C1A703B1D81
:10235800021C1A80BB1C0A1C1A800F23FB180022BF
:102368001A70A3E00E23FB1801221A707BE00B25DC
:102378007B190E22BA1812781A703B1D1B88180098
:10238800FEF726FD041CFFF739F9031C191C201C55
:10239800FEF710FA031C181CFDF73AFF030018009B
:1023A80000F00CFD0D23FB187A1912781A701FE043
:1023B8000D257B191B781800FFF70EFB3B1D1B88AA
:1023C8001800FEF705FD041CFFF718F9031C191C7B
:1023D800201CFEF7EFF9031C181CFDF719FF03007A
:1023E800180000F0EBFC7B191A787B1901321A707F
:1023F800354B1B780D22BA1812789A42D8D90C237B
:10240800FB18314A12781A701FE00C257B191B78CB
:102418001800FFF7E1FA3B1D1B881800FEF7D8FCEF
:10242800041CFFF7EBF8031C191C201CFEF7C2F96B
:10243800031C181CFDF7ECFE0300180000F0BEFC9E
:102448007B191A787B19013A1A700C23FA180B2396
:10245800FB1812781B789A42D7D20E217B181A786B
:102468007B1801321A70184B1B780E22BA18127892
:102478009A4200D87BE7BB1C1B881800FEF7A8FC13
:10248800041CFFF7BBF8031C191C201CFEF792F96B
:10249800031C181CFDF7BCFE0300180000F08EFC9E
:1024A8000F217B181A787B1801321A700F23FA183B
:1024B800FB1D12781B789A4200D253E7C046C046EB
:1024C800BD4604B0B0BDC04600000020B0B584B021
:1024D80000AF040008001100FB1D221C1A703B1DF0
:1024E800021C1A80BB1C0A1C1A800F23FB1800222E
:1024F8001A70A3E00E23FB1801221A707BE00B254B
:102508007B190E22BA1812781A703B1D1B88180006
:10251800FEF75EFC041CFFF771F8031C191C201C55
:10252800FEF748F9031C181CFDF772FE030018009B
:1025380000F044FC0D23FB187A1912781A701FE07A
:102548000D257B191B781800FFF77AFA3B1D1B88AD
:102558001800FEF73DFC041CFFF750F8031C191C7B
:10256800201CFEF727F9031C181CFDF751FE030079
:10257800180000F023FC7B191A787B1901321A70B5
:10258800354B1B780D22BA1812789A42D8D90C23E9
:10259800FB18314A12781A701FE00C257B191B783A
:1025A8001800FFF74DFA3B1D1B881800FEF710FCBA
:1025B800041CFFF723F8031C191C201CFEF7FAF86B
:1025C800031C181CFDF724FE0300180000F0F6FB9E
:1025D8007B191A787B19013A1A700C23FA180B2305
:1025E800FB1812781B789A42D7D20E217B181A78DA
:1025F8007B1801321A70184B1B780E22BA18127801
:102608009A4200D87BE7BB1C1B881800FEF7E0FB4A
:10261800041CFEF7F3FF031C191C201CFEF7CAF864
:10262800031C181CFDF7F4FD0300180000F0C6FB9E
:102638000F217B181A787B1801321A700F23FA18A9
:10264800FB1D12781B789A4200D253E7C046C04659
:10265800BD4604B0B0BDC0460000002090B585B0AE
:1026680000AF040008001100FB1D221C1A703B1D5E
:10267800021C1A80BB1C0A1C1A800F23FB1800229C
:102688001A70C1E00E23FB1801221A700D23FB18E3
:10269800644A12781A7096E00C23FB18614A127883
:1026A8001A706BE00E243B191A780C23FB181B7860
:1026B80011001800FFF7FCF95A4B1B785B08DBB2D6
:1026C8003A1912789A4215D23B1D1B881800FEF75A
:1026D8007FFB041CFEF792FF031C191C201CFEF74D
:1026E80069F8031C181CFDF793FD0300180000F09F
:1026F80065FB3DE00E23FB181A784A4B1B78023B1A
:102708009A421BDB3B1D1B881800FEF761FB041C6B
:10271800FEF774FF031C191C201CFEF74BF8031C62
:102728008121C905181CFEF745F8031C181CFDF784
:102738006FFD0300180000F041FB19E03B1D1B88EA
:102748001800FEF745FB041CFEF758FF031C191C74
:10275800201CFEF72FF8031C191C181CFDF770FD30
:10276800031C181CFDF754FD0300180000F026FB9D
:102778000C217B181A787B18013A1A700C23FA1866
:102788000E217B1812781B789A428BD2254B1B7826
:102798007A1812789A4203D37B1801221A700CE037
:1027A8000E243B191B7801211800FEF751FF210068
:1027B8007B181A787B1801321A700D217B181A7849
:1027C8007B18013A1A700D23FB181B78002B00D0D8
:1027D80062E7BB1C1B881800FEF7FAFA041CFEF718
:1027E8000DFF031C191C201CFDF7E4FF031C181C1B
:1027F800FDF70EFD0300180000F0E0FA0F217B182A
:102808001A787B1801321A700F23FA18FB1D1278F8
:102818001B789A4200D235E7C046C046BD4605B08F
:1028280090BDC0460000002090B585B000AF040000
:1028380008001100FB1D221C1A703B1D021C1A8087
:10284800BB1C0A1C1A800F23FB1800221A70C2E056
:102858000E23FB1801221A700D23FB18644A127804
:102868001A7097E00C23FB18614A12781A706BE013
:102878000E243B191A780C23FB181B78110018003A
:10288800FFF74EF95A4B1B785B08DBB23A191278FE
:102898009A4215D23B1D1B881800FEF799FA041CB2
:1028A800FEF7ACFE031C191C201CFDF783FF031C5C
:1028B800181CFDF7ADFC0300180000F07FFA3DE09E
:1028C8000E23FB181A784A4B1B78023B9A421BDBF3
:1028D8003B1D1B881800FEF77BFA041CFEF78EFED2
:1028E800031C191C201CFDF765FF031C8121C90569
:1028F800181CFDF75FFF031C181CFDF789FC03007B
:10290800180000F05BFA19E03B1D1B881800FEF761
:102918005FFA041CFEF772FE031C191C201CFDF74D
:1029280049FF031C191C181CFDF78AFC031C181C02
:10293800FDF76EFC0300180000F040FA0C217B182C
:102948001A787B18013A1A700C23FA180E217B1892
:1029580012781B789A428BD2254B1B787A181278FA
:102968009A4203D37B1801221A700DE00E243B19FA
:102978001B780A33DBB201211800FEF7E1FE3B1990
:102988001A783B1901321A700D217B181A787B18B6
:10299800013A1A700D23FB181B78002B00D061E751
:1029A800BB1C1B881800FEF713FA041CFEF726FE52
:1029B800031C191C201CFDF7FDFE031C181CFDF749
:1029C80027FC0300180000F0F9F90F217B181A788A
:1029D8007B1801321A700F23FA18FB1D12781B7826
:1029E8009A4200D234E7C046C046BD4605B090BD05
:1029F8000000002090B585B000AF0200FB1D1A70E2
:102A08003B1D0A1C1A800F23FB1800221A7074E061
:102A18000E23FB1801221A7013E00E243B191B78B1
:102A280001211800FEF714FE3B191B780A33DBB2AC
:102A380001211800FEF784FE3B191A783B19013270
:102A48001A70344B1B780E22BA1812789A42E4D9BD
:102A58003B1D1B881800FEF7BBF9041CFEF7CEFDD2
:102A6800031C191C201CFDF7A5FE031C181CFDF7F0
:102A7800CFFB0300180000F0A1F90D23FB18012279
:102A88001A7013E00D243B191B7800211800FEF77B
:102A9800DFFD3B191B780A33DBB200211800FEF773
:102AA8004FFE3B191A783B1901321A70194B1B78E3
:102AB8000D22BA1812789A42E4D93B1D1B881800D7
:102AC800FEF786F9041CFEF799FD031C191C201C4F
:102AD800FDF770FE031C1049181CFDF751FD031C7F
:102AE800181CFDF795FB0300180000F067F90F218B
:102AF8007B181A787B1801321A700F23FA18FB1DFD
:102B080012781B789A4283D3C046C046BD4605B0AA
:102B180090BDC046000000200000A04080B500AF76
:102B280072B6C046FEE7000080B582B000AF0F4B1A
:102B38001A6C0E4B01210A431A640C4B1B6C0122C0
:102B480013407B607B68094BDA6B084B8021490591
:102B58000A43DA63054BDA6B80235B0513403B605D
:102B68003B68C046BD4602B080BDC046001002406A
:102B780090B58BB000AF786014243B19180014236B
:102B88001A00002101F08CFF7B681B681B4A9342E6
:102B980030D11B4B1A6C1A4B802149030A431A6423
:102BA800174B1A6C80235B0313403B613B69144B42
:102BB8005A6B134B02210A435A63114B5B6B022277
:102BC8001340FB60FB683B1980221A603B19032203
:102BD8005A603B1900229A603B190A4A19001000F2
:102BE80001F002F9002200210C2001F0CBF80C20A2
:102BF80001F0DDF8C046BD460BB090BD0024014091
:102C0800001002400004005080B500AFFEE780B518
:102C180000AFFEE780B500AFC046BD4680BD80B5B9
:102C280000AFC046BD4680BD80B500AF00F0AAF831
:102C3800C046BD4680BD000080B500AF034B1800FC
:102C480000F04EFCC046BD4680BDC0462C000020AA
:102C580080B500AFC046BD4680BD00000D48854622
:102C6800FFF7F6FF0C480D490D4A002302E0D4583F
:102C7800C4500433C4188C42F9D30A4A0A4C0023BE
:102C880001E013600432A242FBD301F011FFFEF70A
:102C980041FAFEE70020002000000020100000207C
:102CA800484C0008100000209C000020FEE70000AF
:102CB80080B582B000AFFB1D00221A700B4B1A685A
:102CC8000A4B802149000A431A60032000F010F8DB
:102CD800031E03D0FB1D01221A7001E0FFF724FF39
:102CE800FB1D1B781800BD4602B080BD00200240C5
:102CF80090B585B000AF78600F23FB1800221A70DA
:102D08001D4B1B78002B2BD01C4B1C681A4B1B78B7
:102D18001900FA239800FDF7EFF9030019002000C5
:102D2800FDF7EAF90300180001F051F8031E12D16B
:102D38007B68032B0AD8796801235B4200221800BC
:102D480001F020F80E4B7A681A600DE00F23FB188B
:102D580001221A7008E00F23FB1801221A7003E001
:102D68000F23FB1801221A700F23FB181B78180079
:102D7800BD4605B090BDC0460C00002004000020F0
:102D88000800002080B500AF054B1B781A00054BE2
:102D98001B68D218034B1A60C046BD4680BDC046AA
:102DA8000C0000209800002080B500AF024B1B6883
:102DB8001800BD4680BDC0469800002080B584B08C
:102DC80000AF7860FFF7F0FF0300BB607B68FB6033
:102DD800FB68013305D00A4B1B781A00FB689B1867
:102DE800FB60C046FFF7E0FF0200BB68D31AFA6831
:102DF8009A42F7D8C046C046BD4604B080BDC0461A
:102E08000C00002080B582B000AF786039607B6824
:102E18001B68054A1A403B681A437B681A60C0461B
:102E2800BD4602B080BDC046FFFF3FFE80B582B000
:102E380000AF78607B681A68E0235B0413401800D1
:102E4800BD4602B080BD80B584B000AFF860B960FF
:102E58007A60FB685B69BA6804210A4007219140DF
:102E68000A00D2431A40BB6804210B407968994094
:102E78000B001A43FB685A61C046BD4604B080BDCA
:102E880080B582B000AF786039607B685B693A686A
:102E980004210A40072191400A001A403B68042196
:102EA8000B40DA4013001800BD4602B080BD80B563
:102EB80082B000AF78607B68DA68C0231B011340DA
:102EC80001D1012300E000231800BD4602B080BDF7
:102ED80080B584B000AFF860B9607A60FB689B6A1F
:102EE800BA681F210A400F2191400A00D2431A40B4
:102EF8007B689B0E0F211940BB681F200340994037
:102F08000B001A43FB689A62C046BD4604B080BDF8
:102F180080B582B000AF786039607B689A6A3B6898
:102F28005B035B0B1A437B689A62C046BD4602B0DE
:102F380080BD80B582B000AF786039607B689B6ADD
:102F48003A685203520BD2431A407B689A62C046D1
:102F5800BD4602B080BD80B582B000AF78607B68A6
:102F6800DB68032213401800BD4602B080BD000094
:102F780080B584B000AFF860B9607A60FB685B69BF
:102F8800BA681202D2431A40BB681B0279680B4028
:102F980004490B401A43FB685A61C046BD4604B059
:102FA80080BDC04600FFFF0780B582B000AF7860E3
:102FB8007B689B68054A1340802252051A437B6848
:102FC8009A60C046BD4602B080BDC046E8FFFF6FAC
:102FD80080B582B000AF78607B689A6880235B0513
:102FE8001A4080235B059A4201D1012300E00023A7
:102FF8001800BD4602B080BD80B582B000AF7860D1
:103008007B689B68044A134001221A437B689A60D4
:10301800C046BD4602B080BDE8FFFF7F80B582B0E4
:1030280000AF78607B689B6801221340012B01D1B7
:10303800012300E000231800BD4602B080BD000057
:1030480080B582B000AF78607B689B68044A134003
:1030580004221A437B689A60C046BD4602B080BD10
:10306800E8FFFF7F80B582B000AF78607B689B681F
:1030780004221340042B01D1012300E0002318008F
:10308800BD4602B080BD000080B588B000AF786052
:103098001F23FB1800221A700023BB6100237B61E9
:1030A8000023FB607B68002B01D101237FE17B6853
:1030B8009B6D002B0AD17B681800FFF759FD7B68D0
:1030C8000022DA657B685422002199547B681B68CA
:1030D8001800FFF77DFF031E15D17B681B681800D9
:1030E800FFF762FFB44B1B68B4491800FDF704F8FA
:1030F800030001335B00FB6002E0FB68013BFB60FF
:10310800FB68002BF9D17B681B681800FFF760FF8C
:10311800031E0FD17B689B6D10221A437B689A654A
:103128007B68DB6D01221A437B68DA651F23FB1875
:1031380001221A707B681B681800FFF793FF0300D1
:103148003B617B689B6D1022134000D022E13B69F4
:10315800002B00D01EE17B689B6D994A1340022228
:103168001A437B689A657B681B681800FFF756FF4F
:10317800031E00D0ADE07B689A687B681B7E9B03CA
:103188001A437B685B7EDB031A437B689B7E5B0389
:103198001A437B681B6B002B02D080235B0100E085
:1031A80000231A437B68DB681A437B681B69002B82
:1031B80004DA7B681B695B005B0801E080239B03E2
:1031C8001A437B682C215B5C5B001343BA69134389
:1031D800BB617B6820229B5C012B15D17B689B7EA1
:1031E800002B05D1BB69802252021343BB610BE05F
:1031F8007B689B6D20221A437B689A657B68DB6D30
:1032080001221A437B68DA657B685B6A002B0AD067
:103218007B685A6AE0235B001A407B689B6A134309
:10322800BA691343BB617B681B68DB68654A134056
:1032380019007B681B68BA690A43DA607B685B68B7
:103248009B0F9A077B68DB6C13437A6913437B6196
:103258007B683C229B5C012B11D17B685B689B0FD0
:103268009A077B681B6C1A437B685B6C1A437B6804
:103278009B6C1A437B691343012213437B617B6870
:103288001B681B69504A134019007B681B687A69E0
:103298000A431A617B685A68C0231B069A4218D0F1
:1032A8007B685A688023DB059A4212D07B685A688B
:1032B80080231B069A420CD0444B1B68444A134097
:1032C80019007B685A68F0239B031A403F4B0A4356
:1032D8001A607B6818687B685B6B1A000021FFF72F
:1032E800B2FD7B6818687B689B6B3A491A00FFF748
:1032F800AAFD7B681B69002B09D17B681B689A6A49
:103308007B681B68102149420A439A6218E07B686F
:103318001A6980239B039A4212D17B681B689B6AB7
:103328007B68DB69013B9B001C2213401022524240
:103338009A4011007B681A6E7B681B680A439A6280
:103348007B681B6800211800FFF79AFD02007B6864
:103358005B6B9A420BD17B680022DA657B689B6DB8
:103368000322934301221A437B689A651CE07B6819
:103378009B6D1222934310221A437B689A657B68DF
:10338800DB6D01221A437B68DA651F23FB180122D3
:103398001A7009E07B689B6D10221A437B689A6556
:1033A8001F23FB1801221A701F23FB181B78180013
:1033B800BD4608B080BDC04604000020400D030093
:1033C800FDFEFFFF0102FEFF02FCFF1F0827014070
:1033D800FFFFC3FF04FFFF07B0B584B000AF7860FC
:1033E8007B681B681800FFF73DFE031E5FD17B68F2
:1033F80054229B5C012B01D102235FE07B6854229D
:10340800012199540F257C197B68180000F068FB8E
:10341800030023707B191B78002B43D17B689B6DBD
:10342800284A1340802252001A437B689A657B68B9
:103438000022DA657B681B681C221A607B685422AC
:10344800002199547B681B685A687B681B681C219B
:103458008A435A607B685B69082B08D17B681B68C4
:103468005A687B681B6808210A435A6008E07B6831
:103478001B685A687B681B6804210A435A60C04667
:103488007B681B6B002B07D17B681B685A687B68BD
:103498001B6810210A435A607B681B681800FFF7F5
:1034A800CFFD08E07B6854220021995403E00F23E4
:1034B800FB1802221A700F23FB181B781800BD4650
:1034C80004B0B0BDFEF0FFFF80B582B000AF7860F9
:1034D8007B681B681B6C1800BD4602B080BD0000ED
:1034E80080B586B000AF786000237B617B681B687D
:1034F8001B683B617B681B685B68FB603B69022259
:10350800134017D0FB680222134013D07B689B6DD1
:103518001022134006D17B689B6D802212011A434A
:103528007B689A657B68180000F070FB7B681B68F5
:1035380002221A603B690422134003D0FB6804226C
:10354800134007D13B69082213404DD0FB6808227D
:10355800134049D07B689B6D1022134006D17B68CD
:103568009B6D802292001A437B689A657B681B6872
:103578001800FFF79CFC031E2ED07B689B7E002B57
:103588002AD17B681B681B6808221340082B23D1AB
:103598007B681B681800FFF765FD031E10D17B6868
:1035A8001B685A687B681B680C218A435A607B68D1
:1035B8009B6D564A134001221A437B689A650BE0BB
:1035C8007B689B6D20221A437B689A657B68DB6D5C
:1035D80001221A437B68DA657B681800FDF7E4FF6F
:1035E8007B681B680C221A603B698022134012D04A
:1035F800FB68802213400ED07B689B6D80225202AC
:103608001A437B689A657B68180000F081F87B682C
:103618001B6880221A603A6980235B00134014D02B
:10362800FA6880235B0013400FD07B689B6D802273
:1036380092021A437B689A657B68180000F0D6FAF4
:103648007B681B68802252001A603A6980239B00BD
:10365800134014D0FA6880239B0013400FD07B6876
:103668009B6D8022D2021A437B689A657B6818009A
:1036780000F0C4FA7B681B68802292001A603B69DC
:10368800102213402BD0FB681022134027D07B68F0
:103698001B6B002B02D101237B6108E07B681B6850
:1036A8001800FFF758FC031E01D001237B617B69DA
:1036B800012B10D17B689B6D8022D2001A437B6856
:1036C8009A657B68DB6D02221A437B68DA657B6842
:1036D800180000F025F87B681B6810221A603A6908
:1036E80080239B0113400DD0FA6880239B0113406F
:1036F80008D07B68180000F091FA7B681B6880226C
:1037080092011A60C046BD4606B080BDFEFEFFFFAE
:1037180080B582B000AF7860C046BD4602B080BDBB
:1037280080B582B000AF7860C046BD4602B080BDAB
:1037380080B586B000AF786039601723FB18002287
:103748001A700023FB607B6854229B5C012B01D11B
:103758000223C0E17B685422012199547B681B68CD
:103768001800FFF77FFC031E00D0A3E13B685B68ED
:10377800022B00D143E17B681A6980231B069A4219
:1037880004D07B681B69C14A934208D17B681A68D8
:103798003B681B6819001000FFF7BAFBC9E07B689B
:1037A8001A6E3B685B681F210B400F2199400B0084
:1037B800DB43134019003B681B685B035B0B05D1B7
:1037C8003B681B689B0E1F22134098E03B681B68F0
:1037D8000122134000D091E03B681B68022213408D
:1037E80000D089E03B681B680422134000D081E0C8
:1037F8003B681B680822134000D079E03B681B68CF
:103808001022134000D071E03B681B68202213404F
:1038180000D069E03B681B684022134000D061E09B
:103828003B681B688022134000D059E03B681A6847
:1038380080235B00134051D13B681A6880239B00AA
:10384800134049D13B681A688023DB00134041D1FB
:103858003B681A6880231B01134039D13B681A68FA
:1038680080235B01134031D13B681A6880239B0198
:10387800134029D13B681A688023DB01134021D10A
:103888003B681A6880231B02134019D13B681A68E9
:1038980080235B02134011D13B681A6880239B0286
:1038A800134009D13B681A688023DB02134001D01A
:1038B800122324E0002322E0112320E010231EE03D
:1038C8000F231CE00E231AE00D2318E00C2316E04A
:1038D8000B2314E00A2312E0092310E008230EE06A
:1038E80007230CE006230AE0052308E0042306E08A
:1038F800032304E0022302E0012300E000233A68E6
:1039080052681F20024093400A001A437B681A66D7
:103918003B685B689B085A1C7B68DB699A4208D83D
:103928007B6818683B6859683B681B681A00FFF792
:10393800CFFA7B6818683B6819683B689B681A006F
:10394800FFF716FB3B681B68002B00DBBCE0504B05
:103958001800FFF76BFA03003B613B681B684D4A90
:10396800934222D13A6980231B0413401DD13B693D
:10397800802212041343464A19001000FFF742FA46
:10398800454B1B6845491800FCF7B6FB03005A1C59
:1039980013005B009B189B00FB6002E0FB68013B87
:1039A800FB60FB68002BF9D18EE03B681B683C4A42
:1039B80093420ED13A6980235B04134009D13B69D5
:1039C800802252041343324A19001000FFF71AFAF2
:1039D8007AE03B681B68334A934200D074E03A6946
:1039E8008023DB03134000D06EE03B698022D203C2
:1039F8001343274A19001000FFF704FA64E07B68B4
:103A08001A6980231B069A4204D07B681B691F4AE7
:103A1800934207D17B681A683B681B68190010003D
:103A2800FFF787FA3B681B68002B4DDA184B180024
:103A3800FFF7FCF903003B613B681B68154A93429A
:103A480008D13B69184A1340114A19001000FFF7C2
:103A5800D9F939E03B681B68114A934208D13B69A0
:103A6800124A13400A4A19001000FFF7CBF92BE05D
:103A78003B681B680B4A934226D13B690C4A1340AA
:103A8800034A19001000FFF7BDF91DE0040000808B
:103A980008270140001000B004000020400D03007A
:103AA800004000B8002000B4FFFF7FFFFFFFFFFECB
:103AB800FFFFBFFF7B689B6D20221A437B689A65D6
:103AC8001723FB1801221A707B685422002199548D
:103AD8001723FB181B781800BD4606B080BDC046EA
:103AE80080B584B000AF78600023BB607B681B683A
:103AF8001800FFF793FA031E00D069E07B681B6883
:103B08009B68364A13400DD07B689B6D10221A4380
:103B18007B689A657B68DB6D01221A437B68DA65EE
:103B2800012356E07B681B681800FFF765FA2C4BE9
:103B38001800FFF77BF9020080231B0413400FD005
:103B4800284B1B6828491800FCF7D6FA03000133F4
:103B5800BB6002E0BB68013BBB60BB68002BF9D1CE
:103B68007B685B7E012B33D0FFF71EF90300FB60F7
:103B780027E07B681B681800FFF750FA031E04D182
:103B88007B681B681800FFF737FAFFF70DF902008A
:103B9800FB68D31A022B14D97B681B681B680122A7
:103BA8001340012B0DD07B689B6D10221A437B6854
:103BB8009A657B68DB6D01221A437B68DA6501230D
:103BC80007E07B681B681B6801221340012BD0D1DA
:103BD80000231800BD4604B080BDC0461700008011
:103BE8000827014004000020400D030080B582B082
:103BF80000AF7860C046BD4602B080BD80B582B0D7
:103C080000AF7860C046BD4602B080BD80B582B0C6
:103C180000AF7860C046BD4602B080BD80B582B0B6
:103C280000AF7860C046BD4602B080BD80B582B0A6
:103C380000AF0200FB1D1A70FB1D1B787F2B09D8F3
:103C4800FB1D1B781A001F231A40044B01219140C9
:103C58000A001A60C046BD4602B080BD00E100E01F
:103C680090B583B000AF02003960FB1D1A70FB1DD0
:103C78001B787F2B28D82F4AFB1D1B785BB29B082B
:103C8800C0339B009B58FA1D1278110003220A408A
:103C9800D200FF2191400A00D2431A4011003B682C
:103CA8009B01FF221A40FB1D1B78180003230340C9
:103CB800DB009A401F48FB1D1B785BB29B080A4338
:103CC800C0339B001A5031E01B4AFB1D1B781900BA
:103CD8000F230B40083B9B0806339B00D318043383
:103CE8001B68FA1D1278110003220A40D200FF2136
:103CF80091400A00D2431A4011003B689B01FF2201
:103D08001A40FB1D1B78180003230340DB009A4070
:103D18000948FB1D1B781C000F232340083B9B0808
:103D28000A4306339B00C31804331A60C046BD46D5
:103D380003B090BD00E100E000ED00E080B582B086
:103D480000AF78607B685A1E80235B049A4201D3D7
:103D5800012310E00A4B7A68013A5A6001235B425A
:103D680003211800FFF77CFF054B00229A60044BE3
:103D780007221A6000231800BD4602B080BDC04665
:103D880010E000E080B584B000AFB9607A600F2120
:103D98007B18021C1A70BA687B181B785BB211007A
:103DA8001800FFF75DFFC046BD4604B080BD80B572
:103DB80082B000AF0200FB1D1A70FB1D1B785BB2BE
:103DC8001800FFF733FFC046BD4602B080BD80B57E
:103DD80082B000AF78607B681800FFF7AFFF030080
:103DE8001800BD4602B080BD80B586B000AF7860CF
:103DF800396000237B6147E13B681B6801217A69D0
:103E080091400A001340FB60FB68002B00D138E1A9
:103E18003B685B6803221340012B05D03B685B6855
:103E280003221340022B30D17B689B683B617B697E
:103E38005B0003229A401300DA433B6913403B615D
:103E48003B68DA687B695B009A4013003A69134360
:103E58003B617B683A699A607B685B683B610122D9
:103E68007B699A401300DA433B6913403B613B6826
:103E78005B681B0901221A407B699A4013003A6962
:103E880013433B617B683A695A603B685B6803226D
:103E98001340032B17D07B68DB683B617B695B00B1
:103EA80003229A401300DA433B6913403B613B68A5
:103EB8009A687B695B009A4013003A6913433B6137
:103EC8007B683A69DA603B685B6803221340022B1F
:103ED80023D17B69DA087B6808329200D3583B61AA
:103EE8007B69072213409B000F229A401300DA4394
:103EF8003B6913403B613B681A697B6907210B40AA
:103F08009B009A4013003A6913433B617B69DA08C6
:103F18007B68083292003969D1507B681B683B6125
:103F28007B695B0003229A401300DA433B69134024
:103F38003B613B685B6803221A407B695B009A40DF
:103F480013003A6913433B617B683A691A603B681E
:103F58005A68C0239B02134000D192E0504A7B6903
:103F68009B0818339B009B583B617B6903221340D5
:103F7800DB000F229A401300DA433B6913403B6190
:103F88007A68A023DB059A4213D07B68454A93429E
:103F98000DD07B68444A934207D07B68434A9342DA
:103FA80001D1032306E0052304E0022302E00123F4
:103FB80000E000237A6903210A40D20093403A695D
:103FC80013433B6136497B699B0818339B003A6968
:103FD8005A50334B1B683B61FB68DA433B6913401B
:103FE8003B613B685A6880235B03134003D03A69FE
:103FF800FB6813433B612A4B3A691A60284B5B689C
:104008003B61FB68DA433B6913403B613B685A6894
:1040180080239B03134003D03A69FB6813433B6139
:104028001F4B3A695A601E4A8423D3583B61FB6888
:10403800DA433B6913403B613B685A6880239B0223
:10404800134003D03A69FB6813433B611449842247
:104058003B698B50124A8023D3583B61FB68DA4393
:104068003B6913403B613B685A6880235B021340FD
:1040780003D03A69FB6813433B61094980223B69D5
:104088008B507B6901337B613B681A687B69DA4036
:10409800131E00D0B0E6C046C046BD4606B080BD7F
:1040A800001802400004005000080050000C0050A6
:1040B80080B582B000AF786008001100BB1C021CFC
:1040C8001A807B1C0A1C1A707B1C1B78002B04D0DE
:1040D800BB1C1A887B689A6103E0BB1C1A887B6842
:1040E8009A62C046BD4602B080BD000080B584B06B
:1040F80000AF7860194B1B68194A13401900174B19
:104108007A680A431A607A6880239B009A421FD112
:10411800144B1A6813005B009B185B0012491800C7
:10412800FBF7EAFF03000133FB6008E0FB68002BA4
:1041380003D0FB68013BFB6001E0032309E0074B68
:104148005A698023DB001A408023DB009A42EDD0B5
:1041580000231800BD4604B080BDC0460070004072
:10416800FFF9FFFF0400002040420F0080B588B02F
:1041780000AF78607B68002B01D10123F3E27B68F4
:104188001B680122134000D17CE0C34B9B68382296
:104198001340BB61C04BDB68032213407B61BB69E2
:1041A800102B02D17B69032B02D0BB69082B0BD1E2
:1041B800B94B1A6880239B02134062D07B685B6806
:1041C800002B5ED10123CEE27B685A6880235B0214
:1041D8009A4207D1B04B1A68AF4B802149020A4373
:1041E8001A6020E07B685A68A023DB029A420ED14D
:1041F800A94B1A68A84B8021C9020A431A60A64B2A
:104208001A68A54B802149020A431A600BE0A24BA9
:104218001A68A14BA1490A401A609F4B1A689E4B25
:104228009F490A401A607B685B68002B14D0FEF730
:10423800BBFD03003B6108E0FEF7B6FD02003B69E9
:10424800D31A642B01D903238DE2934B1A68802378
:104258009B021340F0D015E0FEF7A6FD03003B617A
:1042680008E0FEF7A1FD02003B69D31A642B01D9CF
:10427800032378E2884B1A6880239B021340F0D10D
:1042880000E0C0467B681B680222134000D199E019
:10429800814B9B6838221340BB617F4BDB6803224C
:1042A80013407B61BB69102B02D17B69022B02D0C2
:1042B800BB69002B35D1784B1A688023DB0013408B
:1042C80005D07B68DB68002B01D101234BE2724BE0
:1042D8005B68744A134019007B685B691A026E4B6D
:1042E8000A435A60BB69002B12D16B4B1B686E4A9C
:1042F800134019007B681A69674B0A431A60664BBA
:104308001B68DB0A07221340684ADA40684B1A60C8
:10431800684B1B681800FEF7EBFC031E51D0012305
:1043280021E27B68DB68002B30D05B4B1B685E4A60
:10433800134019007B681A69574B0A431A60564B99
:104348001A68554B802149000A431A60FEF72CFD74
:1043580003003B6108E0FEF727FD02003B69D31A22
:10436800022B01D90323FEE14B4B1A688023DB00A3
:104378001340F0D0484B5B684A4A134019007B68E9
:104388005B691A02444B0A435A601BE0424B1A68A5
:10439800414B49490A401A60FEF706FD03003B619C
:1043A80008E0FEF701FD02003B69D31A022B01D990
:1043B8000323D8E1384B1A688023DB001340F0D17F
:1043C80000E0C0467B681B680822134047D0324B88
:1043D8009B6838221340182B0AD12F4B1B6E0222E0
:1043E80013403CD07B689B69002B38D10123BAE18C
:1043F8007B689B69002B19D0274B1A6E264B01212D
:104408000A431A66FEF7D0FC03003B6108E0FEF79A
:10441800CBFC02003B69D31A022B01D90323A2E18A
:104428001D4B1B6E02221340F1D018E01A4B1A6E76
:10443800194B01218A431A66FEF7B6FC03003B615B
:1044480008E0FEF7B1FC02003B69D31A022B01D940
:10445800032388E1104B1B6E02221340F1D17B68C5
:104468001B680422134000D1C6E01F23FB1800225A
:104478001A70094B9B6838221340202B1ED1064B1B
:10448800DB6D0222134000D1B6E07B689B68002BED
:1044980000D0B1E0012366E100100240FFFFFEFFFB
:1044A800FFFFFBFFFF80FFFFFFC7FFFF0024F400B3
:1044B8000400002008000020FFFEFFFFAC4BDA6B71
:1044C80080235B05134001D1012300E00023002B6A
:1044D80011D0A74BDA6BA64B802149050A43DA6352
:1044E800A34BDA6B80235B051340FB60FB681F233B
:1044F800FB1801221A709F4B1A6880235B00134037
:104508001AD19C4B1A689B4B802149000A431A60B8
:10451800FEF74AFC03003B6108E0FEF745FC020099
:104528003B69D31A022B01D903231CE1914B1A686A
:1045380080235B001340F0D07B689B68012B06D179
:104548008B4BDA6D8A4B01210A43DA651CE07B68E4
:104558009B68052B0CD1864BDA6D854B04210A43E9
:10456800DA65834BDA6D824B01210A43DA650BE089
:104578007F4BDA6D7E4B01218A43DA657C4BDA6D1D
:104588007B4B04218A43DA657B689B68002B14D037
:10459800FEF70AFC03003B6109E0FEF705FC020098
:1045A8003B69D31A744A934201D90323DBE0704B69
:1045B800DB6D02221340F0D013E0FEF7F5FB030099
:1045C8003B6109E0FEF7F0FB02003B69D31A6A4A37
:1045D800934201D90323C6E0654BDB6D02221340E9
:1045E800F0D11F23FB181B78012B05D1604BDA6B28
:1045F8005F4B62490A40DA637B68DB69002B00D1B4
:10460800B0E05B4B9B6838221340102B00D178E058
:104618007B68DB69022B53D1554B1A68544B5849B8
:104628000A401A60FEF7C0FB03003B6108E0FEF792
:10463800BBFB02003B69D31A022B01D9032392E08A
:104648004B4B1A6880239B041340F0D1484BDB681E
:104658004C4A134019007B681A6A7B685B6A1A43E4
:104668007B689B6A1B021A437B68DB6A1A437B6878
:104678001B6B1A433E4B0A43DA603D4B1A683C4BAE
:10468800802149040A431A60394BDA68384B802183
:1046980049050A43DA60FEF787FB03003B6108E03F
:1046A800FEF782FB02003B69D31A022B01D90323D0
:1046B80059E02F4B1A6880239B041340F0D051E037
:1046C8002B4B1A682A4B2E490A401A60FEF76CFBDE
:1046D80003003B6108E0FEF767FB02003B69D31A61
:1046E800022B01D903233EE0214B1A6880239B0447
:1046F8001340F0D11E4BDA681D4B23490A40DA609B
:1047080030E07B68DB69012B01D101232BE0184BDA
:10471800DB687B617B6903221A407B681B6A9A42CB
:104728001ED17B6970221A407B685B6A9A4217D156
:104738007A69FE23DB011A407B689B6A1B029A4256
:104748000ED17A69F8239B031A407B68DB6A9A4288
:1047580006D17B695B0F5A077B681B6B9A4201D0B5
:10476800012300E000231800BD4608B080BDC04604
:10477800001002400070004088130000FFFFFFEFA8
:10478800FFFFFFFE8C80C11FFCFFFEEF80B584B0E9
:1047980000AF786039607B68002B01D10123E9E024
:1047A800764B1B68072213403A689A421ED9734B0E
:1047B8001B68072293431900704B3A680A431A6032
:1047C800FEF7F2FA0300FB6009E0FEF7EDFA0200DB
:1047D800FB68D31A6A4A934201D90323CAE0674B9C
:1047E8001B68072213403A689A42EED17B681B681F
:1047F8000222134015D07B681B680422134006D0A0
:10480800604B9A685F4BE021C9010A439A605D4B8F
:104818009B685D4A134019007B689A68594B0A43A4
:104828009A607B681B680122134057D07B685B68DD
:10483800012B07D1534B1A6880239B0213402BD1BD
:10484800012397E07B685B68022B07D14D4B1A6800
:1048580080239B0413401FD101238BE07B685B6896
:10486800002B07D1474B1A688023DB00134013D174
:1048780001237FE07B685B68032B06D1414B1B6EED
:104888000222134008D1012374E03E4BDB6D022263
:10489800134001D101236DE03A4B9B6807229343F3
:1048A80019007B685A68374B0A439A60FEF77CFA0E
:1048B8000300FB6009E0FEF777FA0200FB68D31AF1
:1048C8002F4A934201D9032354E02E4B9B68382288
:1048D8001A407B685B68DB009A42ECD1274B1B6867
:1048E800072213403A689A421ED2244B1B680722BB
:1048F80093431900214B3A680A431A60FEF754FAA9
:104908000300FB6009E0FEF74FFA0200FB68D31AC8
:104918001B4A934201D903232CE0184B1B6807223A
:1049280013403A689A42EED17B681B680422134010
:1049380009D0144B9B68154A134019007B68DA6844
:10494800104B0A439A6000F029F801000D4B9B6850
:104958001B0A0F221A400E4B9200D3581F221340F5
:104968000A00DA400B4B1A600B4B1B681800FEF765
:10497800BFF903001800BD4604B080BD0020024006
:104988008813000000100240FFF0FFFFFF8FFFFFB9
:10499800004C0008040000200800002080B586B004
:1049A80000AF3C4B9B68382213400FD1394B1B6832
:1049B800DB0A0722134001229A4013003B60396842
:1049C8003548FBF799FB03003B615DE0314B9B6881
:1049D80038221340082B02D1304B3B6154E02D4B59
:1049E8009B6838221340102B38D12A4BDB680322EE
:1049F8001340FB60274BDB681B0907221340013378
:104A0800BB60FB68032B0DD1B9682448FBF774FB26
:104A1800030019001F4BDB681B0A7F2213404B431E
:104A28007B610DE0B9681C48FBF766FB03001900C1
:104A3800184BDB681B0A7F2213404B437B61C0463F
:104A4800144BDB685B0F0722134001337B607968E6
:104A58007869FBF751FB03003B6115E00D4B9B6840
:104A680038221340202B03D180231B023B610BE02B
:104A7800084B9B6838221340182B03D1FA23DB011B
:104A88003B6101E000233B613B691800BD4606B06D
:104A980080BDC046001002400024F40000127A00D5
:104AA80003008218934200D1704719700133F9E767
:104AB80070B500260C4C0D4D641BA410A64209D1FC
:104AC800002600F019F80A4C0A4D641BA410A642EF
:104AD80005D170BDB300EB5898470136EEE7B30037
:104AE800EB5898470136F2E7404C0008404C000864
:104AF800444C0008404C0008F8B5C046F8BC08BC57
:104B08009E467047F8B5C046F8BC08BC9E4670473C
:104B180060070008EE06000842060008FA050008CB
:104B2800420600082A07000842060008FA0500089D
:104B3800EE060008EE0600082A070008FA05000835
:104B480000060008000600080006000838070008EC
:104B5800EE060008EE06000842060008F605000802
:104B6800420600082A07000842060008F605000861
:104B7800EE060008EE0600082A070008F6050008F9
:104B880000060008000600080006000834070008B0
:104B9800301700087C1600088E160008A0160008BA
:104BA800B2160008C4160008D6160008E816000851
:104BB800FA1600080C1700081E17000870170008DE
:104BC8008217000892170008A2170008B2170008F9
:104BD800C6170008DA170008EA170008FE170008C9
:104BE80012180008261800083A1800084A18000881
:104BF8005A1800086A1800080000000000000000A9
:104C0800000000000000000000000000000000009C
:104C18000000000000000000010000000200000089
:104C28000300000004000000060000000700000068
:084C3800080000000900000063
:044C4000E100000887
:044C4400B9000008AB
:104C48000F0A00000024F400040000000100000026
:0400000508002C655E
:00000001FF
