:020000040800F2
:10000000008000204D0F0008190F00081B0F00088A
:100010001D0F00081F0F0008210F0008000000003E
:10002000000000000000000000000000230F000896
:10003000250F000800000000270F0008290F000806
:100040009D0F00089D0F00089D0F00089D0F0008E0
:100050009D0F00089D0F00089D0F00089D0F0008D0
:100060009D0F00089D0F00089D0F00082D0F000830
:100070009D0F00089D0F00089D0F00089D0F0008B0
:100080009D0F0008000000009D0F00089D0F000854
:100090009D0F00089D0F00089D0F00089D0F000890
:1000A0009D0F00089D0F00089D0F00089D0F000880
:1000B0009D0F00089D0F00089D0F00089D0F000870
:1000C0009D0F00089D0F00089D0F00089D0F000860
:1000D0009D0F00089D0F00089D0F00089D0F000850
:1000E0009D0F00089D0F00089D0F00089D0F000840
:1000F0009D0F00089D0F00089D0F000800000000E4
:10010000000000009D0F0008000000009D0F000887
:100110009D0F0008000000009D0F00089D0F0008C3
:100120009D0F00089D0F00089D0F00089D0F0008FF
:100130009D0F000800000000000000009D0F000857
:100140009D0F00089D0F0008000000000000000047
:10015000000000000000000000000000000000009F
:100160000000000000000000000000009D0F0008DB
:100170009D0F0008000000000000000000000000CB
:10018000000000009D0F00080000000000000000BB
:10019000000000000000000000000000000000005F
:1001A00000000000000000009D0F00089D0F0008E7
:1001B0009D0F00089D0F00089D0F00080000000023
:1001C000000000009D0F000800000000000000007B
:0801D0009D0F00089D0F0008BF
:1001D80010B5054C237833B9044B13B10448AFF379
:1001E80000800123237010BD1400002000000000CF
:1001F8000C34000808B5034B1BB103490348AFF39F
:10020800008008BD00000000180000200C34000821
:1002180081F0004102E000BF83F0004330B54FEAAF
:1002280041044FEA430594EA050F08BF90EA020F1C
:100238001FBF54EA000C55EA020C7FEA645C7FEAAF
:10024800655C00F0E2804FEA5454D4EB5555B8BFD2
:100258006D420CDD2C4480EA020281EA030382EA43
:10026800000083EA010180EA020281EA0303362DD5
:1002780088BF30BD11F0004F4FEA01314FF4801CA8
:100288004CEA113102D0404261EB410113F0004FBA
:100298004FEA03334CEA133302D0524263EB430371
:1002A80094EA050F00F0A780A4F10104D5F1200E0F
:1002B8000DDB02FA0EFC22FA05F2801841F100016A
:1002C80003FA0EF2801843FA05F359410EE0A5F13E
:1002D80020050EF1200E012A03FA0EFC28BF4CF06F
:1002E800020C43FA05F3C01851EBE37101F0004525
:1002F80007D54FF0000EDCF1000C7EEB00006EEB32
:100308000101B1F5801F1BD3B1F5001F0CD34908BB
:100318005FEA30004FEA3C0C04F101044FEA445212
:1003280012F5800F80F09A80BCF1004F08BF5FEA99
:10033800500C50F1000041EB045141EA050130BD79
:100348005FEA4C0C404141EB0101013C28BFB1F58B
:10035800801FE9D291F0000F04BF01460020B1FAD6
:1003680081F308BF2033A3F10B03B3F120020CDAA9
:100378000C3208DD02F1140CC2F10C0201FA0CF087
:1003880021FA02F10CE002F11402D8BFC2F1200CEC
:1003980001FA02F120FA0CFCDCBF41EA0C019040A2
:1003A800E41AA2BF01EB0451294330BD6FEA0404EB
:1003B8001F3C1CDA0C340EDC04F11404C4F12002D6
:1003C80020FA04F001FA02F340EA030021FA04F3E8
:1003D80045EA030130BDC4F10C04C4F1200220FA3F
:1003E80002F001FA04F340EA0300294630BD21FA7D
:1003F80004F0294630BD94F0000F83F4801306BF43
:1004080081F480110134013D4EE77FEA645C18BF36
:100418007FEA655C29D094EA050F08BF90EA020FCD
:1004280005D054EA000C04BF1946104630BD91EAC5
:10043800030F1EBF0021002030BD5FEA545C05D1C8
:100448004000494128BF41F0004130BD14F5800407
:100458003CBF01F5801130BD01F0004545F0FE417B
:1004680041F470014FF0000030BD7FEA645C1ABFB0
:10047800194610467FEA655C1CBF0B46024650EAE7
:10048800013406BF52EA033591EA030F41F4002113
:1004980030BD00BF90F0000F04BF0021704730B599
:1004A8004FF4806404F132044FF000054FF000016E
:1004B80050E700BF90F0000F04BF0021704730B52F
:1004C8004FF4806404F1320410F0004548BF404204
:1004D8004FF000013EE700BF42004FEAE2014FEA59
:1004E80031014FEA02701FBF12F07F4393F07F4F34
:1004F80081F06051704732F07F4208BF704793F037
:100508007F4F04BF41F40021704730B54FF4607449
:1005180001F0004521F000411CE700BF50EA01024C
:1005280008BF704730B54FF000050AE050EA0102F5
:1005380008BF704730B511F0004502D5404261EB65
:1005480041014FF4806404F132045FEA915C3FF4A6
:10055800D8AE4FF003025FEADC0C18BF03325FEA43
:10056800DC0C18BF033202EBDC02C2F1200300FAF4
:1005780003FC20FA02F001FA03FE40EA0E0021FA19
:1005880002F11444BDE600BF70B54FF0FF0C4CF407
:10059800E06C1CEA11541DBF1CEA135594EA0C0FB9
:1005A80095EA0C0F00F0DEF82C4481EA030621EAF4
:1005B8004C5123EA4C5350EA013518BF52EA03352F
:1005C80041F4801143F4801338D0A0FB02CE4FF0E1
:1005D8000005E1FB02E506F00042E0FB03E54FF011
:1005E8000006E1FB03569CF0000F18BF4EF0010E09
:1005F800A4F1FF04B6F5007F64F5407404D25FEA05
:100608004E0E6D4146EB060642EAC62141EA5551B7
:100618004FEAC52040EA5E504FEACE2EB4F1FD0CF9
:1006280088BFBCF5E06F1ED8BEF1004F08BF5FEA77
:10063800500E50F1000041EB045170BD06F0004629
:1006480046EA010140EA020081EA0301B4EB5C04D6
:10065800C2BFD4EB0C0541EA045170BD41F48011CE
:100668004FF0000E013C00F3AB8014F1360FDEBFF3
:10067800002001F0004170BDC4F10004203C35DACF
:100688000C341BDC04F11404C4F1200500FA05F352
:1006980020FA04F001FA05F240EA020001F00042F3
:1006A80021F0004110EBD37021FA04F642EB060169
:1006B8005EEA430E08BF20EAD37070BDC4F10C0493
:1006C800C4F1200500FA04F320FA05F001FA04F257
:1006D80040EA020001F0004110EBD37041F1000143
:1006E8005EEA430E08BF20EAD37070BDC4F120054E
:1006F80000FA05F24EEA020E20FA04F301FA05F2B6
:1007080043EA020321FA04F001F0004121FA04F25D
:1007180020EA020000EBD3705EEA430E08BF20EA2D
:10072800D37070BD94F0000F0FD101F00046400067
:1007380041EB010111F4801F08BF013CF7D041EAE9
:10074800060195F0000F18BF704703F000465200ED
:1007580043EB030313F4801F08BF013DF7D043EABE
:100768000603704794EA0C0F0CEA135518BF95EA74
:100778000C0F0CD050EA410618BF52EA4306D1D1FB
:1007880081EA030101F000414FF0000070BD50EA1A
:10079800410606BF1046194652EA430619D094EAA4
:1007A8000C0F02D150EA013613D195EA0C0F05D18E
:1007B80052EA03361CBF104619460AD181EA0301E2
:1007C80001F0004141F0FE4141F470014FF000009A
:1007D80070BD41F0FE4141F4780170BD70B54FF035
:1007E800FF0C4CF4E06C1CEA11541DBF1CEA1355B5
:1007F80094EA0C0F95EA0C0F00F0A7F8A4EB050497
:1008080081EA030E52EA03354FEA013100F088808D
:100818004FEA03334FF0805545EA131343EA126356
:100828004FEA022245EA111545EA10654FEA00260B
:100838000EF000419D4208BF964244F1FD0404F5C4
:10084800407402D25B084FEA3202B61A65EB030520
:100858005B084FEA32024FF480104FF4002CB6EBDD
:10086800020E75EB030E22BFB61A754640EA0C005D
:100878005B084FEA3202B6EB020E75EB030E22BF9D
:10088800B61A754640EA5C005B084FEA3202B6EBDE
:10089800020E75EB030E22BFB61A754640EA9C009D
:1008A8005B084FEA3202B6EB020E75EB030E22BF6D
:1008B800B61A754640EADC0055EA060E18D04FEA2B
:1008C800051545EA16754FEA06164FEAC30343EACB
:1008D80052734FEAC2025FEA1C1CC0D111F4801F98
:1008E8000BD141EA00014FF000004FF0004CB6E791
:1008F80011F4801F04BF01430020B4F1FD0C88BF30
:10090800BCF5E06F3FF6AFAEB5EB030C04BFB6EB3A
:10091800020C5FEA500C50F1000041EB045170BD2D
:100928000EF0004E4EEA113114EB5C04C2BFD4EB5A
:100938000C0541EA045170BD41F480114FF0000EDE
:10094800013C90E645EA060E8DE60CEA135594EA5A
:100958000C0F08BF95EA0C0F3FF43BAF94EA0C0F5D
:100968000AD150EA01347FF434AF95EA0C0F7FF4D2
:1009780025AF104619462CE795EA0C0F06D152EA26
:1009880003353FF4FDAE1046194622E750EA41060A
:1009980018BF52EA43067FF4C5AE50EA41047FF41B
:1009A8000DAF52EA43057FF4EBAE12E74A0011D2CD
:1009B80012F5001211D20DD56FF47873B3EB6252B1
:1009C8000ED44FEAC12343F0004343EA505323FABD
:1009D80002F070474FF00000704750EA013002D132
:1009E8004FF0FF3070474FF00000704710B594B0DB
:1009F8003822002106A802F0D9FC1422002101A8FF
:100A080002F0D4FC002000F001FE01224FF48033F4
:100A1800CDE9062303240223222206A8CDE90D34BA
:100A2800CDE91023CDE912330F9300F04FFE08B142
:100A380072B6FEE70421CDE903000F2305900DEB04
:100A48000100CDE9013401F083F808B172B6FEE780
:100A580014B010BDF8B50D46044601F06DF90E4E00
:100A6800AA235C430021B0FBF4F4304602F09EFA5E
:100A78003768F460642D28BF6425FC62023405FBE6
:100A880004F0FFF707FD054B0022FFF7A7FEFFF76D
:100A98008DFF80B27863F8BD300000200000594017
:100AA80080B5964D9AB000F09DFAFFF79FFF14228B
:100AB80000210DA802F07AFCEB6C43F00403EB6410
:100AC800EB6C03F004030293029BEB6C43F02003EE
:100AD800EB64EB6C03F020030393039BEB6C43F094
:100AE8000103EB64EB6C03F001030493049BEB6CD0
:100AF80043F00203EB64EB6C03F00203059300225E
:100B080008214FF09040059B00F008FD7C4800222A
:100B180041F2830100F002FD0122794804210024FA
:100B280000F0FCFC41F602130DA94FF0904001269D
:100B3800CDE90D344FF008080F9400F025FC0DA9FD
:100B48004FF09040CDE90D864FF00709CDE90F44ED
:100B580000F01AFC03236A4810930DA9CDE90D96FD
:100B68000F9400F011FC4FF4806365480F960DA9AF
:100B7800CDE90D3400F008FC4FF4046360480F948D
:100B88000DA9CDE90D3400F0FFFB4FF484535C4808
:100B98000DA9CDE90D364FF0020ACDE90F444FF407
:100BA800005700F0F1FB0523554811930DA94FF4A8
:100BB8000076CDE90D7ACDE90F4400F0E5FB12236C
:100BC800CDE90D634E4804230DA91193CDE90F44D7
:100BD80000F0DAFBAB6C43F00403AB64AB6C03F0DE
:100BE80004030093009BAB6C43F00103AB64AB6C54
:100BF800444D03F001032246214601930B20019B3B
:100C080000F038FA0B2000F067FA3F484FF482737F
:100C1800C0E900534FF4E063C0E9033A1823C0E980
:100C28000546C0E90734C0E90944C0E90B9484606B
:100C3800C0F8348001F08CFC054608B172B6FEE7B6
:100C480001461C2206A802F0B1FB342229460DEB0E
:100C5800020002F0ABFB2D4C2D48A560A923C4E986
:100C68000003D1232046C4E90335C4E9055501F042
:100C7800EDFF08B172B6FEE7204602F017F802460B
:100C880008B172B6FEE760216923CDE90613CDE904
:100C98000800CDE90A000C9006A9204602F076F873
:100CA80008B172B6FEE7CDE90D00CDE90F00CDE938
:100CB8001107139019900DA9204602F079F90546FD
:100CC80008B172B6FEE7204600F0FCF81148124B56
:100CD8000561C0E900364AF64443C0E90255C0E957
:100CE800053500F020FC08B172B6FEE70B4B642115
:100CF8001888FFF7AFFE02F0A3FAFEE700100240E3
:100D08000004004800300140DC00002030000020D2
:100D18000044014040010020003C00400000002049
:100D280072B6FEE70B4B1A6E42F0010282B01A66E9
:100D38001A6E02F001020092009A9A6D42F08052F7
:100D48009A659B6D03F080530193019B02B000F0FC
:100D5800B5BC00BF0010024070B59AB0044614221A
:100D6800002104A802F022FB4422002109A802F075
:100D78001DFB2268214B9A423DD14FF4006309A81C
:100D8800099301F003F808B1FFF7CAFF1C4B9A6DED
:100D980042F400429A659A6D02F400420192019A67
:100DA800DA6C42F00102DA64DA6C02F001020292B3
:100DB800029ADA6C42F00202DA64DB6C03F0020396
:100DC8000393039B10230DEB030102260024062541
:100DD8004FF09040CDE90436CDE90644089500F07F
:100DE800D3FA28230748089504A9CDE90436CDE9A4
:100DF800064400F0C9FA1AB070BD00BF003C0040BC
:100E0800001002400004004830B5054689B014229D
:100E1800002103A802F0CAFA2A681D4B9A4235D16C
:100E280003F5604303A91A6E1A4C42F480521A66FD
:100E38001A6E02F480520192019ADA6C42F00102B1
:100E4800DA64DB6C03F001030293A022029B022305
:100E5800CDE903234FF090400523079300F094FA5F
:100E68000D490B231020C4E900130023C4E9020331
:100E780080222046C4E90423C4E90633236200F033
:100E88008BF908B1FFF74CFF6C65A56209B030BD5E
:100E9800003001407C000020080002400268084B36
:100EA8009A4282B00AD103F54C431A6E42F40032DA
:100EB8001A661B6E03F400330193019B02B070475E
:100EC8000044014010B5044686B01422002101A850
:100ED80002F06CFA22680D4B9A4215D103F54C4387
:100EE80001A9DA6C42F00102DA64DB6C03F0010359
:100EF8000093009B40220223CDE901234FF090404C
:100F08000123059300F040FA06B010BD00440140EB
:100F1800FEE7FEE7FEE7FEE7FEE77047704770472B
:100F280000F070B8014800F0E5B900BF7C0000206F
:100F3800034AD2F8883043F47003C2F88830704707
:100F480000ED00E00D488546FFF7F2FF0C480D491B
:100F58000D4A002302E0D458C4500433C4188C420C
:100F6800F9D30A4A0A4C002301E013600432A24272
:100F7800FBD302F023FAFFF793FDFEE70080002081
:100F8800000000201400002068340008140000202D
:100F9800000E0020FEE7000038B50F4B1A68054622
:100FA8000AB9012038BD4FF47A73B3FBF2F30B4A48
:100FB8001068B0FBF3F000F09DF804460028F0D16B
:100FC8000F2DEED8024629464FF0FF3000F052F8B8
:100FD800034B20461D60E5E70800002004000020C0
:100FE8000C00002010B5032000F032F80F20FFF7A6
:100FF800D3FF044618B9FFF795FE204610BD01241B
:10100800FBE70000034A0449136809680B441360AE
:10101800704700BF7C01002008000020014B1868C1
:10102800704700BF7C01002038B50446FFF7F6FF83
:10103800631C1CBF054B1B68054618BFE418FFF767
:10104800EDFF431BA342FAD338BD00BF08000020C0
:101058000749CA6822F4E0620302120403F4E06359
:10106800120C134343F0BF6343F40033CB60704763
:1010780000ED00E0164B30B5DC68C4F30224C4F17F
:101088000703251D042B28BF0423062D4FF0FF3529
:101098008CBF033C002405FA03F321EA0303A540AF
:1010A80022EA0502A340002843EA0203ACBF00F18C
:1010B8006040084A4FEA0313B8BF00F00F00DBB2E4
:1010C800AABF00F56140135480F8003330BD00BF5B
:1010D80000ED00E014ED00E0002807DB044A4109B8
:1010E800012300F01F00834042F82130704700BF01
:1010F80000E100E00138B0F1807F0BD24FF0E0232F
:10110800054A5861F02182F82310002007229861CF
:101118001A6170470120704700ED00E070B5D0E912
:1011280013456560446D14B1D0E916456560D0E992
:10113800105404F01F060124B4406C600468636016
:101148008368102B0BBFA260A160E160E26070BDF4
:1011580010B503680C490D4C0D4AA34298BF0A46C6
:10116800416C21F003010A448264DBB2094AC2647B
:10117800083B1422B3FBF2F3012203F01F0302FA27
:1011880003F3036510BD00BF0008024007040240D6
:10119800200802408008024038B5002857D002686D
:1011A8002C4B9A424FF0140145D82B4B1344B3FBF8
:1011B800F1F32A499B00C0E91013022380F8253077
:1011C800D0E902430569116823432B4345692B4342
:1011D80085692B43C5692B43056A6FF30E112B43B1
:1011E8000B431360FFF7B4FFB4F5804F04BF00232F
:1011F80043604368816CDAB20A60D0E91314013B9A
:10120800032B4C601ED8164B1649816513449B006E
:101218000121013A01FA02F200214365C265196011
:10122800114B5A6400230122C36380F8243080F8EC
:101238002520184638BD0D4B1344B3FBF1F30C4978
:101248009B00B8E70023C0E91533C365EAE701202E
:10125800F0E700BF07040240F8FFFDBF00000240AE
:101268003F8200104009024000090240F8FBFDBF20
:101278000004024070B590F82450012D044637D080
:10128800012580F8245090F82550012D4FF00005D5
:101298002CD1022680F82560C56305682E6826F0E3
:1012A80001062E60FFF73AFF036BBBB12B6843F0D2
:1012B8000E032B60A36C1A68D20342BF1A6842F46B
:1012C80080721A60636D1BB11A6842F480721A60EA
:1012D8002B6843F001032B60002070BD2B6823F0BE
:1012E80004032B602B6843F00A03E2E780F82450DC
:1012F8000220F2E7016C426C036870B402F01F022E
:101308000E681D680424944034420ED015F0040F72
:101318000BD01A6892065EBF1A6822F004021A609F
:10132800036B4C6073B370BC18470224944034427A
:1013380012D015F0020F0FD01A68950606D41A6855
:1013480022F00A021A60012380F8253000234C603D
:1013580080F82430C36AE5E708249440344211D069
:101368002C070FD51C6824F00E041C60012303FA17
:1013780002F24A60C36380F82530002380F82430E5
:10138800436BCFE770BC70472DE9F74FDFF88891C2
:101398005F4C00230A6832FA03F502D103B0BDE8B6
:1013A800F08F012505FA03F818EA020200F0A4807C
:1013B8004E68032706F003054FEA430E07FA0EFCB2
:1013C8006F1E012F6FEA0C0C34D8876807EA0C0AE5
:1013D800CF6807FA0EF747EA0A078760476827EADF
:1013E8000808C6F300179F4047EA08074760C76820
:1013F80007EA0C088F6807FA0EF747EA0807022D74
:10140800C76019D14FEAD30800EB880803F0070A30
:10141800D8F820704FEA8A0A4FF00F0B0BFA0AFB34
:1014280027EA0B0B0F6907FA0AF747EA0B07C8F810
:10143800207001E0032DDAD1076805FA0EF507EAF6
:101448000C073D4316F4403F056055D0D9F860506D
:1014580045F00105C9F86050D9F8605023F003073A
:1014680007F1804705F0010507F58037019503F07E
:10147800030C019DBD684FEA8C0C4FF00F0E0EFA5D
:101488000CFEB0F1904F25EA0E0E37D0214DA84240
:1014980036D005F58065A84234D005F58065A842A8
:1014A80032D005F58065A84230D005F58065A842A0
:1014B80014BF0625052505FA0CF545EA0E05BD609D
:1014C800A568D74316F4801F0CBF3D401543A5609F
:1014D800E56816F4001F0CBF3D401543E5606568DC
:1014E80016F4003F0CBF3D40154365602568F603C0
:1014F80054BF3D401543256001334BE70025DAE72B
:101508000125D8E70225D6E70325D4E70425D2E745
:101518000004014000040048001002400AB1816143
:1015280070478162704738B50446002869D090F842
:10153800353003F0FF021BB980F83420FFF70CFCAC
:101548002268022184F83510D36923F47B6323F0E1
:101558000F03D361636911628B42E26853D0A368B9
:10156800002A14BF202510254FF40060202B98BFB7
:101578006D0000F047FD23696269B3F5007F38D13B
:10158800E3680A219BB3AD00B0FBF5F34B43B3FB13
:10159800F2F30A220533B3FBF2F303F001015B080F
:1015A8009A1EFD2A29D809020B43216922680B4398
:1015B8001362D169D4E9013021F47B61034321F03E
:1015C8000F010B43E1680B43A1690B4343F400632C
:1015D80020F08000D361302802BFD36943F48053E0
:1015E800D36100200123A06384F835300AE0ED00C0
:1015F800CAE70A21B0FBF5F3C8E7A36B43F0100371
:10160800A363012038BD0021CEE70000284B1A68EB
:1016180018BB02F4C062B2F5806FD3F8802022F4C0
:101628008072C3F8802040D11A6822F4C06242F464
:1016380000721A601F4A126832214A431E49B2FBDF
:10164800F1F201325969490500D522B95B6958059B
:101658002BD503207047013AF4E7B0F5007F1FD17E
:1016680002F4C062B2F5806FD3F8802042F4807231
:10167800C3F8802019D11A6822F4C06242F40072BB
:101688001A600C4A126832214A430B49B2FBF1F244
:10169800013259694905D9D5002AD7D0013AF8E766
:1016A80022F4C06242F480621A600020704700BFD2
:1016B800007000400400002040420F00024A936876
:1016C80043F4804393607047007000402DE9F34174
:1016D800044618B9012002B0BDE8F0810368D907B3
:1016E80014D423689A0758D42368190700F1A180F5
:1016F80023685A0700F1C88023689A0600F12F81F1
:10170800E369002B40F05C810020E4E79F4DAB6863
:10171800EA6803F00C030C2B0AD102F00303032B35
:1017280008D12B689B03DCD56368002BD9D1D1E79E
:10173800082BF5E76368B3F5803F10D12B6843F4B5
:1017480080332B60FFF76AFC06462B689F03C8D4DA
:10175800FFF764FC801B6428F7D90320BBE7B3F5C7
:10176800A02F04D12B6843F480232B60E6E72A6876
:1017780022F480322A602A6822F480222A60002B10
:10178800E0D1FFF74BFC06462B689903A9D5FFF774
:1017980045FC801B6428F7D9DFE77C4DAB68EA6815
:1017A80003F00C030C2B17D102F00303022B15D105
:1017B8002B685A0502D5E368002B8BD06B68226929
:1017C80023F0FE4343EA02636B60714B1868FFF72E
:1017D800E3FB002888D07DE7042BE8E7E368BBB18A
:1017E8002B6843F480732B60FFF718FC06462B68C0
:1017F8005B0507D56B68226923F0FE4343EA026361
:101808006B6071E7FFF70AFC801B0228EFD9A4E799
:101818002B6823F480732B60FFF700FC06462B68C7
:101828005F057FF561AFFFF7F9FB801B0228F6D94A
:1018380093E76369554D9BB1D5F8943043F00103A4
:10184800C5F89430FFF7EAFB0646D5F894309B07B5
:101858003FF54EAFFFF7E2FB801B0228F5D97CE786
:10186800D5F8943023F00103C5F89430FFF7D6FB80
:101878000646D5F894309F077FF53AAFFFF7CEFBC1
:10188800801B0228F5D968E7404DAB6DD80027D4F6
:10189800AB6D43F08053AB65AB6D03F080530193A0
:1018A800019B01273B4E3368D9051BD5A368012B43
:1018B80029D1D5F8903043F00103C5F89030FFF7EF
:1018C800ADFB41F288380646D5F890309B0740D5E5
:1018D800002F3FF411AFAB6D23F08053AB650BE7DE
:1018E8000027DFE7336843F480733360FFF796FB24
:1018F80080463368DA05D9D4FFF790FBA0EB0800DF
:101908000228F6D929E7052B06D1D5F8903043F0FF
:101918000403C5F89030CCE7D5F8902022F00102F6
:10192800C5F89020D5F8902022F00402C5F8902040
:10193800002BC4D1FFF772FB41F288380646D5F870
:1019480090309907C4D5FFF769FB801B4045F6D94D
:1019580003E7FFF763FB801B4045B5D9FDE6A369A4
:101968000A4DCBB1D5F8983043F00103C5F898304B
:10197800FFF754FB0646D5F898309B073FF5C0AEF5
:10198800FFF74CFB801B0228F5D9E6E60010024061
:101998000C00002000700040D5F8983023F00103B7
:1019A800C5F89830FFF73AFB0646D5F898309F07F8
:1019B8007FF5A6AEFFF732FB801B0228F5D9CCE6EF
:1019C800454DAA6802F00C020C2A51D0022B2B6854
:1019D80023F080732B603AD1FFF720FB06462B6873
:1019E80099012ED4EA683D4B1340226A1343A26A38
:1019F80043EA0223E26A43EAC263626A013A43EABB
:101A08000213226B5208013A43EA4253626B5208AE
:101A1800013A43EA4263EB602B6843F080732B6022
:101A2800EB6843F08073EB60FFF7F8FA04462B6825
:101A38009A013FF569AEFFF7F1FA001B0228F6D9C3
:101A48008BE6FFF7EBFA801B0228C8D985E6FFF77B
:101A5800E5FA04462B689B0104D4EA68204B13403E
:101A6800EB6051E6FFF7DAFA001B0228F2D974E6B8
:101A7800012B3FF42FAEEB68226A03F00301914279
:101A88007FF428AE616A03F0F0020139B2EB011F5E
:101A98007FF420AEA16A03F4FE42B2EB012F7FF47B
:101AA80019AEE16A03F07842B2EBC16F7FF412AE6F
:101AB800226B520803F4C001013AB1EB425F7FF494
:101AC80009AE626B5208013A03F0C063B3EB426F90
:101AD80014BF01200020FEE5001002400C809F0189
:101AE800FCFFEEFE174B9A6802F00C02042A23D082
:101AF8009A6802F00C02082A20D09A6802F00C02B8
:101B08000C2A1DD1D968DA68D868DB6801F00301AE
:101B1800C3F341630329C2F30312C0F3062003F1A0
:101B280001030CBF084909495B000132B1FBF2F21D
:101B38005043B0FBF3F070470448704702487047C1
:101B48000020704700100240002D31010024F400ED
:101B58002DE9F8430E46054610B90120BDE8F88383
:101B68006D4A136803F00F038B4245D3296811F0BF
:101B780001084CD12A68910740F1A780674B12F001
:101B8800040F1EBF996841F4E0619960120741BFD4
:101B98009A6822F47C5242F4E0629A609A68A968D2
:101BA80022F0F0020A439A605B4C236803F00F03AB
:101BB800B34200F293802A68584C12F0040F40F0A8
:101BC800A380130706D5A3682A6923F4605343EA60
:101BD800C203A360FFF786FFA368514AC3F3031348
:101BE800D35C03F01F03D8404E4B18604E4B186867
:101BF800BDE8F843FFF7D0B9136823F00F030B4390
:101C08001360136803F00F038B42A6D1AEE76F6829
:101C1800424C032F236849D19B019ED5E368E268B3
:101C280003F00303032BE3680CBF40484048C2F3AA
:101C38000312C3F306230132B0FBF2F25343E26806
:101C4800C2F3416201325200B3FBF2F3394A9342C4
:101C58001AD84FF00008A36823F003033B43A3609E
:101C6800FFF7DCF941F288390746A3686A6803F090
:101C78000C03B3EB820F3FF47DAFFFF7CFF9C01B26
:101C88004845F2D9032069E7A36813F0F00F04D0A0
:101C98008807DED5AB68002BDBD1A36823F0F003FF
:101CA80043F08003A3604FF08008D4E7022F09D1E6
:101CB80013F4003F3FF451AFFFF714FF1D4B984258
:101CC800C7D9EAE713F4806FF4E7B8F1800F01BFD2
:101CD800124A936823F0F003936065E7236823F0C2
:101CE8000F0333432360FFF799F941F28838074619
:101CF800236803F00F03B3423FF45DAFFFF78EF99B
:101D0800C01B4045F4D9BDE7A368E96823F4E06344
:101D18000B43A36055E700BF0020024000100240BB
:101D280031340008040000200C000020002D31018F
:101D38000024F40000B4C404014B1868704700BFC5
:101D480004000020054B064A9B68C3F30223D35CBA
:101D5800044A106803F01F03D8407047001002407F
:101D68002934000804000020054B064A9B68C3F389
:101D7800C223D35C044A106803F01F03D84070479D
:101D88000010024029340008040000202DE9F34126
:101D98000446006810F4002056D0984DAB6DD8006A
:101DA80044D4AB6D43F08053AB65AB6D03F0805307
:101DB8000193019B0126924F3B6843F480733B607B
:101DC800FFF72CF980463B68D90531D5D5F8903016
:101DD800226C13F440731FD09A421DD0D5F890207E
:101DE800D5F8903043F48033C5F89030D5F890306A
:101DF80022F4407123F48033D207C5F89030C5F837
:101E0800901009D5FFF70AF941F288380746D5F846
:101E180090309B0740F1EB80D5F89030226C23F48A
:101E280040731343C5F89030002008E00026C2E74D
:101E3800FFF7F4F8A0EB08000228C4D903201EB16C
:101E4800AB6D23F08053AB652368DE0708D56B497B
:101E58006568D1F8882022F003022A43C1F8882057
:101E68009D0708D56549A568D1F8882022F00C029D
:101E78002A43C1F88820590708D56049E568D1F890
:101E8800882022F030022A43C1F888201A0708D592
:101E98005A492569D1F8882022F0C0022A43C1F89E
:101EA80088209F0608D555496569D1F8882022F40D
:101EB80040622A43C1F888205E0608D54F49A569C3
:101EC800D1F8882022F440522A43C1F888201D0600
:101ED80008D54A49E569D1F8882022F440422A43C6
:101EE800C1F88820D90508D54449256AD1F8882041
:101EF80022F440322A43C1F888209A0508D53F4980
:101F0800656AD1F8882022F440222A43C1F8882043
:101F18005F050FD53949A56AD1F8882022F4401207
:101F28002A43C1F88820B5F5801F02BFCA6842F469
:101F38008012CA601E050FD53049E56AD1F888209D
:101F480022F440022A43C1F88820B5F5800F02BF69
:101F5800CA6842F48012CA60DD040FD52749256B90
:101F6800D1F8882022F040722A43C1F88820B5F1C0
:101F7800807F02BFCA6842F48012CA6099040FD5F4
:101F88001E49656BD1F8882022F040622A43C1F8C7
:101F98008820B5F1006F02BFCA6842F48012CA6097
:101FA8005A040FD51549A56BD1F8882022F0406254
:101FB8002A43C1F88820B5F1006F02BFCA6842F40D
:101FC8008012CA601B040FD50C4AE16BD2F8883026
:101FD80023F040530B43B1F1805FC2F8883003D13E
:101FE800D36843F48033D36002B0BDE8F081FFF7D3
:101FF80015F8C01B40457FF60AAF1FE700100240E6
:1020080000700040B0F5002FA34A1DD1D2F89030DF
:10201800D2F89010890703F4407303D5B3F5807F95
:1020280000F0AB81D2F89410880703D5B3F5007F90
:1020380000F0A681106810F4003038D09748B3F546
:10204800407F18BF00207047D36803F00303022BBA
:1020580017D1136813F4806F914B08BF0023B0F5B4
:10206800807FD16800F0068122D8082815D8F0B101
:10207800013807281AD8DFE800F067831999191979
:1020880019AED36803F00303032B04D1136813F4C8
:10209800003F844BE1E70023E1E7402800F0C880D7
:1020A800802800F0D680202800F0AA800020704701
:1020B800C1F30311B0F5805F01F10101B3FBF1F346
:1020C80000F02C8126D8B0F5806F00F0EF80B0F5D5
:1020D800006F00F01081B0F5007FE7D1D2F88830AA
:1020E80013F4402351D0D2F89410880703D5B3F5E0
:1020F800802F00F045811168490503D5B3F5002FFD
:1021080000F04181D2F8900010F00200CFD0B3F572
:10211800402F30E0B0F5804F06D0B0F5004F00F00A
:102128000B81B0F5005FC1D1D2F8881001F0406191
:10213800B1F1006F00F0C880D2F8980010F00200EA
:10214800B5D0594800297CE7D2F8883013F003034A
:1021580001D1FFF709BE012B01D1FFF7C3BC1168FC
:10216800490502D5022B00F00E81D2F8900010F03C
:1021780002009CD0032B14BF00230123D80370470F
:10218800D2F8883013F00C0301D1FFF7DBBD042B24
:10219800E3D01168480502D5082B00F0F480D2F886
:1021A800900010F0020082D00C2BE4E7D2F88830BF
:1021B80013F03003E9D0102BCFD01168490502D5B0
:1021C800202B00F0E080D2F8900010F002003FF4DD
:1021D8006EAF302BCFE7D2F8883013F0C003D4D0DD
:1021E800402BBAD01168480502D5802B00F0CB806F
:1021F800D2F8900010F002003FF459AFC02BBAE7B4
:10220800D2F8883013F44063BFD0B3F5806FA4D000
:102218001168490503D5B3F5006F00F0B480D2F812
:10222800900010F002003FF442AFB3F5406FA2E710
:10223800D2F8883013F44053A7D0B3F5805F8CD020
:10224800106810F480603FF432AFB3F5005F1448B3
:10225800F7E6D2F8883013F4404396D0B3F5804FB0
:102268003FF47BAF106810F480603FF420AFB3F503
:10227800004FECE7D2F8883013F4403385D0B3F53B
:10228800803F3FF46AAF106810F480603FF40FAFEE
:10229800B3F5003FDBE700BF001002406889090082
:1022A8000024F400002D3101006CDC02D2F8881003
:1022B80011F440113FF451AFB1F5801F10D1D0682F
:1022C80010F480103FF4F3AED068D268C0F3062053
:1022D8005843C2F3415301335B00B0FBF3F070473E
:1022E800B1F5001F51D0106810F480603FF4DFAEE4
:1022F800B1F5401FABE7D2F8881011F440013FF464
:102308002CAFB1F5800FDAD0B1F5000F3DD01368CE
:102318005B057FF5CBAEB1F5400F98E7D2F8881092
:1023280001F04071B1F1007F3FF42FAF79B3B1F103
:10233800807F7FF4BBAEC2E7D2F8881001F040512D
:10234800B1F1805F14D1D06810F480303FF4AFAEA3
:10235800D168D068C00EC1F3062105D1D26812F445
:10236800003F0CBF072011204B43B3FBF0F0704730
:10237800B1F1005F7FF49AAEEFE64FF4004070478A
:102388004FF4FA40704703487047034870470348C2
:10239800704700BF0024F4000080BB00002D31010D
:1023A800F7B50E4614460546FEF738FE3444241A9F
:1023B800FEF734FE224B1B68C3F3CB336343074657
:1023C80001932A68906810F080002DD0731CF9D012
:1023D800FEF724FEC01BA04228D32B685A6822F0BF
:1023E800E0025A606A68B2F5827F0AD1AA68B2F53B
:1023F800004F02D0B2F5806F03D11A6822F0400274
:102408001A60AA6AB2F5005F07D11A6822F400526E
:102418001A601A6842F400521A60012385F85D3088
:10242800002385F85C30032003B0F0BD019A019BBE
:10243800002A03F1FF33019308BF1446C1E700BF28
:10244800040000202DE9F7431C46002317468DF8A9
:10245800033005460E46FEF7E1FD3C44241AFEF71C
:10246800DDFD294BD5F800901B68232253431B0D33
:102478006343804601932A689068304038D0B6F5A7
:10248800C06F01BF99F80C30DBB28DF803309DF8AE
:1024980003307B1CF0D0FEF7C1FDA0EB0800A04282
:1024A80029D32B685A6822F0E0025A606A68B2F5AC
:1024B800827F0AD1AA68B2F5004F02D0B2F5806FC8
:1024C80003D11A6822F040021A60AA6AB2F5005FC6
:1024D80007D11A6822F400521A601A6842F40052AE
:1024E8001A60012385F85D30002385F85C300320ED
:1024F80003B0BDE8F083019A019B002A03F1FF3382
:10250800019308BF1446B6E70400002070B51346CF
:102518000D4616460A464FF4C0510446FFF792FF8F
:1025280028B1236E43F020032366032070BD324692
:1025380029462046FFF734FF0028F2D133462A46C1
:102548004FF4C0612046FFF77DFF0028EED0E8E792
:1025580070B50446002867D0436A002B5DD14268F5
:10256800B2F5827F00D0C3610023A36294F85D3086
:1025780003F0FF0223B984F85C202046FEF744FCF0
:102588002268E068022384F85D301368B0F5E06FD4
:1025980023F0400313604FF0000342D91D46B0F505
:1025A800706F18BFA362A6686368A16906F4044641
:1025B80003F482733343266906F0020633436669DF
:1025C80006F00106334301F400763343E66906F06A
:1025D80038063343266A06F080063343A66A06F4B3
:1025E800005633431360666B636A06F0080603F00F
:1025F800100300F470603343090C034301F0040135
:102608000B432B435360D36923F40063D361002049
:102618000123206684F85D3070BD0023C0E90433CF
:10262800A2E74FF48055BCE70120F5E72DE9F74311
:1026380004461F460D469046FEF7F0FC94F85D30C0
:10264800012B8146D8B240F0B580002D76D0B8F184
:10265800000F73D094F85C30012B00F0AB8003239B
:1026680084F85D3000232366C4E91333A4F83E8060
:102678002364A4F84430A4F84630A368266884F894
:102688005C00B3F5004FA563A4F83C8007D133681C
:1026980023F040033360336843F480433360336886
:1026A800E2685B065EBF336843F040033360B2F50F
:1026B800E06F636845D913B1B8F1010F07D135F858
:1026C800023BF360A563E38F013B9BB2E387E38F93
:1026D8009BB2D3B94A4639462046FFF717FF002870
:1026E80065D1A36833B901932368DA6801929B68BE
:1026F8000193019B012384F85D30206E0023C01AEA
:1027080084F85C3018BF012018E0226893689D07A0
:1027180005D5A36B33F8021BD160A363D3E7FEF79B
:102728007DFCA0EB0900B842D1D3781CCFD001239F
:1027380084F85D30002384F85C30032003B0BDE8E2
:10274800F08313B1B8F1010F13D1E38F9BB2012BC2
:1027580006D935F8023BF360A563E38F023B06E038
:102768002B783373A36B0133A363E38F013B9BB2D5
:10277800E387E38F9BB2002BACD02268936899075C
:102788000CD5E18FA36B89B2012904D933F8021B58
:10279800D160A363E1E71B781373E3E7FEF73EFC20
:1027A800A0EB0900B842E4D37B1CE2D0BFE72023AA
:1027B800236696E70220C1E738B590F85D30012B13
:1027C8000446DDB273D1002951D0002A4FD090F8C9
:1027D8005C30012B6BD0032380F85D300023036647
:1027E800C0E91333C2870364A0F84430A0F8463028
:1027F80083688287B3F5004F026880F85C50816374
:1028080007D1136823F040031360136843F480432F
:102818001360606D274B0363274BC362274B4363E9
:1028280000238363536823F480435360E368B3F55C
:10283800E06F0FD88369B3F5806F0BD1E38F13F086
:10284800010F536815D123F480435360E38FC3F31A
:102858004E03E387E38F0C329BB2FEF70BFD80B18A
:10286800236E43F010032366002384F85C30284667
:1028780038BD43F480435360E38FC3F34E03013301
:10288800E7E723681A68520658BF1A684FF0000530
:102898005CBF42F040021A6084F85C505A6842F00B
:1028A80020025A605A6842F002025A60DFE70225A5
:1028B800DDE700BFCD280008FB280008D92800085C
:1028C8007047704708B5806AFFF7FBFF08BD70477F
:1028D800806A026808B5536823F003035360036EE7
:1028E80043F010030366012380F85D30FFF7EFFF24
:1028F80008BD37B50546846AFEF790FB2B681B6850
:102908009B06024626D42368596821F020015960A5
:10291800596821F00201596020466421FFF7F6FD4D
:1029280018B1236E43F020032366A36833B90193DB
:102938002368DA6801929B680193019B0023E3876F
:10294800012384F85D30236E23B12046FFF7BFFFD3
:1029580003B030BD2046FFF7B3FFF9E7036A026A08
:1029680022F0010270B50262446882690D6822F49F
:10297800803222F073022A438D6823F002032B432E
:10298800124DA8420FD005F50065A8420BD005F5F9
:102998004065A84207D005F58065A84203D005F533
:1029A8008065A8420BD1CD6823F008032B4324F49B
:1029B8004075D1E90546344323F004032C434460B1
:1029C80082614A684263036270BD00BF002C014007
:1029D800036A026A22F4807270B502624468C269AE
:1029E8000D6822F4803222F073022A438D6823F4A2
:1029F800007343EA0523144DA8420FD005F500657E
:102A0800A8420BD005F54065A8420FD124F44055E3
:102A1800D1E90546344345EA04140EE0CD6823F4B1
:102A2800006343EA052323F48063EFE7074DA842D8
:102A3800ECD005F58065A842E8D04460C2614A68D8
:102A4800C263036270BD00BF002C01400044014016
:102A5800036A026A22F4805270B502624468C2694D
:102A68000D6822F0807222F4E64242EA05228D685F
:102A780023F4005343EA0533134DA8420FD005F55C
:102A88000065A8420BD005F54065A8420FD124F493
:102A98004045D1E90546344345EA84140EE0CD6843
:102AA80023F4004343EA053323F48043EFE7074D5B
:102AB800A842ECD005F58065A842E8D04460C26120
:102AC8004A680264036270BD002C01400044014062
:102AD800036A026A22F4803230B502624468026DE9
:102AE8000D6822F4803222F070022A438D6823F4A4
:102AF800003343EA05430F4DA8420FD005F50065A2
:102B0800A8420BD005F54065A84207D005F58065B9
:102B1800A84203D005F58065A84204D14D6924F484
:102B2800803444EA0524446002654A68826403628A
:102B380030BD00BF002C0140036A026A22F48012F3
:102B480030B502624468026D0D6822F0807222F48A
:102B5800E04242EA05228D6823F4001343EA055354
:102B68000E4DA8420FD005F50065A8420BD005F51B
:102B78004065A84207D005F58065A84203D005F551
:102B88008065A84204D14D6924F4802444EA852450
:102B9800446002654A68C264036230BD002C01408B
:102BA80070470000274A036890420ED0B0F1804F6A
:102BB8000BD0A2F59432904207D002F58062904281
:102BC80003D002F59632904208D14A6823F0700388
:102BD8001343CA6823F4407313430AE01A4A904225
:102BE800F7D002F580629042F3D002F580629042FD
:102BF800EFD04A6923F08003134303608B68C362F4
:102C08000B6883620F4B98420FD003F5006398421C
:102C18000BD003F54063984207D003F580639842D0
:102C280003D003F58063984201D10B690363012344
:102C380043610369DB0742BF036923F001030361B2
:102C4800704700BF002C01400040014010B5044609
:102C580050B390F83D3003F0FF021BB980F83C20D8
:102C6800FEF71CF90223206884F83D30211DFFF788
:102C780099FF012384F84830002084F83E3084F816
:102C88003F3084F8403084F8413084F8423084F88A
:102C9800433084F8443084F8453084F8463084F86A
:102CA800473084F83D3010BD0120FCE710B50446DC
:102CB80050B390F83D3003F0FF021BB980F83C2078
:102CC800FFF76EFF0223206884F83D30211DFFF7CF
:102CD80069FF012384F84830002084F83E3084F8E6
:102CE8003F3084F8403084F8413084F8423084F82A
:102CF800433084F8443084F8453084F8463084F80A
:102D0800473084F83D3010BD0120FCE7036A026AB1
:102D180022F0100270B50262446882690D6822F0E0
:102D2800807222F4E64242EA05228D6823F02003ED
:102D380043EA0513134DA8420FD005F50065A842D4
:102D48000BD005F54065A8420FD124F44065D1E9C0
:102D58000546344345EA84040EE0CD6823F0800339
:102D680043EA051323F04003EFE7074DA842ECD0F0
:102D780005F58065A842E8D0446082614A688263AC
:102D8800036270BD002C01400044014038B590F842
:102D98003C30012B044673D001200C2A84F83C00F7
:102DA8004ED008D8042A2BD0082A39D0BAB100232B
:102DB80084F83C3038BD102A52D0142AF7D1206844
:102DC800FFF7BAFE036D0A6943F400630365036DF8
:102DD80023F480630365036D43EA02234EE0206811
:102DE800FFF7BCFD83690A6943F0080383618369BF
:102DF80023F0040383618369134383610020D6E7CA
:102E08002068FFF783FF83690A6943F400638361DD
:102E1800836923F480638361836943EA0223ECE7CF
:102E28002068FFF7D5FDC3690A6943F00803C36149
:102E3800C36923F00403C361C3691343C361DDE7B6
:102E48002068FFF705FEC3690A6943F40063C3619C
:102E5800C36923F48063C361C36943EA0223EDE7CE
:102E68002068FFF735FE036D0A6943F00803036520
:102E7800036D23F004030365036D13430365BDE786
:102E8800022097E7036A10B501F01F0101248C4066
:102E980023EA04030362036A8A401A43026210BDEC
:102EA800082908B518D005D859B1042911D090F8C7
:102EB800433008E00C2912D01029F8D190F842309C
:102EC80001E090F83E30013B18BF012353B10120C7
:102ED80045E090F83F30F6E790F84030F3E790F897
:102EE8004130F0E708294FF002033CD006D861B121
:102EF800042935D0022380F8433008E00C2935D066
:102F08001029F7D180F8423001E080F83E3000689F
:102F18000122FFF7B7FF214B98420FD003F500635A
:102F280098420BD003F54063984207D003F58063BD
:102F3800984203D003F5806398421AD1436C43F456
:102F480000434364154B984203D003F5006398424D
:102F58001ED18268124B1340062B1BD1002008BDDE
:102F680080F83F30D3E780F84030D0E780F8413030
:102F7800CDE7B0F1804FECD00A4B9842E9D003F589
:102F880080639842E5D0036843F001030360E5E7F6
:102F9800054BF6E7B3F5803FF5D1DFE7002C01409C
:102FA800070001000004004000400140FFF778BF1F
:102FB80010B590F83C30012B02463FD0CB688868AA
:102FC8001F4C23F440730343486823F4806303438E
:102FD800086823F400630343086923F48053034318
:102FE800486923F400530343086B23F480430343E5
:102FF800886923F4702343EA0043C86923F08053A7
:1030080003431068A04203D004F50064A04210D125
:103018008C6A23F4700343EA04530C6A23F0807328
:1030280023434C6AC96A23F00073234323F00053F7
:103038000B434364002082F83C0010BD0220FCE7EB
:10304800002C014013B50E4C8DF8070000222046D5
:103058000421FEF763FA204600220121FEF75EFAFA
:103068004FF0FF330DF1070101220648FFF7DEFAA2
:10307800012204212046FEF751FA02B010BD00BF1C
:1030880000040048DC00002013B50E4C8DF8070042
:10309800002220460421FEF741FA0122114620466B
:1030A800FEF73CFA4FF0FF330DF107010122064805
:1030B800FFF7BCFA012204212046FEF72FFA02B0DE
:1030C80010BD00BF00040048DC0000202DE9F843D3
:1030D800002205460C461948DFF86890184F04216D
:1030E800FEF71CFA012215481146FEF717FA4FF6AB
:1030F800FF7834B9BDE8F843104801220421FEF7EF
:103108000DBAB9F800304445264628BF4646A342C2
:10311800B2B20BD80A482946FFF74EFB7A6D92F8EF
:103128002530012BFBD13544A41BE2E74FF0FF33D8
:1031380029463846FFF77AFAF5E700BF0004004849
:10314800DC000020100000202DE9F341194F8046D3
:103158000D4638460421164600221C46FEF7DEF9C5
:103168002A20FFF76FFF04210DEB010098FA98F869
:1031780076BAADF80480ADF80660FFF7A7FF2B20FC
:10318800FFF760FF2335042123340DEB01006DBAEE
:1031980064BAADF80450ADF80640FFF797FF2C204D
:1031A800FFF750FF01220421384602B0BDE8F04184
:1031B800FEF7B4B90004004810B504463620FFF7FE
:1031C80041FF032C0ED8DFE804F00207090BC020EA
:1031D800BDE81040FFF758BFA020F9E70020F7E747
:1031E8006020F5E710BD0000002170B5A923044652
:1031F80040F23F120846FFF7A7FF0F480F4E002284
:103208000421FEF78BF964BAA4B222250B4A0023E5
:103218000133B3F5C86F22F8024BF9D14FF4486176
:103228003046FFF753FF013DF0D1BDE8704002483A
:1032380001220421FEF772B9000400488001002031
:1032480030B54FF4486285B00021534800F0AEF81D
:10325800002204215148FEF761F90A20FDF7E4FE37
:10326800002202214D48FEF759F90A20FDF7DCFE3D
:10327800012202214948FEF751F91420FDF7D4FE36
:103288003A20FFF7DFFE5520FFF7FEFEB220FFF7DA
:10329800D9FE434B186800901B798DF8043005213E
:1032A8006846FFF713FF0120FFF786FFB720FFF7F7
:1032B800C9FE3520FFF7E8FEBB20FFF7C3FE192043
:1032C800FFF7E2FEC020FFF7BDFE2C20FFF7DCFE73
:1032D800C220FFF7B7FE0120FFF7D6FEC320FFF795
:1032E800B1FE1220FFF7D0FEC420FFF7ABFE20206E
:1032F800FFF7CAFEC620FFF7A5FE0F20FFF7C4FEA2
:10330800D020FFF79FFEA420FFF7BEFEA120FFF705
:10331800BBFEE020FFF796FE224B6A4603F1080544
:1033280018685968144603C40833AB422246F7D1DB
:1033380018689B88A38020600E216846FFF7C6FEA8
:10334800E120FFF77FFE184B6A4603F1080518686D
:103358005968144603C40833AB422246F7D11868AB
:103368009B88A3800E2120606846FFF7AFFE2120CE
:10337800FFF768FE1120FFF765FE1320FFF762FED6
:103388002920FFF75FFE3220FDF74EFE002005B032
:10339800BDE83040FFF728BF800100200004004846
:1033A800243400084134000850340008024403461D
:1033B800934200D1704703F8011BF9E770B50D4D32
:1033C8000D4C641BA4100026A64209D10B4D0C4CD1
:1033D80000F018F8641BA4100026A64205D170BDA1
:1033E80055F8043B98470136EEE755F8043B9847F3
:1033F8000136F2E7603400086034000860340008E1
:1034080064340008F8B500BFF8BC08BC9E46704795
:0C341800F8B500BFF8BC08BC9E46704729
:103424000C0C003333000000000102030400000010
:1034340000000000000102030406070809D0040D7F
:1034440011132B3F544C180D0B1F2300D0040C11E7
:0C345400132C3F44512F1F1F20230000A9
:04346000FD01000862
:04346400D901000882
:10346800881300000024F400010000001000000090
:043478001000000040
:0400000508000F4D93
:00000001FF
