:020000040800F2
:1000000000000220D1070008A5070008A707000884
:10001000A9070008AB070008AD07000800000000B2
:10002000000000000000000000000000AF07000812
:10003000B107000800000000B3070008B50700087A
:1000400021080008210800082108000821080008EC
:1000500021080008210800082108000821080008DC
:1000600021080008210800082108000821080008CC
:1000700021080008210800082108000821080008BC
:1000800021080008210800082108000821080008AC
:10009000210800082108000821080008210800089C
:1000A000210800082108000821080008210800088C
:1000B000210800082108000821080008210800087C
:1000C000210800082108000821080008B7070008D7
:1000D000210800082108000821080008210800085C
:1000E000210800082108000821080008210800084C
:1000F000210800082108000821080008210800083C
:10010000210800082108000821080008210800082B
:10011000210800082108000821080008210800081B
:10012000210800082108000821080008B907000874
:10013000210800080000000000000000210800085D
:1001400021080008210800082108000821080008EB
:1001500021080008210800082108000821080008DB
:1001600021080008210800082108000821080008CB
:1001700021080008210800082108000800000000EC
:10018000000000002108000800000000000000003E
:1001900021080008000000000000000021080008FD
:1001A000000000000000000000000000210800081E
:1001B000210800082108000821080008210800087B
:0401C000210800080A
:1001C40010B5054C237833B9044B13B10448AFF38D
:1001D40000800123237010BD9C000020000000005B
:1001E400A815000808B5034B1BB103490348AFF336
:1001F400008008BD00000000A0000020A815000831
:10020400054B1A6B024382B01A631B6B03400193C4
:10021400019B02B0704700BF0038024000F00700A5
:10022400C0F10702031D042A28BF0422062B4FF045
:10023400FF3303FA02F38CBF0338002021EA0301E1
:1002440001FA00F070470000354A136823F00F03E9
:1002540043F0020310B51360136803F00F03022B7D
:10026400FAD1304A136823F4404343F480431360C3
:10027400136823F4803313602B4B1A6822F0F802BE
:1002840042F080021A601A6842F001021A601A6889
:100294009007FCD55968254A0A4042F4A85242F016
:1002A40008025A605A6822F4403242F000525A60FE
:1002B4005A6822F0E04242F000525A601A6842F052
:1002C40080721A60184B1A689101FCD515494A6866
:1002D4005204FCD59A68144C22F0F0029A609A6891
:1002E40022F4E05242F480529A609A6822F4604206
:1002F4009A609A6842F003029A60A36803F00C03C0
:100304000C2BFAD10A4801F0FBF8094801F018F95E
:10031400D4F88C3023F08073C4F88C3010BD00BF47
:10032400003C024000700040003802400080BFFFE3
:1003340000BD01052DE9F04FCE4BCF4C1A6842F4B5
:100344000072C1B01A601A6842F480621A601A68B6
:1003540042F480721A60A3F580630F215A6C42F450
:1003640080425A645A6C02F480421292129A1A6CB5
:1003740042F080521A641B6C03F080531193119B5A
:10038400E268BE4B22F4E0621204120C1343E360F1
:10039400E068C0F30220FFF741FF0001C0B284F817
:1003A4002300FFF751FFB64B4FF47A721B68B3FB7F
:1003B400F2F3013BB3F1807F09D24FF0E0225361A5
:1003C400F02384F82330002393610723136100246E
:1003D40001202894FFF714FF0420FFF711FF0220E7
:1003E400FFF70EFFA74BA84EDFF88CB2DFF8AC92F4
:1003F40080229A61A54A4FF4007191614021B16154
:100404004FF40021B1614FF0010A80210746CDE984
:10041400231ACDE9250423A91846279400F07CFE6D
:100424004FF40071CDE9231A9848279423A9CDE904
:10043400257400F071FE0821CDE9231A304623A962
:10044400CDE92544279400F067FE4021CDE9231A25
:10045400304623A9CDE92574279400F05DFE4FF4BE
:100464008000FFF7CDFEDBF80C000321C0F302206F
:10047400FFF7D4FE0001C0B289F83B034FF00063DC
:10048400C9F80430DFF81882814D2822214623A8B8
:1004940001F05CF8D8F8443043F48053C8F8443091
:1004A400D8F8443003F4805313935046139B03212C
:1004B400FFF7A6FEA023CDE91A37CDE91C140523C6
:1004C4001AA972481F931E9400F026FEAB6D23F008
:1004D400606343F0C063AB65AB6D23F0C00343F0CE
:1004E4004003AB65AB6D23F44033AB65AB6D23F4D4
:1004F4009073AB65AB6D23F40073AB65AB6D43F4E4
:100504008063AB65AB6D23F4C05343F40063AB6508
:10051400AB6D23F4C04343F40053AB65EB6E23F09F
:100524000403EB66DBF80C002146C0F30220FFF75E
:1005340075FE0001C0B289F823030821C9F804102C
:10054400DFF860B123944FF020094FF482734FF425
:100554000071CDE92819CDE9243423A90A2358468A
:10056400CDE926742C93CDE92A4400F070FEDBF823
:10057400043023F01003CBF80430122221460DF18D
:10058400560000F0E3FF4A46214623A800F0DEFFB0
:10059400182221461AA800F0D9FFD8F84030DFF815
:1005A40008913C4A3B43C8F84030D8F84030179291
:1005B4003B400DF1540814934146149B484640F2C5
:1005C400E733ADF8543000F073FED9F80030314A07
:1005D40023F08003C9F800304FF080434846D3F835
:1005E400181441F00801C3F818146021CDE923144C
:1005F40023A9CDE926240A465146259400F0A8FEF5
:100604004FF080433846D3F8182422F00402C3F88C
:100614001824D9F8043023F07003C9F80430D9F849
:10062400083023F08003C9F80830FFF7E9FD1AA960
:1006340010233046CDE91A37CDE91E47CDE91C44D5
:1006440000F06AFD144B0FCB88E80F000D4B1F938D
:1006540003214FF08003CDE91C16ADF880300B4A1E
:1006640021924FF040014FF40073ADF87810ADF8CB
:1006740088301BE0003C024000ED00E00003FA0576
:100684000000002000080240000402400000024074
:1006940000640240D200F0FFC015000800E100E051
:1006A40000380240003001400004004098E80F0088
:1006B4000DF12C0CCDE91AB58CE80F001AAB099397
:1006C4002E4B08932E4B07932E4B06932E4B0593DC
:1006D40003230A972322CDE903434FF4A073CDE902
:1006E40001322A4DDFF8B480AA22009223A9286897
:1006F40000F0BEF82860264D074600F029FA4FF4B2
:100704007F03CDE9015322462146224B0394384608
:10071400CDF8008000F0A2FC0823B3614FF47A7096
:1007240000F0FBFE4FF40023B361CDE90254FF2532
:10073400194B282221463846CDE9008500F08EFC6D
:100744004FF47A7000F0E9FE2946384600F05AFB6F
:10075400C82000F0E2FE0823B3614FF40023B36124
:100764000823B3610823B361642000F0D6FE4FF47C
:100774000023B361642000F0D0FEF3E715110008F4
:100784000D110008E9100008C9100008B800002085
:1007940000FFFF00F3150008011600080400002004
:1007A400FEE7FEE7FEE7FEE7FEE7704770477047A7
:1007B4007047704770470000034AD2F8883043F40A
:1007C4007003C2F88830704700ED00E0DFF834D0E1
:1007D400FFF7F2FF0C480D490D4A002302E0D458FC
:1007E400C4500433C4188C42F9D30A4A0A4C002377
:1007F40001E013600432A242FBD300F0AFFEFFF726
:1008040099FD704700000220000000209C00002099
:10081400EC4100089C000020BC000020FEE730B53D
:10082400838F446A856B02B91B04AB612173A3688F
:100834009A07FCD5A3681B06FCD430BD026B10B527
:1008440004466AB1838E1B049361192000F065FE8F
:10085400236BA28E9A61BDE81040192000F05DBEA2
:1008640010BD18B17422002100F070BE7047000062
:100874002DE9F74F8146CDE90023BDF83080BDF85E
:100884003470BDF93860BDF93C509DF840A09DF826
:1008940058B00C4600297AD074220021204600F07A
:1008A40055FEDDF854E084F848B0BEE80F0004F1CA
:1008B400240CACE80F00BEE80F00ACE80F00DEF833
:1008C4000030CCF80030A36A4BB3E26A53498A5C27
:1008D400995821F00101995098180168C907FCD46E
:1008E400BBF1010F2CD1995821F4F041995099583A
:1008F4009950995821F4802121F00E0199504169B1
:1009040021F080014161995841F0100199509958A2
:1009140021F400719950995841F480619950DDE9AE
:100924000023934238BF1346DDE900128A4228BFF0
:100934000A46BAF1030F27D8DFE80AF00D2E0D2E70
:10094400BBF1020FD5D1995821F4F041995099582F
:1009540041F42051CCE7BAF1000F06D0A8EB06060B
:100964007D1BB61AED1A36B22DB24245A280E38041
:10097400A4F8008067806681A58105D8BB4203D8AE
:10098400119B0BB1129B0BBB2046FFF76AFF00249F
:10099400204603B0BDE8F08FBAF1010F0BD1A8EBEC
:1009A40006011846891A1346024638462E4647461B
:1009B4000DB28046D9E7791B1846C91A1346024678
:1009C4003846354647460EB28046CEE7119B6361F2
:1009D400129BA361139BE361149B236217AB0FCBA0
:1009E40004F14C0584F808A085E80F000023C4E94D
:1009F4001B3384F86430E365B9F1000FC8D0D9F82B
:100A0400702022B9C4F86C90C9F87040C0E794F81B
:100A14006430013384F864309146F0E71516000819
:100A2400436A1868C0F3801070472DE9F843466A9A
:100A340004460D462046FFF7F3FF0128FAD094F848
:100A440065302BB9226C1AB1B4F844301B0493619D
:100A5400336823F42C433360336843F0400333603A
:100A64002A78012A19D0022A29D072BBA8466978AB
:100A74002046FFF7D4FE18F8027FB94618F8011F84
:100A8400B9F1000F02D103373D44E9E701222046C2
:100A9400FFF7C5FE09F1FF39F0E7A84618F8017F12
:100AA400B94618F8011FB9F1000F01D10237EBE77D
:100AB40001222046FFF7B3FE09F1FF39F1E7687818
:100AC400AF1C00F02AFD3D46CAE794F8653023B90F
:100AD400236C13B1B4F844209A61336823F04003C3
:100AE4003360BDE8F8836429C36C0A4628BF6422D6
:100AF40080F85A201BB3D96A4A436421B2FBF1F24D
:100B0400016DB1F5807F18D00ED8012911D01029BC
:100B140011D01A68D20718D41A6A114319621A68D4
:100B240042F001021A607047B1F5805FF1D11A6496
:100B3400EFE75A63EDE79A63EBE7DA63E9E7426DBF
:100B44001AB1B0F8583009B1936170471B04FBE740
:100B540010B50446FFF772FE6369207A9847014690
:100B64002046FFF762FF94F85A102046BDE8104073
:100B7400FFF7B9BFF8B50446BDF818C0A589408988
:100B8400A669C718AC4408441544A9B21FFA8CF3EB
:100B9400BAB280B2B04701462046BDE8F840FFF73C
:100BA40044BF38B5456A04462046FFF739FF01289B
:100BB400FAD094F865302BB9206C18B1B4F84430ED
:100BC4001B04836194F8663013B9A36BA08F9861FA
:100BD4002B6823F42C432B6094F84800022802BFAE
:100BE4002B6843F400632B602B68022843F0400316
:100BF4002B6018D1013A0FD2AB681B06FCD494F8D1
:100C0400653023B9236C13B1B4F844209A612B687E
:100C140023F040032B6038BD31F8023BAB81AB6855
:100C24009B07FCD5E6E701EB42029142E4D011F8C0
:100C3400013B2B73AB689807FCD5F6E7D20002F4AE
:100C4400FC6242EAD302064B03EA01231A4313B2BD
:100C540090F84820012A00D1DBBA98B2704700BF4F
:100C640000F8FFFFCBB2C1F30722C1F30741FFF73E
:100C7400E5BF0000F0B585B016460446BDF828204F
:100C8400A5880846984219469CBF014618469642D4
:100C94009EBF134632461E468D4240F28680E3884C
:100CA400934240F2828085429CBF05F1FF35A8B291
:100CB400B3429CBF03F1FF339EB2B51A431A013508
:100CC40003FB0555009603462046FFF753FF94F8AF
:100CD40065302BB9226C1AB1B4F844301B0493610B
:100CE40094F8663013B9A36BA28F9A610B992046CE
:100CF400FFF7B8FF636AA4F868001A6822F42C426C
:100D04001A6094F84810022902BF1A6842F400627B
:100D14001A601A6842F040021A60A26A002A46D099
:100D2400E76A01293549CE5D3549086849680DF1FE
:100D3400080EAEE8030007F1100108BF6D00032F91
:100D44000DEB010788BF02F10C0017F8087C98BF6F
:100D540002F108003F21B9400160596802EB060C1A
:100D640041F0020159600C33CCF8083004F16803F7
:100D7400CCF80C30935923F4007393519359B5F57F
:100D8400803F23F4806393512ABF4FF6FF73CCF85E
:100D94000450CCF8043093592ABFA5F57F450025AB
:100DA400FF3D43F001032566935105B0F0BD0229D0
:100DB40016D1013D0FD29A681206FCD494F865202E
:100DC40022B9226C12B1B4F8441091611A6822F06D
:100DD40040021A60E9E798819A689707FCD5E8E72A
:100DE400C2B2000A002DE6D01A7399688E07FCD5AA
:100DF400187399688907FCD5023DF3E715160008B6
:100E0400D015000807B5C28883880191013A92B2CF
:100E14000092013B00229BB21146FFF72BFF03B067
:100E24005DF804FB30B51D4683888B4285B00446CB
:100E340017DDC388934214DD51EA020311D492B240
:100E44008BB200921946FFF795FE29462046FFF71C
:100E540009FF0122ADF80E000DF10E012046FFF747
:100E6400A0FE05B030BD00002DE9F04F87B01D464F
:100E740002919DF84C301199059306469146FFF76F
:100E8400F1FE109F12997C6882463046FFF7EAFE15
:100E94003B7AAB42834660D87A7AAA425DD3ED1A94
:100EA400EDB23B785A1ED21002F10108B8F1040FDA
:100EB40003924FDC4FEAC8020121013A01FA02F21F
:100EC400049205997A7808FB05F502FB0544756AD6
:100ED400002940F0BF80029901390B4409F1FF3128
:100EE4000A4492B2009202994A469BB23046FFF7F6
:100EF40041FE326C1AB1B6F844301B049361B36BF3
:100F0400B28F9A612B6823F040032B602B6823F483
:100F14002C432B6096F84830022B02BF2B6843F415
:100F240000632B602B6843F040032B604FF0000EEE
:100F34007B78734513DCAB689A07FCD5AB681B065A
:100F4400FCD42B6823F040032B60336C13B1B6F848
:100F540044209A6107B0BDE8F08F0025A1E7B8F1FD
:100F6400010F08D12378444400203A78824214DCEB
:100F74000EF1010EDCE7B8F1020F01D12388F2E78C
:100F8400B8F1030F05BFA378627823681B0402BF7E
:100F940043EA022322781343E5E7049903FA00F2B3
:100FA4000A420CBF5A465246D5F808C01CF0020F3C
:100FB400FAD096F848C0BCF1020F02D1AA810130E0
:100FC400D3E75FFA82FC85F80CC0C2F30722D5F898
:100FD40008C01CF0020FFAD02A73F0E7257809EB59
:100FE4000B0244444FF0000A12B23B7853451FDC15
:100FF4000BF1010B7B785B45ACDD039A032AEED839
:1010040001A353F822F000BFE10F00081D100008EF
:1010140021100008311000082588E0E7A5786378DE
:101024002D0445EA032523781D43D8E72568D6E730
:10103400049905FA0AF30B4209D0029B059203EBCB
:101044000A0109B2119B3046FFF7ECFE059A0AF13A
:10105400010ACAE70025AB46CCE700BF2DE9F043FF
:1010640085B005460C9E9DF83C700C46904603F1F5
:10107400FF3919F8013F2BB9EC81A5F8108005B0B0
:10108400BDE8F0833278A98822448A420BDD717866
:1010940001EB08021FFA82F811FA82F2E9888A4207
:1010A4004FF00004E8DC0E9A02920D9A0397CDE902
:1010B4000062214642462846FFF7D6FE3378234491
:1010C4009CB2D6E70138C0B202289CBF034B1B5C1C
:1010D400034888BF0023C375704700BFDE41000882
:1010E4002E00002030B504460648250A047182719A
:1010F400140A0A0A82721A0AC5704471C172027310
:10110400437330BD1C0000200048704716000020C7
:1011140000487047100000202DE9F04F02460D688A
:1011240095FAA5F44FF0010CB4FA84F403274FF0B8
:101134000F0E35FA04F001D1BDE8F08F0CFA04F378
:101144002B406AD04868461E012E1ED893FAA3F895
:1011540093FAA3F9B8FA88F896684FEA480807FAA8
:1011640008F826EA0808B9FA89F98E684FEA4909A5
:1011740006FA09F646EA08069660566826EA03085F
:10118400CE685E4348EA0606566093FAA3F8B8FAB6
:1011940088F8D66893FAA3F94FEA480807FA08F8DA
:1011A40026EA0808B9FA89F90E694FEA490906FAE4
:1011B40009F646EA08060228D6601BD193FAA3F67C
:1011C400D1F814905EB3B6FA86FABAF1070F26DCAA
:1011D400D2F820804FEA8A0A4FF00F0BB6FA86F64F
:1011E4000BFA0AFAB60028EA0A0809FA06F646EAE9
:1011F4000806166293FAA3F6B6FA86F6D2F80080C9
:1012040093FAA3F37600B3FA83F307FA06F65B00C6
:1012140028EA0606984030431060013489E71E0A24
:1012240096FAA6FABAFA8AFAD2F8248096FAA6F6B8
:101234004FEA8A0AB6FA86F6B6000EFA0AFA28EADD
:101244000A0809FA06F949EA08065662D2E7036869
:101254005B0670B5024629D4D1E9003633438E6863
:101264004C690568086A3343CE6833430E693343D7
:101274008E6923433343CE6925F47F4533430343C7
:1012840025F0BF052B431360536823F0040343EA9E
:101294001443B0F5005F536005D00020D36923F4F4
:1012A4000063D36170BD8B8C1361F6E70120F5E711
:1012B400254A0368904212D0B0F1804F0FD0A2F5B6
:1012C4007C4290420BD002F58062904207D002F536
:1012D4008062904203D002F57842904208D14A6875
:1012E40023F070031343CA6823F44073134316E0D6
:1012F400164A9042F7D002F580629042F3D002F58C
:1013040080629042EFD0A2F598329042EBD002F581
:1013140080629042E7D002F580629042E3D003609D
:101324008B68C3620B888362074B984203D003F532
:101334008063984201D10B690363436943F001035D
:1013440043610020704700BF00000140004001409D
:10135400B1F5807F30B500F09B8005D801292DD0F0
:1013640010295FD0012030BDB1F5805FFAD1036A46
:10137400156823F480530362036A4468C16921F445
:10138400E64141EA0521156923F4005343EA053394
:10139400556823F4805343EA0533584DA84203D0DB
:1013A40005F58065A84204D1956924F4804444EA93
:1013B4008514D2684460C161026430E0036A156830
:1013C40023F001030362036A4168846924F073040F
:1013D4002C43156923F002032B43556823F00103C2
:1013E4002B43464DA84203D005F58065A84212D18F
:1013F400556923F0080343EA8503956823F0040341
:1014040043EA8503956921F480712943D56921F460
:10141400007141EA4501D26841608461426303621C
:101424000020A0E7036A156823F010030362036A2F
:101434004168846924F4E64444EA0524156923F0E8
:10144400200343EA0513556823F0100343EA051308
:101454002A4DA84203D005F58065A84213D15569E9
:1014640023F0800343EA8513956823F0400343EA9D
:101474008513956921F4806141EA8501D56921F4D8
:10148400006141EAC501D268416084618263C6E7B4
:10149400036A156823F480730362036A4168C469AC
:1014A40024F073042C43156923F4007343EA0523E1
:1014B400556823F4807343EA0523104DA84203D0F2
:1014C40005F58065A84213D1556923F4006343EA06
:1014D4008523956823F4806343EA8523956921F481
:1014E400805141EA0511D56921F4005141EA4511C1
:1014F400D2684160C461C26391E700BF000001404B
:101504004FF47A73B0FBF3F04FF0E023002201387C
:1015140058619A6105221A6170474FF0E02382B046
:101524001B690193411C019B18BF01304FF0E0235C
:1015340008B902B070471A69D203FCD50138F7E73D
:10154400014B1860704700BF0000002002440346AE
:10155400934200D1704703F8011BF9E770B50D4DB4
:101564000D4C641BA4100026A64209D10B4D0C4C53
:1015740000F018F8641BA4100026A64205D170BD23
:1015840055F8043B98470136EEE755F8043B984775
:101594000136F2E7E4410008E4410008E4410008B0
:1015A400E8410008F8B500BFF8BC08BC9E46704787
:0C15B400F8B500BFF8BC08BC9E467047AC
:1015C00000040040010000000000000000003200A4
:1015D0000006101600061016003A0166002A0400E4
:1015E000000000002B0400000000002E0003003A61
:1015F00001550348656C6C6F2C20776F726C642109
:1016000000416E676C61732C2066756E63696F6E46
:101610006161612100102840587088A0B800000066
:1016200000000000000000000000000000000000BA
:1016300000000000000000000000000000000000AA
:10164000000000000000000000000000000000009A
:101650000000000000000000000000030003000381
:101660000003000300030003000300030003000065
:101670000003800780070003000000000000000056
:10168000000000000000000000000000C00CC00CC2
:10169000C00CC00CC00CC00C00000000000000001A
:1016A000000000000000000000000000000000003A
:1016B000000000000000000000000000000018030F
:1016C000180330063006FC7FFC7F600C600CC018ED
:1016D000C018F8FFF8FF803180310063006300001C
:1016E00000000000000000000000000000000000FA
:1016F00000030003B007F00F701C30180018E00F53
:10170000F00718001818381CF01FE01B800180013A
:101710008001000000000000000000000000000048
:101720000000003E0077006300630077383EE00071
:101730008003000EF838DC018C018C01DC01F8001C
:101740000000000000000000000000000000000099
:10175000000000000000000FC01F80180018001CCF
:10176000000C000E301FE033E031C030E038F01FD5
:10177000300F00000000000000000000000000002A
:10178000000000000000000300030003000300034A
:101790000003000000000000000000000000000046
:1017A0000000000000000000000000000000000039
:1017B0000000000000000000C000C00100030003A2
:1017C000000600060006000C000C000C000C000CCB
:1017D000000C00060006000600030003C001C00064
:1017E00000000000000000000000000C000E0003DC
:1017F0000003800180018001C000C000C000C00063
:10180000C000C00080018001800100030003000EC1
:10181000000C0000000000000000000000030003B6
:1018200000033033F03FC00F8007C00FE01C4008BA
:1018300000000000000000000000000000000000A8
:101840000000000000000000000000000000000098
:101850000000000000030003000300030003F87F02
:10186000F87F0003000300030003000300000000F2
:101870000000000000000000000000000000000068
:101880000000000000000000000000000000000058
:10189000000000000000C003C00380030007000731
:1018A000000E000C000C0000000000000000000012
:1018B0000000000000000000000000000000000028
:1018C0000000F83FF83F00000000000000000000AA
:1018D0000000000000000000000000000000000008
:1018E00000000000000000000000000000000000F8
:1018F00000000000000000000000000380078007D7
:1019000000030000000000000000000000000000D4
:1019100000003000300060006000C000C0008001A6
:10192000800100030003000300060006000C000C09
:101930000018001800300030000000000000000017
:1019400000000000000000008007E01F6018303039
:101950003030303030303030303030303030303087
:101960006018E01F80070000000000000000000079
:10197000000000000000000000008003801F801DA8
:10198000800180018001800180018001800180014F
:1019900080018001F81FF81F000000000000000017
:1019A0000000000000000000000000008007E01FB1
:1019B00060183018300030006000E000C001800383
:1019C0000007000E3018F03FF03F0000000000005C
:1019D0000000000000000000000000000000800F78
:1019E000C03FE03060006000E000C003E003700032
:1019F0003000300030006038E03F800F0000000011
:101A000000000000000000000000000000000000D6
:101A1000C000C001C003C002C006C00CC008C0188E
:101A2000C830F83FF83FC000C000F003F0030000EA
:101A300000000000000000000000000000000000A6
:101A40000000E03FE03F0030003000308037E03FF2
:101A5000603830003000300030006038E03F800FE8
:101A60000000000000000000000000000000000076
:101A700000000000F001F00F000E00180018003008
:101A80008037E03F60383030303030306018E01F51
:101A900080070000000000000000000000000000BF
:101AA000000000000000F03FF03F303060006000B8
:101AB000C000C00080018001800100030003000617
:101AC0000006000C00000000000000000000000004
:101AD00000000000000000008007E01F60183030A8
:101AE00030306018C00FC00F6018303030303030E8
:101AF0006018E01F800700000000000000000000E8
:101B0000000000000000000000008007E01F6018D7
:101B10003030303030307018F01FB00730006000C7
:101B20006000C001C03F003E000000000000000057
:101B300000000000000000000000000000000000A5
:101B40000000000380078007000300000000000081
:101B50000000000380078007000300000000000071
:101B60000000000000000000000000000000000075
:101B70000000000000038007800700030000000051
:101B800000000000800780070007000E000E001C08
:101B90000018001800000000000000000000000015
:101BA00000000000000018007800E0018007001E1F
:101BB00000780078001E8007E0017800180000001F
:101BC0000000000000000000000000000000000015
:101BD0000000000000000000000000000000F87F8E
:101BE000F87F00000000F87FF87F00000000000090
:101BF00000000000000000000000000000000000E5
:101C00000000000000000000000000600078001EDE
:101C10008007E00178007800E0018007001E00786E
:101C20000060000000000000000000000000000054
:101C3000000000000000801FE01F6018300030002E
:101C40007000E001C0070006000600000006000F5B
:101C5000000F00060000000000000000000000006F
:101C600000000000000000008007E01F6018303016
:101C70003030F0337037303630367837D833003084
:101C800000300018E01FE007000000000000000026
:101C900000000000000000000000001F001F80077F
:101CA0008007C00CC00CC00C6018E01FE01F60185B
:101CB00030303030FCFCFCFC000000000000000074
:101CC000000000000000000000000000C07FE07F76
:101CD0007018301830187018E01FF01F38181818D6
:101CE000181818183818F07FE07F00000000000076
:101CF0000000000000000000000000000000D80705
:101D0000F81F783C183018700060006000600060B8
:101D10000060007008303C3CF81FE0070000000045
:101D200000000000000000000000000000000000B3
:101D3000807FE07FF0183018381818181818181815
:101D40001818181838183018F018E07F807F000035
:101D50000000000000000000000000000000000083
:101D60000000F87FF87F18181818D818C018C01F7E
:101D7000C01FC018C018181818181818F87FF87F56
:101D80000000000000000000000000000000000053
:101D900000000000FC3FFC3F0C0C0C0C6C0C600CB9
:101DA000E00FE00F600C600C000C000C000C803F9A
:101DB000803F000000000000000000000000000064
:101DC000000000000000D807F81F783C1830187099
:101DD000006000600060FC61FC6118701830383CE5
:101DE000F81FE007000000000000000000000000F5
:101DF0000000000000000000FCFCFCFC3030303033
:101E000030303030F03FF03F303030303030303034
:101E10003030FCFCFCFC0000000000000000000072
:101E200000000000000000000000F03FF03F000351
:101E3000000300030003000300030003000300038A
:101E400000030003F03FF03F00000000000000002E
:101E5000000000000000000000000000FC07FC077C
:101E60006000600060006000600060006000606012
:101E700060606060C070C03F000F000000000000A4
:101E80000000000000000000000000000000F8FC5E
:101E9000F8FC6030C030803100330037803FC039FB
:101EA000E0306030703030303CFC3CFC0000000022
:101EB0000000000000000000000000000000000022
:101EC000807F807F000C000C000C000C000C000CCC
:101ED000000C0C0C0C0C0C0C0C0CFC7FFC7F0000A0
:101EE00000000000000000000000000000000000F2
:101EF00000003CF03CF0787878787878D86CD86C32
:101F0000D86C986798671863186318607CF87CF839
:101F100000000000000000000000000000000000C1
:101F200000000000FCF1FCF93038303C303C303629
:101F300030363033B031B031F030F030703070FEC8
:101F400030FE000000000000000000000000000063
:101F5000000000000000C00FF03F787818601CE01F
:101F60000CC00CC00CC00CC00CC01CE01860787811
:101F7000F03FC00F00000000000000000000000063
:101F80000000000000000000C07FF07F301818182B
:101F9000181818183018F01FC01F00180018001863
:101FA0000018807F807F000000000000000000001B
:101FB00000000000000000000000C00FF03F787833
:101FC00018601CE00CC00CC00CC00CC00CC01CE0A5
:101FD00018607878F03FC00F0004FC1F380E000036
:101FE00000000000000000000000000080FFE0FF93
:101FF00060303030303030306030E03F803FC031D2
:10200000E030603070303CFC3CFC00000000000020
:102010000000000000000000000000000000B00709
:10202000F01F7018303000300038E01FF00F38001B
:102030001800183018303038F03FC037000000006A
:102040000000000000000000000000000000000090
:10205000F87FF87F186318631863186300030003A0
:1020600000030003000300030003E01FE01F000063
:102070000000000000000000000000000000000060
:102080000000FCFCFCFC3030303030303030303080
:10209000303030303030303030306018E01F800762
:1020A0000000000000000000000000000000000030
:1020B00000000000FCFCFCFC303030303030601898
:1020C00060186018C00CC00C8007800780070003F0
:1020D00000030000000000000000000000000000FD
:1020E0000000000000007CF87CF8186018601860A0
:1020F000186330333033B037B037B037E03CE01CD2
:1021000060186018000000000000000000000000DF
:102110000000000000000000FCFCFCFC30306018F7
:10212000C00CC00C800700038007C00CC00C6018F6
:102130003030FCFCFCFC000000000000000000004F
:1021400000000000000000000000FCFCFCFC30303F
:1021500060186018C00CC00C8007800700030003E3
:1021600000030003E01FE01F00000000000000006B
:10217000000000000000000000000000F03FF03F01
:102180007030E030C030800180010003000600069E
:10219000300C301C3038F03FF03F000000000000F1
:1021A0000000000000000000000000000000C00768
:1021B000C00700060006000600060006000600062E
:1021C00000060006000600060006000600060006DF
:1021D0000006C007C007000000000000003000300B
:1021E00000180018000C000C000600060003000395
:1021F000000380018001C000C0006000600030006A
:10220000300000000000000000000000000000009E
:102210000000C007C007C000C000C000C000C00070
:10222000C000C000C000C000C000C000C000C000AE
:10223000C000C000C000C007C007000000000000D0
:102240008001C0036006300C0000000000000000A8
:10225000000000000000000000000000000000007E
:10226000000000000000000000000000000000006E
:10227000000000000000000000000000000000005E
:10228000000000000000000000000000000000004E
:102290000000000000000000FEFFFEFF0000000044
:1022A00000000000000C000E8003C00000000000D1
:1022B000000000000000000000000000000000001E
:1022C000000000000000000000000000000000000E
:1022D00000000000000000000000000000000000FE
:1022E000E007F01F38081800D807F81F3818183012
:1022F00018307818FE1F9E07000000000000000044
:1023000000000000000000000000007800780018C5
:102310000018C01BF01F381C18180C180C180C18CB
:102320000C181818381CF07FC07B0000000000005B
:10233000000000000000000000000000000000009D
:1023400000000000CC03FC0F3C1C0C180C300030CB
:102350000030003008181C1CF80FE00300000000DB
:1023600000000000000000000000000000007800F5
:10237000780018001800D803F80F381C1818183007
:102380001830183018301818381CFE0FDE03000003
:10239000000000000000000000000000000000003D
:1023A0000000000000000000C003F00F381C1818E7
:1023B0000C30FC3FFC3F00300018181CFC0FF003F1
:1023C000000000000000000000000000000000000D
:1023D0000000FC00FC0180030003F81FF81F00034D
:1023E0000003000300030003000300030003F81FC1
:1023F000F81F0000000000000000000000000000C6
:10240000000000000000000000000000DE03FE0FDE
:10241000381C181818301830183018301818381C94
:10242000F80FD807180018006000E01F801F000098
:102430000000000000000078007800180018E01983
:10244000F01F381E18181818181818181818181807
:1024500018187E7E7E7E0000000000000000000054
:1024600000000000000080018001800100000000E9
:10247000801F801F80018001800180018001800118
:1024800080018001FC3FFC3F0000000000000000D4
:102490000000000000000000C000C000C0000000FC
:1024A0000000E01FE01F600060006000600060004E
:1024B0006000600060006000600060006000C000BC
:1024C000C01F001F0000000000000000003C003C96
:1024D000000C000CFC0CFC0C600CC00C800D000F00
:1024E000800FE00C700C180C7E3C7E3C000000005D
:1024F0000000000000000000000000000000801F3D
:10250000801F8001800180018001800180018001A5
:1025100080018001800180018001F81FF81F000008
:1025200000000000000000000000000000000000AB
:1025300000000000000000007877FC7FCC398C316F
:102540008C318C318C318C318C318C31CE79CE798F
:10255000000000000000000000000000000000007B
:1025600000000000000000000000E079F07F381E4D
:1025700018181818181818181818181818187E7E0F
:102580007E7E00000000000000000000000000004F
:10259000000000000000000000000000C003F00F79
:1025A000381C18180C300C300C300C301818381C33
:1025B000F00FC00300000000000000000000000059
:1025C0000000000000000000000000000000C07BD0
:1025D000F07F381C18180C180C180C180C18181848
:1025E000381CF01FC01B001800180018807F807F67
:1025F00000000000000000000000000000000000DB
:10260000DE03FE0F381C1818183018301830183038
:102610001818381CF80FD803180018001800FE010D
:10262000FE010000000000000000000000000000AB
:1026300000007C1EFE1ECC070007000600060006F8
:10264000000600060006E01FE01F0000000000007A
:10265000000000000000000000000000000000007A
:1026600000000000D807F80F381C18180018F00FE9
:10267000F8070C000C181C1CF81FF01B00000000D1
:10268000000000000000000000000000000000004A
:10269000000600060006F83FF83F000600060006A8
:1026A00000060006000604060E07FC03F001000009
:1026B000000000000000000000000000000000001A
:1026C0000000000000000000F878F87818181818CA
:1026D00018181818181818181818781CFE0F9E07C4
:1026E00000000000000000000000000000000000EA
:1026F000000000000000000000007E7E7E7E1818B2
:102700001818300C300C60066006C003C00380014E
:102710008001000000000000000000000000000038
:102720000000000000000000000000003E7C3E7C35
:102730000C300C30981998199819B00DF00F700ED4
:1027400060066006000000000000000000000000BD
:1027500000000000000000000000000000007C3EBF
:102760007C3E300C6006C00380018001C00360061F
:10277000300C7C3E7C3E00000000000000000000A9
:102780000000000000000000000000000000000049
:102790007E7E7E7E18181818300C300C600660069D
:1027A0004003C00380018001000300030006807F16
:1027B000807F00000000000000000000000000001A
:1027C0000000F81FF81F30186018C0008001800159
:1027D00000031806180CF81FF81F00000000000086
:1027E0000000000000000000000000000000600089
:1027F000E001800100030003000300030003000E5A
:10280000001C000E0003000300030003000300038C
:102810008001E001600000030003000300030003E7
:102820000003000300030003000300030003000390
:102830000003000300030003000300030003000380
:10284000000300030003000300000000000000007C
:102850000000000C000F0003800180018001800156
:102860008001E0007000E0008001800180018001B3
:10287000800180010003000F000C00000000000038
:102880000000D807F00D000000000000000000006C
:102890000000000000000000000000000000000038
:1028A0000000000000000000000000000000000028
:1028B0000000000000000000000000000000000018
:1028C0000000000000000000000000008003C007BE
:1028D000C0078003000000000000000000000000AE
:1028E0000000000000000000F0FFF0FF30C630C61E
:1028F00000060006F807FC070E0606060606060692
:10290000CE06FC3E783E0000000000000000000003
:102910000000E000C00180030000FC3FFC3F0C0C05
:102920000C0C0C0C000C000C000C000C000C000C2F
:10293000000C000C803F803F000000000000000001
:102940000000000000000000000000000000000087
:102950000000000000000000000000000000000077
:10296000000000008003800380008000000100025E
:1029700000000000000000000000000080030007CD
:10298000000E0000F8FFF8FF18301830003000305B
:10299000003000300030003000FC00FC000000007F
:1029A0000000000000000000000000000000000027
:1029B0000000000000000000000000000000000017
:1029C0000000000000000000701C701C10041004C7
:1029D000200840100000000000000000000000007F
:1029E00000000000000000000000000000000000E7
:1029F0000000000000000000000060666066606685
:102A000000000000000000000000000000000000C6
:102A100000000000800700030003F03FF03F0003C8
:102A20000003800780070003000300030003000386
:102A30000003000000000000000000000000000093
:102A4000000000000000800700030003F03FF03F9B
:102A5000000300038007800700030003F03FF03FFE
:102A600000030003800700000000000000000000D9
:102A70000000000000000000000000000000000056
:102A80000000000000000000000000000000000046
:102A90000000000000000000000000000000000036
:102AA00000000000000000000000807800CD0085DC
:102AB000008600CA007C000400080008BC07E60C81
:102AC00042184218E62CBC2700000000000000005D
:102AD000000000000000000000000000E0FFE0FF38
:102AE000803180318031F831FC318E318631863150
:102AF000863186718E61FCE7F8C700000000000097
:102B000000000000000000000000000000000000C5
:102B10000000000000000000800080018001000330
:102B2000000300038001800180000000000000001D
:102B30000000000000000000000000000000000095
:102B4000E0F3E0F38061806180618061F87FFC7F69
:102B50008E618661866186618E61FCF3F8F3000008
:102B600000000000000000000000C001800300071A
:102B70000000F8FCF8FC6030C030803100330037D2
:102B8000803FC039E0306030703030303CFC3CFC7D
:102B90000000000000000000000000000000000035
:102BA00000000000F0FFF0FF30C630C6000600064F
:102BB000F807FC070E0606060606060606068E1F22
:102BC0008E1F000000000000000000000000000058
:102BD000000000000000FCFCFCFC303030303030E5
:102BE00030303030303030303030303030303030E5
:102BF000FCFFFCFF000300030000000000000000D9
:102C00000000000000000018C07FC07F0018E0191D
:102C1000F01F381E1818181818181818181818182F
:102C20001818187E187E18001800B003E001000084
:102C300000000000000000000000C000C000C00153
:102C4000C001800380038007000000000000000036
:102C50000000000000000000000000000000000074
:102C6000000000000000000000000000C00380031E
:102C700080030007000700060006000000000000B7
:102C80000000000000000000000000000000000044
:102C900000000000000000000000000000000C0622
:102CA0000C061C0E1C0E381C381C783C0000000062
:102CB0000000000000000000000000000000000014
:102CC0000000000000000000000000000000000004
:102CD0003C0F380E380E701C701C60186018000015
:102CE00000000000000000000000000000000000E4
:102CF00000000000000000000000000000000000D4
:102D000000000000000000000000000000000000C3
:102D10008003C007C007800300000000000000001F
:102D200000000000000000000000000000000000A3
:102D30000000000000000000000000000000000093
:102D4000E00FE00F000000000000000000000000A5
:102D50000000000000000000000000000000000073
:102D60000000000000000000000000000000000063
:102D70000000FC7FFC7F000000000000000000005D
:102D80000000000000000000000000000000000043
:102D90000000000000000000000000000000000033
:102DA0000000000000000000000000000000000023
:102DB0000000000000000000000000000000000013
:102DC000000000000000000002FD86FDCE31FE3153
:102DD000B6318631863186310000000000000000E7
:102DE00000000000000000000000000000000000E3
:102DF00000000000000000000000000000000000D3
:102E00000000F07FF07FC018C018C018FC18FE1832
:102E1000C618C238C630FEF3FCE300000000000014
:102E200000000000000000000000000000000000A2
:102E30000000000000000000000200030003800109
:102E40008001800100030003000200000000000078
:102E50000000000000000000000000000000000072
:102E6000000000000000E0F1E0F1C060C060C06060
:102E7000FC7FFE7FC660C260C660FEF1FCF1000010
:102E80000000000000000000000000000000000042
:102E9000E000C00180030000FC3CFC3C600CC00C66
:102EA000800D000F800FE00C700C180C7E3C7E3CF7
:102EB0000000000000000000000000000000000012
:102EC00000000018C07FC07F0018E019F01F381EF6
:102ED00018181818181818181818181818187E7EA6
:102EE0007E7E0000000000000000000000000000E6
:102EF0000000000000000000000000007E7E7E7EDA
:102F00001818181818181818181818181818181841
:102F1000FE7FFE7F800180010000000000000000B5
:102F200000000000000000000000000000000000A1
:102F30000000000000000000000000000000000091
:102F40000000000000000000000000000000000081
:102F500000000000C00C80070003FCFCFCFC3030CB
:102F6000303030186018600C600CC006C00680035A
:102F700080038033003F000E0000000000000000CE
:102F8000000000000000000000006006C003800197
:102F900000007E7E7E7E18181818300C300C6006FB
:102FA00060064003C00380018001000300030006A7
:102FB000807F807F00000000000000000000FC0710
:102FC000FC0760006000600060006000600060005E
:102FD000606060606060C070C03F000F0000000073
:102FE00000000000000000000000000000000000E1
:102FF0000820D017E00E3018301810103018301894
:10300000E00ED017082000000000000000000000C3
:1030100000000000000000000000000000000C00A4
:103020000C00FC3FFC3F000C000C000C000C000CE2
:10303000000C000C000C000C000C000C803F803FCA
:10304000000000000000000000000000000000037D
:103050000003000300030003000300030003000358
:103060000000000000000000000300030003000354
:103070000003000300030003000300000000000041
:10308000000000000000F007F00F300C301C003E84
:103090000037C033E039701C380F9807D801F800AA
:1030A00070186018E01FC01F000000000000000042
:1030B000701C701C00000000F87FF87F18181818AA
:1030C000D818C018C01FC01FC018C018181818186A
:1030D0001818F87FF87F00000000000000000000D2
:1030E00000000000000000000000C007701C183045
:1030F0000C60C447C6CCC28C028C028C66CCC44720
:103100000C601830701CC0070000000000000000B8
:10311000000000000000000000000000D807F81FB9
:10312000783C183018700060807F807F00600060FD
:10313000007008303C3CF81FE00700000000000071
:10314000000000000000000000000000000000007F
:103150000000000000000000200260066006C00CB5
:10316000C00CC00C600660062002000000000000D9
:10317000000000000000000000000000000000004F
:10318000000000000000000000000000F87FF87F51
:1031900018001800180018000000000000000000CF
:1031A000000000000000000000000000000000001F
:1031B000000000000000000000000000000000000F
:1031C0000000F83FF83F0000000000000000000091
:1031D00000000000000000000000000000000000EF
:1031E00000000000C007701C18300C60C44F66C699
:1031F0006286C287C28666C6644F0C601830701C37
:10320000C00700000000000000000000000060187F
:10321000601800000000F03FF03F000300030003CF
:103220000003000300030003000300030003000386
:10323000F03FF03F00000000000000000000000030
:1032400000000000000000008007C00F6018601838
:1032500060186018C00F8007000000000000000028
:10326000000000000000000000000000000000005E
:103270000000000000000000000000000003000348
:1032800000030003F87FF87F00030003000300033E
:1032900000000000F87FF87F000000000000000040
:1032A000000000000000000000000000F03FF03FC0
:1032B00000030003000300030003000300030003F6
:1032C000000300030003F03FF03F00000000000097
:1032D000000000000000000000008001800180016B
:1032E00000000000801F801F80018001800180019C
:1032F0008001800180018001FC3FFC3F0000000054
:1033000000000000000000000000000000000000BD
:10331000000018001800F87FF87F00180018001847
:1033200000180018001800180018007E007E000029
:10333000000000000000000000000000000000008D
:103340000000000000000000F878F878181818183D
:1033500018181818181818181818781CFE1F9E1F0F
:10336000001800180070006000000000000000005D
:1033700000000000F81F783E607E607E607E607E08
:10338000607E603E601E6006600660066006600645
:103390006006781E781E000000000000000000009B
:1033A000000000000000000000000000000000001D
:1033B0008001C003C0038001000000000000000085
:1033C00000000000000000000000000000000000FD
:1033D000000000000000300C300C00000000C003B2
:1033E000F00F381C18180C30FC3FFC3F0030001860
:1033F000181CFC0FF003000000000000000000009B
:1034000000000000000000000000FEF1FEF9663838
:10341000663C7E3C7E3660366033E031E031E03041
:10342000E030603060FE60FE000000000000000040
:10343000000000000000000000000000000000008C
:103440000000CC03FC0F3C1C0C180C30803F803F6C
:10345000003008181C1CF80FE003000000000000FA
:10346000000000000000000000000000000000005C
:1034700000000000000000008008C00CC00C6006C6
:1034800060066006C00CC00C800800000000000050
:10349000000000000000000000000000C000C000AC
:1034A000C00000000000E01FE01F6000600060003E
:1034B000600060006000600060006000600060000C
:1034C0006000C000C01F001F0000000000000000DE
:1034D0000000B007F01F7018303000300038E01FD7
:1034E000F00F38001800183018303038F03FC0376F
:1034F00000000000000000000000000000000000CC
:1035000000000000000000000000D807F80F381C81
:1035100018180018F00FF8070C000C181C1CF81FE6
:10352000F01B000000000000000000000000000090
:103530000000300C300C300C00000000801F801F99
:103540008001800180018001800180018001800173
:10355000FC3FFC3F000000000000000000000000F5
:103560000000000000000000001F001F800780070F
:10357000C00CC00CC00C6018E01FE01F6018303099
:103580003030FCFCFCFC00000000000000000000EB
:1035900000000000000000000000F07FF07F301805
:1035A000001800180018E01FF01F38181818181815
:1035B00018183818F07FE07F0000000000000000BD
:1035C000000000000000000000000000C07FE07F5D
:1035D0007018301830187018E01FF01F38181818BD
:1035E000181818183818F07FE07F0000000000005D
:1035F0000000000000000000000000000000FC3F90
:10360000FC3F0C0C0C0C0C0C000C000C000C000C07
:10361000000C000C000C000C803F803F00000000FC
:10362000000000000000000000000000000000009A
:10363000FC3FFC3F300C300C300C300C300C300CAC
:10364000301C3018301830383070FCFFFCFF0CC0D4
:103650000CC000000000000000000000000000009E
:103660000000F87FF87F18181818D818C018C01F65
:10367000C01FC018C018181818181818F87FF87F3D
:10368000000000000000000000000000000000003A
:10369000000000008E719E799819B00DB00DE00702
:1036A000C003E007F00FB81D98199C398C318E715A
:1036B0008E7100000000000000000000000000000B
:1036C000000000000000E01FF03F38701870180084
:1036D0003000E001F0013800180018001870387050
:1036E000F03FE01F000000000000000000000000AC
:1036F00000000000000000003CFE7CFE7030F03056
:10370000F030B031B031303330363036303C303CD0
:103710003038FCF9FCF1000000000000000000005F
:103720000000300CF00FE00700003CFE7CFE703023
:10373000F030F030B031B031303330363036303CEC
:10374000303C3038FCF9FCF10000000000000000C3
:10375000000000000000000000000000F8FCF8FC81
:103760006030C030803100330037803FC039E030F6
:103770006030703030303CFC3CFC00000000000049
:103780000000000000000000000000000000FC3FFE
:10379000FC3F300C300C300C300C300C300C300C4A
:1037A000300C300C301C3018FC78FC70000000002D
:1037B0000000000000000000000000000000000009
:1037C0003CF03CF0787878787878D86CD86CD86C05
:1037D000986798671863186318607CF87CF8000095
:1037E00000000000000000000000000000000000D9
:1037F0000000FCFCFCFC3030303030303030F03F2A
:10380000F03F30303030303030303030FCFCFCFCB9
:1038100000000000000000000000000000000000A8
:1038200000000000C00FF03F787818601CE00CC06A
:103830000CC00CC00CC00CC01CE018607878F03FC5
:10384000C00F0000000000000000000000000000A9
:10385000000000000000FCFFFCFF30303030303052
:103860003030303030303030303030303030303058
:10387000FCFCFCFC00000000000000000000000058
:103880000000000000000000C07FF07F3018181812
:10389000181818183018F01FC01F0018001800184A
:1038A0000018807F807F0000000000000000000002
:1038B00000000000000000000000D807F81F783C5E
:1038C00018301870006000600060006000600070D8
:1038D00008303C3CF81FE00700000000000000003A
:1038E000000000000000000000000000F87FF87FEA
:1038F00018631863186318630003000300030003D0
:10390000000300030003E01FE01F000000000000B0
:103910000000000000000000000000000000FCFCAF
:10392000FCFC3030303030186018600C600CC00681
:10393000C006800380038033003F000E00000000BB
:103940000000000000000000000000000000000077
:10395000E00FE00F8003E00FF83FBC7B8C638EE349
:103960008C63BC7BF83FE00F8003E00FE00F0000AA
:103970000000000000000000000000000000000047
:103980000000FCFCFCFC30306018C00CC00C800750
:1039900000038007C00CC00C60183030FCFCFCFC3D
:1039A0000000000000000000000000000000000017
:1039B00000000000FCFCFCFC303030303030303097
:1039C0003030303030303030303030303030FCFF5C
:1039D000FCFF0C000C0000000000000000000000D4
:1039E000000000000000FCFCFCFC303030303030C7
:1039F000303030303030F03FF01F300030003000D9
:103A0000FC00FC00000000000000000000000000BE
:103A100000000000000000007EF87EF818631863C4
:103A200018631863186318631863186318631863BE
:103A30001863FEFFFEFF0000000000000000000011
:103A4000000000000000000000007CF87CF8186313
:103A5000186318631863186318631863186318638E
:103A600018631863FEFFFEFF06000600000000005A
:103A700000000000000000000000000000FF00FF48
:103A800000CC00CC000C000CE00FF80F180C0C0C54
:103A90000C0C0C0C180CF83FE03F0000000000007C
:103AA00000000000000000000000000000003EFEDA
:103AB0003EFE0C300C300C300C300C3FCC3FCC3088
:103AC0006C306C306C30CC30DEFF1EFF000000002C
:103AD00000000000000000000000000000000000E6
:103AE000807F807F0018001800180018C01FF01F8A
:103AF00030181818181818183018F07FC07F0000F8
:103B000000000000000000000000000000000000B5
:103B10000000C037F03F783C18301C300C00FC012E
:103B2000FC010C000C001C0018207878F03FC00F3E
:103B30000000000000000000000000000000000085
:103B400000000000E0F8F8FBBC670C660E6E066C27
:103B5000067C067C066C066C0E6E0C66BC67F8FB79
:103B6000E0F800000000000000000000000000007D
:103B7000000000000000FC07FC1F3018303030301F
:103B80003030301CF01FF007300E301C3018303849
:103B9000FCF0FCF00000000000000000000000004D
:103BA0000000000000000000000000000000E0072E
:103BB000F01F38081800D807F81F381818301830C8
:103BC0007818FE1F9E0700000000000000000000A3
:103BD0000000000000001800F001E003C007000C26
:103BE000C00BF01F381C18180C300C300C300C3087
:103BF0001818381CF00FC00300000000000000007F
:103C000000000000000000000000000000000000B4
:103C10000000F0FFF8FF0C300C301830F03FF03FA0
:103C200018300C301C30F8FFF0FF000000000000DE
:103C30000000000000000000000000000000000084
:103C400000000000F8FFF8FF183018300030003096
:103C5000003000300030003000FC00FC00000000AC
:103C60000000000000000000000000000000000054
:103C7000000000000000FC3FFC3F300C300C300C1A
:103C8000300C300C300C301C3018FC7FFC7F0C608A
:103C90000C600000000000000000000000000000B8
:103CA0000000000000000000C003F00F381C1818CE
:103CB0000C30FC3FFC3F00300018181CFC0FF003D8
:103CC00000000000000000000000000000000000F4
:103CD000000000000000000000009E799E79B00DF9
:103CE000E007C0038001C003F00FB81D8C318E7156
:103CF0008E710000000000000000000000000000C5
:103D0000000000000000000000000000F00FF81F9D
:103D10000C300C301800F003F00318000C301C308D
:103D2000F81FF00F0000000000000000000000007D
:103D300000000000000000000000000000007E7E87
:103D40007E7E181838187818F818D819981B181F7C
:103D5000181E7E7C7E78000000000000000000003D
:103D600000000000000000006006E0078001000085
:103D70007E7E7E7E181838187818F818D819981B87
:103D8000181F181E7E7C7E780000000000000000D6
:103D90000000000000000000000000000000000023
:103DA0000000FC3CFC3C600CC00C800D000F800F40
:103DB000E00C700C180C7E3C7E3C00000000000003
:103DC00000000000000000000000000000000000F3
:103DD00000000000FC3FFC3F300C300C300C300C7D
:103DE000300C300C301C3018FC78FC7000000000E7
:103DF00000000000000000000000000000000000C3
:103E00000000000000001E781E783C3C2C346C360C
:103E10004C32CC338C318C310C301E781E78000043
:103E20000000000000000000000000000000000092
:103E300000000000000000007E7E7E7E181818182A
:103E40001818F81FF81F1818181818187E7E7E7E8C
:103E50000000000000000000000000000000000062
:103E600000000000000000000000C003F00F381C3C
:103E700018180C300C300C300C301818381CF00F9F
:103E8000C00300000000000000000000000000006F
:103E9000000000000000000000000000FE7FFE7F28
:103EA0001818181818181818181818181818181892
:103EB0007E7E7E7E0000000000000000000000000A
:103EC0000000000000000000000000000000C07BB7
:103ED000F07F381C18180C180C180C180C1818182F
:103EE000381CF01FC01B001800180018807F807F4E
:103EF00000000000000000000000000000000000C2
:103F0000CC03FC0F3C1C0C180C300030003000308F
:103F100008181C1CF80FE00300000000000000005F
:103F20000000000000000000000000000000000091
:103F30000000FC3FFC3F8C318C318001800180010E
:103F4000800180018001E007E00700000000000020
:103F50000000000000000000000000000000000061
:103F6000000000007E7E7E7E18181818300C300C81
:103F7000600660064003C003800180010003000367
:103F80000006807F807F0000000000000000C00F5E
:103F9000C00F00030003C00FF03F387318630CC359
:103FA0000CC30CC30CC318633873F03FC00F00037D
:103FB0000003C00FC00F0000000000000000000060
:103FC00000000000000000007C3E7C3E300C6006DB
:103FD000C00380018001C0036006300C7C3E7C3E43
:103FE00000000000000000000000000000000000D1
:103FF000000000000000000000007E7E7E7E181899
:104000001818181818181818181818181818FE7FE3
:10401000FE7F060006000000000000000000000017
:104020000000000000000000000000007E7E7E7E98
:104030001818181818181818F81FF80F1800180072
:104040007E007E0000000000000000000000000074
:1040500000000000000000000000000000009E7949
:104060009E798C318C318C318C318C318C318C310E
:104070008C31FE7FFE7F0000000000000000000089
:104080000000000000000000000000000000000030
:104090009E799E798C318C318C318C318C318C3184
:1040A0008C318C31FE7FFE7F060006000000000090
:1040B0000000000000000000000000000000000000
:1040C000000000FC00FC00CC00CCF00FF80F3C0C12
:1040D0000C0C0C0C3C0CF80FF00F00000000000062
:1040E00000000000000000000000000000000000D0
:1040F000000000003EFC3EFC0C300C308C3FCC3FFE
:10410000EC316C306C30EC31DEFF9EFF00000000C3
:10411000000000000000000000000000000000009F
:10412000000000000000007E007E00180018E01F64
:10413000F01F7818181818187818F07FE07F000022
:10414000000000000000000000000000000000006F
:104150000000000000000000C033F03F383C183081
:104160000C30FC01FC010C0018103838F01FC0079F
:10417000000000000000000000000000000000003F
:1041800000000000000000000000E0F8F8FB1C67E1
:104190000C66066C067C067C066C0C661C67F8FBDD
:1041A000E0F8000000000000000000000000000037
:1041B000000000000000000000000000FE03FE0FF1
:1041C000181C18181818181CF80FF80318031827CB
:1041D0007E3E7E1C0000000000000000000064D451
:0441E000B00000002B
:0441E400E9010008E5
:0441E800C501000805
:1041EC000024F4000F1900001E16000820FF000028
:1041FC00001100027803001000020A03002A0400D8
:10420C00000000002B0400000000002C0003000143
:10421C00000205002800003A015500B2050C0C0004
:10422C0033330036010000B7013500BB011900C063
:10423C00012C00C20201FF00C3011200C4012000C6
:10424C00C6010F00D002A4A100E00ED0040D111382
:10425C002B3F544C180D0B1F2300E10ED0040C11F6
:10426C00132C3F44512F1F1F20230021000011004D
:0C427C0002050013000029000278030076
:04000005080007D117
:00000001FF
