:020000040800F2
:1000000000000120311900085D1700086117000881
:1000100065170008691700086D1700080000000048
:100020000000000000000000000000007117000840
:100030007517000800000000791700087D170008F8
:100040008119000881190008811900088119000828
:100050008119000881190008811900088119000818
:100060008119000881190008811900088119000808
:1000700081190008811900088D17000891170008E0
:10008000A517000881190008811900080000000068
:1000900000000000000000000000000081190008BE
:1000A00081190008951700088119000881190008B6
:1000B00081190008811900088119000881190008B8
:1000C00081190008811900088119000881190008A8
:1000D000811900088119000881190008000000003A
:1000E000811900088119000881190008000000002A
:1000F000000000000000000000000000811900085E
:100100000000000081190008811900088119000809
:1001100000000000000000000000000000000000DF
:100120008119000881190008811900089917000831
:10013000811900080000000000000000000000001D
:10014000000000000000000000000000811900080D
:100150008119000881190008811900088119000817
:10016000811900088119000800000000000000004B
:10017000000000000000000000000000000000007F
:1001800000000000811900080000000000000000CD
:0401900081190008C9
:1001A00010B5054C237833B9044B13B10448AFF3B1
:1001B00000800123237010BD800200200000000099
:1001C000C894000808B5034B1BB103490348AFF3BB
:1001D000008008BD0000000084020020C8940008D0
:1001E00001F0FF01102A2BDB10F0070F08D010F8E8
:1001F000013B013A8B422DD010F0070F42B3F6D1EC
:10020000F0B441EA012141EA014122F007047FF004
:1002100000070023F0E80256083C85EA010586EA5B
:10022000010685FA47F5A3FA87F586FA47F6A5FA97
:1002300087F68EB9EED1F0BC01F0FF0102F00702A3
:1002400032B110F8013B013A83EA010313B1F8D14E
:100250000020704701387047002D06BF354603382F
:10026000073815F0010F07D1013015F4807F02BF68
:10027000013015F4C03F0130F0BC0138704700BFB9
:10028000034613F8012B002AFBD1181A01387047D6
:1002900081F0004102E000BF83F0004330B54FEA37
:1002A00041044FEA430594EA050F08BF90EA020FA4
:1002B0001FBF54EA000C55EA020C7FEA645C7FEA37
:1002C000655C00F0E2804FEA5454D4EB5555B8BF5A
:1002D0006D420CDD2C4480EA020281EA030382EACB
:1002E000000083EA010180EA020281EA0303362D5D
:1002F00088BF30BD11F0004F4FEA01314FF4801C30
:100300004CEA113102D0404261EB410113F0004F41
:100310004FEA03334CEA133302D0524263EB4303F8
:1003200094EA050F00F0A780A4F10104D5F1200E96
:100330000DDB02FA0EFC22FA05F2801841F10001F1
:1003400003FA0EF2801843FA05F359410EE0A5F1C5
:1003500020050EF1200E012A03FA0EFC28BF4CF0F6
:10036000020C43FA05F3C01851EBE37101F00045AC
:1003700007D54FF0000EDCF1000C7EEB00006EEBB9
:100380000101B1F5801F1BD3B1F5001F0CD3490843
:100390005FEA30004FEA3C0C04F101044FEA44529A
:1003A00012F5800F80F09A80BCF1004F08BF5FEA21
:1003B000500C50F1000041EB045141EA050130BD01
:1003C0005FEA4C0C404141EB0101013C28BFB1F513
:1003D000801FE9D291F0000F04BF01460020B1FA5E
:1003E00081F308BF2033A3F10B03B3F120020CDA31
:1003F0000C3208DD02F1140CC2F10C0201FA0CF00F
:1004000021FA02F10CE002F11402D8BFC2F1200C73
:1004100001FA02F120FA0CFCDCBF41EA0C01904029
:10042000E41AA2BF01EB0451294330BD6FEA040472
:100430001F3C1CDA0C340EDC04F11404C4F120025D
:1004400020FA04F001FA02F340EA030021FA04F36F
:1004500045EA030130BDC4F10C04C4F1200220FAC6
:1004600002F001FA04F340EA0300294630BD21FA04
:1004700004F0294630BD94F0000F83F4801306BFCA
:1004800081F480110134013D4EE77FEA645C18BFBE
:100490007FEA655C29D094EA050F08BF90EA020F55
:1004A00005D054EA000C04BF1946104630BD91EA4D
:1004B000030F1EBF0021002030BD5FEA545C05D150
:1004C0004000494128BF41F0004130BD14F580048F
:1004D0003CBF01F5801130BD01F0004545F0FE4103
:1004E00041F470014FF0000030BD7FEA645C1ABF38
:1004F000194610467FEA655C1CBF0B46024650EA6F
:10050000013406BF52EA033591EA030F41F400219A
:1005100030BD00BF90F0000F04BF0021704730B520
:100520004FF4806404F132044FF000054FF00001F5
:1005300050E700BF90F0000F04BF0021704730B5B6
:100540004FF4806404F1320410F0004548BF40428B
:100550004FF000013EE700BF42004FEAE2014FEAE0
:1005600031014FEA02701FBF12F07F4393F07F4FBB
:1005700081F06051704732F07F4208BF704793F0BE
:100580007F4F04BF41F40021704730B54FF46074D1
:1005900001F0004521F000411CE700BF50EA0102D4
:1005A00008BF704730B54FF000050AE050EA01027D
:1005B00008BF704730B511F0004502D5404261EBED
:1005C00041014FF4806404F132045FEA915C3FF42E
:1005D000D8AE4FF003025FEADC0C18BF03325FEACB
:1005E000DC0C18BF033202EBDC02C2F1200300FA7C
:1005F00003FC20FA02F001FA03FE40EA0E0021FAA1
:1006000002F11444BDE600BF70B54FF0FF0C4CF48E
:10061000E06C1CEA11541DBF1CEA135594EA0C0F40
:1006200095EA0C0F00F0DEF82C4481EA030621EA7B
:100630004C5123EA4C5350EA013518BF52EA0335B6
:1006400041F4801143F4801338D0A0FB02CE4FF068
:100650000005E1FB02E506F00042E0FB03E54FF098
:100660000006E1FB03569CF0000F18BF4EF0010E90
:10067000A4F1FF04B6F5007F64F5407404D25FEA8C
:100680004E0E6D4146EB060642EAC62141EA55513F
:100690004FEAC52040EA5E504FEACE2EB4F1FD0C81
:1006A00088BFBCF5E06F1ED8BEF1004F08BF5FEAFF
:1006B000500E50F1000041EB045170BD06F00046B1
:1006C00046EA010140EA020081EA0301B4EB5C045E
:1006D000C2BFD4EB0C0541EA045170BD41F4801156
:1006E0004FF0000E013C00F3AB8014F1360FDEBF7B
:1006F000002001F0004170BDC4F10004203C35DA57
:100700000C341BDC04F11404C4F1200500FA05F3D9
:1007100020FA04F001FA05F240EA020001F000427A
:1007200021F0004110EBD37021FA04F642EB0601F0
:100730005EEA430E08BF20EAD37070BDC4F10C041A
:10074000C4F1200500FA04F320FA05F001FA04F2DE
:1007500040EA020001F0004110EBD37041F10001CA
:100760005EEA430E08BF20EAD37070BDC4F12005D5
:1007700000FA05F24EEA020E20FA04F301FA05F23D
:1007800043EA020321FA04F001F0004121FA04F2E5
:1007900020EA020000EBD3705EEA430E08BF20EAB5
:1007A000D37070BD94F0000F0FD101F000464000EF
:1007B00041EB010111F4801F08BF013CF7D041EA71
:1007C000060195F0000F18BF704703F00046520075
:1007D00043EB030313F4801F08BF013DF7D043EA46
:1007E0000603704794EA0C0F0CEA135518BF95EAFC
:1007F0000C0F0CD050EA410618BF52EA4306D1D183
:1008000081EA030101F000414FF0000070BD50EAA1
:10081000410606BF1046194652EA430619D094EA2B
:100820000C0F02D150EA013613D195EA0C0F05D115
:1008300052EA03361CBF104619460AD181EA030169
:1008400001F0004141F0FE4141F470014FF0000021
:1008500070BD41F0FE4141F4780170BD70B54FF0BC
:10086000FF0C4CF4E06C1CEA11541DBF1CEA13553C
:1008700094EA0C0F95EA0C0F00F0A7F8A4EB05041E
:1008800081EA030E52EA03354FEA013100F0888015
:100890004FEA03334FF0805545EA131343EA1263DE
:1008A0004FEA022245EA111545EA10654FEA002693
:1008B0000EF000419D4208BF964244F1FD0404F54C
:1008C000407402D25B084FEA3202B61A65EB0305A8
:1008D0005B084FEA32024FF480104FF4002CB6EB65
:1008E000020E75EB030E22BFB61A754640EA0C00E5
:1008F0005B084FEA3202B6EB020E75EB030E22BF25
:10090000B61A754640EA5C005B084FEA3202B6EB65
:10091000020E75EB030E22BFB61A754640EA9C0024
:100920005B084FEA3202B6EB020E75EB030E22BFF4
:10093000B61A754640EADC0055EA060E18D04FEAB2
:10094000051545EA16754FEA06164FEAC30343EA52
:1009500052734FEAC2025FEA1C1CC0D111F4801F1F
:100960000BD141EA00014FF000004FF0004CB6E718
:1009700011F4801F04BF01430020B4F1FD0C88BFB7
:10098000BCF5E06F3FF6AFAEB5EB030C04BFB6EBC2
:10099000020C5FEA500C50F1000041EB045170BDB5
:1009A0000EF0004E4EEA113114EB5C04C2BFD4EBE2
:1009B0000C0541EA045170BD41F480114FF0000E66
:1009C000013C90E645EA060E8DE60CEA135594EAE2
:1009D0000C0F08BF95EA0C0F3FF43BAF94EA0C0FE5
:1009E0000AD150EA01347FF434AF95EA0C0F7FF45A
:1009F00025AF104619462CE795EA0C0F06D152EAAE
:100A000003353FF4FDAE1046194622E750EA410691
:100A100018BF52EA43067FF4C5AE50EA41047FF4A2
:100A20000DAF52EA43057FF4EBAE12E74FF0FF3C07
:100A300006E000BF4FF0010C02E000BF4FF0010CD8
:100A40004DF804CD4FEA410C7FEA6C5C4FEA430C51
:100A500018BF7FEA6C5C1BD001B050EA410C0CBFA0
:100A600052EA430C91EA030F02BF90EA020F002002
:100A7000704710F1000F91EA030F58BF994208BF69
:100A800090422CBFD8176FEAE37040F00100704726
:100A90004FEA410C7FEA6C5C02D150EA013C07D17D
:100AA0004FEA430C7FEA6C5CD6D152EA033CD3D0C8
:100AB0005DF8040B704700BF8446104662468C46C2
:100AC0001946634600E000BF01B5FFF7B7FF0028F5
:100AD00048BF10F1000F01BD4DF808EDFFF7F4FF1E
:100AE0000CBF012000205DF808FB00BF4DF808EDA9
:100AF000FFF7EAFF34BF012000205DF808FB00BFCC
:100B00004DF808EDFFF7E0FF94BF012000205DF8ED
:100B100008FB00BF4DF808EDFFF7CEFF94BF0120A2
:100B200000205DF808FB00BF4DF808EDFFF7C4FF9B
:100B300034BF012000205DF808FB00BF4FEA410CE4
:100B40007FEA6C5C02D150EA013C0AD14FEA430CC7
:100B50007FEA6C5C02D152EA033C02D14FF0000004
:100B600070474FF0010070474FEA410212F5001242
:100B700015D211D56FF47873B3EB625212D94FEAE4
:100B8000C12343F0004343EA505311F0004F23FACE
:100B900002F018BF404270474FF00000704750EA23
:100BA000013005D111F0004008BF6FF000407047E0
:100BB0004FF00000704700BF4A0011D212F500123A
:100BC00011D20DD56FF47873B3EB62520ED44FEAA5
:100BD000C12343F0004343EA505323FA02F0704725
:100BE0004FF00000704750EA013002D14FF0FF3063
:100BF00070474FF0000070474FEA4102B2F1E04306
:100C000024BFB3F5001CDCF1FE5C0DD901F0004CF3
:100C10004FEAC0024CEA5070B2F1004F40EB830043
:100C200008BF20F00100704711F0804F21D113F16F
:100C30003872BCBF01F00040704741F480114FEAA8
:100C40005252C2F11802C2F1200C10FA0CF320FA31
:100C500002F018BF40F001004FEAC1234FEAD3234E
:100C600003FA0CFC40EA0C0023FA02F34FEA4303B8
:100C7000CCE77FEA625307D150EA01331EBF4FF041
:100C8000FE4040F44000704701F0004040F0FE405C
:100C900040F40000704700BF80B3D0F8843010B536
:100CA0000446586808B105F0BBFDA06E08B105F018
:100CB000B7FD206808B105F0B3FDA06908B105F0E3
:100CC000AFFDE06908B105F0ABFD206A08B105F0A1
:100CD000A7FD606A08B105F0A3FDE06A08B105F060
:100CE0009FFDA06A08B105F09BFD206B08B105F0DF
:100CF00097FD2046BDE8104005F092BD704700BF4B
:100D0000042310B580F88030C36E044643B94269AD
:100D1000A36FE26620469847002384F8883010BD10
:100D20000022F5E70521C26F80F88010104700BF50
:100D30002F4A136823F0070343F0020310B5136032
:100D4000136803F00703022BFAD12A492A4B0A68D9
:100D500022F4404242F400420A601A6842F48032AF
:100D60001A601A689003FCD51A68244942F40022DC
:100D70001A605868224A01400A435A6059681E4A5C
:100D800021F440315960196841F08071196013688D
:100D90009901FCD5174A53685B04FCD5164CA3682F
:100DA00023F0F003A360A36823F4E05343F48053DB
:100DB000A360A36823F46043A360A36823F0030344
:100DC00043F00203A360A36803F00C03082BFAD1DD
:100DD0000C4802F0B3FE0F2001F09EFC08B172B681
:100DE000FEE7D4F88C3023F08073C4F88C3010BD4B
:100DF000003C024000700040003802400080BFFF0D
:100E0000192A400000BD01052DE9F04FBC4B2DED26
:100E1000028B1A6842F40072E3B01A601A6842F456
:100E200080621A601A6842F480721A6001F098FCBD
:100E3000FFF77EFFB34BB44A1B68A2FB03239B0959
:100E4000013BB3F1807F0AD24FF0E022AF485361FB
:100E5000F0240021072380F82340916113610025CD
:100E6000CDE94655CDE94855A94CAA48236BDFF892
:100E7000B892A94F43F004032363236B03F00403E8
:100E80001A931A9B236B43F080032363236B03F0B5
:100E900080031B931B9B236B43F001032363236B92
:100EA00003F001031C931C9B236B43F00203236399
:100EB000236B03F002031D934FF400531D9A8361CB
:100EC0004FF4805A1C234FF40052C9F8183044A93B
:100ED000C7F818A00123CDE94423012602F0A4FBA2
:100EE0004FF002080C2344A94846CDE94755CDE907
:100EF0004436CDF8188102F097FB102344A94846E8
:100F00004493CDE94756CDE9456802F08DFB44A9ED
:100F10003846CDE94756CDE94568CDF810A102F035
:100F200083FB44A94FF4707200233846CDE9442373
:100F3000489602F079FB236B43F400132363236B81
:100F400003F400131893189B236B43F4800323636B
:100F5000236B03F4800319936C4B199ADB68C3F37A
:100F60000223C3F10702191D042A28BF04220629FF
:100F700088BFDD1E4FF0FF339340DB4303F00203D5
:100F8000AB40664A1B01DBB282F80E334FF480435C
:100F900013605E4BDB68C3F30223C3F107011A1D24
:100FA000042928BF0421062A88BFDA1E4FF0FF3328
:100FB00003FA01F36FEA030398BF002203F0020370
:100FC00093401B01554ADBB282F80F334FF40043C4
:100FD00013604E4B514FDB68C3F30223C3F107018B
:100FE0001A1D042928BF0421062A88BFDA1E4FF0E3
:100FF000FF3303FA01F36FEA030398BF002203F003
:10100000030393401B01DBB287F83B334FF00063CF
:101010007B6000243E4D424E2822002144A806F069
:1010200082FA39942B6C3C4843F480432B642B6C3C
:1010300003F480431693169B2B6B43F002032B6340
:101040002B6B03F0020317934FF00309179BCDF8A6
:10105000E0904FF46042022336A94FF0010A4FF0AE
:10106000050BCDE93623CDE93AAB02F0DDFA2D4B85
:101070009A6D22F060629A659A6D22F0C0029A65BC
:101080009A6D22F4403242F480329A659A6D22F4CD
:1010900090729A659A6D22F400729A659A6D42F484
:1010A00080629A659A6D22F4C0529A659A6D22F414
:1010B000C0429A65DA6E42F00402DA66DA6E42EAFB
:1010C0000902DA669A6D22F0C07242F080729A6567
:1010D0009A6D22F4C0029A651A6F22F060621A6754
:1010E0001A6F22F0C00242F040021A671A6F22F40F
:1010F000403242F480321A671A6F22F4907215E07F
:10110000003C024000000020D34D621000ED00E0E2
:1011100000380240000802400004024000E100E004
:101120000038004000600240000002401A671A6F59
:1011300022F400721A671A6F42F480621A671A6FFB
:1011400022F4C0521A671A6F22F4C0421A67D3F809
:10115000842042F00402C3F88420D3F8842042EAB9
:101160000902C3F884201A6F22F0C07242F0807224
:101170001A671A6F9FED9C8B22F4C0021A674FF416
:1011800082784FF40072302344A93046CDE94923D8
:10119000CDF81481CDE946448DED4C8B44944894B0
:1011A0004B9402F019FB736823F01003736021461F
:1011B000282244A806F0B7F939946B6C8E4843F4A2
:1011C00080536B646B6C03F480531493149B2B6BF0
:1011D00043F001032B632B6BCDF8E09003F0010388
:1011E0001593159B36A9A0220223CDE93AABCDE990
:1011F000362302F019FA814B9A6D22F0606242F0B8
:10120000C0629A659A6D22F0C00242F040029A656F
:101210009A6D22F440329A659A6D22F490729A6522
:101220009A6D22F400729A659A6D42F480629A6512
:101230009A6D22F4C05242F400629A659A6D22F4CB
:10124000C04242F400529A65DA6E42F00402DA6655
:10125000DA6E42EA0902DA669A6D22F0C07242F052
:1012600080729A659A6D22F4C0029A6506F57846F6
:101270004FF400734FF0020ACDE9493444A94FF40A
:1012800000633046CDE9463ACDE9444848944B9452
:101290008DED4C8B02F0A0FA736823F0100373609D
:1012A0002146202244A8ADF8C240CDF8B240CDF886
:1012B000B640CDF8BA40CDF8BE4006F034F9CDE9DD
:1012C0003644CDE93844CDE93A442B6C43EA0A036D
:1012D0002B642B6C03EA0A03A6F596361293129B35
:1012E000D12240F2E7332CA93046ADF8B0302E922F
:1012F00002F0FAFA32684FF0804822F08002326041
:10130000D8F8182442F00802C8F81824602169228D
:10131000CDE944144792012144AA304646944894AA
:1013200002F028FBD8F81824334822F00402C8F849
:101330001824726822F070027260B26822F0800293
:10134000B2602A6B42F001022A632A6B39949FED46
:10135000287B02F0010213924FF0400B36A9139A3A
:10136000CDF8D8B0CDE937A48DED3A7B02F05CF929
:10137000CDE94444CDE9464448946A6C42F40032D5
:101380006A646A6C1E4D02F400321192119AEA6886
:1013900087F819434FF000723A6040F2E73306F5E0
:1013A000A036ADF8103144A9164B45943046479409
:1013B000469302F099FA14481449C0E90244C0E97E
:1013C0000544C0E90744336823F080033360104BC1
:1013D000C0E900134FF48043036101F0A1FC04460F
:1013E000C0B172B6FEE700BF000000000A000000B6
:1013F0000000000002000000000002400064024003
:1014000000ED00E0A401F0FFDC020020005C0040E1
:10141000A086010007239FED820B1A46009301214D
:10142000642004F095FD48F2020004F07BFE40F2D7
:10143000DC5004F0A9FE7E4823465246594604F08B
:1014400035FF7B4823464A46802104F02FFF784829
:10145000234622464FF4807104F028FF7448234647
:101460004FF40071012204F021FFF36843F00103FF
:10147000F360336843F00103336005F06BF8D5F88F
:10148000FC3013F0807300F0BC806A4B25932793E7
:1014900029930823ADF898300423ADF8A030102329
:1014A000ADF8A83060A3D3E90023634CDFF8BCA1FA
:1014B000CDE9222394E80F000DF12C0C4FF0030925
:1014C0001EAE86E80F00CDF8909022AD8CE80F009C
:1014D0000223CDE90953594B0893594B0793594BB4
:1014E0000693594B4FF0AA0E4FF4A07B4FF0010822
:1014F000CDE900EBCDE9048300276FF022030397C9
:10150000029372465B4644A9DAF80000DFF860B146
:1015100000F0DEFA0546CAF8000000F0D3FB4B49A4
:10152000DFF850A1284600F021FC10343A46484923
:10153000484803F0E3F90FCC2CAE0FC60FCC0FC612
:1015400094E8030086E8030004F0C0FC2946836B9E
:1015500006469847AB88EA880092F46B3A463046D4
:101560000621063BA047336C30462CA99847736C84
:101570003949304698474B46424639463046B46C66
:10158000364FDFF8F490364EDFF8F080A0471E208B
:1015900002F0C2FA04F048FD8BED000A10EE100ACA
:1015A000FEF7DAFF02460B463046494605F03CFF9F
:1015B0000024FF23224621462846CDE90234CDE906
:1015C0000078334600F0CCFE04F060FD10EE100A07
:1015D0008AED000AFEF7C0FF02460B4636A82149F5
:1015E00005F022FF4FF47F024FF47F43CDE9022440
:1015F000CDE90073192236AB2146284600F0B0FE33
:10160000C8E7D5F8FC2042F08072C5F8FC20164AE5
:101610005360136843F00103136036E7AFF30080B3
:101620002D431CEBE2360A400030014000640240CA
:101630000004024000000240E09400081127000866
:1016400009270008C1260008A1260008B19B310027
:101650005C05002030030020100000200400002062
:10166000A0020020CC950008001000E068050020D2
:10167000D4020020D8020020C095000800FFFF001F
:1016800082B00C4B002100915A6C42F480425A64A3
:101690005A6C02F480420092009A01911A6C42F056
:1016A00080521A641B6C03F080530193019B02B0BB
:1016B000704700BF0038024070B5244B02688AB002
:1016C00000249A42CDE90444CDE90644089401D0AF
:1016D0000AB070BD1E4D01942B6B1E4843F00103F0
:1016E0002B632B6B03F001030193019B02942B6B83
:1016F00043F002032B632B6B03F0020302934FF4BE
:1017000080721223CDE904230326042304A9CDE922
:101710000763029A01F0B8F810230DEB030104935C
:10172000122305930C4809230893CDE9064601F0DE
:10173000ABF803942B6C43F400032B642B6C03F481
:1017400000030393039B0AB070BD00BF005C004020
:10175000003802400000024000040240FEE700BFE3
:10176000FEE700BFFEE700BFFEE700BFFEE700BFE9
:10177000704700BF704700BF704700BF024A136840
:101780000133136001F006B860050020704700BF08
:10179000704700BF04F0E2BD0148032100F038BFEC
:1017A00000640240F8B52C4C636859050DD4636899
:1017B0001B0506D4284B4FF47C62DA60BFF34F8FD1
:1017C000F8BD264D2868C0B9F4E7244D286810B349
:1017D000FFF796FA08BB2868D0F89810D0F89C401C
:1017E000DFF874C0D0E92423561844EB0307C0E99E
:1017F0002467DCF804301A05DCD5FFF781FAD8B984
:101800002B68D3E92401D3E92626841846EB010589
:10181000C3E92445CEE76368CCE70522214610489A
:1018200004F0A0FF2868FFF77DFA2868FFF734FA74
:10183000002318462B60CFE705220749084804F02B
:1018400091FF2868FFF76EFA2868FFF725FA002253
:1018500013462A60D5E700BF006002409C020020CA
:10186000003C00400120704708B505F0D5FE162366
:1018700003604FF0FF3008BD08B505F0CDFE16231C
:101880000360FEE770B5161E07DD0C468D19AFF339
:10189000008004F8010BA542F9D1304670BD00BFAD
:1018A00070B5161E07DD0C468D1914F8010BAFF349
:1018B0000080A542F9D1304670BD00BF4FF0FF3027
:1018C000704700BF4FF400534B600020704700BFCB
:1018D00001207047002070470C490D4A0B6810B575
:1018E0000C4C121B2BB11844904207D808601846C4
:1018F00010BD094B0B6018449042F7D905F08CFEDF
:101900000C2303604FF0FF33184610BD6405002020
:10191000000001200004000048090020034AD2F81A
:10192000883043F47003C2F88830704700ED00E05F
:10193000DFF834D00D480E490E4A002302E0D45897
:10194000C4500433C4188C42F9D30B4A0B4C002307
:1019500001E013600432A242FBD3FFF7DFFF05F082
:1019600061FEFFF751FA70470000012000000020DF
:1019700080020020E4E400088002002048090020E2
:10198000FEE70000036C13B1B0F844209A61704781
:10199000026C1AB1B0F844301B049361704700BF69
:1019A000836B828F9A617047F8B5456A2B685B0636
:1019B000044672D494F865302BB9236C1BB1B4F88B
:1019C000442012049A612B6823F42C432B602B686B
:1019D00043F040032B600B78012B3CD0022B6FD0DF
:1019E000002B60D1A28F636AA66B48781204B261A3
:1019F00018739A68960707D400BF9A689007FBD5BA
:101A00009A68120603D500BF9A681206FBD48E7836
:101A100001F1030E002E59D070460EEB060C636ADE
:101A2000A76B10F8012BA18FB9611A739A689707F9
:101A300007D400BF9A689107FBD59A68120603D5B0
:101A400000BF9A681206FBD46045E8D10EEB060190
:101A50000B78012BC2D14E7801F1020E002E35D049
:101A600070460EEB060C636AA76B10F8012BA18F72
:101A7000B9611A739A68970707D400BF9A689107EB
:101A8000FBD59A68120603D500BF9A681206FBD4EC
:101A90006045E8D10EEB0601DAE700BF636A1B6818
:101AA0005F0687D5F9E794F8653023B9236C13B145
:101AB000B4F844209A612B6823F040032B60F8BDF2
:101AC00048788E1C02F028F8314684E7714682E798
:101AD0002DE9F04F83B01F46BDF938300093BDF9B2
:101AE0003C30BDF830B0BDF834A09DF840809DF882
:101AF00058900193002900F0CF800C460646002143
:101B000015462046742205F00EFDDDF854C084F819
:101B10004890BCE80F0004F1240EAEE80F00BCE8CA
:101B20000F00AEE80F00DCF80030CEF80030A36AFA
:101B3000002B3CD0E26A6249895C5A5822F00102CB
:101B40005A505A58D20703EB010005D500BF02686E
:101B5000D207FBD494F84890B9F1010F0BD0B9F13A
:101B6000020F0ED15A5822F4F0425A505A5842F4F9
:101B700020525A5005E05A5822F4F0425A505A580E
:101B80005A505A5822F4802222F00E025A504269CA
:101B900022F0800242615A5842F010025A505A58BC
:101BA00022F400725A505A5842F480625A50AF429E
:101BB0003A4638BF2A46BD4228BF3D46B8F1030F1A
:101BC00065D8DFE808F054025402B8F1010F67D07D
:101BD000019BAAEB03039B1A28465946009D0195D9
:101BE0001BB21546D346009302468A46009B63818A
:101BF000019BA3810023194665F30F016BF30F03CB
:101C00006AF31F4362F31F41AB45236061603ED31B
:101C100092453CD3119B002B39D0129B002B36D020
:101C2000119A6261129AA261139AE26117AB149A37
:101C300022620FCB002504F14C0784F8088087E866
:101C40000F00C4E91B5584F8645066B1326F42B18D
:101C50002B461646126F0133DBB2002AF9D184F805
:101C60006430E6663467204603B0BDE8F08FB8F113
:101C7000000FBBD0009BABEB0301019BAAEB03035E
:101C8000491B9B1A09B21BB200910193AEE7742263
:101C90000021204605F047FC002003B0BDE8F08F8E
:101CA000009BABEB03035B1B28465946019D009547
:101CB0001BB21546D346019302468A4696E700BFFB
:101CC0000C960008036B10B504465BB1828E1204BB
:101CD0009A61192001F020FF236BA28E9A611920CE
:101CE00001F01AFF6369207A984701462046FFF702
:101CF0005BFE94F85A10E26C64290B4628BF6423FB
:101D000084F85A300AB3D16A174801FB03F3216DF6
:101D1000A0FB0303B1F5807F4FEA531322D00FD805
:101D200001291DD0102900D193631368DB0706D465
:101D3000136A19431162136843F00103136010BD65
:101D4000B1F5805FF1D11364EFE7636D002BF6D03E
:101D5000B4F8582009B19A6110BD12049A61FBE7EA
:101D60005363E2E7D363E0E71F85EB5110B5C48806
:101D70008388013C82B00022A4B2013BCDE900413E
:101D80009BB2114600F0FDFB02B010BD2DE9F04FF3
:101D900087B08B469B451199BDF9409003918246CF
:101DA00000F089804A4562D0A9EB0207A3EB0B063D
:101DB00087EAE77486EAE670A4EBE774A0EBE670C6
:101DC0008442C84696469C467BDC9B4500F3CA800D
:101DD000C6F3C03505FA86F54A45B7B24FEA650540
:101DE000C0F2FD805A46A6B29946F3464FF6FF78F8
:101DF000BAF804309A4242EA0B0194B226DABAF8F1
:101E000006309B451FFA8BF220DA09041ED400929B
:101E100023462146504600F0D7FA03994A090B0A97
:101E200003F4784302F4F8621A43C1F3C403134382
:101E30009AF84820012A1BB200D1DBBA01220DF129
:101E400016015046ADF8163000F020FBAB1B1DB25A
:101E50000134002D22B29BB204DA3B44C3441DB2CC
:101E60000FFA8BFB4A45C3DD07B0BDE8F08F9B45F9
:101E700002DD58469B460346002BF5DBBAF804000A
:101E80005845F1DD002AEFDBBAF806004845EBDDE6
:101E90000399119129EAE9792BEAEB7B92B210922E
:101EA0009BB21FFA89F21FFA8BF1504607B0BDE8CA
:101EB000F04F00F066BB4A45DEDC484691460246DC
:101EC000DAE74A456BDCC7F3C03505FA87F54FF60C
:101ED000FF78BFB26D109B45B8BF4FF001080646B2
:101EE0008442B6B284DDBAF804309B454BEA020165
:101EF00094B226DABAF806C094451FFA8BF320DDB7
:101F00000A041ED4194622465046009400F05CFA9A
:101F10000398010A430903F4F86301F47841194373
:101F2000C0F3C4030B439AF84810012291421BB23C
:101F300000D1DBBA0DF116015046ADF8163000F0B5
:101F4000A5FAAB1B1DB20134002D22B29BB204DAFC
:101F50003B44C3441DB20FFA8BFB4A45C3DD07B0B7
:101F6000BDE8F08FABEB0307A2EB0906C7F3C03562
:101F7000002E05FA87F5B8BF76424A45BFB24FEA50
:101F8000650525DC5B464A46E3464FF6FF785B4530
:101F9000FFF66AAF944699465A46E346A0E7A2EB9D
:101FA0000907ABEB0306C7F3C035002E05FA87F52A
:101FB000B8BF76429B45BFB24FEA650505DC914646
:101FC0009B4642464FF6FF788AE74B469346E146EA
:101FD000CC461A46D9464FF00108E34680E726462C
:101FE0004FF00108D3E700BF2DE9F04383B004466A
:101FF000DDF82C90BDF9288000920E461546CDF8EC
:1020000004901F46FFF7C2FE33462A46314620465B
:10201000CDE90089FFF7BAFE31463B4642462046ED
:10202000CDE90089FFF7B2FE3B462A4639462046F5
:10203000CDE90A8903B0BDE8F043FFF7A7BE00BFB2
:1020400010B59942BDF908C0039C02DC9E460B46C0
:102050007146624502DCE64694467246002909DB79
:10206000B0F804E09E4505DD002A03DBB0F806E089
:10207000E64500DC10BD2CEAEC7E92B223EAE37C5C
:10208000029203948BB21FFA8EF21FFA8CF1BDE814
:10209000104000F076BA00BF2DE9F04F8BB09046AB
:1020A000159AAE4D02915409C2F3074105EA012188
:1020B00004F4F8642143C2F3C4020A430FFA82FE17
:1020C00090F84810169ADDF850909DF85CC0D9F849
:1020D00004400129C2F3074105EA01214FEA5215E4
:1020E00005F4F86541EA0501C2F3C40545EA0105B6
:1020F00000F010812DB2774699F808209A4204D852
:1021000099F80910994280F09980002399F80010FD
:102110004A1ED21002F1010BBBF1040F03922FDC17
:1021200099F801200BFB03F302FB034A4FEACB03B0
:10213000013B0126446A9E40BCF1000F00F0818003
:10214000F2B100279EFABEF3CDF850900693CDF879
:1021500010B0CDF81CE0B946039A032A15D8DFE881
:1021600002F05F5C621200BFA3681B06FBD4236809
:10217000026C23F04003236012B1B0F84430936145
:102180000BB0BDE8F08FDAF80070049B9A44002988
:10219000F6D0029C00250FFA88FB04E001350134DB
:1021A000A942A4B22EDD07FA05F33342F6D08288A5
:1021B00023B29A4248EA040CF0DDC3885B45EDDDAA
:1021C0001CF4004F2346E9D121464246CDF8008059
:1021D000059000F0F9F8059890F8483001229342F4
:1021E000DDE9061308BF0B460DF12601ADF82630D8
:1021F00000F04CF9149B0598197801350134A94277
:10220000A4B2D0DC149B5B7809F101094B45B7DD22
:1022100008F101081FFA88F89EE7BAF80070B4E7E1
:102220009AF80070B1E79AF802709AF801303F040A
:1022300047EA03279AF800301F43A6E79B1ADBB250
:1022400064E708F1FF3313449BB20093029B013B08
:102250000B444246029902909BB200F0B5F80298F6
:10226000026C1AB1B0F844301B049361836B828F07
:102270009A61236823F040032360236823F42C43EE
:10228000236090F84830022B48D0236843F0400385
:10229000236099F80130002B38D0BBF1010F99F879
:1022A0000030BFB21FFA85FC4FF0000E2AD0BBF100
:1022B000020F45D0BBF1030F45D0DAF80050DA44E5
:1022C00023B3002205FA02F1A36831420CBF614634
:1022D00039469B0703D400BFA3689B07FBD590F842
:1022E0004830022B1FD1E16099F80030013293424F
:1022F000E8DC99F801200EF1010E724506DDBBF114
:10230000010FD4D19AF80050D9E700BFA3689A070B
:10231000FBD529E7EDBA9EFABEF7EDE6236843F454
:1023200000632360B1E7CBB22373A3689B074FEA36
:10233000112103D400BFA3689B07FBD52173D3E70A
:10234000BAF80050BBE79AF802509AF801202D0421
:1023500045EA02259AF800201543B0E700F8FFFF90
:102360002DE9F04F1F4685B01B780E9E9DF844A0C6
:10237000DDE90F8905460C469346F3B13178AA880A
:1023800021449142284609DD7278E98893441FFA76
:102390008BFB5A448A424FF000040EDC2146CDE903
:1023A000029ACDE900685A46FFF776FE317817F8B1
:1023B000013F0C44A4B2002BE1D1EC81A5F810B090
:1023C00005B0BDE8F08F00BF30B52C25B0F80CE0AB
:1023D000BDF80C407444724434B42B25B0F80AE0C4
:1023E00003EB0E0401EB0E032A223CB4D0F824E0E8
:1023F000036C846BB0F84450B0F83CC0DEF80000C9
:10240000010010F04000F9D121F42C4141F04001CD
:10241000CEF8001013B14FEA054098614FEA0C4026
:10242000A06101BC8EF80C00DEF8081011F002016A
:10243000FAD0DEF8081011F08001FAD12C281AD059
:10244000C4F818C0022201BC4FEA10218EF80C100B
:10245000DEF8081011F00201FAD08EF80C00DEF858
:1024600008108900FBD0013AEDD1DEF8081011F018
:102470008001FAD1D2E703B19D61DEF8000020F0BF
:10248000400040F40060CEF8000030BD30B56D4033
:10249000D0F824E0DEF800309C4613F04003F9D178
:1024A0004CF0400CCEF800C0036C23B1B0F844C02F
:1024B0004FEA0C449C61846B808FA0610888CEF841
:1024C0000C002D4305B90231DEF8080010F00200BF
:1024D000FAD0013AF2D1DEF8080010F08000FAD10B
:1024E0000BB1C3F818C0DEF8000020F04000CEF8B1
:1024F000000030BDD0F828C05CEA0C0C3FF4C6AF39
:1025000030B56D40D0F824E0DEF800301C0013F048
:1025100040037FF4BFAF44F04004CEF80040DEF843
:10252000044044F00204CEF80440036C1BB1B0F840
:10253000444024049C61836B848F9C6100F160049F
:10254000C06A182300FB03CC0CF110004FF6FF7398
:102550009A42CEBFD21A13460022226043600EF187
:102560000C0EC0F808E0C16001682D430CBF41F4B7
:10257000806121F4806141F0010121F4007101606A
:1025800030BD30B59942C2BF8E4619467346BDF87C
:102590000C40A242C2BF964622467446B0F804E000
:1025A000AEF1010E714531DCB0F806C0ACF1010CA2
:1025B00062452BDC7345C8BF73466445C8BF64469B
:1025C00082B000945D1A05F10105A41A05FB0455BB
:1025D0000400FFF7F9FE02B00498C0F3C401C0F391
:1025E000852241EA4211C0F3C44241EAC221A4F863
:1025F0006810200000F168012A000125D0F828C0E9
:102600005CEA0C0C3FF444AFFFF77CBF30BD000028
:1026100000B50B00032BC6BF043B4FF00C0E4FF070
:10262000080E0FF2740C1CF803C03F2202FA0CF2E1
:1026300040F80E20182201FB020000F11000016892
:1026400021F001010160016811F00101FBD1134B80
:102650001B681A6E6AB14FF6FF718A42CEBF521ADA
:102660001146002241601A66016841F001010160D3
:1026700000BD586A416821F002014160816811F093
:102680008001FBD11A6C12B1B3F84410916101685A
:1026900021F04001016000BD000610166805002011
:1026A0000138C0B202289CBF034B1B5C034888BFA3
:1026B0000023C375704700BF34CD000840000020E0
:1026C00000B54FEA102C4FF0000E6CF3070E60F3CC
:1026D0000F2E100A60F3174E62F31F6E4FF0000CBE
:1026E0000A0A62F3070C61F30F2C1A0A054862F319
:1026F000174C63F31F6CC0F803E0C0F80AC05DF824
:1027000004FB00BF2C00002000487047240000207C
:10271000004870471C00002038B50E4A0E4B127856
:10272000054618684FF47A73B3FBF2F3B0FBF3F08D
:1027300000F090F808B90F2D01D9012038BD0446EA
:10274000024629464FF0FF3000F048F8034B204680
:102750001D6038BDAD00002000000020B00000204A
:1027600008B50B4B1A6842F400721A601A6842F4FA
:1027700080621A601A6842F480721A60032000F0C6
:102780001BF80F20FFF7C8FFFEF77AFF002008BDF7
:10279000003C0240034A044B11681B780B44136051
:1027A000704700BF6C050020AD000020014B186889
:1027B000704700BF6C0500200749CA6803024FF646
:1027C000FF0003F4E0630240134343F0BF6343F4AC
:1027D0000033CB60704700BF00ED00E01B4BDB68AF
:1027E000C3F3022300B5C3F1070EBEF1040F03F1DA
:1027F000040C28BF4FF0040EBCF1060F1CD9A3F146
:10280000030C4FF0FF3303FA0CF322EA03024FF0FC
:10281000FF3303FA0EF321EA030303FA0CF3134325
:102820001B010028DBB20ADB00F1604000F56140CB
:1028300080F800335DF804FB00229446E7E7044A81
:1028400000F00F00024413765DF804FB00ED00E099
:10285000FCEC00E00138B0F1807F01D3012070472B
:1028600010B44FF0E023074C58614FF0F00C84F89F
:1028700023C00022072110469A615DF8044B1961BC
:10288000704700BF00ED00E02DE9F04FC04B0A6833
:10289000984285B04FF000034FF0010B00F0C48068
:1028A000DFF8FCA2894602E00133102B7BD00BFA43
:1028B00003F101EA02089143F6D1D9F8044004F08B
:1028C000030C590003250CF1FF368D40012E6FEAF1
:1028D00005056BD9BCF1030F40F0748106680CFA52
:1028E00001F13540294314F4403F0160DCD0002160
:1028F0000391DAF8441041F48041CAF84410DAF840
:10290000441001F480410391039923F0030101F184
:10291000804103F003060F2701F59C31B60007FA4A
:1029200006FC9C4F8D68B84225EA0C0576D09A4F7C
:10293000B84200F03B81DFF86CC2604500F03C819A
:10294000DFF864C260450CBF4FF0040C4FF0070C79
:102950000CFA06F635438D6090498968E6026FEA05
:1029600008058E4E54BF294048EA0101B160F16864
:102970008A4EA70254BF294048EA0101F1607168FC
:10298000A603864E54BF294048EA010171603168B0
:10299000E40303F10103814C54BF294048EA0101DB
:1029A000102B216083D105B0BDE8F08F866806EA60
:1029B000050ED9F80C608E4046EA0E068660466821
:1029C00026EA080EC4F300169E4046EA0E0646604C
:1029D000C66806EA050ED9F808608E4046EA0E067B
:1029E000BCF1020FC6607FF479AFDE0800EB86060B
:1029F0000196376AD9F81060009703F0070E4FEA86
:102A00008E0E0F2706FA0EF607FA0EFE009F27EA33
:102A10000E0E019F46EA0E063E625FE74FF0010C84
:102A20000CFA06F6354396E7DFF8708102E00133D1
:102A3000102BB8D00BFA03F402EA04069443F6D143
:102A40004D6805F0030400945F00032404FA07FCBA
:102A5000009C6FEA0C0A04F1FF3CBCF1010F4CD959
:102A6000032C40F0B980009CBC40076807EA0A07C5
:102A70003C4315F4403F0460D9D0494F00240394EF
:102A80007C6C44F480447C647C6C04F48044039447
:102A9000039C23F0030404F1804404F59C3403F008
:102AA00003074FF00F0CBF000CFA07F7D4F808C06B
:102AB0002CEA0707A76015F4801FD8F808406FEAD2
:102AC000060762D13C40C8F8084015F4001FD8F84A
:102AD0000C4058D13C40C8F80C4015F4003FD8F8E1
:102AE00004404ED13C40C8F80440ED03D8F8004003
:102AF00045D43C40C8F8004099E7D0F808E0CC68DD
:102B00000AEA0E0E04FA07FC4CEA0E0CC0F808C0E4
:102B1000D0F804E0C5F3001C2EEA060E0CFA03FC04
:102B20004CEA0E0CC0F804C08C68D0F80CE004FA33
:102B300007FC009C0AEA0E0E4CEA0E0C022CC0F8B0
:102B40000CC090D14FEAD30C4FEA8C0C0C690CF1FD
:102B5000804C03F0070E0CF5003C4FEA8E0E04FA91
:102B60000EF4DCF8209001940F2404FA0EFE019C70
:102B700029EA0E0944EA090ECCF820E073E7344351
:102B8000B8E73443AFE73443A5E734439BE700BFDE
:102B9000000002400004024000080240003C0140E6
:102BA00000380240000C0240001002404FF0020CBE
:102BB0000CFA06F63543CEE64FF0030C0CFA06F697
:102BC0003543C8E6C66806EA050ED9F808608E40A7
:102BD00046EA0E06C66081E6DFF818E08C68DEF88B
:102BE0000C9004FA07FC0AEA09094CEA090CCEF831
:102BF0000CC038E70000024030B50446481C83B0E2
:102C000021D1236802E05A69550505D45A69920713
:102C1000F9D5002003B030BD1A6842F400721A6082
:102C200000216FF4806020225861216384F83D20E8
:102C300084F83E10236C43F004032364002384F8DB
:102C40003C300120E6E720684569AD070346E0D443
:102C500040694005E0D4CDE90012FFF7A7FD019AD5
:102C60000099831A9942206801D30029ECD1436965
:102C70009B07E9D400232022236384F83D2084F8B5
:102C80003E30236C13432364D8E700BF30B50446BD
:102C9000481C83B021D1236802E05A69550505D448
:102CA0005A691207F9D5002003B030BD1A6842F402
:102CB00000721A6000216FF4806020225861216345
:102CC00084F83D2084F83E10236C43F00403236411
:102CD000002384F83C300120E6E7206845692D0791
:102CE0000346E0D440694005E0D4CDE90012FFF787
:102CF0005DFD019A0099831A9942206801D3002949
:102D0000ECD143691B07E9D400232022236384F814
:102D10003D2084F83E30236C13432364D8E700BF82
:102D2000002800F0B88070B590F83D30044603F0FC
:102D3000FF02002B00F098802368242284F83D20B5
:102D40001A6822F001021A601A6842F400421A60FE
:102D50001A6822F400421A6000F056FC4F4B656876
:102D60009D424FD84E4B98427CD94E4B6A00A3FBF4
:102D70000035431EB3FBF2F32268516821F03F0196
:102D800041EA95415160116A4FEA954C0CF1010CF2
:102D900021F03F0141EA0C011162D16940F6FC705B
:102DA000013321F44F41034221F0FF0161D104239B
:102DB0000B43D361D4E907301168034321F0C0010C
:102DC0000B4313609168D4E9030321F403410343E7
:102DD00021F0FF010B439360D4E90530D168034330
:102DE00021F0FF010B43D3601168002341F0010182
:102DF00020201160236484F83D00236384F83E3072
:102E0000184670BD284B98422CD92268254B274E76
:102E1000A3FB003C431E506820F03F0040EA9C406A
:102E200050604FEA9C414FF4967000FB01F1A6FB05
:102E30000161106A890920F03F00013101431162EC
:102E4000D169A06821F44F4121F0FF01A0B905EB41
:102E50004505B3FBF5F30133C3F30B03CBB143F4E7
:102E60000043A5E7012070BD80F83C20FEF724FC5C
:102E700062E7C3F30B039BE705EB850505EB8505CF
:102E8000B3FBF5F30133C3F30B0313B143F4404336
:102E90008EE701238CE70120704700BFA086010068
:102EA0007F841E0083DE1B43FF083D00D34D62106C
:102EB0002DE9F047044682B099460A9F884692461B
:102EC000FFF774FC94F83D30202B04D002252846EF
:102ED00002B0BDE8F08725680646AB699B0717D5A9
:102EE000FFF764FC801B19282568F6D9AB69DB4322
:102EF00013F00203F1D12022236384F83D2084F8EB
:102F00003E30226C84F83C3042F020022264DDE73F
:102F100094F83C30012BD9D0012384F83C302B6845
:102F2000D80765D52B68864A23F400632B602123DC
:102F300084F83D30102384F83E3000232364A4F845
:102F40002A90638DE2622385E36AC4F824A0082BEB
:102F500006D0012B04D0934202D0236B122B03D155
:102F60002B6843F480732B60791C40F0C1806B693F
:102F7000DA07FCD52369B3F5804F3ED108F0FE0394
:102F80002B61324639462046FFF736FE05460028BB
:102F900029D1236801905A6901929A69208D019282
:102FA000019A002869D07A1C79D15A69110638D45F
:102FB0005A695205F9D500226FF4806020215861CA
:102FC000226384F83D1084F83E20226C42F0040213
:102FD0002264226C0021042A84F83C1003D11A6870
:102FE00042F400721A600125284602B0BDE8F0875D
:102FF0002B6843F001032B6094E74FEAE81303F0DA
:10300000060343F0F0032B61324639462046FFF7B2
:103010003DFE0028E7D122685FFA88F31361B0E72C
:10302000208DD4F824C0614611F8012B1A61628DFD
:103030006162013A92B262855969421E92B24907B1
:1030400022850CD55AB19CF801201A610CF10202BC
:103050006262628D013A023892B220856285781CE4
:103060002BD15A69510705D45A695205A3D45A691C
:103070005107F9D5208D002897D11A68002142F414
:10308000007220201A6084F83D0084F83C1084F817
:103090003E101CE71FB95A6912F080021ED05A690F
:1030A0001006BDD45A69520585D4FFF77FFB831BF8
:1030B0009F422368EFD3EDE767B15A6951073BD4CC
:1030C0005A6950053FF577AFFFF770FB831B9F42AE
:1030D0002368F1D25A6912F00402EED12021226352
:1030E00084F83D1084F83E20226C0A43226470E785
:1030F0006B69D9073FF53EAFFFF758FB831B9F4233
:10310000256801D3002FF3D16B69DB07F0D40022CF
:103110002023226384F83D3084F83E20236C84F819
:103120003C2043F0200323642B68D8057FF55BAF78
:103130004FF40073236456E7208D0028AFD19CE73D
:103140000000FFFF2DE9F043044687B098460E9E2D
:103150000F469146FFF72AFB94F83D30202B04D010
:103160000227384607B0BDE8F0830546206883692A
:103170009B0717D5FFF71AFB401B19282068F6D9C3
:103180008369DB4313F00203F1D12022236384F827
:103190003D2084F83E30226C84F83C3042F020021E
:1031A0002264DDE794F83C30012BD9D0012384F868
:1031B0003C300368D90753D503689C4A23F4006365
:1031C0000360222384F83D30102384F83E3000232E
:1031D0002364A4F82A80638DE262E26A238503688F
:1031E000C4F8249043F48063082A036007D0012ABE
:1031F00005D012F5803F02D0236B112B03D1036859
:1032000043F480730360721C40F020814369DB0744
:10321000FCD52369B3F5804F27D147F00103DBB21A
:1032200003612A4631462046FFF7E6FC07460028A0
:1032300033D1228D2368002A34D101905A6901923A
:103240009A690192019A1A6842F400721A60002386
:10325000202284F83D2084F83C3084F83E3080E71A
:10326000036843F001030360A6E74FEAE71808F09C
:10327000060848F0F00303612A4631462046FFF76E
:1032800005FD50B92368FFB21F612A46314620462A
:10329000FFF7B2FC002800F0B3800127384607B0E2
:1032A000BDE8F083012A196800F07C81022A00F051
:1032B000BF8041F480611960049059690491996953
:1032C00004910499032A47D8012A00F04281022A76
:1032D00000F01681711C67D15A695207FCD51A6833
:1032E000616A22F480621A601B690B70638D616AE7
:1032F000228D013B9BB2013A01316385731C22850B
:10330000616222686CD153695807FCD5136843F495
:103310000073136013690B70638D228D606A2168DE
:10332000013B9BB263850969531E00F1010C2385A3
:10333000C4F824C04170228D638D616A013A013B5B
:10334000013192B29BB2616222856385002A3FF40B
:103350007EAF032A2368B7D95A69520600F1A780C5
:10336000002E00F0A0800CE0FFF720FA401B864200
:10337000236802D25A69510624D55A69520600F1CF
:1033800096805A69D006EFD500226FF010002021F8
:103390005861226384F83D1084F83E20236C236436
:1033A00084F83C20012779E75A69520797D4FFF740
:1033B000FDF9431B9E42236801D3002EF4D15A69C4
:1033C0005107F1D400222023226384F83D3084F891
:1033D0003E20236C84F83C2043F0200323645CE708
:1033E00053695B0700F1EC80FFF7E0F9431B9E4255
:1033F000226801D3002EF3D153695907F0D4E1E7D5
:10340000226805905369059393690593059B13689A
:10341000711C43F48073136040F0D4805369DB0760
:10342000FCD548F0F1031361FBE600BF0000FFFF8D
:1034300021F480611960196841F4006119600390FA
:10344000596903919969039103993BE74369DB0744
:103450003FF5DFAEFFF7AAF9431B9E42206801D378
:10346000002EF3D14369D907F0D400222023226330
:1034700084F83D3084F83E20236C84F83C2043F0EF
:10348000200323640368DA057FF507AF4FF4007368
:10349000236402E7FFF78AF923685A69510691D538
:1034A0005A69520603D45A69D006F3D56CE7626AAA
:1034B0001B691370638D2168228D606A013B9BB28A
:1034C00063854B69013A92B200F1010C5B072285DA
:1034D000C4F824C07FF53AAF032A03D10B6823F464
:1034E00080630B600B694370636A228D01336362F2
:1034F000638D013A013B92B29BB22285638525E739
:10350000701C17D15A695107FCD51A6842F4007231
:103510001A601A69636A1A70638D626A013B9BB212
:103520006385238D013B23852368511C1B696162E0
:103530005370D9E75A695007E7D4FFF737F9431BAF
:103540009E42236801D3002EF4D15A695207F1D468
:1035500038E75A69500621D4E6B10CE0FFF726F9A6
:10356000401BB042236803D95A6952067FF52AAF3F
:103570005A69500612D45A69D1063FF505AFEDE7F6
:10358000FFF714F923685A6952067FF51BAF5A6991
:10359000500603D45A69D106F2D5F5E61A69636A72
:1035A0001A70A1E721F480611960029059690291B3
:1035B000996902910299196841F40071196081E6D4
:1035C000616AA3E65369D9073FF52BAFFFF7EEF821
:1035D000431B9E42226801D3002EF3D15369DF07BB
:1035E000F0D400212023216384F83D3084F83E107C
:1035F000236C84F83C1043F0200323641368D8053F
:103600003FF544AF49E600BF044B05499B68054AB6
:103610000868C3F38223D35CD84070470038024067
:1036200000000020049600082DE9F0470D6895FA87
:10363000A5F2002A7AD0B2FA82F235FA02F375D0F6
:103640004FF0010C4FF0030E31E0D1F81080C76845
:1036500093FAA3F434B1B4FA84F464000EFA04F4D7
:1036600027EA040793FAA3F434B1B4FA84F46400AB
:1036700008FA04F847EA0807022EC76040D093FA18
:10368000A3F4076834B1B4FA84F464000EFA04F4C5
:1036900027EA040793FAA3F323B1B3FA83F35B0099
:1036A0009E4037430760013235FA02F33ED00CFAF0
:1036B00002F32B40F7D04E68741E012CC5D893FA44
:1036C000A3F4D1F80880876834B1B4FA84F46400B4
:1036D0000EFA04F427EA040793FAA3F434B1B4FA17
:1036E00084F4640008FA04F847EA0807876047682A
:1036F000CC6827EA030703FB04F43C434460A4E7D7
:103700004F6993FAA3F4A4B1B4FA84F4072C10DC43
:10371000A40007FA04F94FF00F08076A08FA04F446
:1037200027EA040747EA09070762A8E70020BDE87F
:10373000F0871C0AD0F8248094FAA4F9B9F1000F9C
:1037400009D0B9FA89F94FEA89094FF00F0A0AFA44
:1037500009F928EA090894FAA4F42CB1B4FA84F41B
:10376000A400A74048EA0708C0F8248087E700BF04
:10377000B0F5000F01D000207047134B9A68120279
:1037800020D4186810F000601BD010B45C68596831
:10379000D3F88420D3F884300C4814F4800F0C4CF8
:1037A000C2F3881218BF204601F03F01C3F3027331
:1037B000B0FBF1F05DF8044B02FB00F0B0FBF3F05E
:1037C0007047704703487047003802400024F400F7
:1037D00040787D010080BB0003685B06024629D467
:1037E00030B414680B684D68486924F47F4C8C68C9
:1037F0002B432343CC6823430C6923438C69034345
:103800002343CC6923430C6A2CF0BF0C234343EAC7
:103810000C031360536823F0040343EA1043B4F528
:10382000005F53600CD0D36923F40063002030BCE8
:10383000D3617047D36923F400630120D3617047DB
:103840008B8C1361EFE700BFC3695B053AD470B599
:10385000C2690D46D1E9003122F4336204460B43BC
:10386000A868296922F00F0213436A6903431343CE
:1038700043F400630229E36126D000284FF40000DE
:1038800014BF40262026FFF773FFEA68B2F5007FD9
:103890001FD0B0FBF6F303EB830329695B00B3FB96
:1038A000F1F305330F49A1FB03131909881EFD2805
:1038B000C3F3C00394BF41EA0321022111432162F3
:1038C000002070BD01207047EA681143216200208A
:1038D00070BD000A00EB800029694300B3FBF1F3DF
:1038E0000533DFE7CDCCCCCC30B4204D8C680368F9
:1038F0000A88A8422CD0B0F1804F17D0A5F57C459E
:10390000A84213D005F58065A8420FD005F5806563
:10391000A8420BD0164DA8420CD005F58065A842F0
:1039200008D005F58065A84208D103E04D6823F072
:1039300070032B43C96823F440730B430360C462D4
:103940008262436943F00103436130BC0020704749
:103950004D6823F070032B43CD6823F440732B4351
:103960000360C46282620B690363EAE700000140FE
:1039700000400140B1F5807F30B44CD025D80129FA
:1039800067D0102944D1036A156923F0100303623C
:10399000036A4468816923F0200343EA051315682C
:1039A00021F4E64141EA0521556823F0100343EA7A
:1039B0000513584DA84200F09180D268446081619F
:1039C00082630362002030BC7047B1F5805F1FD175
:1039D000036A156923F480530362036A4468C1696A
:1039E00023F4005343EA0533156821F4E64141EA24
:1039F0000521556823F4805343EA0533454DA84219
:103A000000F08180D2684460C16102640362D9E73A
:103A1000012030BC7047036A156923F48073036288
:103A2000036A4468C16923F4007343EA05231568F7
:103A300021F073012943556823F4807343EA052379
:103A4000344DA84235D0D2684460C161C26303627C
:103A5000B8E7036A156923F001030362036A446847
:103A6000816923F002032B43156821F07301294378
:103A7000556823F001032B43264DA84205D0D26898
:103A800044608161426303629CE7556923F0080347
:103A900043EA8503956924F480742C43956823F0E8
:103AA000040343EA8503D56924F4007444EA450419
:103AB000E5E7556923F4006343EA8523956924F417
:103AC000805444EA0514956823F4806343EA85230F
:103AD000D56924F4005444EA4514B4E7556923F049
:103AE000800343EA8513956924F4806444EA8504DD
:103AF000956823F0400343EA8513D56924F40064F4
:103B000044EAC50459E7956924F4804444EA8514DD
:103B100078E700BF000001404FF0E02382B01B694E
:103B20000193421C019B18BF01304FF0E022136942
:103B3000DB03FCD50138FAD102B07047014B1860A5
:103B4000704700BF0000002001F0D8BB01F0F2BABE
:103B500038B5054C4FF00055A56101F0D5FB4FF489
:103B60000053A36138BD00BF000802402DE9F843AF
:103B7000002306688B758269002A00F0A680C26A5D
:103B8000013205460C4627D0F1680A88CAB11F46A3
:103B900002F520539BB2B3F5006F4FF00208C0F05E
:103BA000B080002040F2623142EA004001F04EF95C
:103BB000FF28C7F1FF0940F28A80B9F1010F00F236
:103BC000AA800027E31900229A75E869A17D03788D
:103BD000202B06D1002209E0E86919460378202B42
:103BE000F8D0052B08BFE523637201224378202B10
:103BF00005D0A518052B08BFE5236B720132837829
:103C0000202B05D0A518052B08BFE5236B720132C8
:103C1000C378202B05D0A518052B08BFE5236B72B0
:103C200001320379202B05D0A518052B08BFE52309
:103C30006B7201324379202B05D0A518052B08BFE4
:103C4000E5236B7201328379202B05D0A518052B53
:103C500008BFE5236B720132C379202B00F09B80F3
:103C6000052B04EB020508BFE5236B72531C027A97
:103C7000202A09D05D1CE618052A254408BFE52244
:103C80002E27777202336A72427A202A75D0052A6B
:103C900004EB030508BFE5226A72827A202A03F149
:103CA00001033ED02344052A08BFE5225A720022B0
:103CB0009A7200293AD0C37A03F03F032372C36992
:103CC0002360C38AE380038BA380BDE8F8830028C8
:103CD0003FF477AFB9F1000F3FF473AFE319987574
:103CE0000123F16831F808201F4408F10208002A76
:103CF0003FF468AF02F520539BB2B3F5006FBFF4F9
:103D000050AF31F8083008F10208002B3FF459AFEA
:103D100010461A4646E7E219030A9375D075022346
:103D2000DFE7234400225A720029C4D1637AE3B149
:103D300004F1090208250CE0192905D8017B0D4280
:103D400003F1200600D0F3B253735378511C53B1E2
:103D50000A462E2BA3F14101EED15373537810255F
:103D6000511C002BF4D1131B083B234400229A75ED
:103D7000037B002B9FD163729DE7827A202A91D129
:103D8000E21800255572002995D1002BCED13F2392
:103D9000A3750123E9E7134669E700BF70B54FF04B
:103DA000FF360023B14204460371866238D194F88D
:103DB0002C30B4F82A52EB2B0AD01833DBB2012B8B
:103DC00006D94AF6552085420CBF0220032070BD5B
:103DD0004AF655239D4209D0B4F837305A1E1A428C
:103DE00002D1B3F5007F29D0032070BD284E04F125
:103DF0007E024FF0080C12F8010B16F8011B431A53
:103E000002D1BCF1010CF6D1002B36D0B4F837301A
:103E10005A1E1A4202D1B3F5007F30D0022070BD85
:103E20000D460A464078012304F12C01FFF790FE6D
:103E300008B9A562BBE7A662042070BD94F83930CA
:103E4000002BD1D05A1E1A42CED1638F002BB8D08E
:103E500094F83C30013B012BB3D8B4F83D30002B33
:103E6000AFD0B4F83F307F2B03D8E36CB3F5803F7D
:103E7000A7D3B4F84230002BA3D0002070BD94F833
:103E80003930002BCAD05A1E1A42C7D1DDE700BF15
:103E9000D8950008F8B5046800230B60002C00F0EA
:103EA0009B80224602E03A2B00F0908012F8013B02
:103EB0001F2BF8D8694B1C68002C00F08F800C6019
:103EC0002378607823B1FFF73FFEC7076CD5607891
:103ED00000232370FFF73AFE10F0010166D120465F
:103EE000FFF75CFF022863D0042800F081800128DE
:103EF0006AD8B4F83730A06AB3F5007F64D1B4F85B
:103F0000421001B9216D94F83C206161531E012BD0
:103F1000E27059D894F839306381002B54D05D1E7B
:103F20001D4251D1B4F83D5025812E074CD1B4F833
:103F30003FC0BCF1000F01D1D4F84CC0678F002FF7
:103F400042D001FB02F207EB1516164466453BD83A
:103F5000ACEB060C9C45BCFBF3FE35D3404B9E45B9
:103F600032D84FF6F57CE645064407440EF10203CD
:103F700068D840F6F57CE645A06166622361E7619A
:103F800055D90DB33A445B00022003F2FF13B1EBA5
:103F9000532F226218D3334A3349138820700133D8
:103FA0009BB21380E380E1600020F8BD0320F8BDE0
:103FB000D4F8F211D4F80252D4F81272D4F8226272
:103FC000C1B9FDB93FBB5EB90D20F8BD2378302BD8
:103FD00002D10234A24228D00B20F8BD0C20F8BD3B
:103FE00031462046FFF7DAFE012882D90428EBD1BA
:103FF0000120F8BD2046FFF7D1FE01287FF679AFFA
:10400000002DDFD029462046FFF7C8FE01287FF6A5
:1040100070AF002FD7D039462046FFF7BFFE0128EA
:104020007FF667AF002ECFD0DAE7026042E7002DBF
:10403000CAD003EB430003F0010303EB50033A44FF
:104040000120A2E7B4F8562023612A43C4E90607F9
:104050006662B9D1A26D9B00032096E77407002029
:10406000F5FFFF0F7007002070050020012930D9EF
:10407000036999422DE9F0410C46064602D301201E
:10408000BDE8F0810378022B33D0032B23D0012B22
:10409000F5D1C169806A04EB540801EB58278742C7
:1040A00047D1C8F3080308F10108334401EB58274E
:1040B000874293F82C5047D1C8F30803334493F850
:1040C0002C3045EA0320E3074CBF0009C0F30B0086
:1040D000D6E701207047C569836A05EBD1159D427B
:1040E0001DD1A40004F4FE743019C06A20F07040A1
:1040F000C6E7C569836A05EB11259D4205D16300BA
:1041000003F4FF733344988DBAE7407801232A46BD
:1041100006F12C01FFF71CFD00BBB562EFE740780C
:1041200001232A4606F12C01FFF712FDB0B9B56252
:10413000D7E770783A4606F12C01FFF709FD68B918
:10414000F169B7623846ACE7707801233A4606F168
:104150002C01FFF7FDFC08B9B762ADE74FF0FF3067
:10416000B0628DE72DE9F0478468076800230646B2
:1041700003619CB93B78022B0CD83B89002B47D0BC
:104180003B6AC6E90543002B42D02C37F76100207B
:10419000BDE8F0873B6A002BEFD01C467B89002BE3
:1041A00040F08480012C33D03D462B69A3422FD9A7
:1041B0002B78022B3DD0032B2DD0012B28D1E86981
:1041C000A96A04EB540800EB5829894561D1C8F36A
:1041D000080308F101082B4400EB582A8A4593F89C
:1041E0002C9032D1C8F308032B4493F82C3049EAC1
:1041F0000329E3074CBF4FEA1914C9F30B04012C40
:1042000006D93B69A34203D935682B69A342CFD8AD
:104210000220BDE8F087EA69AB6A02EBD418984542
:104220001ED1A30003F4FE732B44DC6A24F0704417
:10423000E5E7EA69AB6A02EB142898451DD16300F3
:1042400003F4FF732B449C8DD9E768780123524611
:1042500005F12C01FFF77CFC50B9C5F828A0C1E797
:1042600068780123424605F12C01FFF771FC30B359
:104270004FF0FF33AB620120CBE768780123424661
:1042800005F12C01FFF764FC0028F1D1C5F8288066
:10429000D5E768784A4605F12C01FFF759FC00285C
:1042A000E6D1E869C5F82890494690E73A69A11E29
:1042B000023A914206D27A6A01FB032361E7C5F80C
:1042C0002880AEE70023C6E90543A1E72DE9F04FBA
:1042D000D0F800E089B004460E4611F8013B2F2BC0
:1042E000FAD05C2BF8D00023A36030781F2840F26E
:1042F000A48273467746B146DE6830B90023338026
:104300000625284609B0BDE8F08F09F10109A6F19C
:104310000208002540F2623100F0B4FD0346002897
:10432000EED01F28A64A19D92F2800F0D7825C2882
:1043300000F0D4827F2808D812F8010B08B1984207
:10434000FAD1013A1278002ADAD1FF2DD8D028F814
:10435000023F19F8010B01350028DBD14FF0040AA8
:10436000002DCBD006EB450131F8023D202B01D0CA
:104370002E2B03D1013DF7D13580C1E7002326F86C
:1043800015303188202906EB450008BFB44640F0BF
:104390005D823CF8021F2029984603F10103F8D002
:1043A00008F102084AF0030A034601E0013D03D088
:1043B00033F8022D2E2AF9D104F1200001900B23AD
:1043C0004FF0200C1B4303D000F801CB013BFBD185
:1043D000002900F06982002208239346202900F07A
:1043E0009F812E2900F0A6815B4500F2AF810B2B47
:1043F00000F03C82454500F0A2814AF0030A80F0BB
:104400009E8194F82010E52904BF052184F820102E
:10441000082B00F0BC8102F00C030C2B04D002F03E
:104420000303032B40F0BC814AF0020A84F82BA05E
:104430002046D4F800B0FFF795FE0546002840F06E
:10444000A0814FF0FF0C4FF0FF3A0BF12C03A6694F
:10445000CDF81490C4F82CA0E0460497CDF800C025
:104460009946DBF82830B34212D09BF801000123B3
:1044700032464946FFF76CFB40B101254FF0FF3350
:104480002846CBF8283009B0BDE8F08FCBF828607B
:10449000E6693278B2B1F37AE52A03F03F01A171FF
:1044A00004D013F008052AD00F295BD0C4F82CA043
:1044B0004FF0FF08256927682035B5F5001F08D3A0
:1044C0000023A36194F82B305A0700F1FA810525E7
:1044D00017E7A669002EF5D0C5F3080353B9616943
:1044E0000136A661002940F0A1803A89B2EB551F40
:1044F00040F212812C371F442561E761B1E70F2993
:1045000030D0B8F1000F00F0B48094F82B8018F090
:10451000010FCBD1019F0B2216F8010B17F8011BDD
:10452000B0EB010C01D1013AF6D1BCF1000FBDD1C5
:10453000DDE9047918F0040F7FF4E3AEDB06C6D59D
:1045400022693978C2F3080207F12C0313440329C6
:104550005A8B04BF9B8A42EA0342A260236899F8FF
:104560000000C9E694F82B305F06A3D4550640F14D
:10457000CF80236902F0BF08727B0092E362737BF5
:10458000009A934294D1738B002B91D135780D4AC8
:10459000DBF80C10CDF8188005F03F05013D05EB68
:1045A0004503012705EB8305B8460294CDF80C902E
:1045B000079102F10D0337460C46914618E000BF03
:1045C000E4950008B8CD0008FF2D404600F2768142
:1045D00000F06CFC064634F8150000F067FC8642DB
:1045E000BB4B05F1010540F069814B4500F0488166
:1045F00019F8016B404637F806800028E4D13E46A2
:104600004A464746DDE90249DDF818804FF6FF705B
:1046100002E012F8011B775A87427FF449AF9A42B1
:10462000F7D108F1FF385FFA88F843E77A89013A51
:1046300012EA55227FF45EAF3846CDE90232FFF729
:1046400015FD012840F2C080411C00F0BB80396993
:104650008842DDE9023280F0B980023960610238B7
:1046600088423BBF7A897E6A1E4600FB0266A661CD
:1046700040E731787278C80140EA51001044C0F335
:104680004601B27841EAC01152FA81F1C1F3460005
:10469000F27840EAC11052FA80F0C0F34601327954
:1046A00041EAC01152FA81F1C1F34600727940EA41
:1046B000C11052FA80F0C0F34601B27941EAC0114C
:1046C00052FA81F1C1F34600F27940EAC11052FA80
:1046D00080F0C0F34601327A41EAC01152FA81F10A
:1046E000C1F34600727A40EAC11052FA80F0B17A02
:1046F000C0F3460242EAC01251FA82F20099D2B2E5
:104700008A427FF402AFDDE9047994F82B8011E747
:1047100042457FF4CDAE32E794F82B30A161D3E669
:104720004AF0030A36F8181008F1010800297FF44E
:1047300055AE66E64545F3D10B2B00F0978092000D
:10474000D2B2A8460B234FF0080BEBE74545F3D058
:104750007F293FD8DFF880C11CF8010B08B18842DF
:10476000FAD1BCF1010C9CF8000000284BD04AF0B3
:10477000030A5F2104EB0B000BF1010B80F8201002
:10478000D0E7042894F82B303FF49EAEB9E54FEA09
:10479000820C0CF00C030C2B5FFA8CF23FF444AE4D
:1047A0000AF00203002B7FF441AE42F3000303F052
:1047B00010034AEA030A530744BF4AF008025FFAAB
:1047C00082FA33E601259CE502259AE594F82B3020
:1047D000A26179E6029308464AF0020340F2623190
:1047E0000092039300F032FB10F0800F009A029BBE
:1047F000014611D000F07F013648415CDDF80CA085
:104800000029B4D0A6E7A1F1410080B2192823D82D
:1048100042F00202C9B2ADE7FF28EFD9581E584551
:1048200051D904EB0B004FEA112CDDF80CA080F8F5
:1048300020C00BF1010BC9B29CE78023204684F80D
:104840002B3009B0BDE8F04FFFF78CBC2E294FF09C
:1048500001087FF4A9ADA5E5A1F1610080B2192896
:104860009CBF203942F00102C9B283E794F820309E
:10487000E52B02D1052384F820304AF0030ACAE56B
:104880003E46DDE90249337858064746DDF8188090
:104890007FF5C7AE002F3FF4C4AE079B33F8153049
:1048A000002B3FF4BEAE03E694F82030E52B7FF4F6
:1048B000BDAD05230A4684F8203071E7DDE90249E1
:1048C000F6E504251DE54AF0030A9B462AE700BFEA
:1048D000C5CD000838CD0008F09500084B461A7881
:1048E0002F2A994603F10103F9D05C2AF7D01F2A39
:1048F0008CBF002201224FEA820A31E500B583B065
:10490000CDE9001021B38C4601E03A2B1AD01CF8F7
:10491000013B1F2BF9D8104B196811B1002018600A
:104920000870019911B10020088019601AB9104669
:1049300003B05DF804FB01A96846FFF7ABFA03B0CA
:104940005DF804FB0B78302B02D102318C45E2D0AC
:104950000B2003B05DF804FB7407002030B585B070
:10496000019170B3044603A901A8FFF793FA18B1A7
:104970000023236005B030BD039D019925602046CA
:10498000FFF7A4FCC8B994F92B30002B0BDBA379FB
:10499000DB0614D52978E2690329538B04BF928A78
:1049A00043EA0243A360EB88A3802046FFF7DAFBCB
:1049B000042804D00028DDD0DAE70428D8D1052067
:1049C000D6E7092005B030BD98B1036810B504469C
:1049D0002BB11A781AB18188DA88914201D0092066
:1049E00010BD5878FFF7B0F810F00100F7D1206043
:1049F00010BD0920704700BF2DE9F04F85B048B1C8
:104A00000368044633B11A7822B1DA88894681886E
:104A1000914205D04FF0090A504605B0BDE8F08F2D
:104A20005878FFF791F810F0010AF3D1B9F1000FAF
:104A300000F0C180A6692768002E33D0FF230193C0
:104A4000984607F12C0BBB6AB34212D07878012349
:104A500032465946FFF77CF850B14FF0FF32002341
:104A6000BA62A3614FF0010A504605B0BDE8F08F6D
:104A7000BE62E369197899B1DA7AE52902F03F025A
:104A8000A27105D02E2903D022F02000082878D169
:104A900025694FF0FF082035B5F5001F236837D38F
:104AA0000023A36149462046FFF760F82569266880
:104AB0002035B5F5001F7BD2A369002BACD0C5F320
:104AC000080707BB61690133A361002900F0D980A1
:104AD0007389013B13EA552815D13046FFF7C6FA12
:104AE000012840F2AF81431CBCD0336998425FD2A9
:104AF000023B60610238984203D27289736A00FBFC
:104B00000238C4F818802C363E442561E66183E7FC
:104B1000A669002EC4D0C5F3080222B12C33134479
:104B20002561E3618FE761690136A66149B91A8998
:104B3000B2EB551FB4D92C332561E361002E82D12D
:104B4000B0E75A89013A12EA5522F4D11846039285
:104B50000293FFF78BFA012840F29E80421C25D079
:104B6000029B196988429BD20239606102388842EF
:104B7000039A80F08C805A895E6A00FB0266A66107
:104B8000D9E70F2A40F08B80480625690BD55A7B60
:104B9000019201F0BF08E5625A7B01998A4210D068
:104BA0004FF0FF0877E74145FAD1F5E74FF0010AEA
:104BB0000023A36130E7204605B0BDE8F04FFFF7C2
:104BC000D1BA5A8B002AEBD11A7822F04002013A6E
:104BD00002EB420102EB8102FF2AB3F80110DFD899
:104BE000F86820F812104FEA420CB3F8036000296D
:104BF00040F0A6804FF6FF729642D1D1B3F805E09F
:104C00004FF6FF729645CBD1B3F807604FF6FF72AF
:104C10009642C5D1B3F809E04FF6FF729645BFD171
:104C2000DE894FF6FF729642BAD1B3F810E04FF624
:104C3000FF729645B4D15E8A4FF6FF729642AFD1AD
:104C4000B3F814E04FF6FF729645A9D1DE8A4FF60D
:104C5000FF729642A4D1B3F818E04FF6FF72964562
:104C60009ED19E8B4FF6FF72964299D1B3F81EE00B
:104C70004FF6FF739E4593D108F1FF385FFA88F82D
:104C800009E73389B3EB551F3FF63DAF90E72C336F
:104C9000A2612561E36105E74FF0020A88E7B8F1F8
:104CA000000F49D1197858785D7ACA0142EA510259
:104CB0000244C2F34601987841EAC21150FA81F1E8
:104CC000C1F34602D87842EAC11250FA82F2C2F326
:104CD0004601187941EAC21150FA81F1C1F3460246
:104CE000587942EAC11250FA82F2C2F34601987929
:104CF00041EAC21150FA81F1C1F34602D87942EA81
:104D0000C11250FA82F2C2F34601187A41EAC21186
:104D100050FA81F1C1F3460242EAC11255FA82F219
:104D2000987AC2F3460343EAC21350FA83F3019A16
:104D3000DBB293423FF4B6AE4FF0FF33E362B1E62D
:104D4000FF2A02F101013FF42BAF20F81160490066
:104D5000B3F805E0002E3FF453AFFE2A3FF420AF36
:104D60000144A1F802E0B3F80760BEF1000F3FF480
:104D70004DAFFD2A3FF414AF8E80B3F809E0002E4A
:104D80003FF44AAFFC2A3FF40BAFA1F806E0DE89FE
:104D9000BEF1000F3FF445AFFB2A3FF401AF0E8197
:104DA000B3F810E0002E3FF442AFFA2A3FF4F8AE19
:104DB000A1F80AE05E8ABEF1000F3FF43DAFF92A88
:104DC0003FF4EEAE8E81B3F814E0002E3FF43AAF1C
:104DD000F82A3FF4E5AEA1F80EE0DE8ABEF1000F3E
:104DE0003FF435AFF72A3FF4DBAE0E82B3F818E09C
:104DF000002E3FF432AFF62A3FF4D2AEA1F812E013
:104E00009E8BBEF1000F3FF42DAFF52A3FF4C8AEE4
:104E10008E82B3F81EE0002E3FF42AAFF42A3FF44E
:104E2000BFAEA1F816E01B7859067FF525AFBEF19D
:104E3000000F3FF421AFF32A3FF4B2AE60440023E9
:104E4000438319E74FF0020AE6E500BF7F2801D847
:104E500080B27047B0F5803F03D240F2623399428E
:104E600001D000207047064A002302E00133802B66
:104E7000F7D032F8021B8142F8D1803398B27047E4
:104E800078D000087F2804D940F26233994201D0DB
:104E900000207047FF28FBD800F10040024B80380B
:104EA00033F81000704700BF78D00008B0F5803F9D
:104EB0001ED2264B264A30B584B2B4F5805F38BF87
:104EC000134604330DE08C4210D333F8022C5FFA02
:104ED00082FC0CEB010E70454FEA122209DB043311
:104EE00082B133F8041C1D460029ECD1204630BDA8
:104EF0007047082AFAD8DFE802F0241E1B181512A2
:104F00000F0C080005EB4C03DBE7A4F5E354A4B257
:104F1000ECE7503CA4B2E9E70834A4B2E6E71A3C57
:104F2000A4B2E3E7303CA4B2E0E7203CA4B2DDE762
:104F3000103CA4B2DAE7631A03F00103E31A9CB24F
:104F4000D4E7401A33F81040D0E700BFC8CD0008BE
:104F500084CE000870B483B03F4CFF238DF8073037
:104F6000A36D23F00103A365236F23F001030E4615
:104F70002367A36DDB07FCD4236FDD07F9D44FF063
:104F80007C63A3603F23E360344B354D596841F0A7
:104F900003015960A16D2940A165E16E21F08001F6
:104FA000E166216F29402167D4F8841021F0800147
:104FB000C4F88410196841F040011960A36D0028FD
:104FC00039D023F4C063A365236F23F400732367F0
:104FD000236F43F4806323670DF10703E66763667D
:104FE0001D49204B8B670B664A67CA658B6D43F082
:104FF00001038B650B6F43F001030B674B689C0645
:10500000FCD50B681801F9D50B6F134A23F0010387
:105010000B678B6D23F001038B65136FD907FCD4ED
:10502000936DDB07F9D40D4A536823F003035360F3
:1050300003B070BC704723F40073A365A36D43F401
:105040008063A365236F23F4C06323670DF1070317
:10505000E3676666C4E700BF0060024000380040B6
:10506000E1FFFBFF0C380040020638B504460D4650
:1050700053D42E4B2E4A4FF4805199614FF08051FA
:105080009961FF23D3609368DB07FCD5D368284A76
:10509000FF21D1609368D807FCD5D368DBB2FF2B22
:1050A000F7D12349D4608B68DB07FCD5204ACB6855
:1050B000182125FA01F3DBB2D360936813F00103E2
:1050C000FBD0083911F1080FD068F2D1402C1AD06A
:1050D000482C08BF8723164AD3609368DD07FCD5A8
:1050E0004C2CD36811D0124A0A21FF24D460936853
:1050F000D807FCD5D368D8B21B0603D54B1E13F0D6
:10510000FF01F3D138BD9523E5E7FF230849D360BC
:105110008B68DC07FCD5CB68E5E700217720FFF73B
:10512000A3FF0128EED804F07F04A2E700040240A8
:105130000038004070B56D486D4A4FF4805382B01E
:105140008361136823F040031360136823F038036E
:105150001360136843F03003136013684FF08055F9
:1051600043F0400313600A24FF218561D1609368F6
:10517000DD07FCD5631E13F0FF04D068F6D121468D
:105180004020FFF771FF0128054629D05949574BA8
:105190004FF480520C709A6157480378DC0718D49A
:1051A0005249534A4FF08054FF238C61D360936877
:1051B000D907FCD5D3684E4AFF21D1609368DB073D
:1051C000FCD5D368DBB2FF2BF7D1484B4FF48052AC
:1051D0009A61037843F001030370007802B070BD58
:1051E0004FF4D5714820FFF73FFF012819D101AED8
:1051F0003F4A02AD3146FF20D0609368DC07FCD502
:10520000D36801F8013BA942F6D19DF80630012B85
:105210003BD03849354B00204FF4805208709A61DA
:10522000BAE72146E920FFF71FFF012896BF0225B4
:105230004126E92600213046FFF716FF04460028E4
:10524000F8D14FF400715020FFF70EFF2949274B8A
:105250004FF4805200289DD10D709A612648244B4E
:10526000027802F0FE0202701A6822F040021A6010
:105270001A6822F038021A601A681A601A6842F036
:1052800040021A60007802B070BD9DF80730AA2B6A
:10529000BFD14FF08041E920FFF7E6FE0446002829
:1052A000F7D101467A20FFF7DFFE00287FF46EAFCA
:1052B0000F4BFF21D9609A68D207FCD5DA6806F84F
:1052C000012BAE42F6D19DF804300A4913F0400F8D
:1052D000064B05D104204FF4805208709A61BDE757
:1052E0000C204FF4805208709A61B7E70004024026
:1052F0000038004078070020B4000020014B1878E7
:10530000704700BFB40000202DE9F041002B48D0C9
:105310001E46394B1B78D80769D4384B1B781B07BE
:105320000F46114658BF5102012E1DD05220FFF7E3
:105330009BFE8046E8B9324CFF25E560A268D107A4
:10534000FCD5E268D2B2FF2AF7D0FE2A14D04FF083
:10535000010800214C20FFF787FE2A4B4FF48052B2
:105360009A614046BDE8F0815120FFF77DFE8046FE
:10537000E0B14FF00108F0E74FF400723946002029
:10538000FFF7E8FDE560A368DA07FCD5E368E560B0
:10539000A268D307FCD5013EE36807F50077CCD1BE
:1053A000D7E74FF004084046BDE8F081144CFF22D7
:1053B000E260A368DD07FCD5E368DBB2FF2BF7D022
:1053C000FE2BD6D14FF4007239460020FFF7C2FD04
:1053D000FF220B4BE2609A68D407FCD5FF21084AF4
:1053E000D868D9609368D807FCD5D368B5E74FF083
:1053F00003084046BDE8F081B40000207807002093
:1054000000380040000402400160704730B40024BE
:10541000254663F30F05029B61F30F0462F31F44FB
:1054200063F31F45C0E9014530BC7047C160704758
:105430000161704780F8351080F8362080F83730E9
:10544000704700BF80F83410704700BF90F8280004
:10545000704700BF40697047806970472DE9F04F81
:105460000346ADF56F7D04AF1D680489FB639B881F
:10547000AE88016940890A7849782344B34249DCFF
:10548000FB6BED88DB880344AB4243DCB4FBF2FEEC
:10549000BEF1020F3EDDB0FBF1F3BB63002B39D050
:1054A00003FB01FB0BFB03F8F96B0EF1FF33C7E9BC
:1054B00004E3C96879630EFB02F972B6FB6B07F16E
:1054C00048005969FFF74AFAF86262B6002840F0CE
:1054D0005C84F96B91F8293043B94B6ACA6952F878
:1054E0002320CA620A6A52F823300B63012472B681
:1054F00007F5BC7107F14800FFF77EFA62B690B974
:1055000097F88E317BB197F8803113F0060FEED10A
:105510000134ECE7FA6B012382F8283007F56B774A
:10552000BD46BDE8F08FFB6B3C641B695A7898FB65
:10553000F4F39A42B8BF1A46BB6B3A629C4204DD50
:105540003B69033B18BF0123FB627B69FA6AD7F80A
:105550003CA0C7F80C809B1ABB6172B6002107F112
:105560004800FFF749FA62B6002840F00E843B6C11
:10557000002B844640F34881C7E909B98046386367
:105580000EE0DAE90B329B1A434503DCBA6B134495
:10559000434528DC3B6C08F10108434540F330816A
:1055A0004FF0000387F87830B8F1000FE9D072B6F9
:1055B00007F5BC7107F14800FFF71EFA62B6002834
:1055C00040F01E8197F88E31002B00F0198197F87A
:1055D000803113F0060FD4D03B6C434540F310816B
:1055E00087F87800E3E77B6B5B68FB61B8F1000F3D
:1055F00040F0F1814C497A694C4E07F1780000F097
:1056000031FFDAF81030BAF8062058781D783B8E52
:10561000BAF80410DAF80090BB601A4492B28346DC
:10562000013810444B1E80B22B44D9F8244000901E
:105630009BB24846FCF7C8FE4846FCF7A9F9484625
:10564000FCF7AEF9236823F040032360236823F4BA
:105650002C43236099F84830022B03D1236843F48C
:1056600000632360236843F0400323605B46002B04
:1056700042D0002D40D0C7F84480C7F804A04FF0B6
:10568000000BB0469A4698F805E000220BFB0EFE90
:10569000BEFBFAFE734698F80400D8F8006000FBE1
:1056A00003FC00FB02F1B1FBF5F1614436F811E0B7
:1056B000A1688907FCD599F84810022940F0658156
:1056C00001329542C4F80CE00ED002FB00F1B1FBB0
:1056D000F5F1614436F811E0A1688907FCD5013283
:1056E0009542C4F80CE0F0DC0BF1010BDA45CAD1AD
:1056F000D7F84480D7F804A0A3689A07FCD5A5681A
:1057000015F08005FBD1236823F040034846236051
:10571000FCF738F907F17800FAF7B2FD024658B302
:105720002C4607F178050BE0F89500082CD400080A
:1057300005F801CCFAF7A4FD0246013494421BD2CD
:1057400015F8013B83F0800603F120012F2E07F1AD
:105750007800C9B203F1400CEAD90F2903F1100611
:1057600007F1780000F2208105F8016CFAF788FD56
:10577000013402469442E3D307F1780000F0E0FEE2
:10578000BB6998421C4680F202821A1A07F178031C
:105790001844202101F0C7FE07F178034FF0000202
:1057A0001A557A6B18F0010F136918BF5369DAF8AC
:1057B0002C20424500F04381BAF80620B968DAF897
:1057C0001040BAF8040011448AB221780144DAF892
:1057D00000000293FB69CDE900430023039389B2E3
:1057E00007F17803FCF7BCFDDAF810303A6B5B7810
:1057F0001A443B6C3A6308F1010843453FF7D0AEC9
:10580000D7E909B9D7F830C0E34500F3A3819AF886
:105810003430012B3FF482AE7B6B93F82430002BA5
:1058200000F07381FB6A002B38D0DAE90B329C1A46
:105830003B6ABA6BABEB030303FB04F43B6C1FFA4C
:1058400089F69B1A94FBF3F37B649DB2002B40F026
:105850007F82BAF80430BAF80620DAF81010B7F8E8
:1058600020807C6B0978E469DAF800002A4433442C
:1058700008F1FF3C9BB21CFA82FC591A0FFA8CFC0F
:10588000013BCDE900C41BB209B212B2FCF7D8FB50
:105890003B6A7C6C1C445C45C0F23D823B6C01253C
:1058A0005C1E00F031FD9AF8363005FA03F313EA76
:1058B000000104D0DAF82C60A642C0F2A5819AF863
:1058C000353005FA03F313EA000204D0DAF82C604D
:1058D000002E00F3CF819AF8373005FA03F3034026
:1058E000DFD0002940F0D781002A40F0D781FB6B40
:1058F000D7F80C80DE6A002E00F0878297F8983285
:10590000DB0640F1BB82FE6B7569284600F018FE8D
:10591000044607F2A62000F013FE211802312846A3
:1059200001F034F8C849706100F0C8FD706907F2F1
:10593000A62100F0C3FD736AF069F26A40F82320E3
:10594000D6E90832316B43F82210736A5A1C0233CD
:105950007262990001F01AF8736AF06101339900DC
:10596000306A01F013F8F169736A3062002241F87D
:105970002320716A40F8212086F8292072B607F1A9
:105980004800FFF721F862B697E55FFA8EF12173C0
:105990004FEA1E2EA1688807FCD50132954284F893
:1059A0000CE07FF478AE9FE6F02B0BD0F12B7FF468
:1059B000C4AEB82307F1780005F8013CFAF760FCA3
:1059C0000246BAE6A82307F1780005F8013CFAF789
:1059D00057FC0246B1E607F5C774204600F0B0FD5B
:1059E000BB69984240F28B803A6997F88031D61EA5
:1059F000FA6ADD06A6EB020640F1CB80214607F1EC
:105A00007800324600F02EFD904907F1780000F052
:105A100055FD97F88031D8061BD57B6B8C4E1B68E3
:105A2000FB61DAF82C3043457FF4EBAD4FF48C7218
:105A300007F5BC7107F5247001F01BFEE1E5796BF9
:105A400091F824208868F861002A3FF4B5AE8B698C
:105A5000B2E6204600F074FD07F5BC7100F11602B5
:105A60006E4603460A4404E012F8011D2E2900F098
:105A70001881944203F1FF33F6D12046B54600F079
:105A80005FFD07F5BC7100F116026E4603460A443D
:105A900004E012F8011D2E2900F02081944203F148
:105AA000FF33F6D12046B54600F04AFD07F5BC713C
:105AB00000F116026E4603460A4404E012F8011D86
:105AC0002E2900F06881944203F1FF33F6D120467D
:105AD000B54600F035FD07F5BC7100F116026D46C4
