:020000040800F2
:1000000000800020491200086511000867110008EF
:10001000691100086B1100086D1100080000000054
:100020000000000000000000000000006F11000848
:10003000711100080000000073110008751100081C
:1000400099120008991200089912000899120008E4
:1000500099120008991200089912000899120008D4
:1000600099120008991200089912000879110008E5
:1000700099120008991200089912000899120008B4
:100080009912000800000000991200089912000857
:100090009912000899120008991200089912000894
:1000A0009912000899120008991200089912000884
:1000B0009912000899120008991200089912000874
:1000C0009912000899120008991200089912000864
:1000D0009912000899120008991200089912000854
:1000E0009912000899120008991200089912000844
:1000F00099120008991200089912000800000000E7
:100100000000000099120008000000009912000889
:1001100099120008000000009912000899120008C6
:100120009912000899120008991200089912000803
:100130009912000800000000000000009912000859
:100140009912000899120008000000000000000049
:10015000000000000000000000000000000000009F
:1001600000000000000000000000000099120008DC
:1001700099120008000000000000000000000000CC
:1001800000000000991200080000000000000000BC
:10019000000000000000000000000000000000005F
:1001A00000000000000000009912000899120008E9
:1001B0009912000899120008991200080000000026
:1001C000000000009912000800000000000000007C
:0801D0009912000899120008C1
:1001E00010B5054C237833B9044B13B10448AFF371
:1001F00000800123237010BDE401002000000000F6
:100200004065000808B5034B1BB103490348AFF331
:10021000008008BD00000000E801002040650008E3
:1002200001F0FF01102A2BDB10F0070F08D010F8A7
:10023000013B013A8B422DD010F0070F42B3F6D1AB
:10024000F0B441EA012141EA014122F007047FF0C4
:1002500000070023F0E80256083C85EA010586EA1B
:10026000010685FA47F5A3FA87F586FA47F6A5FA57
:1002700087F68EB9EED1F0BC01F0FF0102F0070263
:1002800032B110F8013B013A83EA010313B1F8D10E
:100290000020704701387047002D06BF35460338EF
:1002A000073815F0010F07D1013015F4807F02BF28
:1002B000013015F4C03F0130F0BC0138704700BF79
:1002C000034613F8012B002AFBD1181A0138704796
:1002D00081F0004102E000BF83F0004330B54FEAF7
:1002E00041044FEA430594EA050F08BF90EA020F64
:1002F0001FBF54EA000C55EA020C7FEA645C7FEAF7
:10030000655C00F0E2804FEA5454D4EB5555B8BF19
:100310006D420CDD2C4480EA020281EA030382EA8A
:10032000000083EA010180EA020281EA0303362D1C
:1003300088BF30BD11F0004F4FEA01314FF4801CEF
:100340004CEA113102D0404261EB410113F0004F01
:100350004FEA03334CEA133302D0524263EB4303B8
:1003600094EA050F00F0A780A4F10104D5F1200E56
:100370000DDB02FA0EFC22FA05F2801841F10001B1
:1003800003FA0EF2801843FA05F359410EE0A5F185
:1003900020050EF1200E012A03FA0EFC28BF4CF0B6
:1003A000020C43FA05F3C01851EBE37101F000456C
:1003B00007D54FF0000EDCF1000C7EEB00006EEB79
:1003C0000101B1F5801F1BD3B1F5001F0CD3490803
:1003D0005FEA30004FEA3C0C04F101044FEA44525A
:1003E00012F5800F80F09A80BCF1004F08BF5FEAE1
:1003F000500C50F1000041EB045141EA050130BDC1
:100400005FEA4C0C404141EB0101013C28BFB1F5D2
:10041000801FE9D291F0000F04BF01460020B1FA1D
:1004200081F308BF2033A3F10B03B3F120020CDAF0
:100430000C3208DD02F1140CC2F10C0201FA0CF0CE
:1004400021FA02F10CE002F11402D8BFC2F1200C33
:1004500001FA02F120FA0CFCDCBF41EA0C019040E9
:10046000E41AA2BF01EB0451294330BD6FEA040432
:100470001F3C1CDA0C340EDC04F11404C4F120021D
:1004800020FA04F001FA02F340EA030021FA04F32F
:1004900045EA030130BDC4F10C04C4F1200220FA86
:1004A00002F001FA04F340EA0300294630BD21FAC4
:1004B00004F0294630BD94F0000F83F4801306BF8A
:1004C00081F480110134013D4EE77FEA645C18BF7E
:1004D0007FEA655C29D094EA050F08BF90EA020F15
:1004E00005D054EA000C04BF1946104630BD91EA0D
:1004F000030F1EBF0021002030BD5FEA545C05D110
:100500004000494128BF41F0004130BD14F580044E
:100510003CBF01F5801130BD01F0004545F0FE41C2
:1005200041F470014FF0000030BD7FEA645C1ABFF7
:10053000194610467FEA655C1CBF0B46024650EA2E
:10054000013406BF52EA033591EA030F41F400215A
:1005500030BD00BF90F0000F04BF0021704730B5E0
:100560004FF4806404F132044FF000054FF00001B5
:1005700050E700BF90F0000F04BF0021704730B576
:100580004FF4806404F1320410F0004548BF40424B
:100590004FF000013EE700BF42004FEAE2014FEAA0
:1005A00031014FEA02701FBF12F07F4393F07F4F7B
:1005B00081F06051704732F07F4208BF704793F07E
:1005C0007F4F04BF41F40021704730B54FF4607491
:1005D00001F0004521F000411CE700BF50EA010294
:1005E00008BF704730B54FF000050AE050EA01023D
:1005F00008BF704730B511F0004502D5404261EBAD
:1006000041014FF4806404F132045FEA915C3FF4ED
:10061000D8AE4FF003025FEADC0C18BF03325FEA8A
:10062000DC0C18BF033202EBDC02C2F1200300FA3B
:1006300003FC20FA02F001FA03FE40EA0E0021FA60
:1006400002F11444BDE600BF70B54FF0FF0C4CF44E
:10065000E06C1CEA11541DBF1CEA135594EA0C0F00
:1006600095EA0C0F00F0DEF82C4481EA030621EA3B
:100670004C5123EA4C5350EA013518BF52EA033576
:1006800041F4801143F4801338D0A0FB02CE4FF028
:100690000005E1FB02E506F00042E0FB03E54FF058
:1006A0000006E1FB03569CF0000F18BF4EF0010E50
:1006B000A4F1FF04B6F5007F64F5407404D25FEA4C
:1006C0004E0E6D4146EB060642EAC62141EA5551FF
:1006D0004FEAC52040EA5E504FEACE2EB4F1FD0C41
:1006E00088BFBCF5E06F1ED8BEF1004F08BF5FEABF
:1006F000500E50F1000041EB045170BD06F0004671
:1007000046EA010140EA020081EA0301B4EB5C041D
:10071000C2BFD4EB0C0541EA045170BD41F4801115
:100720004FF0000E013C00F3AB8014F1360FDEBF3A
:10073000002001F0004170BDC4F10004203C35DA16
:100740000C341BDC04F11404C4F1200500FA05F399
:1007500020FA04F001FA05F240EA020001F000423A
:1007600021F0004110EBD37021FA04F642EB0601B0
:100770005EEA430E08BF20EAD37070BDC4F10C04DA
:10078000C4F1200500FA04F320FA05F001FA04F29E
:1007900040EA020001F0004110EBD37041F100018A
:1007A0005EEA430E08BF20EAD37070BDC4F1200595
:1007B00000FA05F24EEA020E20FA04F301FA05F2FD
:1007C00043EA020321FA04F001F0004121FA04F2A5
:1007D00020EA020000EBD3705EEA430E08BF20EA75
:1007E000D37070BD94F0000F0FD101F000464000AF
:1007F00041EB010111F4801F08BF013CF7D041EA31
:10080000060195F0000F18BF704703F00046520034
:1008100043EB030313F4801F08BF013DF7D043EA05
:100820000603704794EA0C0F0CEA135518BF95EABB
:100830000C0F0CD050EA410618BF52EA4306D1D142
:1008400081EA030101F000414FF0000070BD50EA61
:10085000410606BF1046194652EA430619D094EAEB
:100860000C0F02D150EA013613D195EA0C0F05D1D5
:1008700052EA03361CBF104619460AD181EA030129
:1008800001F0004141F0FE4141F470014FF00000E1
:1008900070BD41F0FE4141F4780170BD70B54FF07C
:1008A000FF0C4CF4E06C1CEA11541DBF1CEA1355FC
:1008B00094EA0C0F95EA0C0F00F0A7F8A4EB0504DE
:1008C00081EA030E52EA03354FEA013100F08880D5
:1008D0004FEA03334FF0805545EA131343EA12639E
:1008E0004FEA022245EA111545EA10654FEA002653
:1008F0000EF000419D4208BF964244F1FD0404F50C
:10090000407402D25B084FEA3202B61A65EB030567
:100910005B084FEA32024FF480104FF4002CB6EB24
:10092000020E75EB030E22BFB61A754640EA0C00A4
:100930005B084FEA3202B6EB020E75EB030E22BFE4
:10094000B61A754640EA5C005B084FEA3202B6EB25
:10095000020E75EB030E22BFB61A754640EA9C00E4
:100960005B084FEA3202B6EB020E75EB030E22BFB4
:10097000B61A754640EADC0055EA060E18D04FEA72
:10098000051545EA16754FEA06164FEAC30343EA12
:1009900052734FEAC2025FEA1C1CC0D111F4801FDF
:1009A0000BD141EA00014FF000004FF0004CB6E7D8
:1009B00011F4801F04BF01430020B4F1FD0C88BF77
:1009C000BCF5E06F3FF6AFAEB5EB030C04BFB6EB82
:1009D000020C5FEA500C50F1000041EB045170BD75
:1009E0000EF0004E4EEA113114EB5C04C2BFD4EBA2
:1009F0000C0541EA045170BD41F480114FF0000E26
:100A0000013C90E645EA060E8DE60CEA135594EAA1
:100A10000C0F08BF95EA0C0F3FF43BAF94EA0C0FA4
:100A20000AD150EA01347FF434AF95EA0C0F7FF419
:100A300025AF104619462CE795EA0C0F06D152EA6D
:100A400003353FF4FDAE1046194622E750EA410651
:100A500018BF52EA43067FF4C5AE50EA41047FF462
:100A60000DAF52EA43057FF4EBAE12E74FF0FF3CC7
:100A700006E000BF4FF0010C02E000BF4FF0010C98
:100A80004DF804CD4FEA410C7FEA6C5C4FEA430C11
:100A900018BF7FEA6C5C1BD001B050EA410C0CBF60
:100AA00052EA430C91EA030F02BF90EA020F0020C2
:100AB000704710F1000F91EA030F58BF994208BF29
:100AC00090422CBFD8176FEAE37040F001007047E6
:100AD0004FEA410C7FEA6C5C02D150EA013C07D13D
:100AE0004FEA430C7FEA6C5CD6D152EA033CD3D088
:100AF0005DF8040B704700BF8446104662468C4682
:100B00001946634600E000BF01B5FFF7B7FF0028B4
:100B100048BF10F1000F01BD4DF808EDFFF7F4FFDD
:100B20000CBF012000205DF808FB00BF4DF808ED68
:100B3000FFF7EAFF34BF012000205DF808FB00BF8B
:100B40004DF808EDFFF7E0FF94BF012000205DF8AD
:100B500008FB00BF4DF808EDFFF7CEFF94BF012062
:100B600000205DF808FB00BF4DF808EDFFF7C4FF5B
:100B700034BF012000205DF808FB00BF4FEA410CA4
:100B80007FEA6C5C02D150EA013C0AD14FEA430C87
:100B90007FEA6C5C02D152EA033C02D14FF00000C4
:100BA00070474FF0010070474FEA410212F5001202
:100BB00015D211D56FF47873B3EB625212D94FEAA4
:100BC000C12343F0004343EA505311F0004F23FA8E
:100BD00002F018BF404270474FF00000704750EAE3
:100BE000013005D111F0004008BF6FF000407047A0
:100BF0004FF00000704700BF4A0011D212F50012FA
:100C000011D20DD56FF47873B3EB62520ED44FEA64
:100C1000C12343F0004343EA505323FA02F07047E4
:100C20004FF00000704750EA013002D14FF0FF3022
:100C300070474FF00000704710B594B03822002183
:100C400006A803F0AEFB1422002101A803F0A9FBC3
:100C50004FF4007000F05CFE01224FF48033CDE9C8
:100C60000623032402230521362206A8CDE90D34EC
:100C7000CDE90F12CDE91133139300F0A9FE08B1AD
:100C800072B6FEE7CDE903000F230590214601A8C7
:100C9000CDE9013401F0DEF808B172B6FEE714B018
:100CA00010BD0000F8B50D46044601F0C7F90E4E20
:100CB000AA235C430021B0FBF4F4304602F0F8FABA
:100CC0003768F460642D28BF6425FC62023405FB9C
:100CD00004F0FFF73FFC054B0022FFF7DFFDFFF7B5
:100CE0008BFF80B27863F8BD0002002000005940FD
:100CF00080B5974D9AB000F0F7FAFFF79DFF1422E8
:100D000000210DA803F04DFBEB6C43F00403EB64F2
:100D1000EB6C03F004030293029BEB6C43F02003A3
:100D2000EB64EB6C03F020030393039BEB6C43F049
:100D30000103EB64EB6C03F001030493049BEB6C85
:100D400043F00203EB64EB6C03F002030593002213
:100D500008214FF09040059B00F062FD7D48002285
:100D600041F2830100F05CFD01227A480421002455
:100D700000F056FD41F602130DA94FF090400126F8
:100D8000CDE90D344FF008080F9400F07FFC0DA959
:100D90004FF09040CDE90D864FF00709CDE90F44A3
:100DA00000F074FC03236B4810930DA9CDE90D9658
:100DB0000F9400F06BFC4FF4806366480F960DA90A
:100DC000CDE90D3400F062FC4FF4046361480F94E8
:100DD0000DA9CDE90D3400F059FC4FF484535D4862
:100DE0000DA9CDE90D364FF0020ACDE90F444FF4BD
:100DF000005700F04BFC0523564811930DA94FF402
:100E00000076CDE90D7ACDE90F4400F03FFC1223C6
:100E1000CDE90D634F4804230DA91193CDE90F448B
:100E200000F034FCAB6C43F00403AB64AB6C03F038
:100E300004030093009BAB6C43F00103AB64AB6C09
:100E4000454D03F001032246214601930B20019BEF
:100E500000F092FA0B2000F0C1FA40484FF4827380
:100E6000C0E900534FF4E063C0E9033AC0E9054626
:100E7000C0E90784C0E90944C0E90B948460C0F864
:100E8000348001F0E7FC054608B172B6FEE7014682
:100E90001C2206A803F085FA342229460DEB020035
:100EA00003F07FFA2E4C2F48A560A923C4E9000364
:100EB000D1232046C4E90335C4E9055502F048F8BA
:100EC00008B172B6FEE7204602F072F8024608B199
:100ED00072B6FEE760216923CDE90613CDE908006B
:100EE000CDE90A000C9006A9204602F0D1F808B11D
:100EF00072B6FEE7CDE90D00CDE90F00CDE911078F
:100F0000139019900DA9204602F0D4F9054608B1B6
:100F100072B6FEE7204600F0FFF81348134B056158
:100F2000C0E900364AF64443C0E90255C0E9053538
:100F300000F07BFC08B172B6FEE70D4B6421188807
:100F4000FFF7B0FE02F00CFB02F048FCFCE700BF2C
:100F5000001002400004004800300140AC020020B4
:100F6000000200200044014010030020003C00402B
:100F70000000002072B6FEE70B4B1A6E42F0010231
:100F800082B01A661A6E02F001020092009A9A6DFF
:100F900042F080529A659B6D03F080530193019B50
:100FA00002B000F00DBD00BF0010024070B59AB055
:100FB00004461422002104A803F0F3F9442200217E
:100FC00009A803F0EEF92268214B9A423DD14FF473
:100FD000006309A8099301F05BF808B1FFF7CAFFA5
:100FE0001C4B9A6D42F400429A659A6D02F40042DD
:100FF0000192019ADA6C42F00102DA64DA6C02F0D2
:1010000001020292029ADA6C42F00202DA64DB6CAC
:1010100003F002030393039B10230DEB030102264D
:10102000002406254FF09040CDE90436CDE9064472
:10103000089500F02BFB28230748089504A9CDE963
:101040000436CDE9064400F021FB1AB070BD00BFA4
:10105000003C0040001002400004004830B5054646
:1010600089B01422002103A803F09BF92A681D4BC4
:101070009A4235D103F5604303A91A6E1A4C42F423
:1010800080521A661A6E02F480520192019ADA6C4A
:1010900042F00102DA64DB6C03F001030293A02248
:1010A000029B0223CDE903234FF0904005230793D1
:1010B00000F0ECFA0D490B231020C4E900130023C3
:1010C000C4E9020380222046C4E90423C4E90633AC
:1010D000236200F0E3F908B1FFF74CFF6C65A562ED
:1010E00009B030BD003001404C0200200800024031
:1010F0000268084B9A4282B00AD103F54C431A6E3B
:1011000042F400321A661B6E03F400330193019B14
:1011100002B070470044014010B5044686B0142266
:10112000002101A803F03DF922680D4B9A4215D128
:1011300003F54C4301A9DA6C42F00102DA64DB6C7E
:1011400003F001030093009B40220223CDE9012319
:101150004FF090400123059300F098FA06B010BDBF
:1011600000440140FEE7FEE7FEE7FEE7FEE77047CA
:101170007047704700F0C8B8014800F03DBA00BFA2
:101180004C0200200120704708B503F05DF91623DA
:1011900003604FF0FF3008BD08B503F055F9162382
:1011A0000360FEE770B50D4614460E46731B9C4265
:1011B00001DC204670BDAFF3008006F8010BF5E7B7
:1011C00070B50D4614460E46731B9C4201DC20464A
:1011D00070BD16F8010BAFF30080F5E74FF0FF305C
:1011E00070474FF400534B60002070470120704758
:1011F000002070470B4A116810B5034609B90A4927
:101200001160106809490A4C0344091B8B4206D936
:1012100003F01AF90C2303604FF0FF3010BD136088
:10122000FCE700BF4C030020A01D00200080002030
:1012300000040000034AD2F8883043F47003C2F877
:101240008830704700ED00E00D488546FFF7F2FF5B
:101250000C480D490D4A002302E0D458C450043311
:10126000C4188C42F9D30A4A0A4C002301E01360E7
:101270000432A242FBD303F0EDF8FFF739FDFEE79D
:101280000080002000000020E40100207C7C000899
:10129000E4010020A01D0020FEE7000038B50F4B40
:1012A0001A6805460AB9012038BD4FF47A73B3FBBA
:1012B000F2F30B4A1068B0FBF3F000F09DF804461F
:1012C0000028F0D10F2DEED8024629464FF0FF300E
:1012D00000F052F8034B20461D60E5E708000020AF
:1012E000040000200C00002010B5032000F032F8AC
:1012F0000F20FFF7D3FF044618B9FFF73DFE204645
:1013000010BD0124FBE70000034A04491368096883
:101310000B441360704700BF5003002008000020FA
:10132000014B1868704700BF5003002038B50446D1
:10133000FFF7F6FF631C1CBF054B1B68054618BF73
:10134000E418FFF7EDFF431BA342FAD338BD00BFFB
:10135000080000200749CA6822F4E0620302120470
:1013600003F4E063120C134343F0BF6343F4003310
:10137000CB60704700ED00E0164B30B5DC68C4F37D
:101380000224C4F10703251D042B28BF0423062DC6
:101390004FF0FF358CBF033C002405FA03F321EA2C
:1013A0000303A54022EA0502A340002843EA020302
:1013B000ACBF00F16040084A4FEA0313B8BF00F029
:1013C0000F00DBB2AABF00F56140135480F8003370
:1013D00030BD00BF00ED00E014ED00E0002807DBA9
:1013E000044A4109012300F01F00834042F82130E4
:1013F000704700BF00E100E00138B0F1807F0BD200
:101400004FF0E023054A5861F02182F823100020B4
:10141000072298611A6170470120704700ED00E0D3
:1014200070B5D0E913456560446D14B1D0E9164537
:101430006560D0E9105404F01F060124B4406C60CC
:10144000046863608368102B0BBFA260A160E16039
:10145000E26070BD10B503680C490D4C0D4AA34203
:1014600098BF0A46416C21F003010A448264DBB252
:10147000094AC264083B1422B3FBF2F3012203F0D1
:101480001F0302FA03F3036510BD00BF000802400A
:1014900007040240200802408008024038B50028B6
:1014A00057D002682C4B9A424FF0140145D82B4B71
:1014B0001344B3FBF1F32A499B00C0E91013022344
:1014C00080F82530D0E902430569116823432B4396
:1014D00045692B4385692B43C5692B43056A6FF327
:1014E0000E112B430B431360FFF7B4FFB4F5804F8D
:1014F00004BF002343604368816CDAB20A60D0E91C
:101500001314013B032B4C601ED8164B1649816502
:1015100013449B000121013A01FA02F200214365C4
:10152000C2651960114B5A6400230122C36380F81D
:10153000243080F82520184638BD0D4B1344B3FBEA
:10154000F1F30C499B00B8E70023C0E91533C365EC
:10155000EAE70120F0E700BF07040240F8FFFDBF03
:10156000000002403F820010400902400009024092
:10157000F8FBFDBF0004024070B590F82450012D27
:10158000044637D0012580F8245090F82550012DCD
:101590004FF000052CD1022680F82560C563056850
:1015A0002E6826F001062E60FFF73AFF036BBBB1F1
:1015B0002B6843F00E032B60A36C1A68D20342BF62
:1015C0001A6842F480721A60636D1BB11A6842F4A3
:1015D00080721A602B6843F001032B60002070BDFD
:1015E0002B6823F004032B602B6843F00A03E2E727
:1015F00080F824500220F2E7016C426C036870B45A
:1016000002F01F020E681D680424944034420ED07C
:1016100015F0040F0BD01A6892065EBF1A6822F00C
:1016200004021A60036B4C6073B370BC1847022449
:101630009440344212D015F0020F0FD01A6895066C
:1016400006D41A6822F00A021A60012380F82530B5
:1016500000234C6080F82430C36AE5E708249440F6
:10166000344211D02C070FD51C6824F00E041C60E6
:10167000012303FA02F24A60C36380F82530002395
:1016800080F82430436BCFE770BC70472DE9F74FEB
:10169000DFF888915F4C00230A6832FA03F502D123
:1016A00003B0BDE8F08F012505FA03F818EA02023D
:1016B00000F0A4804E68032706F003054FEA430EAE
:1016C00007FA0EFC6F1E012F6FEA0C0C34D88768E6
:1016D00007EA0C0ACF6807FA0EF747EA0A0787609D
:1016E000476827EA0808C6F300179F4047EA08073B
:1016F0004760C76807EA0C088F6807FA0EF747EAE1
:101700000807022DC76019D14FEAD30800EB8808FB
:1017100003F0070AD8F820704FEA8A0A4FF00F0B3F
:101720000BFA0AFB27EA0B0B0F6907FA0AF747EADD
:101730000B07C8F8207001E0032DDAD1076805FA1D
:101740000EF507EA0C073D4316F4403F056055D0FF
:10175000D9F8605045F00105C9F86050D9F86050DB
:1017600023F0030707F1804705F0010507F58037EF
:10177000019503F0030C019DBD684FEA8C0C4FF0FE
:101780000F0E0EFA0CFEB0F1904F25EA0E0E37D078
:10179000214DA84236D005F58065A84234D005F524
:1017A0008065A84232D005F58065A84230D005F5A5
:1017B0008065A84214BF0625052505FA0CF545EA03
:1017C0000E05BD60A568D74316F4801F0CBF3D40D1
:1017D0001543A560E56816F4001F0CBF3D40154396
:1017E000E560656816F4003F0CBF3D401543656039
:1017F0002568F60354BF3D401543256001334BE790
:101800000025DAE70125D8E70225D6E70325D4E746
:101810000425D2E700040140000400480010024003
:101820000AB1816170478162704738B5044600286B
:1018300069D090F8353003F0FF021BB980F83420EE
:10184000FFF7B4FB2268022184F83510D36923F432
:101850007B6323F00F03D361636911628B42E268FB
:1018600053D0A368002A14BF202510254FF4006030
:10187000202B98BF6D0000F047FD23696269B3F526
:10188000007F38D1E3680A219BB3AD00B0FBF5F3CC
:101890004B43B3FBF2F30A220533B3FBF2F303F03D
:1018A00001015B089A1EFD2A29D809020B43216910
:1018B00022680B431362D169D4E9013021F47B61C2
:1018C000034321F00F010B43E1680B43A1690B4374
:1018D00043F4006320F08000D361302802BFD36955
:1018E00043F48053D36100200123A06384F8353092
:1018F0000AE0ED00CAE70A21B0FBF5F3C8E7A36BE5
:1019000043F01003A363012038BD0021CEE700009F
:10191000284B1A6818BB02F4C062B2F5806FD3F886
:10192000802022F48072C3F8802040D11A6822F40B
:10193000C06242F400721A601F4A126832214A43A0
:101940001E49B2FBF1F201325969490500D522B9AD
:101950005B6958052BD503207047013AF4E7B0F5D1
:10196000007F1FD102F4C062B2F5806FD3F88020EF
:1019700042F48072C3F8802019D11A6822F4C06240
:1019800042F400721A600C4A126832214A430B4931
:10199000B2FBF1F2013259694905D9D5002AD7D0F5
:1019A000013AF8E722F4C06242F480621A60002033
:1019B000704700BF007000400400002040420F004C
:1019C000024A936843F4804393607047007000407C
:1019D0002DE9F341044618B9012002B0BDE8F081B9
:1019E0000368D90714D423689A0758D423681907C1
:1019F00000F1A18023685A0700F1C88023689A0685
:101A000000F12F81E369002B40F05C810020E4E7C6
:101A10009F4DAB68EA6803F00C030C2B0AD102F06F
:101A20000303032B08D12B689B03DCD56368002BD1
:101A3000D9D1D1E7082BF5E76368B3F5803F10D122
:101A40002B6843F480332B60FFF76AFC06462B6853
:101A50009F03C8D4FFF764FC801B6428F7D90320D8
:101A6000BBE7B3F5A02F04D12B6843F480232B6090
:101A7000E6E72A6822F480322A602A6822F480226B
:101A80002A60002BE0D1FFF74BFC06462B68990338
:101A9000A9D5FFF745FC801B6428F7D9DFE77C4D0B
:101AA000AB68EA6803F00C030C2B17D102F00303B8
:101AB000022B15D12B685A0502D5E368002B8BD079
:101AC0006B68226923F0FE4343EA02636B60714B4B
:101AD0001868FFF7E3FB002888D07DE7042BE8E7D0
:101AE000E368BBB12B6843F480732B60FFF718FCED
:101AF00006462B685B0507D56B68226923F0FE4319
:101B000043EA02636B6071E7FFF70AFC801B02285F
:101B1000EFD9A4E72B6823F480732B60FFF700FC58
:101B200006462B685F057FF561AFFFF7F9FB801B69
:101B30000228F6D993E76369554D9BB1D5F89430E7
:101B400043F00103C5F89430FFF7EAFB0646D5F8E9
:101B500094309B073FF54EAFFFF7E2FB801B022856
:101B6000F5D97CE7D5F8943023F00103C5F894301B
:101B7000FFF7D6FB0646D5F894309F077FF53AAFBE
:101B8000FFF7CEFB801B0228F5D968E7404DAB6D0F
:101B9000D80027D4AB6D43F08053AB65AB6D03F039
:101BA00080530193019B01273B4E3368D9051BD518
:101BB000A368012B29D1D5F8903043F00103C5F873
:101BC0009030FFF7ADFB41F288380646D5F89030EB
:101BD0009B0740D5002F3FF411AFAB6D23F080532E
:101BE000AB650BE70027DFE7336843F480733360AE
:101BF000FFF796FB80463368DA05D9D4FFF790FBF0
:101C0000A0EB08000228F6D929E7052B06D1D5F864
:101C1000903043F00403C5F89030CCE7D5F890201D
:101C200022F00102C5F89020D5F8902022F004029D
:101C3000C5F89020002BC4D1FFF772FB41F2883821
:101C40000646D5F890309907C4D5FFF769FB801B8D
:101C50004045F6D903E7FFF763FB801B4045B5D944
:101C6000FDE6A3690A4DCBB1D5F8983043F00103E6
:101C7000C5F89830FFF754FB0646D5F898309B0717
:101C80003FF5C0AEFFF74CFB801B0228F5D9E6E616
:101C9000001002400C00002000700040D5F8983081
:101CA00023F00103C5F89830FFF73AFB0646D5F854
:101CB00098309F077FF5A6AEFFF732FB801B022806
:101CC000F5D9CCE6454DAA6802F00C020C2A51D099
:101CD000022B2B6823F080732B603AD1FFF720FB97
:101CE00006462B6899012ED4EA683D4B1340226AC0
:101CF0001343A26A43EA0223E26A43EAC263626AC6
:101D0000013A43EA0213226B5208013A43EA425372
:101D1000626B5208013A43EA4263EB602B6843F07E
:101D200080732B60EB6843F08073EB60FFF7F8FA89
:101D300004462B689A013FF569AEFFF7F1FA001BE4
:101D40000228F6D98BE6FFF7EBFA801B0228C8D9E8
:101D500085E6FFF7E5FA04462B689B0104D4EA68A0
:101D6000204B1340EB6051E6FFF7DAFA001B022824
:101D7000F2D974E6012B3FF42FAEEB68226A03F030
:101D8000030191427FF428AE616A03F0F002013949
:101D9000B2EB011F7FF420AEA16A03F4FE42B2EB66
:101DA000012F7FF419AEE16A03F07842B2EBC16F04
:101DB0007FF412AE226B520803F4C001013AB1EB7A
:101DC000425F7FF409AE626B5208013A03F0C063D0
:101DD000B3EB426F14BF01200020FEE5001002406B
:101DE0000C809F01FCFFEEFE174B9A6802F00C027C
:101DF000042A23D09A6802F00C02082A20D09A689C
:101E000002F00C020C2A1DD1D968DA68D868DB68A8
:101E100001F00301C3F341630329C2F30312C0F3CA
:101E2000062003F101030CBF084909495B00013298
:101E3000B1FBF2F25043B0FBF3F070470448704737
:101E4000024870470020704700100240002D310109
:101E50000024F4002DE9F8430E46054610B9012090
:101E6000BDE8F8836D4A136803F00F038B4245D336
:101E7000296811F001084CD12A68910740F1A78028
:101E8000674B12F0040F1EBF996841F4E06199603E
:101E9000120741BF9A6822F47C5242F4E0629A60D1
:101EA0009A68A96822F0F0020A439A605B4C2368A2
:101EB00003F00F03B34200F293802A68584C12F0EB
:101EC000040F40F0A380130706D5A3682A6923F402
:101ED000605343EAC203A360FFF786FFA368514A39
:101EE000C3F30313D35C03F01F03D8404E4B1860B9
:101EF0004E4B1868BDE8F843FFF7D0B9136823F0DC
:101F00000F030B431360136803F00F038B42A6D13A
:101F1000AEE76F68424C032F236849D19B019ED5E1
:101F2000E368E26803F00303032BE3680CBF404857
:101F30004048C2F30312C3F306230132B0FBF2F2AE
:101F40005343E268C2F3416201325200B3FBF2F341
:101F5000394A93421AD84FF00008A36823F00303CC
:101F60003B43A360FFF7DCF941F288390746A368D9
:101F70006A6803F00C03B3EB820F3FF47DAFFFF709
:101F8000CFF9C01B4845F2D9032069E7A36813F0D5
:101F9000F00F04D08807DED5AB68002BDBD1A36837
:101FA00023F0F00343F08003A3604FF08008D4E7F0
:101FB000022F09D113F4003F3FF451AFFFF714FF94
:101FC0001D4B9842C7D9EAE713F4806FF4E7B8F1E4
:101FD000800F01BF124A936823F0F003936065E716
:101FE000236823F00F0333432360FFF799F941F28D
:101FF00088380746236803F00F03B3423FF45DAF10
:10200000FFF78EF9C01B4045F4D9BDE7A368E96826
:1020100023F4E0630B43A36055E700BF00200240B8
:102020000010024065650008040000200C0000203C
:10203000002D31010024F40000B4C404014B1868E1
:10204000704700BF04000020054B064A9B68C3F39D
:102050000223D35C044A106803F01F03D840704782
:10206000001002405D65000804000020054B064A90
:102070009B68C3F3C223D35C044A106803F01F03B8
:10208000D8407047001002405D6500080400002041
:102090002DE9F3410446006810F4002056D0984D15
:1020A000AB6DD80044D4AB6D43F08053AB65AB6DE2
:1020B00003F080530193019B0126924F3B6843F448
:1020C00080733B60FFF72CF980463B68D90531D51A
:1020D000D5F89030226C13F440731FD09A421DD073
:1020E000D5F89020D5F8903043F48033C5F890307F
:1020F000D5F8903022F4407123F48033D207C5F82C
:102100009030C5F8901009D5FFF70AF941F28838E8
:102110000746D5F890309B0740F1EB80D5F890301A
:10212000226C23F440731343C5F89030002008E07C
:102130000026C2E7FFF7F4F8A0EB08000228C4D994
:1021400003201EB1AB6D23F08053AB652368DE071F
:1021500008D56B496568D1F8882022F003022A432C
:10216000C1F888209D0708D56549A568D1F8882061
:1021700022F00C022A43C1F88820590708D560498B
:10218000E568D1F8882022F030022A43C1F888207F
:102190001A0708D55A492569D1F8882022F0C002CB
:1021A0002A43C1F888209F0608D555496569D1F8AA
:1021B000882022F440622A43C1F888205E0608D5B0
:1021C0004F49A569D1F8882022F440522A43C1F82A
:1021D00088201D0608D54A49E569D1F8882022F4EF
:1021E00040422A43C1F88820D90508D54449256AC8
:1021F000D1F8882022F440322A43C1F888209A0579
:1022000008D53F49656AD1F8882022F440222A4344
:10221000C1F888205F050FD53949A56AD1F8882013
:1022200022F440122A43C1F88820B5F5801F02BF6E
:10223000CA6842F48012CA601E050FD53049E56AAB
:10224000D1F8882022F440022A43C1F88820B5F54D
:10225000800F02BFCA6842F48012CA60DD040FD545
:102260002749256BD1F8882022F040722A43C1F813
:102270008820B5F1807F02BFCA6842F48012CA602C
:1022800099040FD51E49656BD1F8882022F0406271
:102290002A43C1F88820B5F1006F02BFCA6842F432
:1022A0008012CA605A040FD51549A56BD1F8882051
:1022B00022F040622A43C1F88820B5F1006F02BFC6
:1022C000CA6842F48012CA601B040FD50C4AE16B45
:1022D000D2F8883023F040530B43B1F1805FC2F84D
:1022E000883003D1D36843F48033D36002B0BDE8B3
:1022F000F081FFF715F8C01B40457FF60AAF1FE7D6
:102300000010024000700040B0F5002FA34A1DD11C
:10231000D2F89030D2F89010890703F4407303D5B7
:10232000B3F5807F00F0AB81D2F89410880703D515
:10233000B3F5007F00F0A681106810F4003038D0AB
:102340009748B3F5407F18BF00207047D36803F06B
:102350000303022B17D1136813F4806F914B08BF4E
:102360000023B0F5807FD16800F0068122D80828CC
:1023700015D8F0B1013807281AD8DFE800F06783D4
:102380001999191919AED36803F00303032B04D16B
:10239000136813F4003F844BE1E70023E1E7402892
:1023A00000F0C880802800F0D680202800F0AA80A5
:1023B00000207047C1F30311B0F5805F01F1010106
:1023C000B3FBF1F300F02C8126D8B0F5806F00F05C
:1023D000EF80B0F5006F00F01081B0F5007FE7D11D
:1023E000D2F8883013F4402351D0D2F894108807E3
:1023F00003D5B3F5802F00F045811168490503D559
:10240000B3F5002F00F04181D2F8900010F00200E7
:10241000CFD0B3F5402F30E0B0F5804F06D0B0F507
:10242000004F00F00B81B0F5005FC1D1D2F88810E9
:1024300001F04061B1F1006F00F0C880D2F898005F
:1024400010F00200B5D0594800297CE7D2F8883056
:1024500013F0030301D1FFF709BE012B01D1FFF7F0
:10246000C3BC1168490502D5022B00F00E81D2F8D9
:10247000900010F002009CD0032B14BF0023012316
:10248000D8037047D2F8883013F00C0301D1FFF75E
:10249000DBBD042BE3D01168480502D5082B00F002
:1024A000F480D2F8900010F0020082D00C2BE4E708
:1024B000D2F8883013F03003E9D0102BCFD0116858
:1024C000490502D5202B00F0E080D2F8900010F0F2
:1024D00002003FF46EAF302BCFE7D2F8883013F014
:1024E000C003D4D0402BBAD01168480502D5802B48
:1024F00000F0CB80D2F8900010F002003FF459AF0A
:10250000C02BBAE7D2F8883013F44063BFD0B3F5DC
:10251000806FA4D01168490503D5B3F5006F00F0B2
:10252000B480D2F8900010F002003FF442AFB3F54F
:10253000406FA2E7D2F8883013F44053A7D0B3F528
:10254000805F8CD0106810F480603FF432AFB3F538
:10255000005F1448F7E6D2F8883013F4404396D071
:10256000B3F5804F3FF47BAF106810F480603FF408
:1025700020AFB3F5004FECE7D2F8883013F44033C6
:1025800085D0B3F5803F3FF46AAF106810F48060E7
:102590003FF40FAFB3F5003FDBE700BF0010024090
:1025A000688909000024F400002D3101006CDC0270
:1025B000D2F8881011F440113FF451AFB1F5801FEB
:1025C00010D1D06810F480103FF4F3AED068D26818
:1025D000C0F306205843C2F3415301335B00B0FB04
:1025E000F3F07047B1F5001F51D0106810F480600F
:1025F0003FF4DFAEB1F5401FABE7D2F8881011F41D
:1026000040013FF42CAFB1F5800FDAD0B1F5000FE7
:102610003DD013685B057FF5CBAEB1F5400F98E771
:10262000D2F8881001F04071B1F1007F3FF42FAF74
:1026300079B3B1F1807F7FF4BBAEC2E7D2F88810E6
:1026400001F04051B1F1805F14D1D06810F48030B6
:102650003FF4AFAED168D068C00EC1F3062105D1FA
:10266000D26812F4003F0CBF072011204B43B3FB8C
:10267000F0F07047B1F1005F7FF49AAEEFE64FF4EF
:10268000004070474FF4FA407047034870470348D2
:1026900070470348704700BF0024F4000080BB006F
:1026A000002D3101F7B50E4614460546FEF738FEFB
:1026B0003444241AFEF734FE224B1B68C3F3CB3399
:1026C0006343074601932A68906810F080002DD07C
:1026D000731CF9D0FEF724FEC01BA04228D32B6840
:1026E0005A6822F0E0025A606A68B2F5827F0AD125
:1026F000AA68B2F5004F02D0B2F5806F03D11A6814
:1027000022F040021A60AA6AB2F5005F07D11A6887
:1027100022F400521A601A6842F400521A6001232F
:1027200085F85D30002385F85C30032003B0F0BDF0
:10273000019A019B002A03F1FF33019308BF14465D
:10274000C1E700BF040000202DE9F7431C46002329
:1027500017468DF8033005460E46FEF7E1FD3C4472
:10276000241AFEF7DDFD294BD5F800901B682322C3
:1027700053431B0D6343804601932A6890683040A1
:1027800038D0B6F5C06F01BF99F80C30DBB28DF8C8
:1027900003309DF803307B1CF0D0FEF7C1FDA0EBA9
:1027A0000800A04229D32B685A6822F0E0025A6040
:1027B0006A68B2F5827F0AD1AA68B2F5004F02D0EA
:1027C000B2F5806F03D11A6822F040021A60AA6A3B
:1027D000B2F5005F07D11A6822F400521A601A6835
:1027E00042F400521A60012385F85D30002385F819
:1027F0005C30032003B0BDE8F083019A019B002AFE
:1028000003F1FF33019308BF1446B6E7040000202C
:1028100070B513460D4616460A464FF4C05104469D
:10282000FFF792FF28B1236E43F0200323660320B5
:1028300070BD324629462046FFF734FF0028F2D10A
:1028400033462A464FF4C0612046FFF77DFF00283B
:10285000EED0E8E770B50446002867D0436A002B45
:102860005DD14268B2F5827F00D0C3610023A362CC
:1028700094F85D3003F0FF0223B984F85C20204611
:10288000FEF7ECFB2268E068022384F85D301368F1
:10289000B0F5E06F23F0400313604FF0000342D91E
:1028A0001D46B0F5706F18BFA362A6686368A16982
:1028B00006F4044603F482733343266906F00206E5
:1028C0003343666906F00106334301F4007633436F
:1028D000E66906F038063343266A06F0800633437D
:1028E000A66A06F4005633431360666B636A06F00B
:1028F000080603F0100300F470603343090C03432F
:1029000001F004010B432B435360D36923F40063AC
:10291000D36100200123206684F85D3070BD002360
:10292000C0E90433A2E74FF48055BCE70120F5E786
:102930002DE9F74304461F460D469046FEF7F0FC8E
:1029400094F85D30012B8146D8B240F0B580002D5F
:1029500076D0B8F1000F73D094F85C30012B00F002
:10296000AB80032384F85D3000232366C4E913336E
:10297000A4F83E802364A4F84430A4F84630A36849
:10298000266884F85C00B3F5004FA563A4F83C808A
:1029900007D1336823F040033360336843F4804346
:1029A00033603368E2685B065EBF336843F0400320
:1029B0003360B2F5E06F636845D913B1B8F1010F28
:1029C00007D135F8023BF360A563E38F013B9BB26F
:1029D000E387E38F9BB2D3B94A4639462046FFF7D7
:1029E00017FF002865D1A36833B901932368DA681B
:1029F00001929B680193019B012384F85D30206E56
:102A00000023C01A84F85C3018BF012018E0226847
:102A100093689D0705D5A36B33F8021BD160A363B0
:102A2000D3E7FEF77DFCA0EB0900B842D1D3781CB8
:102A3000CFD0012384F85D30002384F85C3003207C
:102A400003B0BDE8F08313B1B8F1010F13D1E38FE8
:102A50009BB2012B06D935F8023BF360A563E38FE7
:102A6000023B06E02B783373A36B0133A363E38F40
:102A7000013B9BB2E387E38F9BB2002BACD0226873
:102A8000936899070CD5E18FA36B89B2012904D90A
:102A900033F8021BD160A363E1E71B781373E3E70C
:102AA000FEF73EFCA0EB0900B842E4D37B1CE2D069
:102AB000BFE72023236696E70220C1E738B590F8E8
:102AC0005D30012B0446DDB273D1002951D0002ABC
:102AD0004FD090F85C30012B6BD0032380F85D3031
:102AE00000230366C0E91333C2870364A0F84430AF
:102AF000A0F8463083688287B3F5004F026880F8FB
:102B00005C50816307D1136823F04003136013689E
:102B100043F480431360606D274B0363274BC3620C
:102B2000274B436300238363536823F4804353603C
:102B3000E368B3F5E06F0FD88369B3F5806F0BD10D
:102B4000E38F13F0010F536815D123F480435360D2
:102B5000E38FC3F34E03E387E38F0C329BB2FEF7A0
:102B60000BFD80B1236E43F010032366002384F82D
:102B70005C30284638BD43F480435360E38FC3F391
:102B80004E030133E7E723681A68520658BF1A68F4
:102B90004FF000055CBF42F040021A6084F85C50C0
:102BA0005A6842F020025A605A6842F002025A60A3
:102BB000DFE70225DDE700BFC92B0008F72B00087F
:102BC000D52B00087047704708B5806AFFF7FBFFF8
:102BD00008BD7047806A026808B5536823F0030394
:102BE0005360036E43F010030366012380F85D30E9
:102BF000FFF7EFFF08BD37B50546846AFEF790FB87
:102C00002B681B689B06024626D42368596821F06E
:102C100020015960596821F0020159602046642161
:102C2000FFF7F6FD18B1236E43F020032366A36877
:102C300033B901932368DA6801929B680193019B81
:102C40000023E387012384F85D30236E23B12046FF
:102C5000FFF7BFFF03B030BD2046FFF7B3FFF9E732
:102C6000036A026A22F0010270B502624468826956
:102C70000D6822F4803222F073022A438D6823F01B
:102C800002032B43124DA8420FD005F50065A84260
:102C90000BD005F54065A84207D005F58065A84230
:102CA00003D005F58065A8420BD1CD6823F0080359
:102CB0002B4324F44075D1E90546344323F0040343
:102CC0002C43446082614A684263036270BD00BF66
:102CD000002C0140036A026A22F4807270B502621D
:102CE0004468C2690D6822F4803222F073022A43DC
:102CF0008D6823F4007343EA0523144DA8420FD0D6
:102D000005F50065A8420BD005F54065A8420FD136
:102D100024F44055D1E90546344345EA04140EE055
:102D2000CD6823F4006343EA052323F48063EFE7CF
:102D3000074DA842ECD005F58065A842E8D0446074
:102D4000C2614A68C263036270BD00BF002C0140CB
:102D500000440140036A026A22F4805270B50262A4
:102D60004468C2690D6822F0807222F4E64242EAA9
:102D700005228D6823F4005343EA0533134DA8421E
:102D80000FD005F50065A8420BD005F54065A842B7
:102D90000FD124F44045D1E90546344345EA841473
:102DA0000EE0CD6823F4004343EA053323F4804367
:102DB000EFE7074DA842ECD005F58065A842E8D0C2
:102DC0004460C2614A680264036270BD002C014025
:102DD00000440140036A026A22F4803230B5026284
:102DE0004468026D0D6822F4803222F070022A439A
:102DF0008D6823F4003343EA05430F4DA8420FD0FA
:102E000005F50065A8420BD005F54065A84207D03E
:102E100005F58065A84203D005F58065A84204D178
:102E20004D6924F4803444EA0524446002654A680C
:102E30008264036230BD00BF002C0140036A026A55
:102E400022F4801230B502624468026D0D6822F0EF
:102E5000807222F4E04242EA05228D6823F40013D6
:102E600043EA05530E4DA8420FD005F50065A84270
:102E70000BD005F54065A84207D005F58065A8424E
:102E800003D005F58065A84204D14D6924F480245F
:102E900044EA8524446002654A68C264036230BD26
:102EA000002C014070470000274A036890420ED072
:102EB000B0F1804F0BD0A2F59432904207D002F5CA
:102EC0008062904203D002F59632904208D14A685F
:102ED00023F070031343CA6823F4407313430AE0DA
:102EE0001A4A9042F7D002F580629042F3D002F580
:102EF00080629042EFD04A6923F08003134303605D
:102F00008B68C3620B6883620F4B98420FD003F546
:102F1000006398420BD003F54063984207D003F555
:102F20008063984203D003F58063984201D10B6916
:102F30000363012343610369DB0742BF036923F095
:102F400001030361704700BF002C014000400140B5
:102F500010B5044650B390F83D3003F0FF021BB9A2
:102F600080F83C20FEF7C4F80223206884F83D3046
:102F7000211DFFF799FF012384F84830002084F8D1
:102F80003E3084F83F3084F8403084F8413084F893
:102F9000423084F8433084F8443084F8453084F873
:102FA000463084F8473084F83D3010BD0120FCE7FE
:102FB00010B5044650B390F83D3003F0FF021BB942
:102FC00080F83C20FFF76EFF0223206884F83D3034
:102FD000211DFFF769FF012384F84830002084F8A1
:102FE0003E3084F83F3084F8403084F8413084F833
:102FF000423084F8433084F8443084F8453084F813
:10300000463084F8473084F83D3010BD0120FCE79D
:10301000036A026A22F0100270B502624468826993
:103020000D6822F0807222F4E64242EA05228D68A1
:1030300023F0200343EA0513134DA8420FD005F5F2
:103040000065A8420BD005F54065A8420FD124F4D5
:103050004065D1E90546344345EA84040EE0CD6875
:1030600023F0800343EA051323F04003EFE7074D05
:10307000A842ECD005F58065A842E8D044608261A2
:103080004A688263036270BD002C01400044014025
:1030900038B590F83C30012B044673D001200C2A3F
:1030A00084F83C004ED008D8042A2BD0082A39D006
:1030B000BAB1002384F83C3038BD102A52D0142A0B
:1030C000F7D12068FFF7BAFE036D0A6943F4006385
:1030D0000365036D23F480630365036D43EA0223F4
:1030E0004EE02068FFF7BCFD83690A6943F00803DE
:1030F0008361836923F004038361836913438361DC
:103100000020D6E72068FFF783FF83690A6943F44C
:1031100000638361836923F480638361836943EA85
:103120000223ECE72068FFF7D5FDC3690A6943F085
:103130000803C361C36923F00403C361C369134374
:10314000C361DDE72068FFF705FEC3690A6943F440
:103150000063C361C36923F48063C361C36943EA45
:103160000223EDE72068FFF735FE036D0A6943F09F
:1031700008030365036D23F004030365036D134324
:103180000365BDE7022097E7036A10B501F01F0150
:1031900001248C4023EA04030362036A8A401A4331
:1031A000026210BD082908B518D005D859B1042904
:1031B00011D090F8433008E00C2912D01029F8D132
:1031C00090F8423001E090F83E30013B18BF0123F7
:1031D00053B1012045E090F83F30F6E790F84030D9
:1031E000F3E790F84130F0E708294FF002033CD0B4
:1031F00006D861B1042935D0022380F8433008E0B5
:103200000C2935D01029F7D180F8423001E080F840
:103210003E3000680122FFF7B7FF214B98420FD0E4
:1032200003F5006398420BD003F54063984207D042
:1032300003F58063984203D003F5806398421AD166
:10324000436C43F400434364154B984203D003F5A9
:10325000006398421ED18268124B1340062B1BD18B
:10326000002008BD80F83F30D3E780F84030D0E739
:1032700080F84130CDE7B0F1804FECD00A4B984256
:10328000E9D003F580639842E5D0036843F0010379
:103290000360E5E7054BF6E7B3F5803FF5D1DFE7DF
:1032A000002C0140070001000004004000400140E4
:1032B000FFF778BF10B590F83C30012B02463FD0A5
:1032C000CB6888681F4C23F440730343486823F499
:1032D00080630343086823F400630343086923F40D
:1032E00080530343486923F400530343086B23F4DA
:1032F00080430343886923F4702343EA0043C86989
:1033000023F0805303431068A04203D004F5006407
:10331000A04210D18C6A23F4700343EA04530C6A70
:1033200023F0807323434C6AC96A23F0007323435C
:1033300023F000530B434364002082F83C0010BD8F
:103340000220FCE7002C014013B50E4C8DF807005D
:10335000002220460421FEF763FA204600220121C4
:10336000FEF75EFA4FF0FF330DF107010122064828
:10337000FFF7DEFA012204212046FEF751FA02B0DF
:1033800010BD00BF00040048AC02002013B50E4C75
:103390008DF80700002220460421FEF741FA0122A1
:1033A00011462046FEF73CFA4FF0FF330DF10701BE
:1033B00001220648FFF7BCFA012204212046FEF74D
:1033C0002FFA02B010BD00BF00040048AC0200207C
:1033D0002DE9F843002205460C461948DFF86890AD
:1033E000184F0421FEF71CFA012215481146FEF77A
:1033F00017FA4FF6FF7834B9BDE8F84310480122B8
:103400000421FEF70DBAB9F800304445264628BF1E
:103410004646A342B2B20BD80A482946FFF74EFBF4
:103420007A6D92F82530012BFBD13544A41BE2E7DD
:103430004FF0FF3329463846FFF77AFAF5E700BF29
:1034400000040048AC020020180000202DE9F341E0
:10345000194F80460D4638460421164600221C4668
:10346000FEF7DEF92A20FFF76FFF04210DEB0100C4
:1034700098FA98F876BAADF80480ADF80660FFF7D0
:10348000A7FF2B20FFF760FF2335042123340DEB2A
:1034900001006DBA64BAADF80450ADF80640FFF70C
:1034A00097FF2C20FFF750FF01220421384602B07D
:1034B000BDE8F041FEF7B4B90004004810B5044679
:1034C0003620FFF741FF032C0ED8DFE804F0020797
:1034D000090BC020BDE81040FFF758BFA020F9E756
:1034E0000020F7E76020F5E710BD0000F8B50022E6
:1034F00046BA04211848194FFEF792F9B6B20024D3
:103500000A25631E2B449BB240F23F122146002045
:10351000FFF79CFF4FF4A07310496B430022013268
:103520009A4221F8026BFAD34FF420710A346943AE
:103530003846A4B2FFF74CFFAA2C06D1BDE8F840EC
:10354000054801220421FEF76BB9A02C86BFC4F107
:10355000AA05ADB20A25D4E70004004854030020B0
:1035600030B54FF4C85285B00021534800F019FF20
:10357000002204215148FEF753F90A20FDF7D6FE38
:10358000002202214D48FEF74BF90A20FDF7CEFE3E
:10359000012202214948FEF743F91420FDF7C6FE37
:1035A0003A20FFF7D1FE5520FFF7F0FEB220FFF7DB
:1035B000CBFE434B186800901B798DF80430052131
:1035C0006846FFF705FF0120FFF778FFB720FFF7F8
:1035D000BBFE3520FFF7DAFEBB20FFF7B5FE192052
:1035E000FFF7D4FEC020FFF7AFFE2C20FFF7CEFE82
:1035F000C220FFF7A9FE0120FFF7C8FEC320FFF796
:10360000A3FE1220FFF7C2FEC420FFF79DFE20207C
:10361000FFF7BCFEC620FFF797FE0F20FFF7B6FEB0
:10362000D020FFF791FEA420FFF7B0FEA120FFF706
:10363000ADFEE020FFF788FE224B6A4603F1080545
:1036400018685968144603C40833AB422246F7D1C0
:1036500018689B88A38020600E216846FFF7B8FE9B
:10366000E120FFF771FE184B6A4603F10805186860
:103670005968144603C40833AB422246F7D1186890
:103680009B88A3800E2120606846FFF7A1FE2120C1
:10369000FFF75AFE1120FFF757FE1320FFF754FEE5
:1036A0002920FFF751FE3220FDF740FE002005B033
:1036B000BDE83040FFF71ABF540300200004004863
:1036C00058650008C2780008D178000882B02DE95A
:1036D000F74F81468A46DEB2C3F307252048BDF87E
:1036E00040700D93144604210022BDF83C80FEF783
:1036F00097F86B1E721E53444A44514648469BB28B
:1037000092B2203CFFF7A2FE6C4364004FF0000928
:1037100097FA97FAA94508D311480122042103B06A
:10372000BDE8F04F02B0FEF77BB80E9B33F804B053
:103730000027BE4203D809F101090234EAE70BFA77
:1037400007F31B0409D598FA98F3ADF80430022169
:1037500001A8FFF73DFE0137EBE7ADF804A0F6E75F
:10376000000400482DE9FF4705460C4691461A48DB
:103770000E9E9DF830709DF83180002204219A46FB
:10378000FEF74EF816F8012B3AB91348012204212E
:1037900004B0BDE8F047FEF743B8E319B3F5A07FE6
:1037A0000ADB08EB05018DB218FA81F1A929ECDCDE
:1037B000202A4FF00004E5D00D9B8DF830708DF875
:1037C000318000932046CDE9019A0C9B29463C4468
:1037D000FFF77CFFA4B2D5E70004004810B52DED3B
:1037E000028B94B0FDF79CFD04464FF4FC60FFF79C
:1037F0007DFEFDF795FD031B07EE903A9FED1C7AC9
:103800001C4A1D4CF8EE677A402187EE278A04A8EF
:1038100000F04EFD04AB029394E803004FF6FF73F3
:103820008DE8030000220A211E20FFF79BFF18EEFF
:10383000100AFCF7B1FE114ACDE90001402104A8AD
:1038400000F036FD04AB029394E803004FF6FF73DB
:103850008DE8030000220A213C20FFF783FF4FF48C
:103860007A70FDF763FD14B0BDEC028B10BD00BF94
:1038700000007A44E078000810000020EE7800088C
:103880002DE9FF4757EC106B002F0C4619463B46BD
:10389000BBBF07F100431F4600232D230B700D9B78
:1038A000DDF830A0914623F02008BCBF3246164612
:1038B000B8F1460F05D0B8F1450F00D1013402210F
:1038C00000E0032103AB019302AB009347EC106BC4
:1038D0005346224600F070FEB8F1470F054619D155
:1038E00019F0010F0ED000EB04090022002330462E
:1038F0003946FDF711F908B1CDF80C903022039B41
:103900004B451ED3039B0E9A5B1B2846136004B0E5
:10391000BDE8F087B8F1460F00EB0409E5D1037864
:10392000302B0AD10022002330463946FDF7F4F847
:1039300018B9C4F10104CAF80040DAF8003099441B
:10394000D3E7591C03911A70D9E7F7B50029BABF1C
:1039500049422D232B2309290270437029DD0DF1E3
:1039600007031D460A271A46B1FBF7F607FB161494
:10397000303402F8014C0C46632C03F1FF3331461E
:10398000F1DC3031941E03F8011C411C2346AB428C
:103990000AD30DF109039B1AAC4288BF00230233FE
:1039A0000344181A03B0F0BD13F8016B01F8016F5E
:1039B000EDE7302330318370C170031DF1E7000063
:1039C0002DE9F04F8DB00C46DDF8588016461F46A5
:1039D000054600F0EFFC036804931846FCF770FC02
:1039E00000230A93D8F800300590073323F007032B
:1039F00003F1080294F818A0D4F800B0C8F8002029
:103A0000D3E9008929F000430793CDF81880C4E971
:103A10001289DDE906019C4B4FF0FF32FDF7AEF84D
:103A200070BBDDE90601984B4FF0FF32FDF788F8D7
:103A300030BB0022002340464946FDF777F810B11D
:103A40002D2384F84330914A914BBAF1470F8CBF34
:103A500090469846032323612BF0040323604FF024
:103A60000009009733460BAA2146284600F0D2F9F8
:103A7000013040F08D804FF0FF300DB0BDE8F08F89
:103A800042464B4640464946FDF778F840B14B4622
:103A9000002BBCBF2D2384F843307E4A7E4BD4E7F5
:103AA00063680AF0DF0206925A1C3BD1062363606A
:103AB0004BF480620023226003930AABCDE901A39B
:103AC00009AB0093616849EC108B0DF12303284684
:103AD000FFF7D6FE069B0999472B804629D1C81CC3
:103AE00002DB6368994241DDAAF1020A5FFA8AFAB1
:103AF0000139524604F150000991FFF726FF0A9A56
:103B00001318012A8146236102DC2268D20701D5FD
:103B1000013323619DF82330002BA2D02D2384F89C
:103B200043309EE7069A472AC2D1002BC0D1012319
:103B3000BDE7BAF1650FDBD9BAF1660F18D10029DC
:103B400063680BDD216113B92268D00702D5013308
:103B50000B442361A1654FF00009DBE713B922682C
:103B6000D20701D50233F4E70123F2E74FF0670AE9
:103B70000A9B994205DB23682161D807EAD54B1CD3
:103B8000E7E70029D4BFC1F1020201221344E0E7B4
:103B900023685A0507D42369424631462846B84768
:103BA00001302BD167E7BAF1650F40F2DD80D4E92F
:103BB000120100220023FCF7AFFF002833D0374A60
:103BC000012331462846B84701303FF454AFDDE9C0
:103BD0000938434502DB2368D8070FD5DDE9042304
:103BE00031462846B84701303FF445AF4FF0000951
:103BF00008F1FF3804F11A0AC84509DC23689B075D
:103C000000F10381E0680B9B9842B8BF184634E787
:103C10000123524631462846B84701303FF42BAFC6
:103C200009F10109E8E7099B002B39DC1B4A012354
:103C300031462846B84701303FF41DAFDDE9093968
:103C400059EA030302D12368D907D7D5DDE9042354
:103C500031462846B84701303FF40DAF4FF0000A17
:103C600004F11A0B099B5B42534501DC4B4693E779
:103C700001235A4631462846B84701303FF4FBAE8F
:103C80000AF1010AEEE700BFFFFFEF7FFC780008B2
:103C9000F87800080479000800790008087900081D
:103CA000A36DDDF828A05345A8BF5346002B9946C5
:103CB00036DC4FF0000B29EAE97904F11A02A36D12
:103CC0000693A3EB09035B4531DC099B9A453ADC7B
:103CD0002368DA0737D4099BAAEB0309069BAAEBF2
:103CE00003039945A8BF9946B9F1000F33DC4FF0A3
:103CF000000829EAE97904F11A0B099BAAEB0303EE
:103D0000A3EB090343457FF779AF01235A463146B8
:103D10002846B84701303FF4AEAE08F10108ECE7A1
:103D2000424631462846B8470130C2D1A3E60123B6
:103D3000314628460692B84701303FF49CAE069AB9
:103D40000BF1010BBBE7DDE9042331462846B847F8
:103D50000130C0D18FE6069A4B4642443146284690
:103D6000B8470130C3D186E6DDF828A0BAF1010FCB
:103D700001DCDB0736D50123424631462846B847E9
:103D800001303FF478AEDDE9042331462846B847D8
:103D900001303FF470AED4E91201002200230AF191
:103DA000FF3AFCF7B9FEC0B9534608F101023146AB
:103DB0002846B84701300CD15DE601235A4631460A
:103DC0002846B84701303FF456AE08F10108D04507
:103DD000F3DB4B4604F15002DFE64FF0000804F13C
:103DE0001A0BF4E701234246E1E701234A46314634
:103DF0002846B84701303FF43EAE08F10108E368B9
:103E00000B995B1A4345F0DCFCE64FF0000804F127
:103E10001909F4E72DE9F047164698468A680B69B8
:103E2000DDF820909342B8BF1346336091F84320E9
:103E300007460C460AB1013333602368990642BF36
:103E4000336802333360256815F0060506D104F1A6
:103E5000190AE36832689B1AAB4226DC94F84330B7
:103E60002268003B18BF012392062BD404F14302C1
:103E700041463846C84701301ED02368226903F006
:103E80000603042B02BFE5683368ED1AA3680CBF74
:103E900025EAE57500259342C4BF9B1AED1800265C
:103EA0001A34B5421AD1002008E001235246414697
:103EB0003846C847013003D14FF0FF30BDE8F087E6
:103EC0000135C6E7E1185A1C302081F8430022442E
:103ED00094F8451082F843100233C7E701232246C5
:103EE00041463846C8470130E6D00136D9E70000E0
:103EF0002DE9FF470F7E0C9E782F914680460C4699
:103F00009A4601F1430207D8622F0AD8002F00F029
:103F1000D180582F00F0B88004F1420684F8427036
:103F20003AE0A7F16303152BF6D801A151F823F06D
:103F3000893F00089D3F0008193F0008193F00080D
:103F4000193F0008193F00089D3F0008193F00086D
:103F5000193F0008193F0008193F00089B4000085E
:103F6000C73F000855400008193F0008193F0008E6
:103F7000BD400008193F0008C73F0008193F00086E
:103F8000193F00085D40000833681A1D1B68326045
:103F900004F1420684F8423001239CE03368206833
:103FA000191D3160060601D51D6803E04506FBD5E5
:103FB000B3F90050002D03DA2D236D4284F843300D
:103FC00058480A2311E021683368080653F8045B57
:103FD00002D4490648BFADB26F2F5248336014BFB8
:103FE0000A230823002184F843106668A660002E87
:103FF00005DB21682E4321F0040121604BD01646D9
:10400000B5FBF3F103FB1157C75D06F8017D2F46A1
:10401000BB420D46F4D9082B0BD12368DF0708D526
:10402000236961689942DEBF302306F8013C06F13E
:10403000FF36921B2261CDF800A04B4603AA214611
:104040004046FFF7E7FE01304AD14FF0FF3004B0A1
:10405000BDE8F087236843F02003236032487827C7
:1040600084F84570236831681F0651F8045B02D458
:104070005F0648BFADB23160D90744BF43F02003AB
:1040800023601DB11023ADE72648E9E7236823F03C
:1040900020032360F6E71646BDE7336825686169AB
:1040A000181D30602E061B6801D5196002E06806F5
:1040B000FBD51980002323611646BCE733681A1D1F
:1040C00032601E68626800213046FCF7A9F808B12A
:1040D000801B606063682361002384F84330AAE793
:1040E0002369324649464046D0470130ADD0236867
:1040F0009B0713D4E068039B9842B8BF1846A6E715
:104100000123324649464046D04701309DD0013513
:10411000E36803995B1AAB42F2DCEBE7002504F19C
:104120001906F5E70A7900081B790008002310B585
:104130000446C0E90033C0E90433836081814366EB
:10414000C2818361194608225C3000F02AF90D4BC8
:1041500063620D4BA3620D4BE3620D4B23630D4B6A
:1041600024629C4206D003F16802944202D0D0330C
:104170009C4205D104F15800BDE8104000F08EB912
:1041800010BD00BF1D4300083F43000877430008EF
:104190009B430008541C0020024A0349034800F0D6
:1041A00069B800BF1C000020055E00082C0000203C
:1041B00041680C4B994210B5044601D001F022FE33
:1041C000A168094B994202D0204601F01BFEE1682C
:1041D000064B994204D02046BDE8104001F012BEC3
:1041E00010BD00BF541C0020BC1C0020241D00205A
:1041F00010B50B4B0B4C0C4A1A60204600220421D0
:10420000FFF794FF04F1680001220921FFF78EFFF8
:1042100004F1D0000222BDE810401221FFF786BF52
:104220008C1D0020541C002099410008014800F01A
:1042300036B900BF951D0020014800F031B900BF1C
:10424000951D002010B50446FFF7F0FF236A1BB14F
:10425000BDE81040FFF7F0BF044B2362044B1B681E
:10426000002BF5D1FFF7C4FFF2E700BFB141000812
:104270008C1D00202DE9F843074688461446002689
:10428000D4E90195B9F1010905D52468002CF7D1CD
:104290003046BDE8F883AB89012B07D9B5F90E305C
:1042A000013303D029463846C04706436835E9E75D
:1042B0000CB430B5184B0C1E1D689DB008DA8B236A
:1042C0002B604FF0FF301DB0BDE8304002B07047AA
:1042D0004FF40273ADF814304FF000031B9314BF7A
:1042E00004F1FF332346049307934FF6FF730290C4
:1042F0000690ADF81630209A21AB02A9284601930A
:1043000001F000FC431CBCBF8B232B60002CDAD0D7
:10431000029B00221A70D6E72800002010B50C4638
:10432000B1F90E1000F06CF80028ABBF636DA389E3
:104330001B1823F48053ACBF6365A38110BD2DE926
:10434000F0411F468B89DB0505460C46164605D510
:10435000B1F90E100223002200F040F8A389B4F94D
:104360000E1023F48053A38132463B462846BDE815
:10437000F04100F057B810B50C46B1F90E1000F03E
:104380002DF8431CA38915BF606523F4805343F4C3
:104390008053A38118BFA38110BDB1F90E1000F0A6
:1043A0000DB802440346934200D1704703F8011B45
:1043B000F9E70000004870476801002038B5064D55
:1043C0000023044608462B60FCF708FF431C02D17B
:1043D0002B6803B1236038BD901D002038B5074D10
:1043E00004460846114600222A601A46FCF700FFE0
:1043F000431C02D12B6803B1236038BD901D0020FF
:1044000038B5074D04460846114600222A601A4670
:10441000FCF7C8FE431C02D12B6803B1236038BDF2
:10442000901D002038B5074D04460846114600226D
:104430002A601A46FCF7C4FE431C02D12B6803B164
:10444000236038BD901D0020014B1868704700BFE5
:104450002800002070B50D4D0D4C641BA4100026E3
:10446000A64209D10B4D0C4C02F06AF8641BA41053
:104470000026A64205D170BD55F8043B9847013689
:10448000EEE755F8043B98470136F2E7747C0008E4
:10449000747C0008747C0008787C000870477047C2
:1044A00070472DE9F74F03690C69A34207467EDB8D
:1044B000013C01F11408A30000F11405009305EB81
:1044C0008403019358F8243055F8242001339A428C
:1044D00008EB8409B2FBF3F62ED34FF0000AC44672
:1044E000AE46D3465CF8043B98B206FB00A0020C33
:1044F0001B0C06FB0323DEF8002080B292B2121AD6
:104500005A44DEF800004FEA134A9BB2C3EB224341
:1045100003EB104392B242EA0342E1454EF8042B0A
:104520004FEA234BDED2009BEB582BB9019B043B97
:104530009D421A462FD33C61384601F07FF900288E
:1045400025DB2946002058F8042BD1F800C01FFABB
:1045500082FE1FFA8CF3A3EB0E030344120CC2EB92
:10456000234202EB1C429BB243EA0243C14541F89D
:10457000043B4FEA2240E6D255F8242005EB8403A1
:1045800022B9043B9D421A460BD33C6101363046AA
:1045900003B0BDE8F08F1268043B002ACBD1013C88
:1045A000C6E71268043B002AEFD1013CEAE700208D
:1045B000EEE70000000000002DE9F04FC76997B05A
:1045C0008DED040B55EC104B209E079181460C920B
:1045D00011937FB9102000F009FE0246C9F81C00B3
:1045E00020B9A94BEF21A94801F06CFCC0E9017783
:1045F0000760C760D9F81C30196859B15A684A6019
:10460000012393408B60484600F0E6FED9F81C3049
:1046100000221A602B1EB9BF23F00043059300232C
:104620003360059F9A4BBCBF01223260BB4312D15D
:10463000119A42F20F731360C7F31303234300F080
:104640005A85219BDFF85CA2002B00F05C850AF103
:10465000030300F056BD9DED047B002251EC170BC7
:1046600000238DED0A7BFCF757FA804658B1119A6A
:1046700001231360219B13B1219A864B1360DFF84D
:1046800028A200F040BD9DED0A0B14AA15A94846CA
:1046900001F084F9C7F30A560290002E78D00B9BE4
:1046A000CDF84880C3F31303DDE90A0143F07F53DB
:1046B00043F44013A6F2FF3619460022764BFBF76F
:1046C0000BFE6BA3D3E90023FBF7BEFF6AA3D3E97C
:1046D0000023FBF703FE044630460D46FBF74AFF76
:1046E00067A3D3E90023FBF7AFFF02460B46204642
:1046F0002946FBF7F3FD04460D46FCF755FA002268
:104700000746002320462946FCF710FA40B13846F8
:10471000FBF730FF22462B46FCF7FEF900B9013FBC
:10472000162F52D85D4B03EBC703D3E90023DDE915
:104730000A01FCF7FBF9002849D0013F0023109340
:10474000149B9B1B5A1E45BFC3F10103009300231A
:104750000023069254BF00930693002F39DB069B7B
:104760000D973B44069300230893079B092B63D8BE
:10477000052BC4BF043B0793079BA3F10203CCBFE7
:1047800000240124032B63D8DFE803F05254372BB5
:10479000DDE914631E4406F23243202BC1BFC3F18E
:1047A00040039F4006F2124324FA03F3D6BFC3F13D
:1047B000200347EA030004FA03F0FBF7CBFE0122D3
:1047C000A1F1F873013E129276E70123B7E710904A
:1047D000B6E7009BDB1B00937B42089300230D93FD
:1047E000C3E7012309930C9B07EB030B0BF10103B8
:1047F000012B0393B8BF012306E0012309930C9B0F
:10480000002B28DD9B460393D9F81C0000210422CD
:1048100002F114059D4226D94160484600F09CFDF6
:104820008246002842D11E4B024640F2AF11DAE622
:104830000023E3E70023D5E701240023079309942D
:104840004FF0FF3B0022CDF80CB012230C92DBE7B7
:1048500001230993F4E74FF0010BCDF80CB05B4650
:10486000CDF830B0D0E701315200D1E7AFF300808E
:1048700061436F63A787D23FB3C8608B288AC63F66
:10488000FB799F501344D33F3979000850790008D1
:104890000000F07F097900080000F83FA07A0008C6
:1048A000A87900083579000808790008D9F81C3083
:1048B0001860039B0E2B00F2A180002C00F09E805C
:1048C000002F33DD9C4B07F00F0203EBC20393ED87
:1048D000007BF8058DED0E7B4FEA271416D5974B1C
:1048E000DDE90A01D3E90823FBF7D8FFCDE904018C
:1048F00004F00F040326914D54B9DDE90E23DDE9E0
:104900000401FBF7CBFFCDE9040128E00226F2E722
:10491000E10708D5DDE90E01D5E90023FBF794FE98
:10492000CDE90E01013664100835E5E700F0AF80EF
:104930007C42814B814D04F00F0203EBC203D3E9AB
:104940000023DDE90A01FBF77FFECDE90401241114
:1049500000230226002C40F08F80002BD3D1109B27
:10496000DDE90445002B00F09480754B00222046C1
:104970002946FCF7DBF8002800F08B80039B002B16
:1049800000F08780BBF1000F34DD20466D4B002224
:104990002946FBF759FECDE9040107F1FF3801363E
:1049A0005C463046FBF7E6FDDDE90423FBF74CFEF1
:1049B000654B0022FBF792FC0546A1F15076002CD6
:1049C0006AD1DDE90401614B0022FBF785FC024658
:1049D0000B46CDE904232A463346FCF7C5F80028E8
:1049E00040F09882DDE904012A4606F10043FCF715
:1049F0009DF838BBDDE90A34CDE90434159B002B62
:104A0000C0F257810E2F00F354814B4B03EBC703C9
:104A100093ED007B0C9B002B8DED007B80F2E580FD
:104A2000039B002B00F3E1800CD1484B002251EC9A
:104A3000170BFBF709FEDDE90423FCF78BF80028D0
:104A400000F06682002425460C9B56466FEA030858
:104A500000272146484600F0BFFC002D00F0BD8035
:104A60002FB1AF4203D03946484600F0B5FC294685
:104A7000484600F0B1FCB0E0E20705D5D5E90023D7
:104A8000FBF7E2FD013601236410083562E70226D8
:104A900065E7039CB84684E7274B099903EBC403F9
:104AA00053E902235444002954D029490020FBF73C
:104AB000F5FE33462A46FBF70FFCCDE90E015646BC
:104AC000DDE90401FCF770F80546FBF753FD0246EB
:104AD0000B46DDE90401FBF7FFFB303502460B46D0
:104AE000CDE9042306F8015BDDE90E23FCF71EF88F
:104AF000002872D1DDE9042311490020FBF7ECFB0B
:104B0000DDE90E23FCF712F8002840F0B480A6423D
:104B10003FF470AFDDE90E010A4B0022FBF794FD74
:104B2000084BCDE90E010022DDE90401FBF78CFD05
:104B3000CDE90401C4E700BFA07A0008787A000834
:104B40000000F03F0000244000001C400000144022
:104B50000000E03F31462846FBF776FDCDE90E0127
:104B600013945646DDE90401FCF71EF80546FBF7F1
:104B700001FD02460B46DDE90401FBF7ADFB3035D4
:104B800006F8015B02460B46A642CDE904234FF02E
:104B9000000224D1AF4BDDE90E01FBF79FFB02467B
:104BA0000B46DDE90401FBF7DFFF002863D1DDE9F7
:104BB0000E23A8490020FBF78FFB02460B46DDE9D8
:104BC0000401FBF7B3FF00283FF414AF139E731EDC
:104BD000139316F8013C302BF8D047463BE09E4B30
:104BE000FBF732FDCDE90401BCE7DDE9044556469B
:104BF000DDE9002320462946FBF750FEFBF7D4FFF2
:104C00008046FBF7B7FCDDE90023FBF71DFD0246FC
:104C10000B462046294608F13004FBF75DFB06F8F9
:104C2000014B039DA6EB0A04A54202460B4633D175
:104C3000FBF754FBDDE9002304460D46FBF794FF28
:104C4000C0B9DDE9002320462946FBF765FF10B116
:104C500018F0010F0ED10299484600F0BDFB002369
:104C60003370119B01371F60219B002B00F04B829A
:104C70001E6048E2B84633461E4613F8012D392A15
:104C800006D19A45F8D1302208F101088AF80020AF
:104C90001A7801321A70A0E76F4B0022FBF7D4FCA0
:104CA0000022002304460D46FBF736FF00289FD064
:104CB000D1E7099A002A00F0EA80079A012A00F356
:104CC000CD80129A002A00F0C18003F23343089C81
:104CD000009E009A1A440092069A01211A444846FE
:104CE000069200F02DFC054666B1069B002B09DDFF
:104CF000B342009AA8BF3346D21A0092069AF61A17
:104D0000D31A0693089B0BB3099B002B00F0C680B7
:104D1000002C00F0C08029462246484600F0C8FC1E
:104D2000029A01460546484600F020FC029980465A
:104D3000484600F051FB089B1B1B089300F0B18014
:104D4000089A4146484600F0B3FC029001214846CB
:104D500000F0F6FB0D9B0446002B00F0D8811A46AC
:104D60000146484600F0A4FC079B012B044600F3D3
:104D70009F80049B002B40F09780059BC3F3130397
:104D8000002B40F09380059B23F000431B0D1B0577
:104D900033B1009B01330093069B0133069301233B
:104DA00008930D9B002B00F0B881236904EB83036B
:104DB000186900F079FBC0F12000069B184410F040
:104DC0001F0000F08280C0F12003042B73DD009BE4
:104DD000C0F11C0003440093069B03440644069361
:104DE000009B002B05DD02991A46484600F0BAFCEC
:104DF0000290069B002B05DD21461A46484600F02E
:104E0000B1FC0446109B002B61D00298214600F0B3
:104E100015FD00285BDA002302990A22484600F0BB
:104E2000FDFA099B029007F1FF38002B00F0778113
:104E3000294600230A22484600F0F0FABBF1000F91
:104E400005466FDC079B022B49DC6BE0149BC3F12A
:104E500036033CE70000E03F00002440039B5C1E5B
:104E6000089BA34209DB1C1B039B002BBFF630AF42
:104E7000009B039A9E1A00232BE7089B0D9A089427
:104E8000E31A1A44009E039B0D92002421E7089C1C
:104E9000009E099D28E7DDF8088051E7089A0299ED
:104EA00050E7CDF8088051E7002379E7049B77E7C6
:104EB0000023089379E793D0009A1C331A44009298
:104EC000069A1A441E4406928AE70346F4E7039BB7
:104ED000002BB84620DC9B46079B022B1EDDBBF156
:104EE000000F7FF4B1AD21465B460522484600F035
:104EF00095FA01460446029800F0A0FC00287FF7CE
:104F0000A3AD5646312306F8013B08F101089FE5A1
:104F1000039CB8462546F4E7DDF80CB0099B002B4E
:104F200000F00181002E05DD29463246484600F09A
:104F300019FC0546089B002B5CD06968484600F0C8
:104F40000BFA064628B9824B024640F2EF21FFF7E2
:104F50004ABB2A690232920005F10C010C3000F0C4
:104F6000A3FF01223146484600F0FCFB0AF1010391
:104F700000930AEB0B030893049B03F001032F46F5
:104F800006930546009B0298214603F1FF3BFFF77D
:104F900088FA03463033039039460298099300F0AB
:104FA0004DFC2A4604902146484600F063FCC26846
:104FB000099B064602BB0146029800F03FFC099B94
:104FC0000246314648460C92099300F005FA079BC9
:104FD0000C9A009E42EA0301069B1943099B0DD1DE
:104FE000392B27D0049A002A01DD039B31338BF83B
:104FF00000302EE52846B9E70122E2E704990029AE
:1050000004DB079801430698014320D1002AEEDD16
:10501000029900930122484600F0A4FB2146029029
:1050200000F00CFC0028009B02DCE0D1DA07DED5A2
:10503000392BDAD139238BF8003033461E46013B39
:1050400016F8012C392A4ED001321A7001E5002AD7
:1050500003DD392BEED00133C9E7009A089902F835
:10506000013C8A4228D0029900230A22484600F0D7
:10507000D5F9AF4202904FF000034FF00A023946D3
:10508000484607D100F0CAF907460546009B0133A0
:10509000009377E700F0C2F92946074600230A2269
:1050A000484600F0BBF90546F0E7BBF1000FCCBF66
:1050B0005E46012656440027029900930122484685
:1050C00000F050FB2146029000F0B8FB0028B4DC51
:1050D00002D1009BDB07B0D433461E4613F8012DE6
:1050E000302AFAD0B5E49A45A8D1312308F1010855
:1050F0008AF80030ADE4219BDFF858A01BB10AF11B
:105100000803219A1360504617B0BDE8F08F079B43
:10511000012B7FF72EAE0D9B089301204DE6BBF1CE
:10512000000F7FF7D9AE564602982146FFF7B9F92E
:1051300000F1300306F8013BA6EB0A029345B4DD0B
:10514000029900230A22484600F068F90290EBE732
:10515000A87900082C79000838B50546002941D007
:1051600051F8043C0C1F002BB8BFE41800F0E8F81D
:105170001D4A136833B9636014602846BDE838409F
:1051800000F0E4B8A34208D9206821188B4201BF7F
:1051900019685B6809182160EDE71A465B680BB176
:1051A000A342FAD911685018A0420BD120680144DB
:1051B000501883421160E0D118685B68536008445E
:1051C0001060DAE702D90C232B60D6E7206821189B
:1051D0008B4204BF19685B68636004BF09182160D3
:1051E0005460CAE738BD00BF9C1D0020024B014639
:1051F000186800F025B800BF2800002070B50F4ED9
:105200000C463168054611B900F03EFE306021467B
:10521000284600F039FE431C03D14FF0FF342046EE
:1052200070BDC41C24F00304A042F8D0211A284603
:1052300000F02AFE0130F2D1EFE700BF981D0020F8
:105240002DE9F843CD1C25F0030508350C2D38BF9A
:105250000C25002D064601DBA94204D90C2333603E
:105260000020BDE8F883DFF8D48000F069F8D8F8B2
:1052700000301C4644BB29463046FFF7BFFF431CA5
:10528000044658D1D8F800402746002F43D1002CBF
:105290004BD023683946304604EB030900F0F4FD97
:1052A000814542D121686D1A29463046FFF7A6FF95
:1052B00001303AD023682B442360D8F800305A6874
:1052C00062BBC8F800700FE02268521B20D40B2A82
:1052D00017D96119A342256018BF5960636808BFD8
:1052E000C8F8001062514B60304600F02FF804F10E
:1052F0000B00231D20F00700C21A1CBF1B1AA3506D
:10530000AFE76268A3420CBFC8F800205A60EBE721
:1053100023466468AEE73C467F68B6E71A465B689A
:10532000A342FBD100235360DEE70C2333603046F9
:1053300000F00CF894E70560D6E700BF9C1D002044
:105340000148FFF7ACB800BF941D00200148FFF7EB
:10535000A7B800BF941D002070B5C66904460D466D
:1053600076B91020FFF742FF0246E06120B9184BE2
:1053700018486B2100F0A6FDC0E901660660C66012
:10538000E669F36883B1E369DB6853F82500B8B9CF
:10539000012101FA05F6721D9200204600F0B0FDD1
:1053A00060B1C0E901560EE021220421204600F040
:1053B000A7FDE369F060DB68002BE4D1002070BD3D
:1053C000026843F825200023C0E90333F7E700BF54
:1053D00039790008B979000870B5C66905460C46E8
:1053E00076B91020FFF702FF0246E86120B9094BA9
:1053F00009488F2100F066FDC0E901660660C660BD
:105400003CB1EB696268DB6853F82210216043F815
:10541000224070BD39790008B97900082DE9F041C2
:105420000D6907460C461E4601F1140C0020DCF8FD
:10543000003099B202FB01611E0C0B0C02FB06331B
:1054400089B2013001EB034185424CF8041B4FEA5D
:105450001346ECDC0EB3A368AB4219DC6168384636
:105460000131FFF779FF804628B902460C4B0D4801
:10547000BA2100F027FD2269023204F10C019200EA
:105480000C3000F011FD21463846FFF7A5FF4446D9
:1054900004EB850301355E6125612046BDE8F0819E
:1054A000A8790008B9790008B0F5803F034636BFF7
:1054B000030400201020B3F1807F3CBF1B020830A2
:1054C000B3F1805F3CBF1B010430B3F1804F3CBFA0
:1054D0009B000230002B05DB13F0804F00F1010030
:1054E00008BF202070470368024613F007000BD066
:1054F000D90721D4980749BF5B089B080120136096
:105500005CBF13600220704799B209B91B0C1020D0
:10551000D9B209B908301B0A190704BF1B090430A6
:10552000990704BF9B080230D90703D45B0800F138
:10553000010003D01360704700207047202070479F
:1055400010B50C460121FFF707FF024628B9054BAD
:10555000054840F2451100F0B5FC012344610361A8
:1055600010BD00BFA8790008B97900082DE9F04FF7
:1055700017460A693B699A42A8BF3B468946A4BFC1
:105580000F4699463D69D9F810A0BB68796805EBCC
:105590000A06B34285B0B8BF0131FFF7DDFE30B96E
:1055A0000246414B41484FF4B17100F08BFC00F1D1
:1055B000140404EB860E23460022734520D307F122
:1055C000140809F1140108EB850501EB8A03029325
:1055D000EB1B153B23F0030304331537BD4238BFE3
:1055E00004230193029B03918B420CD8002E03DD10
:1055F0005EF8043D002B55D0066105B0BDE8F08F84
:1056000043F8042BD9E7B1F800A0BAF1000F1FD07E
:10561000C446A14600275CF8042BD9F800301FFAD5
:1056200082FB9BB20AFB0B333B44D9F80070120C8F
:105630003F0C0AFB027202EB13429BB243EA0243A5
:10564000654549F8043B4FEA1247E4D8019BE7500F
:10565000039BB3F802900431B9F1000F20D0236806
:105660004746A4464FF0000AB7F800B0BCF8022045
:1056700009FB0B2252449BB243EA02434CF8043B21
:1056800057F8043B4FEA134ABCF8003009FB0A33D1
:1056900003EB1243BD424FEA134AE5D8019AA350E7
:1056A00004349FE7013EA1E7A8790008B979000812
:1056B0002DE9F843154612F0030207460E4607D0BF
:1056C000254C013A002354F82220FFF7A7FE064696
:1056D000AD103DD0FC697CB91020FFF787FD024674
:1056E000F86128B91D4B1E4840F2B31100F0EAFBE7
:1056F000C0E901440460C460D7F81C80D8F80840B1
:105700004CB940F271213846FFF71AFF0023C8F860
:105710000800044603604FF00009EB070AD5314644
:1057200022463846FFF722FF314680463846FFF7CB
:1057300053FE46466D100BD0206838B922462146EC
:105740003846FFF713FF2060C0F800900446E4E7F6
:105750003046BDE8F88300BF6C7A0008397900084C
:10576000B97900082DE9F0470C464968236903EB35
:105770006218A368074691464FEA621A08F10106CB
:10578000B3420BDB3846FFF7E7FD054648B9024652
:10579000284B29484FF4EF7100F094FB01315B0076
:1057A000EEE7002300F1140100F110021846534502
:1057B00033DB20692AEAEA7A04F1140319F01F099D
:1057C00001EB8A0103EB800C2BD0C9F1200E8A4635
:1057D0000022186800FA09F010434AF8040B53F845
:1057E000042B9C4522FA0EF2F3D8ACEB0403153BD4
:1057F00023F00303043304F11500604588BF04233C
:10580000CA500AB108F10206013E38462E6121460F
:10581000FFF7E2FD2846BDE8F08742F8040F0133A8
:10582000C5E7043953F8042B41F8042F9C45F9D8F7
:10583000EAE700BFA8790008B97900080A690346B9
:105840000069801A30B50ED11433143103EB820491
:1058500001EB820154F8045D51F8042D954203D008
:1058600005D24FF0FF3030BDA342F3D3FBE7012058
:10587000F9E700002DE9F74F8946064611464846EC
:105880001446FFF7DBFF051E12D129463046FFF70D
:1058900063FD024628B93F4B40F237213E4800F0F5
:1058A00011FB0123C0E90435104603B0BDE8F08FB9
:1058B000BCBF4B46A1463046D9F80410BABF1C46BF
:1058C00001250025FFF748FD024618B9314B40F28B
:1058D0004521E3E7D9F810702669C56009F1100386
:1058E00009F1140504F1140E00F1140B05EB8708FF
:1058F0000EEB86060193D9464FF0000C019B5EF833
:10590000040B53F804AF01931FFA8AF3194683B2CC
:10591000CB1A000C6344C0EB1A4000EB23409BB24F
:1059200043EA0043764549F8043B4FEA204CE5D86A
:10593000331B153B23F0030315340433A64238BF51
:1059400004231D445B441E462C4644450ED308F1F7
:105950000301491B21F00301033DA84538BF002185
:105960000B4453F8041D91B117619DE754F8041BD3
:10597000E646080C1CFA81FC714400EB2C4089B20D
:1059800041EA004146F8041B4FEA204CDDE7013FA5
:10599000E7E700BFA8790008B97900082DE9F743C7
:1059A0000F46012159EC108B1646FFF7D5FC044633
:1059B00030B90246234B244840F20F3100F082FAFE
:1059C000C9F30A55C9F313030DB143F480130193CE
:1059D000B8F1000323D068460093FFF784FDDDE9AA
:1059E0000012D0B1C0F1200302FA03F30B43C2400E
:1059F00063610192019BA361002B0CBF0122022273
:105A00002261A5B1A5F2334505443D60C0F13500E2
:105A10003060204603B0BDE8F0836161EAE701A889
:105A2000FFF761FD019B636120300122E8E704EB91
:105A30008203A0F2324038601869FFF735FDC0EBF1
:105A40004210E5E7A8790008B97900082DE9F04788
:105A50008E681F46BE420B6882460C4690462DD883
:105A6000B1F90C2012F4906F26D06569096905EB35
:105A70004505A3EB010905EBD5757B1C4B446D1067
:105A80009D4238BF1D46530527D52946FFF7D8FB51
:105A9000064660B321694A4600F006FAA38923F45A
:105AA000906343F08003A381266165614E44A5EBBA
:105AB00009052660A5603E46BE4200D93E462068E4
:105AC0003246414600F0C6F9A3689B1BA3602368D9
:105AD000334423600020BDE8F0872A4600F036FA00
