:020000040800F2
:1000000000000120F12C0008BD290008C1290008CA
:10001000C5290008C9290008CD29000800000000F2
:10002000000000000000000000000000D1290008CE
:10003000D529000800000000D9290008DD290008A2
:10004000412D0008412D0008412D0008412D0008D8
:10005000412D0008412D0008ED290008C92A00089B
:10006000412D0008412D0008412D0008412D0008B8
:10007000412D0008412D0008452B0008492B0008A0
:10008000D92B0008412D0008412D00080000000078
:10009000000000000000000000000000412D0008EA
:1000A000412D0008412D0008412D0008412D000878
:1000B000412D0008412D0008412D0008412D000868
:1000C000412D0008412D0008412D0008412D000858
:1000D000412D0008412D0008412D000800000000BE
:1000E0004D2B0008412D0008412D000800000000A4
:1000F000000000000000000000000000412D00088A
:1001000000000000412D0008412D0008412D00088D
:1001100000000000000000000000000000000000DF
:10012000412D0008412D0008412D0008CD2B00086D
:10013000412D000800000000000000000000000049
:10014000000000000000000000000000412D000839
:10015000412D0008412D0008412D0008412D0008C7
:10016000412D0008412D00080000000000000000A3
:10017000000000000000000000000000000000007F
:1001800000000000412D00080000000000000000F9
:04019000412D0008F5
:1001980010B5054C237833B9044B13B10448AFF3B9
:1001A80000800123237010BD04010020000000001E
:1001B8001C27010808B5034B1BB103490348AFF3DB
:1001C800008008BD00000000080100201C2701086D
:1001D8002DE9F04F82B001904FF000744FF0007895
:1001E8004FF000054FF0000952F804CB52F804EB29
:1001F8000868CB6DC0FB0C45D1F88000CEF1000E2D
:10020800C3FB0E45D1F8DC30C0FB0C89C3FB0E895B
:1002180052F804CB52F804EB48688B6DC0FB0C45D0
:10022800D1F88400CEF1000EC3FB0E45D1F8D830CA
:10023800C0FB0C89C3FB0E8952F804CB52F804EBBF
:1002480088684B6DC0FB0C45D1F88800CEF1000ED4
:10025800C3FB0E45D1F8D430C0FB0C89C3FB0E8913
:1002680052F804CB52F804EBC8680B6DC0FB0C4580
:10027800D1F88C00CEF1000EC3FB0E45D1F8D0307A
:10028800C0FB0C89C3FB0E8952F804CB52F804EB6F
:100298000869CB6CC0FB0C45D1F89000CEF1000E7C
:1002A800C3FB0E45D1F8CC30C0FB0C89C3FB0E89CB
:1002B80052F804CB52F804EB48698B6CC0FB0C4530
:1002C800D1F89400CEF1000EC3FB0E45D1F8C8302A
:1002D800C0FB0C89C3FB0E8952F804CB52F804EB1F
:1002E80088694B6CC0FB0C45D1F89800CEF1000E24
:1002F800C3FB0E45D1F8C430C0FB0C89C3FB0E8983
:1003080052F804CB52F804EBC8690B6CC0FB0C45DF
:10031800D1F89C00CEF1000EC3FB0E45D1F8C030D9
:10032800C0FB0C89C3FB0E8901984FF4FE4E4EF0BA
:10033800FF0E4FEA946444EA851404F30F0401B4F1
:10034800DFF8EC06007804FB00F44FEA241401BC43
:100358004FEA986848EA891808F30F0801B4DFF8EB
:10036800D006007808FB00F84FEA281801BC048082
:10037800A0F8028002F5707201F580514FF0007408
:100388004FF000784FF000054FF0000952F804CB09
:100398000868D1F88030C0FB0C45C3FB0C8952F8C3
:1003A80004CB4868D1F88430C0FB0C45C3FB0C89EA
:1003B80052F804CB8868D1F88830C0FB0C45C3FBE1
:1003C8000C8952F804CBC868D1F88C30C0FB0C45B6
:1003D800C3FB0C8952F804CB0869D1F89030C0FBF4
:1003E8000C45C3FB0C8952F804CB4869D1F894300A
:1003F800C0FB0C45C3FB0C8952F804CB8869D1F8C3
:100408009830C0FB0C45C3FB0C8952F804CBC86973
:10041800D1F89C30C0FB0C45C3FB0C8901984FF404
:10042800FE4E4EF0FF0E4FEA946444EA851404F33E
:100438000F0401B4DFF8F805007804FB00F44FEA74
:10044800241401BC4FEA986848EA891808F30F0891
:1004580001B4DFF8DC05007808FB00F84FEA28183B
:1004680001BCA0F84040A0F84280A2F57872A1F53E
:1004780070614FF00F0C00F10400CDF800C001903E
:100488004FF000744FF000784FF000764FF0007A8C
:100498004FF000054FF000094FF000074FF0000B38
:1004A80052F804CB52F804EB0868CB6DC0FB0C453E
:1004B800C0FB0E67CEF1000EC3FB0C67C3FB0E45F5
:1004C800D1F8DC30D1F88000C3FB0E89C3FB0CAB3C
:1004D800CEF1000EC0FB0C89C0FB0EAB52F804CB6A
:1004E80052F804EB48688B6DC0FB0C45C0FB0E67E7
:1004F800CEF1000EC3FB0C67C3FB0E45D1F8D83014
:10050800D1F88400C3FB0E89C3FB0CABCEF1000EFF
:10051800C0FB0C89C0FB0EAB52F804CB52F804EBBD
:1005280088684B6DC0FB0C45C0FB0E67CEF1000E12
:10053800C3FB0C67C3FB0E45D1F8D430D1F8880053
:10054800C3FB0E89C3FB0CABCEF1000EC0FB0C89BC
:10055800C0FB0EAB52F804CB52F804EBC8680B6D25
:10056800C0FB0C45C0FB0E67CEF1000EC3FB0C6749
:10057800C3FB0E45D1F8D030D1F88C00C3FB0E89EF
:10058800C3FB0CABCEF1000EC0FB0C89C0FB0EAB5D
:1005980052F804CB52F804EB0869CB6CC0FB0C454D
:1005A800C0FB0E67CEF1000EC3FB0C67C3FB0E4504
:1005B800D1F8CC30D1F89000C3FB0E89C3FB0CAB4B
:1005C800CEF1000EC0FB0C89C0FB0EAB52F804CB79
:1005D80052F804EB48698B6CC0FB0C45C0FB0E67F6
:1005E800CEF1000EC3FB0C67C3FB0E45D1F8C83033
:1005F800D1F89400C3FB0E89C3FB0CABCEF1000EFF
:10060800C0FB0C89C0FB0EAB52F804CB52F804EBCC
:1006180088694B6CC0FB0C45C0FB0E67CEF1000E21
:10062800C3FB0C67C3FB0E45D1F8C430D1F8980062
:10063800C3FB0E89C3FB0CABCEF1000EC0FB0C89CB
:10064800C0FB0EAB52F804CB52F804EBC8690B6C34
:10065800C0FB0C45C0FB0E67CEF1000EC3FB0C6758
:10066800C3FB0E45D1F8C030D1F89C00C3FB0E89FE
:10067800C3FB0CABCEF1000EC0FB0C89C0FB0EAB6C
:1006880001F5807101984FF4FE4E4EF0FF0E4FEACF
:10069800946444EA851404F30F0401B4E448007830
:1006A80004FB00F44FEA241401BC4FEA986848EAB6
:1006B800891808F30F0801B4DD48007808FB00F832
:1006C8004FEA281801BC4FEA966646EA871606F3F1
:1006D8000F0601B4D648007806FB00F64FEA261646
:1006E80001BC4FEA9A6A4AEA8B1A0AF30F0A01B464
:1006F800CF4800780AFB00FA4FEA2A1A01BCDDF855
:1007080000C000EBCC0E2EF8026B2EF802AB20F8DE
:10071800024B20F8028BBCF1010C7FF4AEAE02B0A4
:10072800BDE8F08F2DE9F04F82B001904FF00074D2
:100738004FF0000552F804CB52F804EB0868CB6D73
:10074800CEF1000EC0FB0C45C3FB0E4552F804CB9E
:1007580052F804EB48688B6DCEF1000EC0FB0C45D7
:10076800C3FB0E4552F804CB52F804EB88684B6D76
:10077800CEF1000EC0FB0C45C3FB0E4552F804CB6E
:1007880052F804EBC8680B6DCEF1000EC0FB0C45A7
:10079800C3FB0E4552F804CB52F804EB0869CB6C46
:1007A800CEF1000EC0FB0C45C3FB0E4552F804CB3E
:1007B80052F804EB48698B6CCEF1000EC0FB0C4577
:1007C800C3FB0E4552F804CB52F804EB88694B6C16
:1007D800CEF1000EC0FB0C45C3FB0E4552F804CB0E
:1007E80052F804EBC8690B6CCEF1000EC0FB0C4547
:1007F800C3FB0E4501984FF4FE4E4EF0FF0E4FEA34
:10080800946444EA851404F30F0401B4884800781A
:1008180004FB00F44FEA241401BC048002F5707252
:1008280001F580514FF000744FF0000552F804CBE9
:100838000868C0FB0C4552F804CB4868C0FB0C455F
:1008480052F804CB8868C0FB0C4552F804CBC86842
:10085800C0FB0C4552F804CB0869C0FB0C4552F8A4
:1008680004CB4869C0FB0C4552F804CB8869C0FB2F
:100878000C4552F804CBC869C0FB0C4501984FF4ED
:10088800FE4E4EF0FF0E4FEA946444EA851404F3DA
:100898000F0401B46648007804FB00F44FEA2414FE
:1008A80001BC0484A2F57872A1F570614FF00F0CB9
:1008B80000F10200CDF800C001904FF000744FF035
:1008C80000764FF000054FF0000752F804CB52F8BD
:1008D80004EB0868CB6DC0FB0C45C0FB0E67CEF17E
:1008E800000EC3FB0E45C3FB0C6752F804CB52F84D
:1008F80004EB48688B6DC0FB0C45C0FB0E67CEF15E
:10090800000EC3FB0E45C3FB0C6752F804CB52F82C
:1009180004EB88684B6DC0FB0C45C0FB0E67CEF13D
:10092800000EC3FB0E45C3FB0C6752F804CB52F80C
:1009380004EBC8680B6DC0FB0C45C0FB0E67CEF11D
:10094800000EC3FB0E45C3FB0C6752F804CB52F8EC
:1009580004EB0869CB6CC0FB0C45C0FB0E67CEF1FD
:10096800000EC3FB0E45C3FB0C6752F804CB52F8CC
:1009780004EB48698B6CC0FB0C45C0FB0E67CEF1DD
:10098800000EC3FB0E45C3FB0C6752F804CB52F8AC
:1009980004EB88694B6CC0FB0C45C0FB0E67CEF1BD
:1009A800000EC3FB0E45C3FB0C6752F804CB52F88C
:1009B80004EBC8690B6CC0FB0C45C0FB0E67CEF19D
:1009C800000EC3FB0E45C3FB0C6701F5807101984F
:1009D8004FF4FE4E4EF0FF0E4FEA946444EA85143D
:1009E80004F30F0401B41248007804FB00F44FEA42
:1009F800241401BC4FEA966646EA871606F30F06EA
:100A080001B40B48007806FB00F64FEA261601BC35
:100A1800DDF800C000EB8C0E2EF8026B20F8024BBC
:100A2800BCF1010C7FF446AF02B0BDE8F08F0000C6
:100A380000000020034613F8012B002AFBD1181AE6
:100A48000138704753B94AB9002908BF00281CBFAC
:100A58004FF0FF314FF0FF3000F088B9ADF1080CCE
:100A68006DE904CE00F006F8DDF804E0DDE90223C4
:100A780004B070472DE9F047089D8E460446884625
:100A8800002B4AD18A42174662D9B2FA82F64EB191
:100A9800C6F1200301FA06F820FA03F3B74043EA47
:100AA8000808B4404FEA174E1FFA87FCB8FBFEF15E
:100AB800230C0EFB118843EA084301FB0CF29A420F
:100AC80009D9FB1801F1FF3080F0EA809A4240F220
:100AD800E78002393B449A1AA3B2B2FBFEF00EFB40
:100AE800102243EA024300FB0CFC9C4509D9FB1881
:100AF80000F1FF3280F0D6809C4540F2D3803B4421
:100B0800023840EA0140A3EB0C0300211DB1F34079
:100B18000022C5E90032BDE8F0878B4205D90DB146
:100B2800C5E9000100210846F5E7B3FA83F1002979
:100B380046D1734502D3824200F20581841A6EEBD6
:100B4800030201209046002DE5D0C5E90048E2E700
:100B5800002A00F09080B2FA82F6002E40F0A480BD
:100B68008A1A030C4FEA174E80B2BCB20121B2FBBD
:100B7800FEFC0EFB1C2243EA024304FB0CF29A42E1
:100B880007D9FB180CF1FF3802D29A4200F2E08034
:100B9800C4469B1AB3FBFEF20EFB123340EA034332
:100BA80002FB04F49C4207D9FB1802F1FF3002D281
:100BB8009C4200F2CA8002461B1B42EA0C40A5E791
:100BC800C1F120068B4022FA06F71F430EFA01F402
:100BD80020FA06F32EFA06FE4FEA1749234300FAD5
:100BE80001F81FFA87FCBEFBF9F01C0C09FB10EE9C
:100BF80044EA0E4400FB0CFEA64502FA01F209D9AC
:100C08003C1900F1FF3A80F09C80A64540F299809B
:100C180002383C44A4EB0E041FFA83FEB4FBF9F33C
:100C280009FB13444EEA044403FB0CFCA44508D911
:100C38003C1903F1FF3E80F08280A4457FD9023B36
:100C48003C4443EA0040A4EB0C04A0FB02EC6445DE
:100C58007346E14662D35FD05DB1B8EB030264EB43
:100C6800090404FA06F622FA01F31E43CC40C5E94A
:100C7800006400214FE7B1FBF2FC010C41EA0E4190
:100C880080B240EA01423B4638463C46B846BE463A
:100C98002026B1FBF7F1A2EB080241EA0C4166E716
:100CA800014618E710462CE7C6F120022EFA02F397
:100CB800B740B14020FA02F24FEA174E0A43B3FB9D
:100CC800FEF8BCB20EFB1833110C41EA034108FBD5
:100CD80004F9B04089454FEA104380B23ED97918EB
:100CE80008F1FF3C01D289451FD8A1EB0901B1FBEE
:100CF800FEF909FB04F80EFB191192B242EA01420F
:100D0800424529D2BA1809F1FF31C4D24245C2D2AC
:100D1800A9F102013A44BEE7F0459DD2BEEB0203B9
:100D28006CEB070C0138E14696E7A7EB0909494443
:100D3800A8F1020CB1FBFEF909FB04F8DBE77346E6
:100D48007FE7504666E70846FDE63B44023A33E74C
:100D5800ACF1020C3B441CE749469CE7A1EB0901B6
:100D6800C446B1FBFEF909FB04F8C4E7704700BFAD
:100D78002DE9F04FADF2946D15461C4602460B4620
:100D880002202F49BDF8B896BDF8BC76BDF8C086DC
:100D980010F0F0FF01220646014694A804F080F9FD
:100DA8008246304611F0B2FABAF1000F03D00DF2C4
:100DB800946DBDE8F08F5146F82256A811F0F0FB6B
:100DC80094A956A800F07EFF9DF8583140EA030622
:100DD80016F0FF060BD094A804F04EFA809800286D
:100DE800E5D011F093FA0DF2946DBDE8F08F929969
:100DF80094A804F059FA7B9B984507D9A8EB0303FC
:100E080003EBD37309EB63031FFA83F97A9B9F42C1
:100E180005D9FB1A03EBD37304EB63039CB2DDF82B
:100E28001522084B9A4203D1BDF82D32552B0BD011
:100E3800809808B111F06AFA94A804F01DFAB6E790
:100E4800BC2801084D4A50470DF58E6B4FF40872C7
:100E580094A9584611F0FEFB4FF4F761012011F0F8
:100E680031FA824600F08AFECC4BCD4918601AABA5
:100E780094AA0193CB4B1A920093CB4ACB4BCDF853
:100E88006CA000F0B3FEC54B186800F0C9FEC34B58
:100E9800186800F0CDFEC14BC5481B6801221969CE
:100EA80011F082F9C34BC44ACDF870B04FF0000A74
:100EB800C3F800A0012313700321729B09935046C5
:100EC800CDF854A010F088F9BC4A04905023CDE91D
:100ED80000325146C823524610F0E8F904988021A0
:100EE80010F0E0F90221049810F076F903224D235E
:100EF8006FF07F41CDE900311146C52310F0D6F9D6
:100F0800AF4B186859689A68B3F80CC02FAB07C381
:100F1800242251460DF1CA00A3F800C011F040FB8D
:100F2800A549A84AA84B0978012914BF11461946B2
:100F38000DF1C903184610F0E7FE0621049810F0D9
:100F48004BF9A24A0292A24A00920A222FAB1146FA
:100F5800CDF804A010F0C8F9DFF88CE2BEE80F0065
:100F68000DF1F00CACE80F00DEF80030CCF80030E2
:100F78001E22514641A811F013FB964B964A1B6856
:100F8800934240F2F88202F17852A2F55A02A2F591
:100F98001F72A2FB0323980C0A220DF2031111F011
:100FA800E3FA0621049810F017F9884A884B009351
:100FB8004FF0000A3CA90B46CDE901A20A211722ED
:100FC80010F092F9DFF824E2BEE80F000DF5927CEC
:100FD800ACE80F00DEF80030CCF800301E22514695
:100FE8004EA811F0DDFA0621049810F0F5F8774ABA
:100FF800774B009349A90B46CDE901A20A212D227E
:1010080010F072F9504610F097F801234FF47F0260
:101018005146069010F0ACF8069801234FF47F4231
:10102800322110F0A5F80123FF220698642110F060
:101038009FF806985A2110F0CDF80321049810F073
:10104800CBF84623FF21CDE900313C22BE230A21FB
:10105800059010F02BF9DDE9050110F021F9DFF812
:1010680090E1BEE80F000DF1A40CACE80F009EE87B
:1010780003004CF8040B0498ACF80010062110F09B
:10108800ABF8534B009329A90B466FF07F413B22E5
:101098000291CDF804A0102110F026F9032104983C
:1010A80010F09AF84FF47F0C1723CDE9003C0A2280
:1010B800C22306210E9010F0F9F80E98802110F046
:1010C800F1F8EA88A9880498503AC83902EBD27234
:1010D80001EBD1715210491010F092FD03215046D6
:1010E80010F07AF8DFF8D4E005902923CDE9003E26
:1010F8005246C823514610F0D9F80598802110F0BF
:10110800D1F80221059810F067F8032226236FF022
:101118007F41CDE900311146C52310F0C7F82F4BA8
:1011280005988DF880A00521CDE91E3A10F054F8F5
:10113800142210231521CDF800A0079010F0CCF848
:1011480007981EA910F0AAF80321059810F044F892
:10115800234B0D90052105982193CDF888A08DF893
:101168008CA010F039F8142210231521CDF800A016
:101178000C9010F0B1F80C9821A910F08FF8194BC9
:101188000598169306218DF85CA010F025F8104BF1
:101198000E4A0093029216AB2CE000BF24010020F7
:1011A800F91900086D1B00081D1B00084D1B0008DD
:1011B800003C00402001002001000020A9A9A9004E
:1011C800C0280108B0280108A428010800FFFF0072
:1011D8001400002004000020FFE0F5053429010870
:1011E800242901084D75746534270108682701080A
:1011F800D02801082821CDF804A00E220F9010F065
:1012080073F8AB4B1978002900F0C3810B1F052B2D
:1012180040F2BD810A2934BF4FF47F034FF47F4366
:1012280001EBC10101EB011101931A220B110D9879
:10123800009228330E22282110F038F80C9800214B
:1012480010F032F80F98002110F02EF8EA88A988DB
:101258000598DFF878A22A3AC83902EBD27201EB76
:10126800D1715210491010F0CBFC924B00211B6831
:101278000B93284601F056FF8F4B90491B68904806
:10128800D3F814C09B6E4FEA8C0C0522CDF800C031
:1012980010F0F4FE09990B9A109200234908CDE941
:1012A800124711930A911C461F46DBF81420DBF8FD
:1012B8000C309A427BD24FF48033CAF88030BFF3A7
:1012C8004F8FBFF36F8F082215AB18A9584603F04C
:1012D80025FF4FF48033CAF80030002867D1159BEA
:1012E800082B64D1189B774A934200F0F780199B2A
:1012F800DBF814200892DA0748BF01331D93BDF8C4
:10130800623046F26432934200F0928044F24432F2
:10131800934200F08D80002307931D9B9BB14FF4EF
:101328008033CAF88030BFF34F8FBFF36F8F1D999A
:10133800089B5846194403F0B7FF4FF48033CAF8A6
:101348000030002833D14FF48033CAF88030BFF31F
:101358004F8FBFF36F8F584B1B68002B00F0B7817E
:10136800D3E924234FF48031CAF800100A9E901B59
:1013780063F10001844277EB010148D3B01843F1CF
:101388000001A042B94142D300264F4B049A1B6882
:10139800934200F0E380059A934200F0D28007F070
:1013A80043FA002873D1079B002B3FF47EAF474BCD
:1013B8004FF48032C3F88020BFF34F8FBFF36F8F95
:1013C8003D4C236863B13D493D48052210F0B2FE0B
:1013D800206800F071FC206800F0D4FB0023236033
:1013E8003A4B4FF48032C3F880211A60584603F014
:1013F80043FF809808B110F089FF06980FF0A6FE09
:1014080004980FF021FF05980FF01EFFCFE4A242C9
:1014180073EB070139D2A01A67EB03014FF47A7214
:101428000023FFF70FFB0028AED002F059FEABE710
:10143800099B1B191C461D9B47F10007002B3FF415
:1014480034AF002E7FF467AF1CABCDE90083029662
:10145800184E139B129936684A46284605F076FCC2
:10146800144B079018681A4B1A4A1B68A2FB0323EF
:10147800194A801B12689B090DF23711B2FBF3F36E
:101488000A22C01A11F070F847E701267DE707F035
:10149800ADF90D4A049913688B4200F0C28010F030
:1014A800080F7AD0034B11601B680B937BE700BFD2
:1014B8000000002084030020240100200060024076
:1014C800003C0040524946462001002000E100E06F
:1014D80004000020D34D62107C3400204FF4803388
:1014E800CAF88030BFF34F8FBFF36F8F102215AB50
:1014F80024A9584603F012FE4FF48033CAF800308E
:1015080000287FF454AF159B102B7FF450AFAD4BE0
:10151800249A9A427FF44BAF03F17C43259A03F552
:101528001F2303F20B339A427FF441AF03F1A9530F
:10153800279A03F5493303F221239A427FF437AF00
:10154800B3E6A14B109A1B689B1A41F2873293426B
:101558007FF625AF9D4A0023136020E79A4A0B992E
:101568001268521A42F20F718A427FF614AF974AF4
:10157800002313600FE7964AA2FB0323980C0A2264
:10158800202341A98DF8033110F0EEFF09E5914BB6
:1015980046E60D980FF088FE58E6002B00F086808E
:1015A800810748D58C490A780F2A33D8531C033A47
:1015B800DBB2052A0B7040F28F800A2B34BF4FF440
:1015C8007F024FF47F4203EBC30303EB0313019243
:1015D8001B111A220D98009228330E2228210FF091
:1015E80065FEEA88A9880D982A3AC83902EBD272B2
:1015F80001EBD1714910521010F0C8FA0D98012171
:101608000FF052FE0C9800210FF04EFE0F980021AB
:101618000FF04AFE6D4B059A1A606B4B1B681093CE
:10162800C1E610F0080139D0684A00231360664B00
:101638001B680B93B7E6C2077FF5B5AE664A137809
:10164800002BE7D0591EC9B21170002900F0AE80F6
:10165800053B052B40F2A8800A2934BF4FF47F03CD
:101668004FF47F4301EBC10101EB011101931A22F1
:101678000B110D98009228330E2228210FF016FE28
:10168800EA88A9880D982A3AC83902EBD27201EB88
:10169800D1715210491010F079FAB3E7C30709D590
:1016A800119B002B76D100231193C0E743073FF528
:1016B8007EAE75E7820711D5119B002BB7D10E9826
:1016C80019460D2210F062FA01231193AFE74FF487
:1016D8008033CAF800306AE63E4A74E710F0300FEB
:1016E800A5D0119B002B00F08780012B9FD13B4B8D
:1016F80019683B4B994200F08E80A820394B9A68B4
:1017080022F0030242F001029A609A6802F00C0289
:10171800042AFAD11A6822F080721A60D3F804C039
:10172800314A0CEA020242EA801242F4800242F094
:1017380019025A605A6822F440325A601A6842F014
:1017480080721A60274A13689B01FCD5936823F0BE
:10175800030343F002039360224A936803F00C03E7
:10176800082BFAD1214B994263D01C4A20491360B7
:101778004FF0E0231F4A5961F02182F8231000221C
:101788009A6107221A610DF203110A22782010F0DB
:10179800EBFE99E7119B0E98013BDBB26FF00C0250
:1017A800119310F0F3F942E70A4B5BE70D980FF03D
:1017B8007BFD0C9801210FF077FD0F9801210FF0A8
:1017C80073FD27E741564958840300202001002073
:1017D80083DE1B4300FFFF00000000200400002000
:1017E80000BD0105003802400080BFFF000E27073A
:1017F800BFD4010000ED00E0204A21491378012BF5
:10180800204B0DF1C9000ABF1946012303231370A9
:1018180010F07AFA47E71C4A136823F0070343F0ED
:1018280003031360136803F00703032BFAD1F020B6
:1018380064E7154A136823F0070343F002031360B3
:10184800136803F00703022BFAD11048104901600E
:101858004FF0E0230F4A10495961F02182F8231014
:1018680000229A6107221A6141A920230A225420E2
:101878008DF8033110F078FE26E700BF0100002044
:10188800A4280108B0280108003C024004000020F8
:1018980000BD010500ED00E01F4801002DE9F043FF
:1018A800D0F88430DFF8449189B00022D3E90046AB
:1018B80005460392D4F814C0E768674503AB4FF0B8
:1018C800080206A920463ED903F028FC00283AD190
:1018D800039B082B37D1079BD4F814C013F0010FD2
:1018E8001A4634D05A1C069B04924B4535D0BDF895
:1018F8001A3046F277218B4203D044F257218B42AB
:101908004ED140F294739A421DDC06F1240803ABD1
:101918004146204603F002FC0346A0B9DDE9031264
:10192800914210D130680093EA6EAB6ECDF8148006
:1019380003EB820305A904AA0DF05AFB002837D04F
:1019480003300128B6D9012009B0BDE8F08304931B
:10195800002BB1D0069B4B45C9D103AB102206F131
:101968002401204603F0DAFB0028ECD1039B102B5E
:10197800E9D11D4B726A9A42E5D103F17C43B26A00
:1019880003F51F2303F20B339A42DCD103F1A95369
:10199800326B03F5493303F221239A42D3D189E705
:1019A80002EB0C01204603F07FFC002882D0CAE736
:1019B800AB68012BC8D16A69E96EAB6E002A03EBEC
:1019C8008105C1DD541E05EB840405EB420232F8A3
:1019D800021D002361F30F0361F31F43AA4244F879
:1019E8000439F4D1B0E700BF415649585249464638
:1019F800F0B5D0F88430DFF818C11C685B686569F9
:101A08008FB00022064601921D62BCE80F0004AFA9
:101A18000FC75CF8043B3B80BCE80F000DF1240EB7
:101A2800AEE80F00DCF80030AEF80030E368AB42F7
:101A380023D9082201AB0DEB0201204603F06EFB0F
:101A4800D8B9019B082B18D103996569CB0717D51D
:101A58000131EBD0BDF80A3046F27722934217D015
:101A680044F25722934213D02944204603F01CFC29
:101A780018B96569E368AB42DBD801200FB0F0BD47
:101A88000029D3D0BDF80A3046F277229342E7D135
:101A980040F294739942F0DC01AB04226946204677
:101AA80003F03CFB0028E8D1019B042BE5D19DF80D
:101AB800013013F0180F4FEAD3021CBFD24302F0D3
:101AC80001019DF80220C2F3810208BF0221C3F37D
:101AD8004103032AC3F10403CFD0032BCDD19DF8D2
:101AE800034001EB41018B18A2090EAC04EB410144
:101AF80004EB4303032A33F8283C31F8102C7261B5
:101B080014BF022101211022C6E90323B160B5E701
:101B18009C270108D0F8843070B5D3E900650446E5
:101B28000DF060FA286020B1296A304603F0BCFB4A
:101B380008B1012070BD2046FFF7B0FE003818BF7D
:101B4800012070BDD0F8843010B51C68FFF7A6FEE0
:101B580030B1E3686069013B98422CBF0120022044
:101B680010BD00BFD0F8843010B5D3E9000403F0ED
:101B780083FB20680DF038FA002010BDA021012059
:101B880010F0A0BB80B3D0F8843010B50446586874
:101B980008B110F0BBFBA06E08B110F0B7FB2068CD
:101BA80008B110F0B3FBA06908B110F0AFFBE06911
:101BB80008B110F0ABFB206A08B110F0A7FB606A0F
:101BC80008B110F0A3FBE06A08B110F09FFBA06A0F
:101BD80008B110F09BFB206B08B110F097FB204672
:101BE800BDE8104010F092BB704700BFA0B199B19A
:101BF80092B18BB110B4019C84B14FF0000C836793
:101C0800029BC467C0E91C12C0F8843080F880C009
:101C180060465DF8044B7047012070470120F8E7E3
:101C28000221026F80F88010104700BF00000000FA
:101C380010B5044640690421400010F043FB08B386
:101C48000022A066636FE26620469847D0B96269B1
:101C5800A36FE26620469847A0B99FED0B7B03234C
:101C680084F880300A49636984F888002269C4F8D6
:101C78009C0001FB03F384ED247BB3FBF2F3C4F86F
:101C8800983010BD012010BD0000000000000000C9
:101C980040420F00042310B580F88030C36E04461C
:101CA80043B94269A36FE26620469847002384F847
:101CB800883010BD0022F5E70521C26F80F880103A
:101CC800104700BF2DE9F04F87B00C4600230C22C7
:101CD800054602930DEB020102AB204603F01EFA03
:101CE80078B9029B0C2B0CD103F18C43039A03F1B6
:101CF800461303F592439A4207D0012007B0BDE886
:101D0800F08F022007B0BDE8F08F754B059A9A4214
:101D1800F3D185F8AC006269E3689A42F2D2714E59
:101D2800714FDFF8D881DFF8D8A1DFF8D89101909A
:101D380019E0BB4233D1059B434500F0A4805345CD
:101D480035D04B452BD104996369C5F8F410043993
:101D5800C5F8F0301944204603F0A6FA6269E36832
:101D68009A4280F0BA800C2202AB0DEB02012046A9
:101D780003F0D4F90028C4D1029B0C2BC1D1039BDA
:101D8800B342D6D104996369C5F8EC1004391944F3
:101D9800043BC5F8E830204603F086FADEE70499EC
:101DA800043963692046194403F07EFAD6E795F8AA
:101DB800AC10049BD5F8A80000930131C9B285F88E
:101DC800AC10C1EBC101C90010F056FB02ABC5F85D
:101DD800A800082203A9204603F0A0F9002890D102
:101DE800029B082B8DD1414B039A9A4285D195F8D5
:101DF800AC30D5F8A8106FF03700382212FB030377
:101E08001944204602AB03F089F900287FF479AF22
:101E1800DDF808B0BBF1380F7FF473AF02AB0822CE
:101E280003A9204603F07AF900287FF46AAF029BE1
:101E3800082B7FF466AF2E4B039A9A427FF45DAF6E
:101E480095F8AC206FF037031BFB023BD5F8A830A0
:101E5800284A53F80B3093422DD002F6EB329342C6
:101E680025D102AB102205F1D501204603F056F921
:101E780000287FF446AF029B102B7FF442AF009BF3
:101E8800A3F15C018DE702AB402205F16801204611
:101E980003F044F900287FF434AF029B402B7FF411
:101EA80030AF154BAA6E9A423FF458AF25E7009B16
:101EB800A3F14C0175E702AB282205F1AD012046DC
:101EC80003F02CF900287FF41CAF029B282B7FF429
:101ED80018AF009BA3F1740163E7019812E700BFF4
:101EE80041564920696478314C4953547374726877
:101EF8007374726676696473617669686864726C13
:101F08007374726C6D6F76691AB140F8041B013AEC
:101F1800FBD170472E4A136823F0070343F00203EE
:101F280010B51360136803F00703022BFAD129498F
:101F3800294B0A6822F4404242F400420A601A68B7
:101F480042F480321A601A689003FCD51A68234953
:101F580042F400221A605868214A01400A435A6034
:101F680059681D4A21F440315960196841F080715F
:101F7800196013689901FCD5164A53685B04FCD5AF
:101F8800154CA36823F0F003A360A36823F4E0537F
:101F980043F48053A360A36823F46043A360A36859
:101FA80023F0030343F00203A360A36803F00C03C8
:101FB800082BFAD10B4802F083F80A4802F0A2F87D
:101FC800D4F88C3023F08073C4F88C3010BD00BF77
:101FD800003C024000700040003802400080BFFF13
:101FE800192A400000BD01052DE9F04FC54AC64B2E
:101FF8001168C64C41F40071D3B01160116841F406
:1020080080611160116841F480711160596CBF4A98
:1020180041F480415964596C01F48041119111993E
:10202800196C41F0805119641B6C03F080531093B4
:10203800109BD168B64B4FF6FF0001400B43D360AD
:10204800D368C3F30223C3F107011A1D042928BF6B
:102058000421062A88BFDA1E4FF0FF3303FA01F382
:1020680098BF0022DB4393401B01DBB284F8233086
:10207800FFF750FFA74BA84A1B68A2FB03239B0945
:10208800013BB3F1807F09D24FF0E022F020536189
:102098000021072384F82300916113610025CDE90D
:1020A8002B55CDE93755CDE93955974B9B4E1A6BD2
:1020B800DFF878829A4842F004021A631A6B02F039
:1020C80004021A921A9A1A6B42F080021A631A6B67
:1020D80002F080021B921B9A1A6B42F001021A63EB
:1020E8001A6B02F001021C921C9A1A6B42F002024F
:1020F8001A631B6B03F002031D931D9A4FF40053E0
:102108001C224FF480590124836135A9B261C8F8B3
:10211800189002273593369401F05AFD0C2335A9FF
:102128003046CDE9385535933694379701F050FD50
:10213800102335A930463593CDE93854CDE93647D3
:1021480001F046FD35A940463895CDE93647CDF82A
:10215800D490399401F03CFD724A916821F00F0146
:102168009160916821F0F001916011694FF47063FA
:1021780093FAA3F3B3FA83F321F4706104FA03F337
:102188000B43032513612BA82B94ADF8B0408DF8B1
:10219800B25001F0C5FC2BA82B97ADF8B0408DF8D4
:1021A800B25001F0BDFC4FF480632BA82B938DF83F
:1021B800B250ADF8B04001F0B3FC94FAA4F3B3FA0E
:1021C80083F3A3402A46F1689A4094FAA4F3B3FA39
:1021D80083F3A34021EA020104FA03F30B43F360FB
:1021E80097FAA7F3B3FA83F3A3402A46F1689A4013
:1021F80097FAA7F3B3FA83F3A34021EA020104FA9A
:1022080003F30B43F3604FF4806393FAA3F3B3FA39
:1022180083F3A3402A46D8F80C109A404FF4806301
:1022280093FAA3F3B3FA83F3A34021EA020104FA71
:1022380003F30B43C8F80C3094FAA4F2B2FA82F311
:10224800A340326805FA03F322EA0303336097FADE
:10225800A7F3B3FA83F33268A34005FA03F322EA3B
:10226800030333604FF4806393FAA3F3B3FA83F361
:10227800D8F80020A34005FA03F322EA0303C8F8BC
:102288000030224BDB68C3F30223C3F107011A1D98
:10229800042928BF0421062A88BFDA1E4FF0FF331D
:1022A80003FA01F36FEA030398BF002203F0010366
:1022B80093401B011C4ADBB282F8063340231360AB
:1022C800124BDB68C3F30223C3F107011A1D04296B
:1022D80028BF0421062A88BFDA1E4FF0FF3303FA0D
:1022E80001F36FEA030398BF002203F00103934050
:1022F8001B010D4ADBB282F8073380231360034BBE
:10230800DB6815E0003C02400038024000ED00E0C8
:102318000003FA0504000020D34D621000000240BB
:10232800000802400038014000E100E000040240DB
:10233800C3F30223C3F107011A1D042928BF04218E
:10234800062A88BFDA1E4FF0FF3303FA01F36FEA5B
:10235800030398BF002203F0010393401B01BA4A0C
:10236800DBB282F828334FF480735360B74BB84917
:102378001A6B42F400121A631A6B02F400121892D4
:10238800189A1A6B42F480021A631B6B03F48003D9
:102398001993199BCB68C3F30223C3F107011A1DD4
:1023A800042928BF0421062A88BFDA1E4FF0FF330C
:1023B80003FA01F36FEA030398BF002203F0020354
:1023C80093401B01A04ADBB282F80E334FF48043DE
:1023D80013609F4BDB68C3F30223C3F107011A1D87
:1023E800042928BF0421062A88BFDA1E4FF0FF33CC
:1023F80003FA01F36FEA030398BF002203F0020314
:1024080093401B01904ADBB282F80F334FF400432C
:1024180013608F4BDB68C3F30223C3F107011A1D56
:10242800042928BF0421062A88BFDA1E4FF0FF338B
:1024380003FA01F36FEA030398BF002203F00303D2
:1024480093401B01804ADBB282F83B334FF00063B4
:10245800536000247D4DDFF80C822822002135A826
:1024680010F09EF82E942B6C7A4843F480432B642A
:102478002B6C03F480431693169B2B6B43F00203DB
:102488002B632B6B03F0020317934FF46043022670
:1024980001272B934FF0050B03232BA9CDE92C63C0
:1024A800CDE92F7B179A01F093FB6B4A916D21F0D0
:1024B80060619165916D21F0C0019165916D21F484
:1024C800403141F480319165916D21F490719165AD
:1024D800916D21F400719165916D41F48061916570
:1024E800916D21F4C0519165916D21F4C0419165C0
:1024F800D16E41F00401D166D16E41F00301D1667D
:10250800916D21F0C07141F080719165916D21F458
:10251800C0019165116F21F060611167116F21F0A1
:10252800C00141F040011167116F21F4403141F4BD
:1025380080311167116F21F490711167116F21F4C7
:1025480000711167116F41F480611167116F21F4F7
:10255800C0511167116F21F4C0411167D2F884107E
:1025680041F00401C2F88410D2F8841041F003014C
:10257800C2F88410116F21F0C07141F080711167A9
:10258800116F21F4C00111670A2330224FF4827AB7
:102598004FF4007935A940463E93CDE93A92CDE90A
:1025A8003744CDE93C4435943994CDF8D8A001F0AE
:1025B800E7FBD8F8041021F01001C8F8041028220D
:1025C800214635A80FF0ECFF2E946A6C234842F49C
:1025D80080526A646A6C02F480521492149A2A6BCC
:1025E8003A432A632A6B2F973A40159203232D9377
:1025F8002BA9159BCDF8C0B0A0232B932C9601F0E6
:10260800E7FA174B9A6D22F0606242F0C0629A6551
:102618009A6D22F0C00242F040029A659A6D22F447
:1026280040329A659A6D22F490729A659A6D22F4F6
:1026380000729A659A6D42F480629A659A6D22F4E6
:10264800C05242F400620FE000E100E000380240AE
:1026580000ED00E00004024000600240000002407B
:1026680000640240003800409A659A6D22F4C04226
:1026780042F400529A65DA6E42F00402DA66DA6EC3
:1026880042F00302DA669A6D22F0C07242F080725C
:102698009A659A6D22F4C0029A6508F578484FF455
:1026A8000063379335A90A234046CDE93864CDE95C
:1026B8003B44CDF8D8A0CDF8E89035943D943E93AE
:1026C80001F05EFBD8F8043023F01003C8F804309A
:1026D8002022214635A8ADF89A40CDF88A40CDF899
:1026E8008E40CDF89240CDF896400FF059FFCDE9D5
:1026F8002B44CDE92D44CDE92F442B6C33432B6477
:102708002B6C33401293A8F59638129B40F2E733AE
:10271800ADF8883022A9D1234046249301F0B8FBB4
:10272800D8F80030394623F080034FF08047C8F8C6
:102738000030D7F81834602243F00803C7F818347B
:1027480040466923CDE9352435AA3893379439941E
:1027580001F0E4FBD7F81834854823F00403C7F8E0
:102768001834D8F8043023F07003C8F80430D8F8C7
:10277800083023F08003C8F808302B6B43F00103BE
:102788002B632B6B2C9603F00103402213932BA988
:10279800139B2B92CDE92D4430962F9401F018FA13
:1027A8000FF064FB734AD2F8FC3013F080730CD13D
:1027B800D2F8FC1041F08071C2F8FC10A2F55D421D
:1027C8005360136843F0010313606B4B229303F5C6
:1027D8009A3323930823ADF89830DFF8D0B1DFF8A7
:1027E8009081CDF894800423ADF8A0301023ADF883
:1027F800A8309BE80F004FF003091EAC0BAD84E82E
:102808000F00CDF89C80CDF8A480CDF8909085E895
:102818000F0022AB0993594B0893594B0793594B17
:102828000693594B059302234FF4A07E0A936FF049
:102838002203CDE901E34FF0AA0C0026534FCDF84F
:1028480000C04FF0010ACDF810A003967346624607
:1028580035A9386800F018FB0546386000F00EFC12
:102868004B49284600F05EFC0BF1100449494A48E0
:10287800324602F0E5FB0FCC2BAF0FC70FCC0FC7CA
:1028880094E8030087E8030004F0CAF82946836B3C
:1028980004469847AB88EA880092E76B32460621DF
:1028A800063B2046B847236C2BA9204698473B494E
:1028B800636C204698474B46524631462046A76CE3
:1028C800B847374B3749CDF800A083F800904FF44C
:1028D80080630222CDE901133348DFF8D4904346E0
:1028E800414601F015FC31462F48DFF8A48001F07D
:1028F800C9FC322001F0F4FB2549284600F012FCFF
:102908000521204604F0CEF815E0A36D204698472F
:10291800E36D824620469847EB880293AB880146D0
:10292800CDE900732A463B465046FEF721FA414658
:10293800284600F0F7FB236D20469847636D204634
:10294800984707460028E0D0E3680396DA680292C1
:102958005B6801932369009300224B4614212846A3
:1029680000F0DAFE05F060FF0028FBD0DFE700BFCB
:102978000000024000ED00E000300140213B00086B
:10298800193B0008D13A0008B13A00088C0300202E
:10299800B19B310080030020540100200800002072
:1029A800803400200004024028010020C4270108C8
:1029B800E8280108FEE700BFFEE700BFFEE700BF0A
:1029C800FEE700BFFEE700BF704700BF704700BFCB
:1029D800704700BF024A136801331360704700BF95
:1029E80084030020324A10B5546914F0010400D160
:1029F80010BD01212F48516101F0A4FB01381F28A7
:102A0800F6D801A353F820F0B32A0008932A000847
:102A1800F9290008AB2A0008F9290008F929000853
:102A2800F9290008AF2A0008F9290008F92900083F
:102A3800F9290008F9290008F9290008F9290008E6
:102A4800F9290008912A0008F9290008F92900083D
:102A5800F9290008F9290008F9290008F9290008C6
:102A6800F9290008F9290008F9290008F9290008B6
:102A7800F9290008F9290008F9290008F9290008A6
:102A8800F9290008A72A000810240B4A1378132BE9
:102A9800AED80A48591C40F82340117010BD2024B4
:102AA800F3E70824F1E70424EFE70224EDE700BF89
:102AB800003C01402801002081340020843400209B
:102AC8001A4B5A69920700D47047022110B518486A
:102AD800596101F037FB01381F281BD8DFE800F0E7
:102AE80023211A1B1A1A1A1D1A1A1A1A1A1A1A1F25
:102AF8001A1A1A1A1A1A1A1A1A1A1A1A1A1A1A1038
:102B080020210C4A1378132B04D80B4C581C44F87A
:102B18002310107010BD0821F3E70421F1E71021FC
:102B2800EFE70121EDE70221EBE700BF003C0140A0
:102B3800280100208134002084340020704700BF21
:102B4800704700BF1B4B5A69520500D470474FF4B9
:102B5800806210B518485A61032101F0F3FA013870
:102B68001F281BD8DFE800F023211A1B1A1A1A1D88
:102B78001A1A1A1A1A1A1A1F1A1A1A1A1A1A1A1AA8
:102B88001A1A1A1A1A1A1A1020210C4A1378132B17
:102B980004D80B4C581C44F82310107010BD0821A1
:102BA800F3E70421F1E71021EFE70121EDE7022126
:102BB800EBE700BF003C01402801002081340020E1
:102BC800843400200148032100F026BF006402403D
:102BD800F8B52C4C636859050DD463681B0506D4F9
:102BE800284B4FF47C62DA60BFF34F8FF8BD264D57
:102BF8002868C0B9F4E7244D286810B3FFF74AF8ED
:102C080008BB2868D0F89810D0F89C40DFF874C04A
:102C1800D0E92423561844EB0307C0E92467DCF8FD
:102C280004301A05DCD5FFF735F8D8B92B68D3E995
:102C38002401D3E92626841846EB0105C3E9244577
:102C4800CEE76368CCE70522214610480FF072FAF8
:102C58002868FFF731F82868FEF794FF0023184624
:102C68002B60CFE70522074908480FF063FA286868
:102C7800FFF722F82868FEF785FF002213462A602E
:102C8800D5E700BF0060024024010020003C00405E
:102C98000C490D4A0B6810B50C4C121B2BB118448B
:102CA800904207D80860184610BD094B0B601844BD
:102CB8009042F7D90FF0A2FC0C2303604FF0FF33CA
:102CC800184610BD88030020000001200004000001
:102CD80020360020034AD2F8883043F47003C2F843
:102CE8008830704700ED00E0DFF834D00D480E4919
:102CF8000E4A002302E0D458C4500433C4188C424E
:102D0800F9D30B4A0B4C002301E013600432A242B2
:102D1800FBD3FFF7DFFF0FF077FCFFF765F970478C
:102D280000000120000000200401002010B101086B
:102D3800040100201C360020FEE70000036C13B1DC
:102D4800B0F844209A617047026C1AB1B0F8443068
:102D58001B049361704700BF836B828F9A61704731
:102D6800F8B5456A2B685B06044672D494F865305A
:102D78002BB9236C1BB1B4F8442012049A612B6858
:102D880023F42C432B602B6843F040032B600B7813
:102D9800012B3CD0022B6FD0002B60D1A28F636A2D
:102DA800A66B48781204B26118739A68960707D41C
:102DB80000BF9A689007FBD59A68120603D500BF32
:102DC8009A681206FBD48E7801F1030E002E59D0B2
:102DD80070460EEB060C636AA76B10F8012BA18FE7
:102DE800B9611A739A68970707D400BF9A68910760
:102DF800FBD59A68120603D500BF9A681206FBD461
:102E08006045E8D10EEB06010B78012BC2D14E7854
:102E180001F1020E002E35D070460EEB060C636AE7
:102E2800A76B10F8012BA18FB9611A739A689707DD
:102E380007D400BF9A689107FBD59A68120603D594
:102E480000BF9A681206FBD46045E8D10EEB060174
:102E5800DAE700BF636A1B685F0687D5F9E794F86D
:102E6800653023B9236C13B1B4F844209A612B68F8
:102E780023F040032B60F8BD48788E1C01F030F930
:102E8800314684E7714682E72DE9F04F83B01F464B
:102E9800BDF938300093BDF93C30BDF830B0BDF80D
:102EA80034A09DF840809DF858900193002900F0C7
:102EB800CF800C46064600211546204674220FF0A6
:102EC8006FFBDDF854C084F84890BCE80F0004F1AB
:102ED800240EAEE80F00BCE80F00AEE80F00DCF8E7
:102EE8000030CEF80030A36A002B3CD0E26A624979
:102EF800895C5A5822F001025A505A58D20703EBFB
:102F0800010005D500BF0268D207FBD494F84890A9
:102F1800B9F1010F0BD0B9F1020F0ED15A5822F4B2
:102F2800F0425A505A5842F420525A5005E05A5822
:102F380022F4F0425A505A585A505A5822F48022D1
:102F480022F00E025A50426922F0800242615A5819
:102F580042F010025A505A5822F400725A505A58E5
:102F680042F480625A50AF423A4638BF2A46BD42C0
:102F780028BF3D46B8F1030F65D8DFE808F05402D2
:102F88005402B8F1010F67D0019BAAEB03039B1A07
:102F980028465946009D01951BB21546D346009315
:102FA80002468A46009B6381019BA3810023194640
:102FB80065F30F016BF30F036AF31F4362F31F41BD
:102FC800AB45236061603ED392453CD3119B002BF7
:102FD80039D0129B002B36D0119A6261129AA261E5
:102FE800139AE26117AB149A22620FCB002504F101
:102FF8004C0784F8088087E80F00C4E91B5584F85B
:10300800645066B1326F42B12B461646126F0133D7
:10301800DBB2002AF9D184F86430E66634672046CA
:1030280003B0BDE8F08FB8F1000FBBD0009BABEB4D
:103038000301019BAAEB0303491B9B1A09B21BB2AC
:1030480000910193AEE77422002120460FF0A8FA00
:10305800002003B0BDE8F08F009BABEB03035B1BC4
:1030680028465946019D00951BB21546D346019343
:1030780002468A4696E700BF44390108036B10B53B
:1030880004465BB1828E12049A61192001F028F877
:10309800236BA28E9A61192001F022F86369207AC5
:1030A800984701462046FFF75BFE94F85A10E26CF9
:1030B80064290B4628BF642384F85A300AB3D16ABE
:1030C800174801FB03F3216DA0FB0303B1F5807FD3
:1030D8004FEA531322D00FD801291DD0102900D14F
:1030E80093631368DB0706D4136A194311621368E4
:1030F80043F00103136010BDB1F5805FF1D1136493
:10310800EFE7636D002BF6D0B4F8582009B19A6147
:1031180010BD12049A61FBE75363E2E7D363E0E76B
:103128001F85EB5110B5C4888388013C82B000220A
:10313800A4B2013BCDE900419BB2114600F0FDFB72
:1031480002B010BD2DE9F04F87B08B469B45119911
:10315800BDF940900391824600F089804A4562D0CB
:10316800A9EB0207A3EB0B0687EAE77486EAE67089
:10317800A4EBE774A0EBE6708442C84696469C46EA
:103188007BDC9B4500F3CA80C6F3C03505FA86F59B
:103198004A45B7B24FEA6505C0F2FD805A46A6B265
:1031A8009946F3464FF6FF78BAF804309A4242EA55
:1031B8000B0194B226DABAF806309B451FFA8BF257
:1031C80020DA09041ED4009223462146504600F016
:1031D800D7FA03994A090B0A03F4784302F4F86210
:1031E8001A43C1F3C40313439AF84820012A1BB2B7
:1031F80000D1DBBA01220DF116015046ADF81630A8
:1032080000F020FBAB1B1DB20134002D22B29BB293
:1032180004DA3B44C3441DB20FFA8BFB4A45C3DDB5
:1032280007B0BDE8F08F9B4502DD58469B46034634
:10323800002BF5DBBAF804005845F1DD002AEFDB76
:10324800BAF806004845EBDD0399119129EAE979B6
:103258002BEAEB7B92B210929BB21FFA89F21FFA0B
:103268008BF1504607B0BDE8F04F00F066BB4A4509
:10327800DEDC484691460246DAE74A456BDCC7F38E
:10328800C03505FA87F54FF6FF78BFB26D109B453C
:10329800B8BF4FF0010806468442B6B284DDBAF8DA
:1032A80004309B454BEA020194B226DABAF806C00C
:1032B80094451FFA8BF320DD0A041ED419462246D2
:1032C8005046009400F05CFA0398010A430903F49D
:1032D800F86301F478411943C0F3C4030B439AF827
:1032E8004810012291421BB200D1DBBA0DF1160140
:1032F8005046ADF8163000F0A5FAAB1B1DB20134EC
:10330800002D22B29BB204DA3B44C3441DB20FFA2B
:103318008BFB4A45C3DD07B0BDE8F08FABEB030775
:10332800A2EB0906C7F3C035002E05FA87F5B8BF2A
:1033380076424A45BFB24FEA650525DC5B464A46F8
:10334800E3464FF6FF785B45FFF66AAF9446994629
:103358005A46E346A0E7A2EB0907ABEB0306C7F31F
:10336800C035002E05FA87F5B8BF76429B45BFB237
:103378004FEA650505DC91469B4642464FF6FF78C5
:103388008AE74B469346E146CC461A46D9464FF063
:103398000108E34680E726464FF00108D3E700BF5F
:1033A8002DE9F04383B00446DDF82C90BDF9288060
:1033B80000920E461546CDF804901F46FFF7C2FE50
:1033C80033462A4631462046CDE90089FFF7BAFE42
:1033D80031463B4642462046CDE90089FFF7B2FE1A
:1033E8003B462A4639462046CDE90A8903B0BDE85E
:1033F800F043FFF7A7BE00BF10B59942BDF908C05A
:10340800039C02DC9E460B467146624502DCE6469A
:1034180094467246002909DBB0F804E09E4505DDB4
:10342800002A03DBB0F806E0E64500DC10BD2CEA14
:10343800EC7E92B223EAE37C029203948BB21FFAE9
:103448008EF21FFA8CF1BDE8104000F076BA00BF8A
:103458002DE9F04F8BB09046159AAE4D0291540964
:10346800C2F3074105EA012104F4F8642143C2F3D9
:10347800C4020A430FFA82FE90F84810169ADDF843
:1034880050909DF85CC0D9F804400129C2F3074167
:1034980005EA01214FEA521505F4F86541EA0501EC
:1034A800C2F3C40545EA010500F010812DB2774644
:1034B80099F808209A4204D899F80910994280F09E
:1034C8009980002399F800104A1ED21002F1010BCE
:1034D800BBF1040F03922FDC99F801200BFB03F3D7
:1034E80002FB034A4FEACB03013B0126446A9E4094
:1034F800BCF1000F00F08180F2B100279EFABEF304
:10350800CDF850900693CDF810B0CDF81CE0B94630
:10351800039A032A15D8DFE802F05F5C621200BF45
:10352800A3681B06FBD42368026C23F040032360C6
:1035380012B1B0F8443093610BB0BDE8F08FDAF8FF
:103548000070049B9A440029F6D0029C00250FFACB
:1035580088FB04E001350134A942A4B22EDD07FA44
:1035680005F33342F6D0828823B29A4248EA040C23
:10357800F0DDC3885B45EDDD1CF4004F2346E9D13F
:1035880021464246CDF80080059000F0F9F80598EC
:1035980090F8483001229342DDE9061308BF0B4634
:1035A8000DF12601ADF8263000F04CF9149B059872
:1035B800197801350134A942A4B2D0DC149B5B7898
:1035C80009F101094B45B7DD08F101081FFA88F830
:1035D8009EE7BAF80070B4E79AF80070B1E79AF875
:1035E80002709AF801303F0447EA03279AF800303E
:1035F8001F43A6E79B1ADBB264E708F1FF331344C5
:103608009BB20093029B013B0B44424602990290F5
:103618009BB200F0B5F80298026C1AB1B0F84430C9
:103628001B049361836B828F9A61236823F04003A4
:103638002360236823F42C43236090F84830022B3E
:1036480048D0236843F04003236099F80130002BE9
:1036580038D0BBF1010F99F80030BFB21FFA85FCD2
:103668004FF0000E2AD0BBF1020F45D0BBF1030F7B
:1036780045D0DAF80050DA4423B3002205FA02F103
:10368800A36831420CBF614639469B0703D400BF8B
:10369800A3689B07FBD590F84830022B1FD1E16047
:1036A80099F8003001329342E8DC99F801200EF1D4
:1036B800010E724506DDBBF1010FD4D19AF8005016
:1036C800D9E700BFA3689A07FBD529E7EDBA9EFAA8
:1036D800BEF7EDE6236843F400632360B1E7CBB29D
:1036E8002373A3689B074FEA112103D400BFA36883
:1036F8009B07FBD52173D3E7BAF80050BBE79AF8CC
:1037080002509AF801202D0445EA02259AF8002073
:103718001543B0E700F8FFFF2DE9F04F1F4685B0CD
:103728001B780E9E9DF844A0DDE90F8905460C46DE
:103738009346F3B13178AA8821449142284609DD9D
:103748007278E98893441FFA8BFB5A448A424FF0F7
:1037580000040EDC2146CDE9029ACDE900685A46FC
:10376800FFF776FE317817F8013F0C44A4B2002B1E
:10377800E1D1EC81A5F810B005B0BDE8F08F00BF2D
:1037880030B52C25B0F80CE0BDF80C4074447244F8
:1037980034B42B25B0F80AE003EB0E0401EB0E035A
:1037A8002A223CB4D0F824E0036C846BB0F844506F
:1037B800B0F83CC0DEF80000010010F04000F9D17C
:1037C80021F42C4141F04001CEF8001013B14FEA2A
:1037D800054098614FEA0C40A06101BC8EF80C00CE
:1037E800DEF8081011F00201FAD0DEF8081011F026
:1037F8008001FAD12C281AD0C4F818C0022201BCC2
:103808004FEA10218EF80C10DEF8081011F00201B2
:10381800FAD08EF80C00DEF808108900FBD0013AC7
:10382800EDD1DEF8081011F08001FAD1D2E703B12A
:103838009D61DEF8000020F0400040F40060CEF802
:10384800000030BD30B56D40D0F824E0DEF800301F
:103858009C4613F04003F9D14CF0400CCEF800C060
:10386800036C23B1B0F844C04FEA0C449C61846BEC
:10387800808FA0610888CEF80C002D4305B902316D
:10388800DEF8080010F00200FAD0013AF2D1DEF8B2
:10389800080010F08000FAD10BB1C3F818C0DEF8A8
:1038A800000020F04000CEF8000030BDD0F828C05D
:1038B8005CEA0C0C3FF4C6AF30B56D40D0F824E09C
:1038C800DEF800301C0013F040037FF4BFAF44F073
:1038D8004004CEF80040DEF8044044F00204CEF87C
:1038E8000440036C1BB1B0F8444024049C61836B12
:1038F800848F9C6100F16004C06A182300FB03CC2C
:103908000CF110004FF6FF739A42CEBFD21A13463D
:103918000022226043600EF10C0EC0F808E0C1607E
:1039280001682D430CBF41F4806121F4806141F0AE
:10393800010121F40071016030BD30B59942C2BF68
:103948008E4619467346BDF80C40A242C2BF964641
:1039580022467446B0F804E0AEF1010E714531DC40
:10396800B0F806C0ACF1010C62452BDC7345C8BF4A
:1039780073466445C8BF644682B000945D1A05F179
:103988000105A41A05FB04550400FFF7F9FE02B06F
:103998000498C0F3C401C0F3852241EA4211C0F380
:1039A800C44241EAC221A4F86810200000F168016D
:1039B8002A000125D0F828C05CEA0C0C3FF444AF7B
:1039C800FFF77CBF30BD30B5B0F804E0714521D2B7
:1039D80001EB030CF4451DD8B0F806E0724519D286
:1039E800039C1519754515D804FB03F4013D82B0F5
:1039F8000095ACF101030500FFF7C2FE02B02800F4
:103A080004992200059BBDE830401B433FF41AAFE0
:103A1800FFF74CBF30BD000000B50B00032BC6BF3D
:103A2800043B4FF00C0E4FF0080E0FF2740C1CF80C
:103A380003C03F2202FA0CF240F80E20182201FBC4
:103A4800020000F11000016821F001010160016825
:103A580011F00101FBD1134B1B681A6E6AB14FF6C6
:103A6800FF718A42CEBF521A1146002241601A667F
:103A7800016841F00101016000BD586A416821F008
:103A880002014160816811F08001FBD11A6C12B10A
:103A9800B3F844109161016821F04001016000BD54
:103AA800000610168C0300200138C0B202289CBF03
:103AB800034B1B5C034888BF0023C375704700BFD6
:103AC800AC6701084400002000B54FEA102C4FF005
:103AD800000E6CF3070E60F30F2E100A60F3174EFA
:103AE80062F31F6E4FF0000C0A0A62F3070C61F3D1
:103AF8000F2C1A0A054862F3174C63F31F6CC0F8C1
:103B080003E0C0F80AC05DF804FB00BF30000020E5
:103B18000048704728000020004870472000002017
:103B2800027901680346CAB109B34279012A20D053
:103B3800022A29D032BB254A506820EA0100506089
:103B480010680843106000209B7933B1022B34D0F1
:103B5800032B2AD0012B1FD0012070471B4B1A685A
:103B680022EA01021A605A6822EA01025A60002019
:103B78007047164A106820EA010010605068084330
:103B88005060E0E70120DFE7104A10680843106042
:103B9800506808435060D6E70C4BDA6822EA010205
:103BA800DA609A680A439A607047084B9A680A4331
:103BB8009A60DA680A43DA607047044B9A6822EA26
:103BC80001029A60DA680A43DA607047003C0140F3
:103BD8002DE9F0470D6895FAA5F2002A7AD0B2FAD5
:103BE80082F235FA02F375D04FF0010C4FF0030E54
:103BF80031E0D1F81080C76893FAA3F434B1B4FA6D
:103C080084F464000EFA04F427EA040793FAA3F490
:103C180034B1B4FA84F4640008FA04F847EA0807EF
:103C2800022EC76040D093FAA3F4076834B1B4FAFF
:103C380084F464000EFA04F427EA040793FAA3F361
:103C480023B1B3FA83F35B009E4037430760013228
:103C580035FA02F33ED00CFA02F32B40F7D04E6847
:103C6800741E012CC5D893FAA3F4D1F8088087688C
:103C780034B1B4FA84F464000EFA04F427EA0407B1
:103C880093FAA3F434B1B4FA84F4640008FA04F89B
:103C980047EA080787604768CC6827EA030703FBF9
:103CA80004F43C434460A4E74F6993FAA3F4A4B135
:103CB800B4FA84F4072C10DCA40007FA04F94FF0D6
:103CC8000F08076A08FA04F427EA040747EA09070D
:103CD8000762A8E70020BDE8F0871C0AD0F8248016
:103CE80094FAA4F9B9F1000F09D0B9FA89F94FEAA1
:103CF80089094FF00F0A0AFA09F928EA090894FA1B
:103D0800A4F42CB1B4FA84F4A400A74048EA070844
:103D1800C0F8248087E700BFB0F5000F01D000206D
:103D28007047134B9A68120220D4186810F000608C
:103D38001BD010B45C685968D3F88420D3F8843059
:103D48000C4814F4800F0C4CC2F3881218BF20469C
:103D580001F03F01C3F30273B0FBF1F05DF8044BCF
:103D680002FB00F0B0FBF3F0704770470348704760
:103D7800003802400024F40040787D010080BB0038
:103D880003685B06024629D430B414680B684D6892
:103D9800486924F47F4C8C682B432343CC68234325
:103DA8000C6923438C6903432343CC6923430C6A7E
:103DB8002CF0BF0C234343EA0C031360536823F031
:103DC800040343EA1043B4F5005F53600CD0D36991
:103DD80023F40063002030BCD3617047D36923F417
:103DE80000630120D36170478B8C1361EFE700BF3C
:103DF800C3695B053AD470B5C2690D46D1E9003193
:103E080022F4336204460B43A868296922F00F02A2
:103E180013436A690343134343F400630229E361CC
:103E280026D000284FF4000014BF40262026FFF7B4
:103E380073FFEA68B2F5007F1FD0B0FBF6F303EB1F
:103E4800830329695B00B3FBF1F305330F49A1FB39
:103E580003131909881EFD28C3F3C00394BF41EA60
:103E68000321022111432162002070BD0120704707
:103E7800EA6811432162002070BD000A00EB80004F
:103E880029694300B3FBF1F30533DFE7CDCCCCCC94
:103E980030B4204D8C6803680A88A8422CD0B0F151
:103EA800804F17D0A5F57C45A84213D005F580654D
:103EB800A8420FD005F58065A8420BD0164DA84240
:103EC8000CD005F58065A84208D005F58065A842A4
:103ED80008D103E04D6823F070032B43C96823F42D
:103EE80040730B430360C4628262436943F0010379
:103EF800436130BC002070474D6823F070032B43AA
:103F0800CD6823F440732B430360C46282620B695B
:103F18000363EAE70000014000400140B1F5807FFB
:103F280030B44CD025D8012967D0102944D1036A70
:103F3800156923F010030362036A4468816923F05A
:103F4800200343EA0513156821F4E64141EA0521F7
:103F5800556823F0100343EA0513584DA84200F0B2
:103F68009180D2684460816182630362002030BC22
:103F78007047B1F5805F1FD1036A156923F4805338
:103F88000362036A4468C16923F4005343EA0533B2
:103F9800156821F4E64141EA0521556823F4805368
:103FA80043EA0533454DA84200F08180D268446059
:103FB800C16102640362D9E7012030BC7047036A1B
:103FC800156923F480730362036A4468C16923F4A2
:103FD800007343EA0523156821F0730129435568E6
:103FE80023F4807343EA0523344DA84235D0D268C0
:103FF8004460C161C2630362B8E7036A156923F0CC
:1040080001030362036A4468816923F002032B43B6
:10401800156821F073012943556823F001032B43E8
:10402800264DA84205D0D26844608161426303628C
:104038009CE7556923F0080343EA8503956924F44E
:1040480080742C43956823F0040343EA8503D569FB
:1040580024F4007444EA4504E5E7556923F4006351
:1040680043EA8523956924F4805444EA0514956845
:1040780023F4806343EA8523D56924F4005444EA91
:104088004514B4E7556923F0800343EA851395691D
:1040980024F4806444EA8504956823F0400343EAE5
:1040A8008513D56924F4006444EAC50459E7956981
:1040B80024F4804444EA851478E700BF00000140F6
:1040C800064BA3FB00239B094FF0E022013B002095
:1040D8000521536190611161704700BFD34D621093
:1040E8004FF0E02382B01B690193421C019B18BF6B
:1040F80001304FF0E0221369DB03FCD50138FAD117
:1041080002B07047014B1860704700BF04000020E0
:104118002DE9F84304460F461646002126220630AC
:104128001D46BDF82080BDF828900EF039FA099B8D
:104138002760A680A560A4F80C802361A4F81490D9
:10414800BDE8F88303460268B3F804C012698068C2
:104158001CEA020F0069B3F80CC00CBF0122002250
:104168001CEA000F1869B3F814C0006908BF42F0D0
:1041780002021CEA000F93F828000CBF42F0040C5E
:10418800944610281CD093F82800202818D0481EE0
:1041980001281ED9032918D13849DA6909688A42E1
:1041A80013D8987D0CF00402002855D1987D60B989
:1041B8005AB1012001F1320298759961DA6104E07F
:1041C80003293ED00139012903D9002083F82800AA
:1041D800704793F8211093F820008900C9B283F83A
:1041E800211093F821100A4383F8212093F8211015
:1041F8005A6A002801F00F012148415614BF4FF0B8
:10420800FF30012000FB01225A625A6A032A10DC9F
:104218005A6A0332D9DA1CF0040F1DBF00229A75BE
:104228002020022000225A6283F8212083F82800E7
:1042380070471CF0040F1DBF00229A751020012042
:10424800F0E70E490968002201F6B8319A75104660
:10425800D96183F8282070475AB901F132009A755C
:10426800D8619A69891AB1F5FA6F2CBF0820042021
:10427800ACE79A7D002A9CD0A7E700BF8403002002
:10428800B067010880F82010704700BF01F0E0BD5A
:1042980001F0FABC38B5054C4FF00055A56101F0A6
:1042A800DDFD4FF40053A36138BD00BF0008024094
:1042B8002DE9F843002306688B758269002A00F00F
:1042C800A680C26A013205460C4627D0F1680A88E2
:1042D800CAB11F4602F520539BB2B3F5006F4FF0E9
:1042E8000208C0F0B080002040F2623142EA00408B
:1042F80001F056FBFF28C7F1FF0940F28A80B9F1A7
:10430800010F00F2AA800027E31900229A75E869D4
:10431800A17D0378202B06D1002209E0E86919461F
:104328000378202BF8D0052B08BFE5236372012200
:104338004378202B05D0A518052B08BFE5236B7201
:1043480001328378202B05D0A518052B08BFE5235B
:104358006B720132C378202B05D0A518052B08BF36
:10436800E5236B7201320379202B05D0A518052BA4
:1043780008BFE5236B7201324379202B05D0A518BD
:10438800052B08BFE5236B7201328379202B05D0FA
:10439800A518052B08BFE5236B720132C379202BC2
:1043A80000F09B80052B04EB020508BFE5236B7228
:1043B800531C027A202A09D05D1CE618052A2544D8
:1043C80008BFE5222E27777202336A72427A202AC2
:1043D80075D0052A04EB030508BFE5226A72827AC4
:1043E800202A03F101033ED02344052A08BFE52211
:1043F8005A7200229A7200293AD0C37A03F03F0316
:104408002372C3692360C38AE380038BA380BDE85A
:10441800F88300283FF477AFB9F1000F3FF473AF8A
:10442800E31998750123F16831F808201F4408F151
:104438000208002A3FF468AF02F520539BB2B3F597
:10444800006FBFF450AF31F8083008F10208002BB4
:104458003FF459AF10461A4646E7E219030A937526
:10446800D0750223DFE7234400225A720029C4D101
:10447800637AE3B104F1090208250CE0192905D88B
:10448800017B0D4203F1200600D0F3B25373537839
:10449800511C53B10A462E2BA3F14101EED153739F
:1044A80053781025511C002BF4D1131B083B2344CF
:1044B80000229A75037B002B9FD163729DE7827A55
:1044C800202A91D1E21800255572002995D1002B98
:1044D800CED13F23A3750123E9E7134669E700BF5F
:1044E80070B54FF0FF360023B1420446037186626F
:1044F80038D194F82C30B4F82A52EB2B0AD0183360
:10450800DBB2012B06D94AF6552085420CBF0220A2
:10451800032070BD4AF655239D4209D0B4F83730C0
:104528005A1E1A4202D1B3F5007F29D0032070BD6C
:10453800284E04F17E024FF0080C12F8010B16F811
:10454800011B431A02D1BCF1010CF6D1002B36D065
:10455800B4F837305A1E1A4202D1B3F5007F30D072
:10456800022070BD0D460A464078012304F12C0153
:10457800FFF790FE08B9A562BBE7A662042070BDEC
:1045880094F83930002BD1D05A1E1A42CED1638FFD
:10459800002BB8D094F83C30013B012BB3D8B4F8C9
:1045A8003D30002BAFD0B4F83F307F2B03D8E36CFD
:1045B800B3F5803FA7D3B4F84230002BA3D0002036
:1045C80070BD94F83930002BCAD05A1E1A42C7D190
:1045D800DDE700BFFC280108F8B5046800230B607C
:1045E800002C00F09B80224602E03A2B00F09080DD
:1045F80012F8013B1F2BF8D8694B1C68002C00F0FF
:104608008F800C602378607823B1FFF73FFEC707DF
:104618006CD5607800232370FFF73AFE10F0010193
:1046280066D12046FFF75CFF022863D0042800F01B
:10463800818001286AD8B4F83730A06AB3F5007FC2
:1046480064D1B4F8421001B9216D94F83C2061613D
:10465800531E012BE27059D894F839306381002B2E
:1046680054D05D1E1D4251D1B4F83D5025812E070E
:104678004CD1B4F83FC0BCF1000F01D1D4F84CC004
:10468800678F002F42D001FB02F207EB1516164484
:1046980066453BD8ACEB060C9C45BCFBF3FE35D31A
:1046A800404B9E4532D84FF6F57CE6450644074414
:1046B8000EF1020368D840F6F57CE645A061666213
:1046C8002361E76155D90DB33A445B00022003F238
:1046D800FF13B1EB532F226218D3334A334913889F
:1046E800207001339BB21380E380E1600020F8BDA5
:1046F8000320F8BDD4F8F211D4F80252D4F812729B
:10470800D4F82262C1B9FDB93FBB5EB90D20F8BD2E
:104718002378302B02D10234A24228D00B20F8BDD6
:104728000C20F8BD31462046FFF7DAFE012882D971
:104738000428EBD10120F8BD2046FFF7D1FE01285F
:104748007FF679AF002DDFD029462046FFF7C8FE57
:1047580001287FF670AF002FD7D039462046FFF7E3
:10476800BFFE01287FF667AF002ECFD0DAE70260E0
:1047780042E7002DCAD003EB430003F0010303EB2B
:1047880050033A440120A2E7B4F8562023612A4393
:10479800C4E906076662B9D1A26D9B00032096E7BB
:1047A80094050020F5FFFF0F9005002090030020DE
:1047B800012930D9036999422DE9F0410C46064692
:1047C80002D30120BDE8F0810378022B33D0032BFC
:1047D80023D0012BF5D1C169806A04EB540801EBA1
:1047E8005827874247D1C8F3080308F10108334422
:1047F80001EB5827874293F82C5047D1C8F3080398
:10480800334493F82C3045EA0320E3074CBF0009F2
:10481800C0F30B00D6E701207047C569836A05EB32
:10482800D1159D421DD1A40004F4FE743019C06A4C
:1048380020F07040C6E7C569836A05EB11259D42E3
:1048480005D1630003F4FF733344988DBAE74078C9
:1048580001232A4606F12C01FFF71CFD00BBB562B7
:10486800EFE7407801232A4606F12C01FFF712FDF5
:10487800B0B9B562D7E770783A4606F12C01FFF770
:1048880009FD68B9F169B7623846ACE77078012369
:104898003A4606F12C01FFF7FDFC08B9B762ADE70F
:1048A8004FF0FF30B0628DE72DE9F0478468076864
:1048B8000023064603619CB93B78022B0CD83B8940
:1048C800002B47D03B6AC6E90543002B42D02C3762
:1048D800F7610020BDE8F0873B6A002BEFD01C464B
:1048E8007B89002B40F08480012C33D03D462B6916
:1048F800A3422FD92B78022B3DD0032B2DD0012B8F
:1049080028D1E869A96A04EB540800EB58298945BD
:1049180061D1C8F3080308F101082B4400EB582AB9
:104928008A4593F82C9032D1C8F308032B4493F8A6
:104938002C3049EA0329E3074CBF4FEA1914C9F39D
:104948000B04012C06D93B69A34203D935682B69AE
:10495800A342CFD80220BDE8F087EA69AB6A02EB30
:10496800D41898451ED1A30003F4FE732B44DC6AC7
:1049780024F07044E5E7EA69AB6A02EB142898452D
:104988001DD1630003F4FF732B449C8DD9E768782D
:104998000123524605F12C01FFF77CFC50B9C5F8FC
:1049A80028A0C1E768780123424605F12C01FFF7EA
:1049B80071FC30B34FF0FF33AB620120CBE768786E
:1049C8000123424605F12C01FFF764FC0028F1D1D0
:1049D800C5F82880D5E768784A4605F12C01FFF725
:1049E80059FC0028E6D1E869C5F82890494690E7BF
:1049F8003A69A11E023A914206D27A6A01FB032360
:104A080061E7C5F82880AEE70023C6E90543A1E7BA
:104A18002DE9F04FD0F800E089B004460E4611F8B1
:104A2800013B2F2BFAD05C2BF8D00023A360307801
:104A38001F2840F2A48273467746B146DE6830B933
:104A4800002333800625284609B0BDE8F08F09F118
:104A58000109A6F10208002540F2623100F0BCFF0E
:104A680003460028EED01F28A64A19D92F2800F09F
:104A7800D7825C2800F0D4827F2808D812F8010B6E
:104A880008B19842FAD1013A1278002ADAD1FF2DFA
:104A9800D8D028F8023F19F8010B01350028DBD1DE
:104AA8004FF0040A002DCBD006EB450131F8023D4A
:104AB800202B01D02E2B03D1013DF7D13580C1E742
:104AC800002326F815303188202906EB450008BF59
:104AD800B44640F05D823CF8021F2029984603F155
:104AE8000103F8D008F102084AF0030A034601E07E
:104AF800013D03D033F8022D2E2AF9D104F120000C
:104B080001900B234FF0200C1B4303D000F801CB7E
:104B1800013BFBD1002900F069820022082393465B
:104B2800202900F09F812E2900F0A6815B4500F224
:104B3800AF810B2B00F03C82454500F0A2814AF082
:104B4800030A80F09E8194F82010E52904BF05210E
:104B580084F82010082B00F0BC8102F00C030C2B09
:104B680004D002F00303032B40F0BC814AF0020A90
:104B780084F82BA02046D4F800B0FFF795FE054630
:104B8800002840F0A0814FF0FF0C4FF0FF3A0BF1E6
:104B98002C03A669CDF81490C4F82CA0E04604971D
:104BA800CDF800C09946DBF82830B34212D09BF804
:104BB8000100012332464946FFF76CFB40B101254D
:104BC8004FF0FF332846CBF8283009B0BDE8F08F06
:104BD800CBF82860E6693278B2B1F37AE52A03F0B7
:104BE8003F01A17104D013F008052AD00F295BD02A
:104BF800C4F82CA04FF0FF08256927682035B5F5C3
:104C0800001F08D30023A36194F82B305A0700F142
:104C1800FA81052517E7A669002EF5D0C5F3080324
:104C280053B961690136A661002940F0A1803A892B
:104C3800B2EB551F40F212812C371F442561E76102
:104C4800B1E70F2930D0B8F1000F00F0B48094F824
:104C58002B8018F0010FCBD1019F0B2216F8010B06
:104C680017F8011BB0EB010C01D1013AF6D1BCF1E8
:104C7800000FBDD1DDE9047918F0040F7FF4E3AE2D
:104C8800DB06C6D522693978C2F3080207F12C037E
:104C9800134403295A8B04BF9B8A42EA0342A26049
:104CA800236899F80000C9E694F82B305F06A3D46E
:104CB800550640F1CF80236902F0BF08727B00924D
:104CC800E362737B009A934294D1738B002B91D14A
:104CD80035780D4ADBF80C10CDF8188005F03F0543
:104CE800013D05EB4503012705EB8305B846029412
:104CF800CDF80C90079102F10D0337460C4691460A
:104D080018E000BF0829010840680108FF2D404647
:104D180000F2768100F074FE064634F8150000F0C3
:104D28006FFE8642BB4B05F1010540F069814B459A
:104D380000F0488119F8016B404637F806800028D2
:104D4800E4D13E464A464746DDE90249DDF8188087
:104D58004FF6FF7002E012F8011B775A87427FF482
:104D680049AF9A42F7D108F1FF385FFA88F843E76C
:104D78007A89013A12EA55227FF45EAF3846CDE9C6
:104D88000232FFF715FD012840F2C080411C00F0F7
:104D9800BB8039698842DDE9023280F0B980023986
:104DA8006061023888423BBF7A897E6A1E4600FBF2
:104DB8000266A66140E731787278C80140EA51007E
:104DC8001044C0F34601B27841EAC01152FA81F1A9
:104DD800C1F34600F27840EAC11052FA80F0C0F3FD
:104DE8004601327941EAC01152FA81F1C1F3460015
:104DF800727940EAC11052FA80F0C0F34601B279E4
:104E080041EAC01152FA81F1C1F34600F27940EA51
:104E1800C11052FA80F0C0F34601327A41EAC0115B
:104E280052FA81F1C1F34600727A40EAC11052FA8F
:104E380080F0B17AC0F3460242EAC01251FA82F217
:104E48000099D2B28A427FF402AFDDE9047994F87E
:104E58002B8011E742457FF4CDAE32E794F82B3032
:104E6800A161D3E64AF0030A36F8181008F10108E0
:104E780000297FF455AE66E64545F3D10B2B00F0CB
:104E880097809200D2B2A8460B234FF0080BEBE7AD
:104E98004545F3D07F293FD8DFF880C11CF8010BC6
:104EA80008B18842FAD1BCF1010C9CF80000002836
:104EB8004BD04AF0030A5F2104EB0B000BF1010B06
:104EC80080F82010D0E7042894F82B303FF49EAEE9
:104ED800B9E54FEA820C0CF00C030C2B5FFA8CF24C
:104EE8003FF444AE0AF00203002B7FF441AE42F3D4
:104EF800000303F010034AEA030A530744BF4AF0C9
:104F080008025FFA82FA33E601259CE502259AE554
:104F180094F82B30A26179E6029308464AF002031E
:104F280040F262310092039300F03AFD10F0800FD6
:104F3800009A029B014611D000F07F013648415C7F
:104F4800DDF80CA00029B4D0A6E7A1F1410080B299
:104F5800192823D842F00202C9B2ADE7FF28EFD9D9
:104F6800581E584551D904EB0B004FEA112CDDF8B7
:104F78000CA080F820C00BF1010BC9B29CE780237C
:104F8800204684F82B3009B0BDE8F04FFFF78CBC01
:104F98002E294FF001087FF4A9ADA5E5A1F1610024
:104FA80080B219289CBF203942F00102C9B283E7B8
:104FB80094F82030E52B02D1052384F820304AF0FC
:104FC800030ACAE53E46DDE90249337858064746F2
:104FD800DDF818807FF5C7AE002F3FF4C4AE079BFD
:104FE80033F81530002B3FF4BEAE03E694F82030BA
:104FF800E52B7FF4BDAD05230A4684F8203071E720
:10500800DDE90249F6E504251DE54AF0030A9B4659
:105018002AE700BF4D680108C06701081429010884
:105028004B461A782F2A994603F10103F9D05C2AD6
:10503800F7D01F2A8CBF002201224FEA820A31E5ED
:1050480000B583B0CDE9001021B38C4601E03A2BBE
:105058001AD01CF8013B1F2BF9D8104B196811B155
:10506800002018600870019911B1002008801960AB
:105078001AB9104603B05DF804FB01A96846FFF7AA
:10508800ABFA03B05DF804FB0B78302B02D1023188
:105098008C45E2D00B2003B05DF804FB940500209A
:1050A80070B590B00191E8B1044603A901A815466E
:1050B800FFF792FA18B10023236010B070BD039E69
:1050C8000199049604A8FFF7A3FC0028F3D19DF9E1
:1050D8003B30002B09DB9DF8163013F0100006D08A
:1050E8000420E8E7092010B070BD0620E3E7317816
:1050F8000B9B03295A8B04BF998A42EA0142A2609A
:10510800DB69E360F388A38005F0010200232660D1
:1051180022746374E3616361CFE700BF2DE9F04F48
:105128001F46002383B03B6050B1036805463BB17E
:1051380014461A7822B1DA8888468188914203D0C9
:10514800092003B0BDE8F08F5878FFF79FF8C10732
:10515800F6D4687C0028F4D12B7C13F0010B00F006
:1051680088806969EE68D5F80090761AA64228BF4B
:105178002646002EE5D005F1200A0090C1F3080369
:10518800E3B154461C44C3F50073B34228BF334609
:1051980042469C465CEA0C0C06D014F8010B02F857
:1051A800010BBCF1010CF8D13A6819441A44F61AFB
:1051B8003A6098446961E1D10098C2E7B9F80A30C9
:1051C800013B13EA512322D0A869D9F810200238EC
:1051D800023A904228D2B9F80A10D9F8242001FBE3
:1051E80000220AB3B6F5007F1A4422D303EB5620F7
:1051F80088424FEA562488BFCC1A99F80100234602
:105208004146FFF747F838BB69696302CCE749BBF9
:10521800A868012808D9421C1ED0D9F81020A86116
:10522800023A02389042D6D30220687403B0BDE82F
:10523800F08FEB69934205F1200408D099F801003A
:10524800019201232146FFF725F8019A20B96969DF
:10525800EA61C1F3080395E7012358466B7403B06C
:10526800BDE8F08FA96928680193FFF7A1FA019BAF
:10527800CFE7072065E700BF98B1036810B504467B
:105288002BB11A781AB18188DA88914201D00920A5
:1052980010BD5878FEF7FAFF10F00100F7D1206032
:1052A80010BD0920704700BF2DE9F04F83B040B111
:1052B800036804462BB11A781AB18088DA889042BC
:1052C80004D00925284603B0BDE8F08F587800912E
:1052D800FEF7DCFFC107F4D4657C002DF2D1E2684B
:1052E80000996369D4F800A06561914228BF11460E
:1052F8000029E7D0BAF80AC04FEA4C2B8BB1013B22
:105308004A1EB3FBFBF0B2FBFBF2824209D3CBF19E
:105318000002A66913406361A1EB0309002ED1D0F6
:1053280005E0A668A661002ECCD089460023CB45AF
:1053380080F092805B44012E636106D0A9EB0B09D3
:10534800574600953B699E4202D302256574B9E72A
:105358003B78022B40D0032B30D0012BF5D1F869D4
:10536800B96A06EB560800EB58258D4256D1C8F3AA
:10537800080308F101083B4400EB58228A4293F8DD
:105388002C5056D1C8F30808B844F20798F82C30C6
:1053980045EA03234CBF1E09C3F30B06012ED4D9DB
:1053A800DAF81030B342D0D9D9456169A66151D92C
:1053B800594427686161A9EB0B09C3E7FB6903EB53
:1053C800D618BB6A98451ED1B30003F4FE733B445C
:1053D800DE6A26F07046E1E7FB6903EB1628BB6A34
:1053E800984505D1730003F4FF733B449E8DD5E7C0
:1053F80078780123424607F12C01FEF74BFF18BBD2
:10540800C7F82880EEE778780123424607F12C0197
:10541800FEF740FFC0B9C7F82880D5E778782A4654
:1054280007F12C01FEF736FF70B9F869BD6229460D
:105438009DE778780192012307F12C01FEF72AFFF6
:10544800019A08B9BA629DE74FF0FF33BB620125A4
:10545800657437E7009D4944C9F3080761618FB156
:10546800DAF81020B31E023A9342BFF46EAFBAF8CE
:105478000A20DAF8247003FB0277002F3FF465AFA7
:1054880007EB5927C1F3080100293FF41BAFE36973
:10549800BB423FF417AF9AF8010001233A4604F1E2
:1054A8002001FEF7F7FE0028D1D1E7610AE700BF27
:1054B80030B585B0019170B3044603A901A8FFF780
:1054C8008BF818B10023236005B030BD039D019906
:1054D80025602046FFF79CFAC8B994F92B30002BB9
:1054E8000BDBA379DB0614D52978E2690329538BF2
:1054F80004BF928A43EA0243A360EB88A380204654
:10550800FFF7D2F9042804D00028DDD0DAE7042810
:10551800D8D10520D6E7092005B030BD98B1036879
:1055280010B504462BB11A781AB18188DA889142ED
:1055380001D0092010BD5878FEF7A8FE10F0010030
:10554800F7D1206010BD0920704700BF2DE9F04F4A
:1055580085B048B10368044633B11A7822B1DA88B5
:1055680089468188914205D04FF0090A504605B016
:10557800BDE8F08F5878FEF789FE10F0010AF3D1E4
:10558800B9F1000F00F0C180A6692768002E33D05A
:10559800FF230193984607F12C0BBB6AB34212D044
:1055A8007878012332465946FEF774FE50B14FF021
:1055B800FF320023BA62A3614FF0010A504605B0DA
:1055C800BDE8F08FBE62E369197899B1DA7AE52906
:1055D80002F03F02A27105D02E2903D022F020004C
:1055E800082878D125694FF0FF082035B5F5001F48
:1055F800236837D30023A36149462046FEF758FEA7
:10560800256926682035B5F5001F7BD2A369002BD4
:10561800ACD0C5F3080707BB61690133A361002952
:1056280000F0D9807389013B13EA552815D130461B
:10563800FFF7BEF8012840F2AF81431CBCD03369A4
:1056480098425FD2023B60610238984203D2728965
:10565800736A00FB0238C4F818802C363E44256172
:10566800E66183E7A669002EC4D0C5F3080222B11B
:105678002C3313442561E3618FE761690136A66124
:1056880049B91A89B2EB551FB4D92C332561E361A6
:10569800002E82D1B0E75A89013A12EA5522F4D194
:1056A800184603920293FFF783F8012840F29E8080
:1056B800421C25D0029B196988429BD2023960613D
:1056C80002388842039A80F08C805A895E6A00FB0F
:1056D8000266A661D9E70F2A40F08B804806256943
:1056E8000BD55A7B019201F0BF08E5625A7B0199FC
:1056F8008A4210D04FF0FF0877E74145FAD1F5E725
:105708004FF0010A0023A36130E7204605B0BDE849
:10571800F04FFFF7C9B85A8B002AEBD11A7822F05C
:105728004002013A02EB420102EB8102FF2AB3F880
:105738000110DFD8F86820F812104FEA420CB3F8CD
:105748000360002940F0A6804FF6FF729642D1D13F
:10575800B3F805E04FF6FF729645CBD1B3F8076072
:105768004FF6FF729642C5D1B3F809E04FF6FF72C3
:105778009645BFD1DE894FF6FF729642BAD1B3F88B
:1057880010E04FF6FF729645B4D15E8A4FF6FF726D
:105798009642AFD1B3F814E04FF6FF729645A9D1FF
:1057A800DE8A4FF6FF729642A4D1B3F818E04FF69E
:1057B800FF7296459ED19E8B4FF6FF72964299D105
:1057C800B3F81EE04FF6FF739E4593D108F1FF38FA
:1057D8005FFA88F809E73389B3EB551F3FF63DAF09
:1057E80090E72C33A2612561E36105E74FF0020AD7
:1057F80088E7B8F1000F49D1197858785D7ACA015D
:1058080042EA51020244C2F34601987841EAC211C1
:1058180050FA81F1C1F34602D87842EAC11250FA2F
:1058280082F2C2F34601187941EAC21150FA81F1B5
:10583800C1F34602587942EAC11250FA82F2C2F321
:105848004601987941EAC21150FA81F1C1F3460242
:10585800D87942EAC11250FA82F2C2F34601187AA4
:1058680041EAC21150FA81F1C1F3460242EAC1127B
:1058780055FA82F2987AC2F3460343EAC21350FA01
:1058880083F3019ADBB293423FF4B6AE4FF0FF3395
:10589800E362B1E6FF2A02F101013FF42BAF20F8E1
:1058A80011604900B3F805E0002E3FF453AFFE2A1B
:1058B8003FF420AF0144A1F802E0B3F80760BEF15D
:1058C800000F3FF44DAFFD2A3FF414AF8E80B3F8BC
:1058D80009E0002E3FF44AAFFC2A3FF40BAFA1F8D1
:1058E80006E0DE89BEF1000F3FF445AFFB2A3FF426
:1058F80001AF0E81B3F810E0002E3FF442AFFA2A50
:105908003FF4F8AEA1F80AE05E8ABEF1000F3FF45A
:105918003DAFF92A3FF4EEAE8E81B3F814E0002EC5
:105928003FF43AAFF82A3FF4E5AEA1F80EE0DE8A7C
:10593800BEF1000F3FF435AFF72A3FF4DBAE0E821D
:10594800B3F818E0002E3FF432AFF62A3FF4D2AE97
:10595800A1F812E09E8BBEF1000F3FF42DAFF52A9F
:105968003FF4C8AE8E82B3F81EE0002E3FF42AAF93
:10597800F42A3FF4BFAEA1F816E01B7859067FF56C
:1059880025AFBEF1000F3FF421AFF32A3FF4B2AECA
:1059980060440023438319E74FF0020AE6E500BF9D
:1059A8007F2801D880B27047B0F5803F03D240F21B
:1059B8006233994201D000207047064A002302E072
:1059C8000133802BF7D032F8021B8142F8D18033A3
:1059D80098B27047006B01087F2804D940F26233FF
:1059E800994201D000207047FF28FBD800F1004001
:1059F800024B803833F81000704700BF006B010875
:105A0800B0F5803F1ED2264B264A30B584B2B4F595
:105A1800805F38BF134604330DE08C4210D333F84F
:105A2800022C5FFA82FC0CEB010E70454FEA122241
:105A380009DB043382B133F8041C1D460029ECD17C
:105A4800204630BD7047082AFAD8DFE802F0241E45
:105A58001B1815120F0C080005EB4C03DBE7A4F527
:105A6800E354A4B2ECE7503CA4B2E9E70834A4B28A
:105A7800E6E71A3CA4B2E3E7303CA4B2E0E7203CF6
:105A8800A4B2DDE7103CA4B2DAE7631A03F001031D
:105A9800E31A9CB2D4E7401A33F81040D0E700BFAD
:105AA800506801080C69010870B483B03F4CFF23AB
:105AB8008DF80730A36D23F00103A365236F23F04E
:105AC80001030E462367A36DDB07FCD4236FDD07B4
